{
  "contracts/TetradWallet.sol": {
    "TetradWallet": {
      "abi": [
        {
          "inputs": [
            {
              "internalType": "contract IERC20",
              "name": "depositedAsset",
              "type": "address"
            }
          ],
          "stateMutability": "nonpayable",
          "type": "constructor"
        },
        {
          "anonymous": false,
          "inputs": [
            {
              "indexed": false,
              "internalType": "uint256",
              "name": "nonce",
              "type": "uint256"
            },
            {
              "indexed": false,
              "internalType": "address",
              "name": "who",
              "type": "address"
            },
            {
              "indexed": false,
              "internalType": "uint256",
              "name": "amount",
              "type": "uint256"
            }
          ],
          "name": "AdminDeposit",
          "type": "event"
        },
        {
          "anonymous": false,
          "inputs": [
            {
              "indexed": false,
              "internalType": "uint256",
              "name": "nonce",
              "type": "uint256"
            },
            {
              "indexed": false,
              "internalType": "address",
              "name": "who",
              "type": "address"
            },
            {
              "indexed": false,
              "internalType": "uint256",
              "name": "amount",
              "type": "uint256"
            }
          ],
          "name": "AdminWithdraw",
          "type": "event"
        },
        {
          "anonymous": false,
          "inputs": [
            {
              "indexed": false,
              "internalType": "address",
              "name": "behalfOf",
              "type": "address"
            },
            {
              "indexed": false,
              "internalType": "address",
              "name": "spender",
              "type": "address"
            },
            {
              "indexed": false,
              "internalType": "uint256",
              "name": "amount",
              "type": "uint256"
            }
          ],
          "name": "Approval",
          "type": "event"
        },
        {
          "anonymous": false,
          "inputs": [
            {
              "indexed": false,
              "internalType": "uint256",
              "name": "nonce",
              "type": "uint256"
            },
            {
              "indexed": false,
              "internalType": "address",
              "name": "behalfOf",
              "type": "address"
            },
            {
              "indexed": false,
              "internalType": "address",
              "name": "spender",
              "type": "address"
            },
            {
              "indexed": false,
              "internalType": "uint256",
              "name": "amount",
              "type": "uint256"
            }
          ],
          "name": "Deposit",
          "type": "event"
        },
        {
          "anonymous": false,
          "inputs": [
            {
              "indexed": false,
              "internalType": "uint256",
              "name": "to",
              "type": "uint256"
            }
          ],
          "name": "NonceIncrease",
          "type": "event"
        },
        {
          "anonymous": false,
          "inputs": [
            {
              "indexed": true,
              "internalType": "address",
              "name": "previousOwner",
              "type": "address"
            },
            {
              "indexed": true,
              "internalType": "address",
              "name": "newOwner",
              "type": "address"
            }
          ],
          "name": "OwnershipTransferred",
          "type": "event"
        },
        {
          "anonymous": false,
          "inputs": [
            {
              "indexed": false,
              "internalType": "uint256",
              "name": "nonce",
              "type": "uint256"
            },
            {
              "indexed": false,
              "internalType": "address",
              "name": "behalfOf",
              "type": "address"
            },
            {
              "indexed": false,
              "internalType": "address",
              "name": "spender",
              "type": "address"
            },
            {
              "indexed": false,
              "internalType": "uint256",
              "name": "amount",
              "type": "uint256"
            },
            {
              "indexed": false,
              "internalType": "uint256",
              "name": "fee",
              "type": "uint256"
            }
          ],
          "name": "Withdraw",
          "type": "event"
        },
        {
          "inputs": [
            {
              "internalType": "uint256",
              "name": "amount",
              "type": "uint256"
            }
          ],
          "name": "adminDeposit",
          "outputs": [],
          "stateMutability": "nonpayable",
          "type": "function"
        },
        {
          "inputs": [
            {
              "internalType": "uint256",
              "name": "fee",
              "type": "uint256"
            },
            {
              "internalType": "uint256",
              "name": "unlockMin",
              "type": "uint256"
            },
            {
              "internalType": "uint256",
              "name": "unlockMax",
              "type": "uint256"
            }
          ],
          "name": "adminSettings",
          "outputs": [],
          "stateMutability": "nonpayable",
          "type": "function"
        },
        {
          "inputs": [
            {
              "internalType": "uint256",
              "name": "amount",
              "type": "uint256"
            }
          ],
          "name": "adminWithdraw",
          "outputs": [],
          "stateMutability": "nonpayable",
          "type": "function"
        },
        {
          "inputs": [
            {
              "internalType": "address",
              "name": "",
              "type": "address"
            },
            {
              "internalType": "address",
              "name": "",
              "type": "address"
            }
          ],
          "name": "allowance",
          "outputs": [
            {
              "internalType": "uint256",
              "name": "",
              "type": "uint256"
            }
          ],
          "stateMutability": "view",
          "type": "function"
        },
        {
          "inputs": [
            {
              "internalType": "address",
              "name": "spender",
              "type": "address"
            },
            {
              "internalType": "uint256",
              "name": "amount",
              "type": "uint256"
            }
          ],
          "name": "approve",
          "outputs": [
            {
              "internalType": "bool",
              "name": "",
              "type": "bool"
            }
          ],
          "stateMutability": "nonpayable",
          "type": "function"
        },
        {
          "inputs": [],
          "name": "asset",
          "outputs": [
            {
              "internalType": "contract IERC20",
              "name": "",
              "type": "address"
            }
          ],
          "stateMutability": "view",
          "type": "function"
        },
        {
          "inputs": [
            {
              "internalType": "address",
              "name": "collector",
              "type": "address"
            }
          ],
          "name": "availableToWithdraw",
          "outputs": [
            {
              "internalType": "uint256",
              "name": "",
              "type": "uint256"
            }
          ],
          "stateMutability": "view",
          "type": "function"
        },
        {
          "inputs": [
            {
              "internalType": "address",
              "name": "collector",
              "type": "address"
            }
          ],
          "name": "availableToWithdrawWithFee",
          "outputs": [
            {
              "internalType": "uint256",
              "name": "",
              "type": "uint256"
            }
          ],
          "stateMutability": "view",
          "type": "function"
        },
        {
          "inputs": [
            {
              "internalType": "address",
              "name": "collector",
              "type": "address"
            }
          ],
          "name": "balanceToCollect",
          "outputs": [
            {
              "internalType": "uint256",
              "name": "",
              "type": "uint256"
            }
          ],
          "stateMutability": "view",
          "type": "function"
        },
        {
          "inputs": [],
          "name": "collect",
          "outputs": [],
          "stateMutability": "nonpayable",
          "type": "function"
        },
        {
          "inputs": [
            {
              "internalType": "address",
              "name": "behalfOf",
              "type": "address"
            }
          ],
          "name": "collectOnBehalfOf",
          "outputs": [],
          "stateMutability": "nonpayable",
          "type": "function"
        },
        {
          "inputs": [
            {
              "internalType": "uint256",
              "name": "amount",
              "type": "uint256"
            }
          ],
          "name": "deposit",
          "outputs": [],
          "stateMutability": "nonpayable",
          "type": "function"
        },
        {
          "inputs": [
            {
              "internalType": "address",
              "name": "behalfOf",
              "type": "address"
            },
            {
              "internalType": "uint256",
              "name": "amount",
              "type": "uint256"
            }
          ],
          "name": "depositOnBehalfOf",
          "outputs": [],
          "stateMutability": "nonpayable",
          "type": "function"
        },
        {
          "inputs": [],
          "name": "getUnlockTime",
          "outputs": [
            {
              "internalType": "uint256",
              "name": "",
              "type": "uint256"
            }
          ],
          "stateMutability": "view",
          "type": "function"
        },
        {
          "inputs": [],
          "name": "isLocked",
          "outputs": [
            {
              "internalType": "bool",
              "name": "",
              "type": "bool"
            }
          ],
          "stateMutability": "view",
          "type": "function"
        },
        {
          "inputs": [],
          "name": "lastMonthChange",
          "outputs": [
            {
              "internalType": "uint256",
              "name": "",
              "type": "uint256"
            }
          ],
          "stateMutability": "view",
          "type": "function"
        },
        {
          "inputs": [],
          "name": "lastYearChange",
          "outputs": [
            {
              "internalType": "uint256",
              "name": "",
              "type": "uint256"
            }
          ],
          "stateMutability": "view",
          "type": "function"
        },
        {
          "inputs": [
            {
              "internalType": "uint256",
              "name": "time",
              "type": "uint256"
            }
          ],
          "name": "lock",
          "outputs": [],
          "stateMutability": "nonpayable",
          "type": "function"
        },
        {
          "inputs": [],
          "name": "nonce",
          "outputs": [
            {
              "internalType": "uint256",
              "name": "",
              "type": "uint256"
            }
          ],
          "stateMutability": "view",
          "type": "function"
        },
        {
          "inputs": [],
          "name": "owner",
          "outputs": [
            {
              "internalType": "address",
              "name": "",
              "type": "address"
            }
          ],
          "stateMutability": "view",
          "type": "function"
        },
        {
          "inputs": [
            {
              "internalType": "uint256",
              "name": "",
              "type": "uint256"
            }
          ],
          "name": "pendingDeposited",
          "outputs": [
            {
              "internalType": "uint256",
              "name": "",
              "type": "uint256"
            }
          ],
          "stateMutability": "view",
          "type": "function"
        },
        {
          "inputs": [
            {
              "internalType": "uint256",
              "name": "",
              "type": "uint256"
            },
            {
              "internalType": "address",
              "name": "",
              "type": "address"
            }
          ],
          "name": "pendingShare",
          "outputs": [
            {
              "internalType": "uint256",
              "name": "",
              "type": "uint256"
            }
          ],
          "stateMutability": "view",
          "type": "function"
        },
        {
          "inputs": [],
          "name": "renounceOwnership",
          "outputs": [],
          "stateMutability": "nonpayable",
          "type": "function"
        },
        {
          "inputs": [
            {
              "internalType": "address",
              "name": "",
              "type": "address"
            }
          ],
          "name": "share",
          "outputs": [
            {
              "internalType": "uint256",
              "name": "",
              "type": "uint256"
            }
          ],
          "stateMutability": "view",
          "type": "function"
        },
        {
          "inputs": [],
          "name": "takeProfit",
          "outputs": [],
          "stateMutability": "nonpayable",
          "type": "function"
        },
        {
          "inputs": [
            {
              "internalType": "address",
              "name": "behalfOf",
              "type": "address"
            }
          ],
          "name": "takeProfitOnBehalfOf",
          "outputs": [],
          "stateMutability": "nonpayable",
          "type": "function"
        },
        {
          "inputs": [],
          "name": "totalDeposited",
          "outputs": [
            {
              "internalType": "uint256",
              "name": "",
              "type": "uint256"
            }
          ],
          "stateMutability": "view",
          "type": "function"
        },
        {
          "inputs": [
            {
              "internalType": "address",
              "name": "newOwner",
              "type": "address"
            }
          ],
          "name": "transferOwnership",
          "outputs": [],
          "stateMutability": "nonpayable",
          "type": "function"
        },
        {
          "inputs": [
            {
              "internalType": "address",
              "name": "collector",
              "type": "address"
            }
          ],
          "name": "unavailableToWithdraw",
          "outputs": [
            {
              "internalType": "uint256",
              "name": "",
              "type": "uint256"
            }
          ],
          "stateMutability": "view",
          "type": "function"
        },
        {
          "inputs": [
            {
              "internalType": "address",
              "name": "collector",
              "type": "address"
            }
          ],
          "name": "unavailableToWithdrawWithFee",
          "outputs": [
            {
              "internalType": "uint256",
              "name": "",
              "type": "uint256"
            }
          ],
          "stateMutability": "view",
          "type": "function"
        },
        {
          "inputs": [],
          "name": "unlock",
          "outputs": [],
          "stateMutability": "nonpayable",
          "type": "function"
        },
        {
          "inputs": [],
          "name": "unlockDayMax",
          "outputs": [
            {
              "internalType": "uint256",
              "name": "",
              "type": "uint256"
            }
          ],
          "stateMutability": "view",
          "type": "function"
        },
        {
          "inputs": [],
          "name": "unlockDayMin",
          "outputs": [
            {
              "internalType": "uint256",
              "name": "",
              "type": "uint256"
            }
          ],
          "stateMutability": "view",
          "type": "function"
        },
        {
          "inputs": [
            {
              "internalType": "uint256",
              "name": "amount",
              "type": "uint256"
            }
          ],
          "name": "withdraw",
          "outputs": [],
          "stateMutability": "nonpayable",
          "type": "function"
        },
        {
          "inputs": [],
          "name": "withdrawFee",
          "outputs": [
            {
              "internalType": "uint256",
              "name": "",
              "type": "uint256"
            }
          ],
          "stateMutability": "view",
          "type": "function"
        },
        {
          "inputs": [
            {
              "internalType": "uint256",
              "name": "amount",
              "type": "uint256"
            }
          ],
          "name": "withdrawIgnoreLosses",
          "outputs": [],
          "stateMutability": "nonpayable",
          "type": "function"
        },
        {
          "inputs": [
            {
              "internalType": "address",
              "name": "behalfOf",
              "type": "address"
            },
            {
              "internalType": "uint256",
              "name": "amount",
              "type": "uint256"
            }
          ],
          "name": "withdrawIgnoreLossesOnBehalfOf",
          "outputs": [],
          "stateMutability": "nonpayable",
          "type": "function"
        },
        {
          "inputs": [],
          "name": "withdrawInitialMinusFee",
          "outputs": [],
          "stateMutability": "nonpayable",
          "type": "function"
        },
        {
          "inputs": [
            {
              "internalType": "address",
              "name": "behalfOf",
              "type": "address"
            }
          ],
          "name": "withdrawInitialMinusFeeOnBehalfOf",
          "outputs": [],
          "stateMutability": "nonpayable",
          "type": "function"
        },
        {
          "inputs": [
            {
              "internalType": "address",
              "name": "behalfOf",
              "type": "address"
            },
            {
              "internalType": "uint256",
              "name": "amount",
              "type": "uint256"
            }
          ],
          "name": "withdrawOnBehalfOf",
          "outputs": [],
          "stateMutability": "nonpayable",
          "type": "function"
        }
      ],
      "evm": {
        "bytecode": {
          "linkReferences": {},
          "object": "608060405234801561001057600080fd5b506040516120ee3803806120ee83398101604081905261002f916100a4565b600080546001600160a01b031916339081178255604051909182917f8be0079c531659141344cd1fd0a4f28419497f9722a3daafe3b4186f6b6457e0908290a35060a560065560016007556005600855600e80546001600160a01b0319166001600160a01b03929092169190911790556100d4565b6000602082840312156100b657600080fd5b81516001600160a01b03811681146100cd57600080fd5b9392505050565b61200b806100e36000396000f3fe608060405234801561001057600080fd5b50600436106102475760003560e01c80638da5cb5b1161013b578063d1ad6bbb116100b8578063e52253811161007c578063e522538114610500578063e941fa7814610508578063f2fde38b14610511578063feccd32314610524578063ff50abdc1461052d57600080fd5b8063d1ad6bbb14610489578063d5ea22e81461049c578063dd467064146104af578063dd62ed3e146104c2578063e2618f5c146104ed57600080fd5b8063affed0e0116100ff578063affed0e01461041c578063b6b55f2514610425578063b7990a4e14610438578063bfb8c52d1461044b578063cf4b55cb1461045e57600080fd5b80638da5cb5b146103c8578063a25db8ce146103d9578063a4312f18146103ec578063a4e2d6341461040c578063a69df4b51461041457600080fd5b80635019f900116101c957806366a1ac261161018d57806366a1ac261461037f57806370c1057814610392578063715018a61461039a57806372329ae9146103a25780637c5b4a37146103b557600080fd5b80635019f9001461034a5780635c2839df146103535780635c79d2d11461035b578063602bc62b1461036457806363c766e81461036c57600080fd5b80632cd4e7d2116102105780632cd4e7d2146102d35780632e1a7d4d146102e657806337ded170146102f957806338d52e0f1461030c5780633ca4d9f41461033757600080fd5b80625a58b11461024c5780630868779414610268578063095ea7b31461027d57806314214025146102a05780631877bb5c146102b3575b600080fd5b61025560085481565b6040519081526020015b60405180910390f35b61027b610276366004611c72565b610536565b005b61029061028b366004611ca7565b610715565b604051901515815260200161025f565b6102556102ae366004611cd1565b61072b565b6102556102c1366004611cd1565b600b6020526000908152604090205481565b6102556102e1366004611cd1565b610753565b61027b6102f4366004611c72565b6107d6565b61027b610307366004611cd1565b6107e3565b600e5461031f906001600160a01b031681565b6040516001600160a01b03909116815260200161025f565b61027b610345366004611ca7565b610842565b61025560055481565b61027b6109c5565b61025560045481565b600254610255565b61027b61037a366004611c72565b6109d0565b61025561038d366004611cd1565b6109da565b61027b610b07565b61027b610b10565b61027b6103b0366004611ca7565b610b72565b61027b6103c3366004611c72565b611159565b6000546001600160a01b031661031f565b6102556103e7366004611cd1565b6112d5565b6102556103fa366004611c72565b600a6020526000908152604090205481565b61029061132d565b61027b611352565b61025560095481565b61027b610433366004611c72565b611458565b61027b610446366004611cec565b611462565b61027b610459366004611cd1565b6115ee565b61025561046c366004611d18565b600c60209081526000928352604080842090915290825290205481565b61027b610497366004611ca7565b611707565b6102556104aa366004611cd1565b61172e565b61027b6104bd366004611c72565b61177a565b6102556104d0366004611d44565b600d60209081526000928352604080842090915290825290205481565b61027b6104fb366004611cd1565b6117ff565b61027b61180c565b61025560065481565b61027b61051f366004611cd1565b611815565b61025560075481565b61025560035481565b6000546001600160a01b031633146105695760405162461bcd60e51b815260040161056090611d6e565b60405180910390fd5b61057161132d565b6105bd5760405162461bcd60e51b815260206004820181905260248201527f43616e206f6e6c79206d6f76652066756e6473207768656e206c6f636b65642e6044820152606401610560565b6000806105c9426118ed565b5091509150816005541415806105e157508060045414155b1561064257600582905560048190556009805460019190600090610606908490611db9565b90915550506009546040519081527f6f7839fd5911baac2dbc722962a0d38f7d09c5519b195dbf03e4cc27f890efc39060200160405180910390a15b6009546040805191825233602083015281018490527fdc4c93400ef75e0372536dbbd59f526428ac9b64f683c3178a1398e1f99266799060600160405180910390a1600e546040516323b872dd60e01b8152336004820152306024820152604481018590526001600160a01b03909116906323b872dd906064015b602060405180830381600087803b1580156106d757600080fd5b505af11580156106eb573d6000803e3d6000fd5b505050506040513d601f19601f8201168201806040525081019061070f9190611dd1565b50505050565b6000610722338484611913565b50600192915050565b60008061073661132d565b1561074957610744836109da565b61074c565b60005b9392505050565b6009546000908152600c602090815260408083206001600160a01b03851684529091528120548161078261132d565b6107945761078f846109da565b610797565b60005b90506000612710600654836107ac9190611df3565b6107b69190611e28565b9050806107c38385611db9565b6107cd9190611e3c565b95945050505050565b6107e03382610b72565b50565b60006107ee826112d5565b6001600160a01b0383166000908152600b6020526040902054909150811115610839576001600160a01b0382166000908152600b6020526040902054610835908390610b72565b5050565b610835826117ff565b80600360008282546108549190611db9565b90915550506001600160a01b0382166000908152600b602052604081208054839290610881908490611db9565b90915550506009546000908152600a6020526040812080548392906108a7908490611db9565b90915550506009546000908152600c602090815260408083206001600160a01b0386168452909152812080548392906108e1908490611db9565b9091555050600954604080519182526001600160a01b0384166020830152338282015260608201839052517f2c0f148b435140de488c1b34647f1511c646f7077e87007bacf22ef9977a16d89181900360800190a1600e546040516323b872dd60e01b8152336004820152306024820152604481018390526001600160a01b03909116906323b872dd90606401602060405180830381600087803b15801561098857600080fd5b505af115801561099c573d6000803e3d6000fd5b505050506040513d601f19601f820116820180604052508101906109c09190611dd1565b505050565b6109ce336107e3565b565b6107e03382611707565b6009546000908152600a602052604081205460035414156109fd57506000919050565b6009546000908152600a6020526040902054600354610a1c9190611e3c565b6009546000908152600c602090815260408083206001600160a01b0387168452825280832054600b90925290912054610a559190611e3c565b6009546000908152600a60205260409081902054600e5491516370a0823160e01b815230600482015290916001600160a01b0316906370a082319060240160206040518083038186803b158015610aab57600080fd5b505afa158015610abf573d6000803e3d6000fd5b505050506040513d601f19601f82011682018060405250810190610ae39190611e53565b610aed9190611e3c565b610af79190611df3565b610b019190611e28565b92915050565b6109ce336115ee565b6000546001600160a01b03163314610b3a5760405162461bcd60e51b815260040161056090611d6e565b600080546040516001600160a01b0390911690600080516020611fb6833981519152908390a3600080546001600160a01b0319169055565b336001600160a01b038316811480610bae57506001600160a01b038084166000908152600d602090815260408083209385168352929052205415155b610bec5760405162461bcd60e51b815260206004820152600f60248201526e2737ba1030baba3437b934bd32b21760891b6044820152606401610560565b60008211610c315760405162461bcd60e51b81526020600482015260126024820152710416d6f756e74206d757374206265203e20360741b6044820152606401610560565b6000610c3b61132d565b6009546000908152600c602090815260408083206001600160a01b038916845290915281205491925082610c7757610c72866109da565b610c7a565b60005b90506000610c888284611db9565b9050600081118015610c9a5750808611155b610ce65760405162461bcd60e51b815260206004820152601b60248201527f496e73756666696369656e7420746f74616c2062616c616e63652e00000000006044820152606401610560565b6000838711610cf55786610cf7565b835b90506000610d058289611e3c565b905087610d128284611db9565b14610d1f57610d1f611e6c565b8115610e71576009546000908152600a602052604081208054849290610d46908490611e3c565b90915550506009546000908152600c602090815260408083206001600160a01b038d16845290915281208054849290610d80908490611e3c565b925050819055508160036000828254610d999190611e3c565b90915550506001600160a01b0389166000908152600b602052604081208054849290610dc6908490611e3c565b90915550506001600160a01b0389811690881614610de957610de9898884611a54565b600e5460405163a9059cbb60e01b81526001600160a01b038b81166004830152602482018590529091169063a9059cbb90604401602060405180830381600087803b158015610e3757600080fd5b505af1158015610e4b573d6000803e3d6000fd5b505050506040513d601f19601f82011682018060405250810190610e6f9190611dd1565b505b80156110f4576001600160a01b0389166000908152600b60205260409020546003548591610e9e91611e3c565b610ea89190611db9565b60039081556001600160a01b038a166000908152600b60205260408120869055815483929190610ed9908490611e3c565b90915550506001600160a01b0389166000908152600b602052604081208054839290610f06908490611e3c565b909155505060065460009061271090610f1f9084611df3565b610f299190611e28565b90508015610fd657600e546001600160a01b031663a9059cbb610f546000546001600160a01b031690565b6040516001600160e01b031960e084901b1681526001600160a01b03909116600482015260248101849052604401602060405180830381600087803b158015610f9c57600080fd5b505af1158015610fb0573d6000803e3d6000fd5b505050506040513d601f19601f82011682018060405250810190610fd49190611dd1565b505b876001600160a01b03168a6001600160a01b031614610ffa57610ffa8a8984611a54565b600e546001600160a01b031663a9059cbb8b6110168486611e3c565b6040516001600160e01b031960e085901b1681526001600160a01b0390921660048301526024820152604401602060405180830381600087803b15801561105c57600080fd5b505af1158015611070573d6000803e3d6000fd5b505050506040513d601f19601f820116820180604052508101906110949190611dd1565b50600954604080519182526001600160a01b038c811660208401528a1682820152606082018b905260808201839052517ffe7813e2866053d5c3938554e517b554fce6666a6561bed9eaa7419b29fa9b689181900360a00190a15061114e565b600954604080519182526001600160a01b038b81166020840152891682820152606082018a905260006080830152517ffe7813e2866053d5c3938554e517b554fce6666a6561bed9eaa7419b29fa9b689181900360a00190a15b505050505050505050565b6000546001600160a01b031633146111835760405162461bcd60e51b815260040161056090611d6e565b61118b61132d565b6111d75760405162461bcd60e51b815260206004820181905260248201527f43616e206f6e6c79206d6f76652066756e6473207768656e206c6f636b65642e6044820152606401610560565b6000806111e3426118ed565b5091509150816005541415806111fb57508060045414155b1561125c57600582905560048190556009805460019190600090611220908490611db9565b90915550506009546040519081527f6f7839fd5911baac2dbc722962a0d38f7d09c5519b195dbf03e4cc27f890efc39060200160405180910390a15b6009546040805191825233602083015281018490527f3283abdb05cff705bd4faab57c532a3d4bfe5c83685e9c69e83d459bb88fb0739060600160405180910390a1600e5460405163a9059cbb60e01b8152336004820152602481018590526001600160a01b039091169063a9059cbb906044016106bd565b6009546000908152600c602090815260408083206001600160a01b03851684529091528120548161130461132d565b61131657611311846109da565b611319565b60005b90506113258183611db9565b949350505050565b60008061133942611aec565b905060075481108061134c575060085481115b91505090565b6001546001600160a01b031633146113b85760405162461bcd60e51b815260206004820152602360248201527f596f7520646f6e27742068617665207065726d697373696f6e20746f20756e6c6044820152626f636b60e81b6064820152608401610560565b60025442116114095760405162461bcd60e51b815260206004820152601f60248201527f436f6e7472616374206973206c6f636b656420756e74696c20372064617973006044820152606401610560565b600154600080546040516001600160a01b039384169390911691600080516020611fb683398151915291a3600154600080546001600160a01b0319166001600160a01b03909216919091179055565b6107e03382610842565b6000546001600160a01b0316331461148c5760405162461bcd60e51b815260040161056090611d6e565b6102588311156114f65760405162461bcd60e51b815260206004820152602f60248201527f576974686472617720666565206d757374206265206c6f776572206f7220657160448201526e3ab0b6103a37903a3430b7101b129760891b6064820152608401610560565b818110156115625760405162461bcd60e51b815260206004820152603360248201527f556e6c6f636b20646179206d6178206d757374206265206772656174657220746044820152723430b7103ab73637b1b5903230bc9036b4b71760691b6064820152608401610560565b6001600754101580156115785750601c60085411155b6115e05760405162461bcd60e51b815260206004820152603360248201527f556e6c6f636b2074696d65206d75737420626520617420612074696d6520746860448201527230ba1030b6361036b7b73a3439903430bb329760691b6064820152608401610560565b600692909255600755600855565b6115f661132d565b156116435760405162461bcd60e51b815260206004820152601d60248201527f43616e6e6f742074616b652070726f666974206966206c6f636b65642e0000006044820152606401610560565b600061164e826109da565b6001600160a01b0383166000908152600b602052604090205490915081116116de5760405162461bcd60e51b815260206004820152603760248201527f43616e27742074616b652070726f666974206f6e206c6f737365732f64656c7460448201527f61206e65757472616c2f70656e64696e67206f6e6c792e0000000000000000006064820152608401610560565b6001600160a01b0382166000908152600b60205260409020546108359083906103b09084611e3c565b6000611712836112d5565b9050808210611724576109c0836117ff565b6109c08383610b72565b60008061173961132d565b1561174c57611747836109da565b61174f565b60005b90506000612710600654836117649190611df3565b61176e9190611e28565b90506113258183611e3c565b6000546001600160a01b031633146117a45760405162461bcd60e51b815260040161056090611d6e565b60008054600180546001600160a01b03199081166001600160a01b038416179091551690556117d38142611db9565b600255600080546040516001600160a01b0390911690600080516020611fb6833981519152908390a350565b6107e0816103b0836112d5565b6109ce336117ff565b6000546001600160a01b0316331461183f5760405162461bcd60e51b815260040161056090611d6e565b6001600160a01b0381166118a45760405162461bcd60e51b815260206004820152602660248201527f4f776e61626c653a206e6577206f776e657220697320746865207a65726f206160448201526564647265737360d01b6064820152608401610560565b600080546040516001600160a01b0380851693921691600080516020611fb683398151915291a3600080546001600160a01b0319166001600160a01b0392909216919091179055565b600080806119066119016201518086611e28565b611afe565b9196909550909350915050565b6001600160a01b03831661197d5760405162461bcd60e51b815260206004820152602b60248201527f54657472616457616c6c65743a20617070726f76652066726f6d20746865207a60448201526a65726f206164647265737360a81b6064820152608401610560565b6001600160a01b0382166119e55760405162461bcd60e51b815260206004820152602960248201527f54657472616457616c6c65743a20617070726f766520746f20746865207a65726044820152686f206164647265737360b81b6064820152608401610560565b6001600160a01b038381166000818152600d602090815260408083209487168084529482529182902085905581519283528201929092529081018290527f8c5be1e5ebec7d5bd14f71427d1e84f3dd0314c0f7b2291e5b200ac8c7c3b9259060600160405180910390a1505050565b6001600160a01b038084166000908152600d6020908152604080832093861683529290522054600019811461070f5781811015611adf5760405162461bcd60e51b8152602060048201526024808201527f54657472616457616c6c65743a20696e73756666696369656e7420616c6c6f77604482015263616e636560e01b6064820152608401610560565b61070f8484848403611913565b60006113256119016201518084611e28565b60008080838162253d8c611b158362010bd9611e82565b611b1f9190611e82565b9050600062023ab1611b32836004611ec3565b611b3c9190611f48565b90506004611b4d8262023ab1611ec3565b611b58906003611e82565b611b629190611f48565b611b6c9083611f76565b9150600062164b09611b7f846001611e82565b611b8b90610fa0611ec3565b611b959190611f48565b90506004611ba5826105b5611ec3565b611baf9190611f48565b611bb99084611f76565b611bc490601f611e82565b9250600061098f611bd6856050611ec3565b611be09190611f48565b905060006050611bf28361098f611ec3565b611bfc9190611f48565b611c069086611f76565b9050611c13600b83611f48565b9450611c2085600c611ec3565b611c2b836002611e82565b611c359190611f76565b91508483611c44603187611f76565b611c4f906064611ec3565b611c599190611e82565b611c639190611e82565b9a919950975095505050505050565b600060208284031215611c8457600080fd5b5035919050565b80356001600160a01b0381168114611ca257600080fd5b919050565b60008060408385031215611cba57600080fd5b611cc383611c8b565b946020939093013593505050565b600060208284031215611ce357600080fd5b61074c82611c8b565b600080600060608486031215611d0157600080fd5b505081359360208301359350604090920135919050565b60008060408385031215611d2b57600080fd5b82359150611d3b60208401611c8b565b90509250929050565b60008060408385031215611d5757600080fd5b611d6083611c8b565b9150611d3b60208401611c8b565b6020808252818101527f4f776e61626c653a2063616c6c6572206973206e6f7420746865206f776e6572604082015260600190565b634e487b7160e01b600052601160045260246000fd5b60008219821115611dcc57611dcc611da3565b500190565b600060208284031215611de357600080fd5b8151801515811461074c57600080fd5b6000816000190483118215151615611e0d57611e0d611da3565b500290565b634e487b7160e01b600052601260045260246000fd5b600082611e3757611e37611e12565b500490565b600082821015611e4e57611e4e611da3565b500390565b600060208284031215611e6557600080fd5b5051919050565b634e487b7160e01b600052600160045260246000fd5b600080821280156001600160ff1b0384900385131615611ea457611ea4611da3565b600160ff1b8390038412811615611ebd57611ebd611da3565b50500190565b60006001600160ff1b0381841382841380821686840486111615611ee957611ee9611da3565b600160ff1b6000871282811687830589121615611f0857611f08611da3565b60008712925087820587128484161615611f2457611f24611da3565b87850587128184161615611f3a57611f3a611da3565b505050929093029392505050565b600082611f5757611f57611e12565b600160ff1b821460001984141615611f7157611f71611da3565b500590565b60008083128015600160ff1b850184121615611f9457611f94611da3565b6001600160ff1b0384018313811615611faf57611faf611da3565b5050039056fe8be0079c531659141344cd1fd0a4f28419497f9722a3daafe3b4186f6b6457e0a2646970667358221220b9ab77e3d6c5e36386bdd2524306f7f1f031c493be4eb567c4216bfc87a68b0f64736f6c63430008090033",
          "opcodes": "PUSH1 0x80 PUSH1 0x40 MSTORE CALLVALUE DUP1 ISZERO PUSH2 0x10 JUMPI PUSH1 0x0 DUP1 REVERT JUMPDEST POP PUSH1 0x40 MLOAD PUSH2 0x20EE CODESIZE SUB DUP1 PUSH2 0x20EE DUP4 CODECOPY DUP2 ADD PUSH1 0x40 DUP2 SWAP1 MSTORE PUSH2 0x2F SWAP2 PUSH2 0xA4 JUMP JUMPDEST PUSH1 0x0 DUP1 SLOAD PUSH1 0x1 PUSH1 0x1 PUSH1 0xA0 SHL SUB NOT AND CALLER SWAP1 DUP2 OR DUP3 SSTORE PUSH1 0x40 MLOAD SWAP1 SWAP2 DUP3 SWAP2 PUSH32 0x8BE0079C531659141344CD1FD0A4F28419497F9722A3DAAFE3B4186F6B6457E0 SWAP1 DUP3 SWAP1 LOG3 POP PUSH1 0xA5 PUSH1 0x6 SSTORE PUSH1 0x1 PUSH1 0x7 SSTORE PUSH1 0x5 PUSH1 0x8 SSTORE PUSH1 0xE DUP1 SLOAD PUSH1 0x1 PUSH1 0x1 PUSH1 0xA0 SHL SUB NOT AND PUSH1 0x1 PUSH1 0x1 PUSH1 0xA0 SHL SUB SWAP3 SWAP1 SWAP3 AND SWAP2 SWAP1 SWAP2 OR SWAP1 SSTORE PUSH2 0xD4 JUMP JUMPDEST PUSH1 0x0 PUSH1 0x20 DUP3 DUP5 SUB SLT ISZERO PUSH2 0xB6 JUMPI PUSH1 0x0 DUP1 REVERT JUMPDEST DUP2 MLOAD PUSH1 0x1 PUSH1 0x1 PUSH1 0xA0 SHL SUB DUP2 AND DUP2 EQ PUSH2 0xCD JUMPI PUSH1 0x0 DUP1 REVERT JUMPDEST SWAP4 SWAP3 POP POP POP JUMP JUMPDEST PUSH2 0x200B DUP1 PUSH2 0xE3 PUSH1 0x0 CODECOPY PUSH1 0x0 RETURN INVALID PUSH1 0x80 PUSH1 0x40 MSTORE CALLVALUE DUP1 ISZERO PUSH2 0x10 JUMPI PUSH1 0x0 DUP1 REVERT JUMPDEST POP PUSH1 0x4 CALLDATASIZE LT PUSH2 0x247 JUMPI PUSH1 0x0 CALLDATALOAD PUSH1 0xE0 SHR DUP1 PUSH4 0x8DA5CB5B GT PUSH2 0x13B JUMPI DUP1 PUSH4 0xD1AD6BBB GT PUSH2 0xB8 JUMPI DUP1 PUSH4 0xE5225381 GT PUSH2 0x7C JUMPI DUP1 PUSH4 0xE5225381 EQ PUSH2 0x500 JUMPI DUP1 PUSH4 0xE941FA78 EQ PUSH2 0x508 JUMPI DUP1 PUSH4 0xF2FDE38B EQ PUSH2 0x511 JUMPI DUP1 PUSH4 0xFECCD323 EQ PUSH2 0x524 JUMPI DUP1 PUSH4 0xFF50ABDC EQ PUSH2 0x52D JUMPI PUSH1 0x0 DUP1 REVERT JUMPDEST DUP1 PUSH4 0xD1AD6BBB EQ PUSH2 0x489 JUMPI DUP1 PUSH4 0xD5EA22E8 EQ PUSH2 0x49C JUMPI DUP1 PUSH4 0xDD467064 EQ PUSH2 0x4AF JUMPI DUP1 PUSH4 0xDD62ED3E EQ PUSH2 0x4C2 JUMPI DUP1 PUSH4 0xE2618F5C EQ PUSH2 0x4ED JUMPI PUSH1 0x0 DUP1 REVERT JUMPDEST DUP1 PUSH4 0xAFFED0E0 GT PUSH2 0xFF JUMPI DUP1 PUSH4 0xAFFED0E0 EQ PUSH2 0x41C JUMPI DUP1 PUSH4 0xB6B55F25 EQ PUSH2 0x425 JUMPI DUP1 PUSH4 0xB7990A4E EQ PUSH2 0x438 JUMPI DUP1 PUSH4 0xBFB8C52D EQ PUSH2 0x44B JUMPI DUP1 PUSH4 0xCF4B55CB EQ PUSH2 0x45E JUMPI PUSH1 0x0 DUP1 REVERT JUMPDEST DUP1 PUSH4 0x8DA5CB5B EQ PUSH2 0x3C8 JUMPI DUP1 PUSH4 0xA25DB8CE EQ PUSH2 0x3D9 JUMPI DUP1 PUSH4 0xA4312F18 EQ PUSH2 0x3EC JUMPI DUP1 PUSH4 0xA4E2D634 EQ PUSH2 0x40C JUMPI DUP1 PUSH4 0xA69DF4B5 EQ PUSH2 0x414 JUMPI PUSH1 0x0 DUP1 REVERT JUMPDEST DUP1 PUSH4 0x5019F900 GT PUSH2 0x1C9 JUMPI DUP1 PUSH4 0x66A1AC26 GT PUSH2 0x18D JUMPI DUP1 PUSH4 0x66A1AC26 EQ PUSH2 0x37F JUMPI DUP1 PUSH4 0x70C10578 EQ PUSH2 0x392 JUMPI DUP1 PUSH4 0x715018A6 EQ PUSH2 0x39A JUMPI DUP1 PUSH4 0x72329AE9 EQ PUSH2 0x3A2 JUMPI DUP1 PUSH4 0x7C5B4A37 EQ PUSH2 0x3B5 JUMPI PUSH1 0x0 DUP1 REVERT JUMPDEST DUP1 PUSH4 0x5019F900 EQ PUSH2 0x34A JUMPI DUP1 PUSH4 0x5C2839DF EQ PUSH2 0x353 JUMPI DUP1 PUSH4 0x5C79D2D1 EQ PUSH2 0x35B JUMPI DUP1 PUSH4 0x602BC62B EQ PUSH2 0x364 JUMPI DUP1 PUSH4 0x63C766E8 EQ PUSH2 0x36C JUMPI PUSH1 0x0 DUP1 REVERT JUMPDEST DUP1 PUSH4 0x2CD4E7D2 GT PUSH2 0x210 JUMPI DUP1 PUSH4 0x2CD4E7D2 EQ PUSH2 0x2D3 JUMPI DUP1 PUSH4 0x2E1A7D4D EQ PUSH2 0x2E6 JUMPI DUP1 PUSH4 0x37DED170 EQ PUSH2 0x2F9 JUMPI DUP1 PUSH4 0x38D52E0F EQ PUSH2 0x30C JUMPI DUP1 PUSH4 0x3CA4D9F4 EQ PUSH2 0x337 JUMPI PUSH1 0x0 DUP1 REVERT JUMPDEST DUP1 PUSH3 0x5A58B1 EQ PUSH2 0x24C JUMPI DUP1 PUSH4 0x8687794 EQ PUSH2 0x268 JUMPI DUP1 PUSH4 0x95EA7B3 EQ PUSH2 0x27D JUMPI DUP1 PUSH4 0x14214025 EQ PUSH2 0x2A0 JUMPI DUP1 PUSH4 0x1877BB5C EQ PUSH2 0x2B3 JUMPI JUMPDEST PUSH1 0x0 DUP1 REVERT JUMPDEST PUSH2 0x255 PUSH1 0x8 SLOAD DUP2 JUMP JUMPDEST PUSH1 0x40 MLOAD SWAP1 DUP2 MSTORE PUSH1 0x20 ADD JUMPDEST PUSH1 0x40 MLOAD DUP1 SWAP2 SUB SWAP1 RETURN JUMPDEST PUSH2 0x27B PUSH2 0x276 CALLDATASIZE PUSH1 0x4 PUSH2 0x1C72 JUMP JUMPDEST PUSH2 0x536 JUMP JUMPDEST STOP JUMPDEST PUSH2 0x290 PUSH2 0x28B CALLDATASIZE PUSH1 0x4 PUSH2 0x1CA7 JUMP JUMPDEST PUSH2 0x715 JUMP JUMPDEST PUSH1 0x40 MLOAD SWAP1 ISZERO ISZERO DUP2 MSTORE PUSH1 0x20 ADD PUSH2 0x25F JUMP JUMPDEST PUSH2 0x255 PUSH2 0x2AE CALLDATASIZE PUSH1 0x4 PUSH2 0x1CD1 JUMP JUMPDEST PUSH2 0x72B JUMP JUMPDEST PUSH2 0x255 PUSH2 0x2C1 CALLDATASIZE PUSH1 0x4 PUSH2 0x1CD1 JUMP JUMPDEST PUSH1 0xB PUSH1 0x20 MSTORE PUSH1 0x0 SWAP1 DUP2 MSTORE PUSH1 0x40 SWAP1 KECCAK256 SLOAD DUP2 JUMP JUMPDEST PUSH2 0x255 PUSH2 0x2E1 CALLDATASIZE PUSH1 0x4 PUSH2 0x1CD1 JUMP JUMPDEST PUSH2 0x753 JUMP JUMPDEST PUSH2 0x27B PUSH2 0x2F4 CALLDATASIZE PUSH1 0x4 PUSH2 0x1C72 JUMP JUMPDEST PUSH2 0x7D6 JUMP JUMPDEST PUSH2 0x27B PUSH2 0x307 CALLDATASIZE PUSH1 0x4 PUSH2 0x1CD1 JUMP JUMPDEST PUSH2 0x7E3 JUMP JUMPDEST PUSH1 0xE SLOAD PUSH2 0x31F SWAP1 PUSH1 0x1 PUSH1 0x1 PUSH1 0xA0 SHL SUB AND DUP2 JUMP JUMPDEST PUSH1 0x40 MLOAD PUSH1 0x1 PUSH1 0x1 PUSH1 0xA0 SHL SUB SWAP1 SWAP2 AND DUP2 MSTORE PUSH1 0x20 ADD PUSH2 0x25F JUMP JUMPDEST PUSH2 0x27B PUSH2 0x345 CALLDATASIZE PUSH1 0x4 PUSH2 0x1CA7 JUMP JUMPDEST PUSH2 0x842 JUMP JUMPDEST PUSH2 0x255 PUSH1 0x5 SLOAD DUP2 JUMP JUMPDEST PUSH2 0x27B PUSH2 0x9C5 JUMP JUMPDEST PUSH2 0x255 PUSH1 0x4 SLOAD DUP2 JUMP JUMPDEST PUSH1 0x2 SLOAD PUSH2 0x255 JUMP JUMPDEST PUSH2 0x27B PUSH2 0x37A CALLDATASIZE PUSH1 0x4 PUSH2 0x1C72 JUMP JUMPDEST PUSH2 0x9D0 JUMP JUMPDEST PUSH2 0x255 PUSH2 0x38D CALLDATASIZE PUSH1 0x4 PUSH2 0x1CD1 JUMP JUMPDEST PUSH2 0x9DA JUMP JUMPDEST PUSH2 0x27B PUSH2 0xB07 JUMP JUMPDEST PUSH2 0x27B PUSH2 0xB10 JUMP JUMPDEST PUSH2 0x27B PUSH2 0x3B0 CALLDATASIZE PUSH1 0x4 PUSH2 0x1CA7 JUMP JUMPDEST PUSH2 0xB72 JUMP JUMPDEST PUSH2 0x27B PUSH2 0x3C3 CALLDATASIZE PUSH1 0x4 PUSH2 0x1C72 JUMP JUMPDEST PUSH2 0x1159 JUMP JUMPDEST PUSH1 0x0 SLOAD PUSH1 0x1 PUSH1 0x1 PUSH1 0xA0 SHL SUB AND PUSH2 0x31F JUMP JUMPDEST PUSH2 0x255 PUSH2 0x3E7 CALLDATASIZE PUSH1 0x4 PUSH2 0x1CD1 JUMP JUMPDEST PUSH2 0x12D5 JUMP JUMPDEST PUSH2 0x255 PUSH2 0x3FA CALLDATASIZE PUSH1 0x4 PUSH2 0x1C72 JUMP JUMPDEST PUSH1 0xA PUSH1 0x20 MSTORE PUSH1 0x0 SWAP1 DUP2 MSTORE PUSH1 0x40 SWAP1 KECCAK256 SLOAD DUP2 JUMP JUMPDEST PUSH2 0x290 PUSH2 0x132D JUMP JUMPDEST PUSH2 0x27B PUSH2 0x1352 JUMP JUMPDEST PUSH2 0x255 PUSH1 0x9 SLOAD DUP2 JUMP JUMPDEST PUSH2 0x27B PUSH2 0x433 CALLDATASIZE PUSH1 0x4 PUSH2 0x1C72 JUMP JUMPDEST PUSH2 0x1458 JUMP JUMPDEST PUSH2 0x27B PUSH2 0x446 CALLDATASIZE PUSH1 0x4 PUSH2 0x1CEC JUMP JUMPDEST PUSH2 0x1462 JUMP JUMPDEST PUSH2 0x27B PUSH2 0x459 CALLDATASIZE PUSH1 0x4 PUSH2 0x1CD1 JUMP JUMPDEST PUSH2 0x15EE JUMP JUMPDEST PUSH2 0x255 PUSH2 0x46C CALLDATASIZE PUSH1 0x4 PUSH2 0x1D18 JUMP JUMPDEST PUSH1 0xC PUSH1 0x20 SWAP1 DUP2 MSTORE PUSH1 0x0 SWAP3 DUP4 MSTORE PUSH1 0x40 DUP1 DUP5 KECCAK256 SWAP1 SWAP2 MSTORE SWAP1 DUP3 MSTORE SWAP1 KECCAK256 SLOAD DUP2 JUMP JUMPDEST PUSH2 0x27B PUSH2 0x497 CALLDATASIZE PUSH1 0x4 PUSH2 0x1CA7 JUMP JUMPDEST PUSH2 0x1707 JUMP JUMPDEST PUSH2 0x255 PUSH2 0x4AA CALLDATASIZE PUSH1 0x4 PUSH2 0x1CD1 JUMP JUMPDEST PUSH2 0x172E JUMP JUMPDEST PUSH2 0x27B PUSH2 0x4BD CALLDATASIZE PUSH1 0x4 PUSH2 0x1C72 JUMP JUMPDEST PUSH2 0x177A JUMP JUMPDEST PUSH2 0x255 PUSH2 0x4D0 CALLDATASIZE PUSH1 0x4 PUSH2 0x1D44 JUMP JUMPDEST PUSH1 0xD PUSH1 0x20 SWAP1 DUP2 MSTORE PUSH1 0x0 SWAP3 DUP4 MSTORE PUSH1 0x40 DUP1 DUP5 KECCAK256 SWAP1 SWAP2 MSTORE SWAP1 DUP3 MSTORE SWAP1 KECCAK256 SLOAD DUP2 JUMP JUMPDEST PUSH2 0x27B PUSH2 0x4FB CALLDATASIZE PUSH1 0x4 PUSH2 0x1CD1 JUMP JUMPDEST PUSH2 0x17FF JUMP JUMPDEST PUSH2 0x27B PUSH2 0x180C JUMP JUMPDEST PUSH2 0x255 PUSH1 0x6 SLOAD DUP2 JUMP JUMPDEST PUSH2 0x27B PUSH2 0x51F CALLDATASIZE PUSH1 0x4 PUSH2 0x1CD1 JUMP JUMPDEST PUSH2 0x1815 JUMP JUMPDEST PUSH2 0x255 PUSH1 0x7 SLOAD DUP2 JUMP JUMPDEST PUSH2 0x255 PUSH1 0x3 SLOAD DUP2 JUMP JUMPDEST PUSH1 0x0 SLOAD PUSH1 0x1 PUSH1 0x1 PUSH1 0xA0 SHL SUB AND CALLER EQ PUSH2 0x569 JUMPI PUSH1 0x40 MLOAD PUSH3 0x461BCD PUSH1 0xE5 SHL DUP2 MSTORE PUSH1 0x4 ADD PUSH2 0x560 SWAP1 PUSH2 0x1D6E JUMP JUMPDEST PUSH1 0x40 MLOAD DUP1 SWAP2 SUB SWAP1 REVERT JUMPDEST PUSH2 0x571 PUSH2 0x132D JUMP JUMPDEST PUSH2 0x5BD JUMPI PUSH1 0x40 MLOAD PUSH3 0x461BCD PUSH1 0xE5 SHL DUP2 MSTORE PUSH1 0x20 PUSH1 0x4 DUP3 ADD DUP2 SWAP1 MSTORE PUSH1 0x24 DUP3 ADD MSTORE PUSH32 0x43616E206F6E6C79206D6F76652066756E6473207768656E206C6F636B65642E PUSH1 0x44 DUP3 ADD MSTORE PUSH1 0x64 ADD PUSH2 0x560 JUMP JUMPDEST PUSH1 0x0 DUP1 PUSH2 0x5C9 TIMESTAMP PUSH2 0x18ED JUMP JUMPDEST POP SWAP2 POP SWAP2 POP DUP2 PUSH1 0x5 SLOAD EQ ISZERO DUP1 PUSH2 0x5E1 JUMPI POP DUP1 PUSH1 0x4 SLOAD EQ ISZERO JUMPDEST ISZERO PUSH2 0x642 JUMPI PUSH1 0x5 DUP3 SWAP1 SSTORE PUSH1 0x4 DUP2 SWAP1 SSTORE PUSH1 0x9 DUP1 SLOAD PUSH1 0x1 SWAP2 SWAP1 PUSH1 0x0 SWAP1 PUSH2 0x606 SWAP1 DUP5 SWAP1 PUSH2 0x1DB9 JUMP JUMPDEST SWAP1 SWAP2 SSTORE POP POP PUSH1 0x9 SLOAD PUSH1 0x40 MLOAD SWAP1 DUP2 MSTORE PUSH32 0x6F7839FD5911BAAC2DBC722962A0D38F7D09C5519B195DBF03E4CC27F890EFC3 SWAP1 PUSH1 0x20 ADD PUSH1 0x40 MLOAD DUP1 SWAP2 SUB SWAP1 LOG1 JUMPDEST PUSH1 0x9 SLOAD PUSH1 0x40 DUP1 MLOAD SWAP2 DUP3 MSTORE CALLER PUSH1 0x20 DUP4 ADD MSTORE DUP2 ADD DUP5 SWAP1 MSTORE PUSH32 0xDC4C93400EF75E0372536DBBD59F526428AC9B64F683C3178A1398E1F9926679 SWAP1 PUSH1 0x60 ADD PUSH1 0x40 MLOAD DUP1 SWAP2 SUB SWAP1 LOG1 PUSH1 0xE SLOAD PUSH1 0x40 MLOAD PUSH4 0x23B872DD PUSH1 0xE0 SHL DUP2 MSTORE CALLER PUSH1 0x4 DUP3 ADD MSTORE ADDRESS PUSH1 0x24 DUP3 ADD MSTORE PUSH1 0x44 DUP2 ADD DUP6 SWAP1 MSTORE PUSH1 0x1 PUSH1 0x1 PUSH1 0xA0 SHL SUB SWAP1 SWAP2 AND SWAP1 PUSH4 0x23B872DD SWAP1 PUSH1 0x64 ADD JUMPDEST PUSH1 0x20 PUSH1 0x40 MLOAD DUP1 DUP4 SUB DUP2 PUSH1 0x0 DUP8 DUP1 EXTCODESIZE ISZERO DUP1 ISZERO PUSH2 0x6D7 JUMPI PUSH1 0x0 DUP1 REVERT JUMPDEST POP GAS CALL ISZERO DUP1 ISZERO PUSH2 0x6EB JUMPI RETURNDATASIZE PUSH1 0x0 DUP1 RETURNDATACOPY RETURNDATASIZE PUSH1 0x0 REVERT JUMPDEST POP POP POP POP PUSH1 0x40 MLOAD RETURNDATASIZE PUSH1 0x1F NOT PUSH1 0x1F DUP3 ADD AND DUP3 ADD DUP1 PUSH1 0x40 MSTORE POP DUP2 ADD SWAP1 PUSH2 0x70F SWAP2 SWAP1 PUSH2 0x1DD1 JUMP JUMPDEST POP POP POP POP JUMP JUMPDEST PUSH1 0x0 PUSH2 0x722 CALLER DUP5 DUP5 PUSH2 0x1913 JUMP JUMPDEST POP PUSH1 0x1 SWAP3 SWAP2 POP POP JUMP JUMPDEST PUSH1 0x0 DUP1 PUSH2 0x736 PUSH2 0x132D JUMP JUMPDEST ISZERO PUSH2 0x749 JUMPI PUSH2 0x744 DUP4 PUSH2 0x9DA JUMP JUMPDEST PUSH2 0x74C JUMP JUMPDEST PUSH1 0x0 JUMPDEST SWAP4 SWAP3 POP POP POP JUMP JUMPDEST PUSH1 0x9 SLOAD PUSH1 0x0 SWAP1 DUP2 MSTORE PUSH1 0xC PUSH1 0x20 SWAP1 DUP2 MSTORE PUSH1 0x40 DUP1 DUP4 KECCAK256 PUSH1 0x1 PUSH1 0x1 PUSH1 0xA0 SHL SUB DUP6 AND DUP5 MSTORE SWAP1 SWAP2 MSTORE DUP2 KECCAK256 SLOAD DUP2 PUSH2 0x782 PUSH2 0x132D JUMP JUMPDEST PUSH2 0x794 JUMPI PUSH2 0x78F DUP5 PUSH2 0x9DA JUMP JUMPDEST PUSH2 0x797 JUMP JUMPDEST PUSH1 0x0 JUMPDEST SWAP1 POP PUSH1 0x0 PUSH2 0x2710 PUSH1 0x6 SLOAD DUP4 PUSH2 0x7AC SWAP2 SWAP1 PUSH2 0x1DF3 JUMP JUMPDEST PUSH2 0x7B6 SWAP2 SWAP1 PUSH2 0x1E28 JUMP JUMPDEST SWAP1 POP DUP1 PUSH2 0x7C3 DUP4 DUP6 PUSH2 0x1DB9 JUMP JUMPDEST PUSH2 0x7CD SWAP2 SWAP1 PUSH2 0x1E3C JUMP JUMPDEST SWAP6 SWAP5 POP POP POP POP POP JUMP JUMPDEST PUSH2 0x7E0 CALLER DUP3 PUSH2 0xB72 JUMP JUMPDEST POP JUMP JUMPDEST PUSH1 0x0 PUSH2 0x7EE DUP3 PUSH2 0x12D5 JUMP JUMPDEST PUSH1 0x1 PUSH1 0x1 PUSH1 0xA0 SHL SUB DUP4 AND PUSH1 0x0 SWAP1 DUP2 MSTORE PUSH1 0xB PUSH1 0x20 MSTORE PUSH1 0x40 SWAP1 KECCAK256 SLOAD SWAP1 SWAP2 POP DUP2 GT ISZERO PUSH2 0x839 JUMPI PUSH1 0x1 PUSH1 0x1 PUSH1 0xA0 SHL SUB DUP3 AND PUSH1 0x0 SWAP1 DUP2 MSTORE PUSH1 0xB PUSH1 0x20 MSTORE PUSH1 0x40 SWAP1 KECCAK256 SLOAD PUSH2 0x835 SWAP1 DUP4 SWAP1 PUSH2 0xB72 JUMP JUMPDEST POP POP JUMP JUMPDEST PUSH2 0x835 DUP3 PUSH2 0x17FF JUMP JUMPDEST DUP1 PUSH1 0x3 PUSH1 0x0 DUP3 DUP3 SLOAD PUSH2 0x854 SWAP2 SWAP1 PUSH2 0x1DB9 JUMP JUMPDEST SWAP1 SWAP2 SSTORE POP POP PUSH1 0x1 PUSH1 0x1 PUSH1 0xA0 SHL SUB DUP3 AND PUSH1 0x0 SWAP1 DUP2 MSTORE PUSH1 0xB PUSH1 0x20 MSTORE PUSH1 0x40 DUP2 KECCAK256 DUP1 SLOAD DUP4 SWAP3 SWAP1 PUSH2 0x881 SWAP1 DUP5 SWAP1 PUSH2 0x1DB9 JUMP JUMPDEST SWAP1 SWAP2 SSTORE POP POP PUSH1 0x9 SLOAD PUSH1 0x0 SWAP1 DUP2 MSTORE PUSH1 0xA PUSH1 0x20 MSTORE PUSH1 0x40 DUP2 KECCAK256 DUP1 SLOAD DUP4 SWAP3 SWAP1 PUSH2 0x8A7 SWAP1 DUP5 SWAP1 PUSH2 0x1DB9 JUMP JUMPDEST SWAP1 SWAP2 SSTORE POP POP PUSH1 0x9 SLOAD PUSH1 0x0 SWAP1 DUP2 MSTORE PUSH1 0xC PUSH1 0x20 SWAP1 DUP2 MSTORE PUSH1 0x40 DUP1 DUP4 KECCAK256 PUSH1 0x1 PUSH1 0x1 PUSH1 0xA0 SHL SUB DUP7 AND DUP5 MSTORE SWAP1 SWAP2 MSTORE DUP2 KECCAK256 DUP1 SLOAD DUP4 SWAP3 SWAP1 PUSH2 0x8E1 SWAP1 DUP5 SWAP1 PUSH2 0x1DB9 JUMP JUMPDEST SWAP1 SWAP2 SSTORE POP POP PUSH1 0x9 SLOAD PUSH1 0x40 DUP1 MLOAD SWAP2 DUP3 MSTORE PUSH1 0x1 PUSH1 0x1 PUSH1 0xA0 SHL SUB DUP5 AND PUSH1 0x20 DUP4 ADD MSTORE CALLER DUP3 DUP3 ADD MSTORE PUSH1 0x60 DUP3 ADD DUP4 SWAP1 MSTORE MLOAD PUSH32 0x2C0F148B435140DE488C1B34647F1511C646F7077E87007BACF22EF9977A16D8 SWAP2 DUP2 SWAP1 SUB PUSH1 0x80 ADD SWAP1 LOG1 PUSH1 0xE SLOAD PUSH1 0x40 MLOAD PUSH4 0x23B872DD PUSH1 0xE0 SHL DUP2 MSTORE CALLER PUSH1 0x4 DUP3 ADD MSTORE ADDRESS PUSH1 0x24 DUP3 ADD MSTORE PUSH1 0x44 DUP2 ADD DUP4 SWAP1 MSTORE PUSH1 0x1 PUSH1 0x1 PUSH1 0xA0 SHL SUB SWAP1 SWAP2 AND SWAP1 PUSH4 0x23B872DD SWAP1 PUSH1 0x64 ADD PUSH1 0x20 PUSH1 0x40 MLOAD DUP1 DUP4 SUB DUP2 PUSH1 0x0 DUP8 DUP1 EXTCODESIZE ISZERO DUP1 ISZERO PUSH2 0x988 JUMPI PUSH1 0x0 DUP1 REVERT JUMPDEST POP GAS CALL ISZERO DUP1 ISZERO PUSH2 0x99C JUMPI RETURNDATASIZE PUSH1 0x0 DUP1 RETURNDATACOPY RETURNDATASIZE PUSH1 0x0 REVERT JUMPDEST POP POP POP POP PUSH1 0x40 MLOAD RETURNDATASIZE PUSH1 0x1F NOT PUSH1 0x1F DUP3 ADD AND DUP3 ADD DUP1 PUSH1 0x40 MSTORE POP DUP2 ADD SWAP1 PUSH2 0x9C0 SWAP2 SWAP1 PUSH2 0x1DD1 JUMP JUMPDEST POP POP POP JUMP JUMPDEST PUSH2 0x9CE CALLER PUSH2 0x7E3 JUMP JUMPDEST JUMP JUMPDEST PUSH2 0x7E0 CALLER DUP3 PUSH2 0x1707 JUMP JUMPDEST PUSH1 0x9 SLOAD PUSH1 0x0 SWAP1 DUP2 MSTORE PUSH1 0xA PUSH1 0x20 MSTORE PUSH1 0x40 DUP2 KECCAK256 SLOAD PUSH1 0x3 SLOAD EQ ISZERO PUSH2 0x9FD JUMPI POP PUSH1 0x0 SWAP2 SWAP1 POP JUMP JUMPDEST PUSH1 0x9 SLOAD PUSH1 0x0 SWAP1 DUP2 MSTORE PUSH1 0xA PUSH1 0x20 MSTORE PUSH1 0x40 SWAP1 KECCAK256 SLOAD PUSH1 0x3 SLOAD PUSH2 0xA1C SWAP2 SWAP1 PUSH2 0x1E3C JUMP JUMPDEST PUSH1 0x9 SLOAD PUSH1 0x0 SWAP1 DUP2 MSTORE PUSH1 0xC PUSH1 0x20 SWAP1 DUP2 MSTORE PUSH1 0x40 DUP1 DUP4 KECCAK256 PUSH1 0x1 PUSH1 0x1 PUSH1 0xA0 SHL SUB DUP8 AND DUP5 MSTORE DUP3 MSTORE DUP1 DUP4 KECCAK256 SLOAD PUSH1 0xB SWAP1 SWAP3 MSTORE SWAP1 SWAP2 KECCAK256 SLOAD PUSH2 0xA55 SWAP2 SWAP1 PUSH2 0x1E3C JUMP JUMPDEST PUSH1 0x9 SLOAD PUSH1 0x0 SWAP1 DUP2 MSTORE PUSH1 0xA PUSH1 0x20 MSTORE PUSH1 0x40 SWAP1 DUP2 SWAP1 KECCAK256 SLOAD PUSH1 0xE SLOAD SWAP2 MLOAD PUSH4 0x70A08231 PUSH1 0xE0 SHL DUP2 MSTORE ADDRESS PUSH1 0x4 DUP3 ADD MSTORE SWAP1 SWAP2 PUSH1 0x1 PUSH1 0x1 PUSH1 0xA0 SHL SUB AND SWAP1 PUSH4 0x70A08231 SWAP1 PUSH1 0x24 ADD PUSH1 0x20 PUSH1 0x40 MLOAD DUP1 DUP4 SUB DUP2 DUP7 DUP1 EXTCODESIZE ISZERO DUP1 ISZERO PUSH2 0xAAB JUMPI PUSH1 0x0 DUP1 REVERT JUMPDEST POP GAS STATICCALL ISZERO DUP1 ISZERO PUSH2 0xABF JUMPI RETURNDATASIZE PUSH1 0x0 DUP1 RETURNDATACOPY RETURNDATASIZE PUSH1 0x0 REVERT JUMPDEST POP POP POP POP PUSH1 0x40 MLOAD RETURNDATASIZE PUSH1 0x1F NOT PUSH1 0x1F DUP3 ADD AND DUP3 ADD DUP1 PUSH1 0x40 MSTORE POP DUP2 ADD SWAP1 PUSH2 0xAE3 SWAP2 SWAP1 PUSH2 0x1E53 JUMP JUMPDEST PUSH2 0xAED SWAP2 SWAP1 PUSH2 0x1E3C JUMP JUMPDEST PUSH2 0xAF7 SWAP2 SWAP1 PUSH2 0x1DF3 JUMP JUMPDEST PUSH2 0xB01 SWAP2 SWAP1 PUSH2 0x1E28 JUMP JUMPDEST SWAP3 SWAP2 POP POP JUMP JUMPDEST PUSH2 0x9CE CALLER PUSH2 0x15EE JUMP JUMPDEST PUSH1 0x0 SLOAD PUSH1 0x1 PUSH1 0x1 PUSH1 0xA0 SHL SUB AND CALLER EQ PUSH2 0xB3A JUMPI PUSH1 0x40 MLOAD PUSH3 0x461BCD PUSH1 0xE5 SHL DUP2 MSTORE PUSH1 0x4 ADD PUSH2 0x560 SWAP1 PUSH2 0x1D6E JUMP JUMPDEST PUSH1 0x0 DUP1 SLOAD PUSH1 0x40 MLOAD PUSH1 0x1 PUSH1 0x1 PUSH1 0xA0 SHL SUB SWAP1 SWAP2 AND SWAP1 PUSH1 0x0 DUP1 MLOAD PUSH1 0x20 PUSH2 0x1FB6 DUP4 CODECOPY DUP2 MLOAD SWAP2 MSTORE SWAP1 DUP4 SWAP1 LOG3 PUSH1 0x0 DUP1 SLOAD PUSH1 0x1 PUSH1 0x1 PUSH1 0xA0 SHL SUB NOT AND SWAP1 SSTORE JUMP JUMPDEST CALLER PUSH1 0x1 PUSH1 0x1 PUSH1 0xA0 SHL SUB DUP4 AND DUP2 EQ DUP1 PUSH2 0xBAE JUMPI POP PUSH1 0x1 PUSH1 0x1 PUSH1 0xA0 SHL SUB DUP1 DUP5 AND PUSH1 0x0 SWAP1 DUP2 MSTORE PUSH1 0xD PUSH1 0x20 SWAP1 DUP2 MSTORE PUSH1 0x40 DUP1 DUP4 KECCAK256 SWAP4 DUP6 AND DUP4 MSTORE SWAP3 SWAP1 MSTORE KECCAK256 SLOAD ISZERO ISZERO JUMPDEST PUSH2 0xBEC JUMPI PUSH1 0x40 MLOAD PUSH3 0x461BCD PUSH1 0xE5 SHL DUP2 MSTORE PUSH1 0x20 PUSH1 0x4 DUP3 ADD MSTORE PUSH1 0xF PUSH1 0x24 DUP3 ADD MSTORE PUSH15 0x2737BA1030BABA3437B934BD32B217 PUSH1 0x89 SHL PUSH1 0x44 DUP3 ADD MSTORE PUSH1 0x64 ADD PUSH2 0x560 JUMP JUMPDEST PUSH1 0x0 DUP3 GT PUSH2 0xC31 JUMPI PUSH1 0x40 MLOAD PUSH3 0x461BCD PUSH1 0xE5 SHL DUP2 MSTORE PUSH1 0x20 PUSH1 0x4 DUP3 ADD MSTORE PUSH1 0x12 PUSH1 0x24 DUP3 ADD MSTORE PUSH18 0x416D6F756E74206D757374206265203E203 PUSH1 0x74 SHL PUSH1 0x44 DUP3 ADD MSTORE PUSH1 0x64 ADD PUSH2 0x560 JUMP JUMPDEST PUSH1 0x0 PUSH2 0xC3B PUSH2 0x132D JUMP JUMPDEST PUSH1 0x9 SLOAD PUSH1 0x0 SWAP1 DUP2 MSTORE PUSH1 0xC PUSH1 0x20 SWAP1 DUP2 MSTORE PUSH1 0x40 DUP1 DUP4 KECCAK256 PUSH1 0x1 PUSH1 0x1 PUSH1 0xA0 SHL SUB DUP10 AND DUP5 MSTORE SWAP1 SWAP2 MSTORE DUP2 KECCAK256 SLOAD SWAP2 SWAP3 POP DUP3 PUSH2 0xC77 JUMPI PUSH2 0xC72 DUP7 PUSH2 0x9DA JUMP JUMPDEST PUSH2 0xC7A JUMP JUMPDEST PUSH1 0x0 JUMPDEST SWAP1 POP PUSH1 0x0 PUSH2 0xC88 DUP3 DUP5 PUSH2 0x1DB9 JUMP JUMPDEST SWAP1 POP PUSH1 0x0 DUP2 GT DUP1 ISZERO PUSH2 0xC9A JUMPI POP DUP1 DUP7 GT ISZERO JUMPDEST PUSH2 0xCE6 JUMPI PUSH1 0x40 MLOAD PUSH3 0x461BCD PUSH1 0xE5 SHL DUP2 MSTORE PUSH1 0x20 PUSH1 0x4 DUP3 ADD MSTORE PUSH1 0x1B PUSH1 0x24 DUP3 ADD MSTORE PUSH32 0x496E73756666696369656E7420746F74616C2062616C616E63652E0000000000 PUSH1 0x44 DUP3 ADD MSTORE PUSH1 0x64 ADD PUSH2 0x560 JUMP JUMPDEST PUSH1 0x0 DUP4 DUP8 GT PUSH2 0xCF5 JUMPI DUP7 PUSH2 0xCF7 JUMP JUMPDEST DUP4 JUMPDEST SWAP1 POP PUSH1 0x0 PUSH2 0xD05 DUP3 DUP10 PUSH2 0x1E3C JUMP JUMPDEST SWAP1 POP DUP8 PUSH2 0xD12 DUP3 DUP5 PUSH2 0x1DB9 JUMP JUMPDEST EQ PUSH2 0xD1F JUMPI PUSH2 0xD1F PUSH2 0x1E6C JUMP JUMPDEST DUP2 ISZERO PUSH2 0xE71 JUMPI PUSH1 0x9 SLOAD PUSH1 0x0 SWAP1 DUP2 MSTORE PUSH1 0xA PUSH1 0x20 MSTORE PUSH1 0x40 DUP2 KECCAK256 DUP1 SLOAD DUP5 SWAP3 SWAP1 PUSH2 0xD46 SWAP1 DUP5 SWAP1 PUSH2 0x1E3C JUMP JUMPDEST SWAP1 SWAP2 SSTORE POP POP PUSH1 0x9 SLOAD PUSH1 0x0 SWAP1 DUP2 MSTORE PUSH1 0xC PUSH1 0x20 SWAP1 DUP2 MSTORE PUSH1 0x40 DUP1 DUP4 KECCAK256 PUSH1 0x1 PUSH1 0x1 PUSH1 0xA0 SHL SUB DUP14 AND DUP5 MSTORE SWAP1 SWAP2 MSTORE DUP2 KECCAK256 DUP1 SLOAD DUP5 SWAP3 SWAP1 PUSH2 0xD80 SWAP1 DUP5 SWAP1 PUSH2 0x1E3C JUMP JUMPDEST SWAP3 POP POP DUP2 SWAP1 SSTORE POP DUP2 PUSH1 0x3 PUSH1 0x0 DUP3 DUP3 SLOAD PUSH2 0xD99 SWAP2 SWAP1 PUSH2 0x1E3C JUMP JUMPDEST SWAP1 SWAP2 SSTORE POP POP PUSH1 0x1 PUSH1 0x1 PUSH1 0xA0 SHL SUB DUP10 AND PUSH1 0x0 SWAP1 DUP2 MSTORE PUSH1 0xB PUSH1 0x20 MSTORE PUSH1 0x40 DUP2 KECCAK256 DUP1 SLOAD DUP5 SWAP3 SWAP1 PUSH2 0xDC6 SWAP1 DUP5 SWAP1 PUSH2 0x1E3C JUMP JUMPDEST SWAP1 SWAP2 SSTORE POP POP PUSH1 0x1 PUSH1 0x1 PUSH1 0xA0 SHL SUB DUP10 DUP2 AND SWAP1 DUP9 AND EQ PUSH2 0xDE9 JUMPI PUSH2 0xDE9 DUP10 DUP9 DUP5 PUSH2 0x1A54 JUMP JUMPDEST PUSH1 0xE SLOAD PUSH1 0x40 MLOAD PUSH4 0xA9059CBB PUSH1 0xE0 SHL DUP2 MSTORE PUSH1 0x1 PUSH1 0x1 PUSH1 0xA0 SHL SUB DUP12 DUP2 AND PUSH1 0x4 DUP4 ADD MSTORE PUSH1 0x24 DUP3 ADD DUP6 SWAP1 MSTORE SWAP1 SWAP2 AND SWAP1 PUSH4 0xA9059CBB SWAP1 PUSH1 0x44 ADD PUSH1 0x20 PUSH1 0x40 MLOAD DUP1 DUP4 SUB DUP2 PUSH1 0x0 DUP8 DUP1 EXTCODESIZE ISZERO DUP1 ISZERO PUSH2 0xE37 JUMPI PUSH1 0x0 DUP1 REVERT JUMPDEST POP GAS CALL ISZERO DUP1 ISZERO PUSH2 0xE4B JUMPI RETURNDATASIZE PUSH1 0x0 DUP1 RETURNDATACOPY RETURNDATASIZE PUSH1 0x0 REVERT JUMPDEST POP POP POP POP PUSH1 0x40 MLOAD RETURNDATASIZE PUSH1 0x1F NOT PUSH1 0x1F DUP3 ADD AND DUP3 ADD DUP1 PUSH1 0x40 MSTORE POP DUP2 ADD SWAP1 PUSH2 0xE6F SWAP2 SWAP1 PUSH2 0x1DD1 JUMP JUMPDEST POP JUMPDEST DUP1 ISZERO PUSH2 0x10F4 JUMPI PUSH1 0x1 PUSH1 0x1 PUSH1 0xA0 SHL SUB DUP10 AND PUSH1 0x0 SWAP1 DUP2 MSTORE PUSH1 0xB PUSH1 0x20 MSTORE PUSH1 0x40 SWAP1 KECCAK256 SLOAD PUSH1 0x3 SLOAD DUP6 SWAP2 PUSH2 0xE9E SWAP2 PUSH2 0x1E3C JUMP JUMPDEST PUSH2 0xEA8 SWAP2 SWAP1 PUSH2 0x1DB9 JUMP JUMPDEST PUSH1 0x3 SWAP1 DUP2 SSTORE PUSH1 0x1 PUSH1 0x1 PUSH1 0xA0 SHL SUB DUP11 AND PUSH1 0x0 SWAP1 DUP2 MSTORE PUSH1 0xB PUSH1 0x20 MSTORE PUSH1 0x40 DUP2 KECCAK256 DUP7 SWAP1 SSTORE DUP2 SLOAD DUP4 SWAP3 SWAP2 SWAP1 PUSH2 0xED9 SWAP1 DUP5 SWAP1 PUSH2 0x1E3C JUMP JUMPDEST SWAP1 SWAP2 SSTORE POP POP PUSH1 0x1 PUSH1 0x1 PUSH1 0xA0 SHL SUB DUP10 AND PUSH1 0x0 SWAP1 DUP2 MSTORE PUSH1 0xB PUSH1 0x20 MSTORE PUSH1 0x40 DUP2 KECCAK256 DUP1 SLOAD DUP4 SWAP3 SWAP1 PUSH2 0xF06 SWAP1 DUP5 SWAP1 PUSH2 0x1E3C JUMP JUMPDEST SWAP1 SWAP2 SSTORE POP POP PUSH1 0x6 SLOAD PUSH1 0x0 SWAP1 PUSH2 0x2710 SWAP1 PUSH2 0xF1F SWAP1 DUP5 PUSH2 0x1DF3 JUMP JUMPDEST PUSH2 0xF29 SWAP2 SWAP1 PUSH2 0x1E28 JUMP JUMPDEST SWAP1 POP DUP1 ISZERO PUSH2 0xFD6 JUMPI PUSH1 0xE SLOAD PUSH1 0x1 PUSH1 0x1 PUSH1 0xA0 SHL SUB AND PUSH4 0xA9059CBB PUSH2 0xF54 PUSH1 0x0 SLOAD PUSH1 0x1 PUSH1 0x1 PUSH1 0xA0 SHL SUB AND SWAP1 JUMP JUMPDEST PUSH1 0x40 MLOAD PUSH1 0x1 PUSH1 0x1 PUSH1 0xE0 SHL SUB NOT PUSH1 0xE0 DUP5 SWAP1 SHL AND DUP2 MSTORE PUSH1 0x1 PUSH1 0x1 PUSH1 0xA0 SHL SUB SWAP1 SWAP2 AND PUSH1 0x4 DUP3 ADD MSTORE PUSH1 0x24 DUP2 ADD DUP5 SWAP1 MSTORE PUSH1 0x44 ADD PUSH1 0x20 PUSH1 0x40 MLOAD DUP1 DUP4 SUB DUP2 PUSH1 0x0 DUP8 DUP1 EXTCODESIZE ISZERO DUP1 ISZERO PUSH2 0xF9C JUMPI PUSH1 0x0 DUP1 REVERT JUMPDEST POP GAS CALL ISZERO DUP1 ISZERO PUSH2 0xFB0 JUMPI RETURNDATASIZE PUSH1 0x0 DUP1 RETURNDATACOPY RETURNDATASIZE PUSH1 0x0 REVERT JUMPDEST POP POP POP POP PUSH1 0x40 MLOAD RETURNDATASIZE PUSH1 0x1F NOT PUSH1 0x1F DUP3 ADD AND DUP3 ADD DUP1 PUSH1 0x40 MSTORE POP DUP2 ADD SWAP1 PUSH2 0xFD4 SWAP2 SWAP1 PUSH2 0x1DD1 JUMP JUMPDEST POP JUMPDEST DUP8 PUSH1 0x1 PUSH1 0x1 PUSH1 0xA0 SHL SUB AND DUP11 PUSH1 0x1 PUSH1 0x1 PUSH1 0xA0 SHL SUB AND EQ PUSH2 0xFFA JUMPI PUSH2 0xFFA DUP11 DUP10 DUP5 PUSH2 0x1A54 JUMP JUMPDEST PUSH1 0xE SLOAD PUSH1 0x1 PUSH1 0x1 PUSH1 0xA0 SHL SUB AND PUSH4 0xA9059CBB DUP12 PUSH2 0x1016 DUP5 DUP7 PUSH2 0x1E3C JUMP JUMPDEST PUSH1 0x40 MLOAD PUSH1 0x1 PUSH1 0x1 PUSH1 0xE0 SHL SUB NOT PUSH1 0xE0 DUP6 SWAP1 SHL AND DUP2 MSTORE PUSH1 0x1 PUSH1 0x1 PUSH1 0xA0 SHL SUB SWAP1 SWAP3 AND PUSH1 0x4 DUP4 ADD MSTORE PUSH1 0x24 DUP3 ADD MSTORE PUSH1 0x44 ADD PUSH1 0x20 PUSH1 0x40 MLOAD DUP1 DUP4 SUB DUP2 PUSH1 0x0 DUP8 DUP1 EXTCODESIZE ISZERO DUP1 ISZERO PUSH2 0x105C JUMPI PUSH1 0x0 DUP1 REVERT JUMPDEST POP GAS CALL ISZERO DUP1 ISZERO PUSH2 0x1070 JUMPI RETURNDATASIZE PUSH1 0x0 DUP1 RETURNDATACOPY RETURNDATASIZE PUSH1 0x0 REVERT JUMPDEST POP POP POP POP PUSH1 0x40 MLOAD RETURNDATASIZE PUSH1 0x1F NOT PUSH1 0x1F DUP3 ADD AND DUP3 ADD DUP1 PUSH1 0x40 MSTORE POP DUP2 ADD SWAP1 PUSH2 0x1094 SWAP2 SWAP1 PUSH2 0x1DD1 JUMP JUMPDEST POP PUSH1 0x9 SLOAD PUSH1 0x40 DUP1 MLOAD SWAP2 DUP3 MSTORE PUSH1 0x1 PUSH1 0x1 PUSH1 0xA0 SHL SUB DUP13 DUP2 AND PUSH1 0x20 DUP5 ADD MSTORE DUP11 AND DUP3 DUP3 ADD MSTORE PUSH1 0x60 DUP3 ADD DUP12 SWAP1 MSTORE PUSH1 0x80 DUP3 ADD DUP4 SWAP1 MSTORE MLOAD PUSH32 0xFE7813E2866053D5C3938554E517B554FCE6666A6561BED9EAA7419B29FA9B68 SWAP2 DUP2 SWAP1 SUB PUSH1 0xA0 ADD SWAP1 LOG1 POP PUSH2 0x114E JUMP JUMPDEST PUSH1 0x9 SLOAD PUSH1 0x40 DUP1 MLOAD SWAP2 DUP3 MSTORE PUSH1 0x1 PUSH1 0x1 PUSH1 0xA0 SHL SUB DUP12 DUP2 AND PUSH1 0x20 DUP5 ADD MSTORE DUP10 AND DUP3 DUP3 ADD MSTORE PUSH1 0x60 DUP3 ADD DUP11 SWAP1 MSTORE PUSH1 0x0 PUSH1 0x80 DUP4 ADD MSTORE MLOAD PUSH32 0xFE7813E2866053D5C3938554E517B554FCE6666A6561BED9EAA7419B29FA9B68 SWAP2 DUP2 SWAP1 SUB PUSH1 0xA0 ADD SWAP1 LOG1 JUMPDEST POP POP POP POP POP POP POP POP POP JUMP JUMPDEST PUSH1 0x0 SLOAD PUSH1 0x1 PUSH1 0x1 PUSH1 0xA0 SHL SUB AND CALLER EQ PUSH2 0x1183 JUMPI PUSH1 0x40 MLOAD PUSH3 0x461BCD PUSH1 0xE5 SHL DUP2 MSTORE PUSH1 0x4 ADD PUSH2 0x560 SWAP1 PUSH2 0x1D6E JUMP JUMPDEST PUSH2 0x118B PUSH2 0x132D JUMP JUMPDEST PUSH2 0x11D7 JUMPI PUSH1 0x40 MLOAD PUSH3 0x461BCD PUSH1 0xE5 SHL DUP2 MSTORE PUSH1 0x20 PUSH1 0x4 DUP3 ADD DUP2 SWAP1 MSTORE PUSH1 0x24 DUP3 ADD MSTORE PUSH32 0x43616E206F6E6C79206D6F76652066756E6473207768656E206C6F636B65642E PUSH1 0x44 DUP3 ADD MSTORE PUSH1 0x64 ADD PUSH2 0x560 JUMP JUMPDEST PUSH1 0x0 DUP1 PUSH2 0x11E3 TIMESTAMP PUSH2 0x18ED JUMP JUMPDEST POP SWAP2 POP SWAP2 POP DUP2 PUSH1 0x5 SLOAD EQ ISZERO DUP1 PUSH2 0x11FB JUMPI POP DUP1 PUSH1 0x4 SLOAD EQ ISZERO JUMPDEST ISZERO PUSH2 0x125C JUMPI PUSH1 0x5 DUP3 SWAP1 SSTORE PUSH1 0x4 DUP2 SWAP1 SSTORE PUSH1 0x9 DUP1 SLOAD PUSH1 0x1 SWAP2 SWAP1 PUSH1 0x0 SWAP1 PUSH2 0x1220 SWAP1 DUP5 SWAP1 PUSH2 0x1DB9 JUMP JUMPDEST SWAP1 SWAP2 SSTORE POP POP PUSH1 0x9 SLOAD PUSH1 0x40 MLOAD SWAP1 DUP2 MSTORE PUSH32 0x6F7839FD5911BAAC2DBC722962A0D38F7D09C5519B195DBF03E4CC27F890EFC3 SWAP1 PUSH1 0x20 ADD PUSH1 0x40 MLOAD DUP1 SWAP2 SUB SWAP1 LOG1 JUMPDEST PUSH1 0x9 SLOAD PUSH1 0x40 DUP1 MLOAD SWAP2 DUP3 MSTORE CALLER PUSH1 0x20 DUP4 ADD MSTORE DUP2 ADD DUP5 SWAP1 MSTORE PUSH32 0x3283ABDB05CFF705BD4FAAB57C532A3D4BFE5C83685E9C69E83D459BB88FB073 SWAP1 PUSH1 0x60 ADD PUSH1 0x40 MLOAD DUP1 SWAP2 SUB SWAP1 LOG1 PUSH1 0xE SLOAD PUSH1 0x40 MLOAD PUSH4 0xA9059CBB PUSH1 0xE0 SHL DUP2 MSTORE CALLER PUSH1 0x4 DUP3 ADD MSTORE PUSH1 0x24 DUP2 ADD DUP6 SWAP1 MSTORE PUSH1 0x1 PUSH1 0x1 PUSH1 0xA0 SHL SUB SWAP1 SWAP2 AND SWAP1 PUSH4 0xA9059CBB SWAP1 PUSH1 0x44 ADD PUSH2 0x6BD JUMP JUMPDEST PUSH1 0x9 SLOAD PUSH1 0x0 SWAP1 DUP2 MSTORE PUSH1 0xC PUSH1 0x20 SWAP1 DUP2 MSTORE PUSH1 0x40 DUP1 DUP4 KECCAK256 PUSH1 0x1 PUSH1 0x1 PUSH1 0xA0 SHL SUB DUP6 AND DUP5 MSTORE SWAP1 SWAP2 MSTORE DUP2 KECCAK256 SLOAD DUP2 PUSH2 0x1304 PUSH2 0x132D JUMP JUMPDEST PUSH2 0x1316 JUMPI PUSH2 0x1311 DUP5 PUSH2 0x9DA JUMP JUMPDEST PUSH2 0x1319 JUMP JUMPDEST PUSH1 0x0 JUMPDEST SWAP1 POP PUSH2 0x1325 DUP2 DUP4 PUSH2 0x1DB9 JUMP JUMPDEST SWAP5 SWAP4 POP POP POP POP JUMP JUMPDEST PUSH1 0x0 DUP1 PUSH2 0x1339 TIMESTAMP PUSH2 0x1AEC JUMP JUMPDEST SWAP1 POP PUSH1 0x7 SLOAD DUP2 LT DUP1 PUSH2 0x134C JUMPI POP PUSH1 0x8 SLOAD DUP2 GT JUMPDEST SWAP2 POP POP SWAP1 JUMP JUMPDEST PUSH1 0x1 SLOAD PUSH1 0x1 PUSH1 0x1 PUSH1 0xA0 SHL SUB AND CALLER EQ PUSH2 0x13B8 JUMPI PUSH1 0x40 MLOAD PUSH3 0x461BCD PUSH1 0xE5 SHL DUP2 MSTORE PUSH1 0x20 PUSH1 0x4 DUP3 ADD MSTORE PUSH1 0x23 PUSH1 0x24 DUP3 ADD MSTORE PUSH32 0x596F7520646F6E27742068617665207065726D697373696F6E20746F20756E6C PUSH1 0x44 DUP3 ADD MSTORE PUSH3 0x6F636B PUSH1 0xE8 SHL PUSH1 0x64 DUP3 ADD MSTORE PUSH1 0x84 ADD PUSH2 0x560 JUMP JUMPDEST PUSH1 0x2 SLOAD TIMESTAMP GT PUSH2 0x1409 JUMPI PUSH1 0x40 MLOAD PUSH3 0x461BCD PUSH1 0xE5 SHL DUP2 MSTORE PUSH1 0x20 PUSH1 0x4 DUP3 ADD MSTORE PUSH1 0x1F PUSH1 0x24 DUP3 ADD MSTORE PUSH32 0x436F6E7472616374206973206C6F636B656420756E74696C2037206461797300 PUSH1 0x44 DUP3 ADD MSTORE PUSH1 0x64 ADD PUSH2 0x560 JUMP JUMPDEST PUSH1 0x1 SLOAD PUSH1 0x0 DUP1 SLOAD PUSH1 0x40 MLOAD PUSH1 0x1 PUSH1 0x1 PUSH1 0xA0 SHL SUB SWAP4 DUP5 AND SWAP4 SWAP1 SWAP2 AND SWAP2 PUSH1 0x0 DUP1 MLOAD PUSH1 0x20 PUSH2 0x1FB6 DUP4 CODECOPY DUP2 MLOAD SWAP2 MSTORE SWAP2 LOG3 PUSH1 0x1 SLOAD PUSH1 0x0 DUP1 SLOAD PUSH1 0x1 PUSH1 0x1 PUSH1 0xA0 SHL SUB NOT AND PUSH1 0x1 PUSH1 0x1 PUSH1 0xA0 SHL SUB SWAP1 SWAP3 AND SWAP2 SWAP1 SWAP2 OR SWAP1 SSTORE JUMP JUMPDEST PUSH2 0x7E0 CALLER DUP3 PUSH2 0x842 JUMP JUMPDEST PUSH1 0x0 SLOAD PUSH1 0x1 PUSH1 0x1 PUSH1 0xA0 SHL SUB AND CALLER EQ PUSH2 0x148C JUMPI PUSH1 0x40 MLOAD PUSH3 0x461BCD PUSH1 0xE5 SHL DUP2 MSTORE PUSH1 0x4 ADD PUSH2 0x560 SWAP1 PUSH2 0x1D6E JUMP JUMPDEST PUSH2 0x258 DUP4 GT ISZERO PUSH2 0x14F6 JUMPI PUSH1 0x40 MLOAD PUSH3 0x461BCD PUSH1 0xE5 SHL DUP2 MSTORE PUSH1 0x20 PUSH1 0x4 DUP3 ADD MSTORE PUSH1 0x2F PUSH1 0x24 DUP3 ADD MSTORE PUSH32 0x576974686472617720666565206D757374206265206C6F776572206F72206571 PUSH1 0x44 DUP3 ADD MSTORE PUSH15 0x3AB0B6103A37903A3430B7101B1297 PUSH1 0x89 SHL PUSH1 0x64 DUP3 ADD MSTORE PUSH1 0x84 ADD PUSH2 0x560 JUMP JUMPDEST DUP2 DUP2 LT ISZERO PUSH2 0x1562 JUMPI PUSH1 0x40 MLOAD PUSH3 0x461BCD PUSH1 0xE5 SHL DUP2 MSTORE PUSH1 0x20 PUSH1 0x4 DUP3 ADD MSTORE PUSH1 0x33 PUSH1 0x24 DUP3 ADD MSTORE PUSH32 0x556E6C6F636B20646179206D6178206D75737420626520677265617465722074 PUSH1 0x44 DUP3 ADD MSTORE PUSH19 0x3430B7103AB73637B1B5903230BC9036B4B717 PUSH1 0x69 SHL PUSH1 0x64 DUP3 ADD MSTORE PUSH1 0x84 ADD PUSH2 0x560 JUMP JUMPDEST PUSH1 0x1 PUSH1 0x7 SLOAD LT ISZERO DUP1 ISZERO PUSH2 0x1578 JUMPI POP PUSH1 0x1C PUSH1 0x8 SLOAD GT ISZERO JUMPDEST PUSH2 0x15E0 JUMPI PUSH1 0x40 MLOAD PUSH3 0x461BCD PUSH1 0xE5 SHL DUP2 MSTORE PUSH1 0x20 PUSH1 0x4 DUP3 ADD MSTORE PUSH1 0x33 PUSH1 0x24 DUP3 ADD MSTORE PUSH32 0x556E6C6F636B2074696D65206D75737420626520617420612074696D65207468 PUSH1 0x44 DUP3 ADD MSTORE PUSH19 0x30BA1030B6361036B7B73A3439903430BB3297 PUSH1 0x69 SHL PUSH1 0x64 DUP3 ADD MSTORE PUSH1 0x84 ADD PUSH2 0x560 JUMP JUMPDEST PUSH1 0x6 SWAP3 SWAP1 SWAP3 SSTORE PUSH1 0x7 SSTORE PUSH1 0x8 SSTORE JUMP JUMPDEST PUSH2 0x15F6 PUSH2 0x132D JUMP JUMPDEST ISZERO PUSH2 0x1643 JUMPI PUSH1 0x40 MLOAD PUSH3 0x461BCD PUSH1 0xE5 SHL DUP2 MSTORE PUSH1 0x20 PUSH1 0x4 DUP3 ADD MSTORE PUSH1 0x1D PUSH1 0x24 DUP3 ADD MSTORE PUSH32 0x43616E6E6F742074616B652070726F666974206966206C6F636B65642E000000 PUSH1 0x44 DUP3 ADD MSTORE PUSH1 0x64 ADD PUSH2 0x560 JUMP JUMPDEST PUSH1 0x0 PUSH2 0x164E DUP3 PUSH2 0x9DA JUMP JUMPDEST PUSH1 0x1 PUSH1 0x1 PUSH1 0xA0 SHL SUB DUP4 AND PUSH1 0x0 SWAP1 DUP2 MSTORE PUSH1 0xB PUSH1 0x20 MSTORE PUSH1 0x40 SWAP1 KECCAK256 SLOAD SWAP1 SWAP2 POP DUP2 GT PUSH2 0x16DE JUMPI PUSH1 0x40 MLOAD PUSH3 0x461BCD PUSH1 0xE5 SHL DUP2 MSTORE PUSH1 0x20 PUSH1 0x4 DUP3 ADD MSTORE PUSH1 0x37 PUSH1 0x24 DUP3 ADD MSTORE PUSH32 0x43616E27742074616B652070726F666974206F6E206C6F737365732F64656C74 PUSH1 0x44 DUP3 ADD MSTORE PUSH32 0x61206E65757472616C2F70656E64696E67206F6E6C792E000000000000000000 PUSH1 0x64 DUP3 ADD MSTORE PUSH1 0x84 ADD PUSH2 0x560 JUMP JUMPDEST PUSH1 0x1 PUSH1 0x1 PUSH1 0xA0 SHL SUB DUP3 AND PUSH1 0x0 SWAP1 DUP2 MSTORE PUSH1 0xB PUSH1 0x20 MSTORE PUSH1 0x40 SWAP1 KECCAK256 SLOAD PUSH2 0x835 SWAP1 DUP4 SWAP1 PUSH2 0x3B0 SWAP1 DUP5 PUSH2 0x1E3C JUMP JUMPDEST PUSH1 0x0 PUSH2 0x1712 DUP4 PUSH2 0x12D5 JUMP JUMPDEST SWAP1 POP DUP1 DUP3 LT PUSH2 0x1724 JUMPI PUSH2 0x9C0 DUP4 PUSH2 0x17FF JUMP JUMPDEST PUSH2 0x9C0 DUP4 DUP4 PUSH2 0xB72 JUMP JUMPDEST PUSH1 0x0 DUP1 PUSH2 0x1739 PUSH2 0x132D JUMP JUMPDEST ISZERO PUSH2 0x174C JUMPI PUSH2 0x1747 DUP4 PUSH2 0x9DA JUMP JUMPDEST PUSH2 0x174F JUMP JUMPDEST PUSH1 0x0 JUMPDEST SWAP1 POP PUSH1 0x0 PUSH2 0x2710 PUSH1 0x6 SLOAD DUP4 PUSH2 0x1764 SWAP2 SWAP1 PUSH2 0x1DF3 JUMP JUMPDEST PUSH2 0x176E SWAP2 SWAP1 PUSH2 0x1E28 JUMP JUMPDEST SWAP1 POP PUSH2 0x1325 DUP2 DUP4 PUSH2 0x1E3C JUMP JUMPDEST PUSH1 0x0 SLOAD PUSH1 0x1 PUSH1 0x1 PUSH1 0xA0 SHL SUB AND CALLER EQ PUSH2 0x17A4 JUMPI PUSH1 0x40 MLOAD PUSH3 0x461BCD PUSH1 0xE5 SHL DUP2 MSTORE PUSH1 0x4 ADD PUSH2 0x560 SWAP1 PUSH2 0x1D6E JUMP JUMPDEST PUSH1 0x0 DUP1 SLOAD PUSH1 0x1 DUP1 SLOAD PUSH1 0x1 PUSH1 0x1 PUSH1 0xA0 SHL SUB NOT SWAP1 DUP2 AND PUSH1 0x1 PUSH1 0x1 PUSH1 0xA0 SHL SUB DUP5 AND OR SWAP1 SWAP2 SSTORE AND SWAP1 SSTORE PUSH2 0x17D3 DUP2 TIMESTAMP PUSH2 0x1DB9 JUMP JUMPDEST PUSH1 0x2 SSTORE PUSH1 0x0 DUP1 SLOAD PUSH1 0x40 MLOAD PUSH1 0x1 PUSH1 0x1 PUSH1 0xA0 SHL SUB SWAP1 SWAP2 AND SWAP1 PUSH1 0x0 DUP1 MLOAD PUSH1 0x20 PUSH2 0x1FB6 DUP4 CODECOPY DUP2 MLOAD SWAP2 MSTORE SWAP1 DUP4 SWAP1 LOG3 POP JUMP JUMPDEST PUSH2 0x7E0 DUP2 PUSH2 0x3B0 DUP4 PUSH2 0x12D5 JUMP JUMPDEST PUSH2 0x9CE CALLER PUSH2 0x17FF JUMP JUMPDEST PUSH1 0x0 SLOAD PUSH1 0x1 PUSH1 0x1 PUSH1 0xA0 SHL SUB AND CALLER EQ PUSH2 0x183F JUMPI PUSH1 0x40 MLOAD PUSH3 0x461BCD PUSH1 0xE5 SHL DUP2 MSTORE PUSH1 0x4 ADD PUSH2 0x560 SWAP1 PUSH2 0x1D6E JUMP JUMPDEST PUSH1 0x1 PUSH1 0x1 PUSH1 0xA0 SHL SUB DUP2 AND PUSH2 0x18A4 JUMPI PUSH1 0x40 MLOAD PUSH3 0x461BCD PUSH1 0xE5 SHL DUP2 MSTORE PUSH1 0x20 PUSH1 0x4 DUP3 ADD MSTORE PUSH1 0x26 PUSH1 0x24 DUP3 ADD MSTORE PUSH32 0x4F776E61626C653A206E6577206F776E657220697320746865207A65726F2061 PUSH1 0x44 DUP3 ADD MSTORE PUSH6 0x646472657373 PUSH1 0xD0 SHL PUSH1 0x64 DUP3 ADD MSTORE PUSH1 0x84 ADD PUSH2 0x560 JUMP JUMPDEST PUSH1 0x0 DUP1 SLOAD PUSH1 0x40 MLOAD PUSH1 0x1 PUSH1 0x1 PUSH1 0xA0 SHL SUB DUP1 DUP6 AND SWAP4 SWAP3 AND SWAP2 PUSH1 0x0 DUP1 MLOAD PUSH1 0x20 PUSH2 0x1FB6 DUP4 CODECOPY DUP2 MLOAD SWAP2 MSTORE SWAP2 LOG3 PUSH1 0x0 DUP1 SLOAD PUSH1 0x1 PUSH1 0x1 PUSH1 0xA0 SHL SUB NOT AND PUSH1 0x1 PUSH1 0x1 PUSH1 0xA0 SHL SUB SWAP3 SWAP1 SWAP3 AND SWAP2 SWAP1 SWAP2 OR SWAP1 SSTORE JUMP JUMPDEST PUSH1 0x0 DUP1 DUP1 PUSH2 0x1906 PUSH2 0x1901 PUSH3 0x15180 DUP7 PUSH2 0x1E28 JUMP JUMPDEST PUSH2 0x1AFE JUMP JUMPDEST SWAP2 SWAP7 SWAP1 SWAP6 POP SWAP1 SWAP4 POP SWAP2 POP POP JUMP JUMPDEST PUSH1 0x1 PUSH1 0x1 PUSH1 0xA0 SHL SUB DUP4 AND PUSH2 0x197D JUMPI PUSH1 0x40 MLOAD PUSH3 0x461BCD PUSH1 0xE5 SHL DUP2 MSTORE PUSH1 0x20 PUSH1 0x4 DUP3 ADD MSTORE PUSH1 0x2B PUSH1 0x24 DUP3 ADD MSTORE PUSH32 0x54657472616457616C6C65743A20617070726F76652066726F6D20746865207A PUSH1 0x44 DUP3 ADD MSTORE PUSH11 0x65726F2061646472657373 PUSH1 0xA8 SHL PUSH1 0x64 DUP3 ADD MSTORE PUSH1 0x84 ADD PUSH2 0x560 JUMP JUMPDEST PUSH1 0x1 PUSH1 0x1 PUSH1 0xA0 SHL SUB DUP3 AND PUSH2 0x19E5 JUMPI PUSH1 0x40 MLOAD PUSH3 0x461BCD PUSH1 0xE5 SHL DUP2 MSTORE PUSH1 0x20 PUSH1 0x4 DUP3 ADD MSTORE PUSH1 0x29 PUSH1 0x24 DUP3 ADD MSTORE PUSH32 0x54657472616457616C6C65743A20617070726F766520746F20746865207A6572 PUSH1 0x44 DUP3 ADD MSTORE PUSH9 0x6F2061646472657373 PUSH1 0xB8 SHL PUSH1 0x64 DUP3 ADD MSTORE PUSH1 0x84 ADD PUSH2 0x560 JUMP JUMPDEST PUSH1 0x1 PUSH1 0x1 PUSH1 0xA0 SHL SUB DUP4 DUP2 AND PUSH1 0x0 DUP2 DUP2 MSTORE PUSH1 0xD PUSH1 0x20 SWAP1 DUP2 MSTORE PUSH1 0x40 DUP1 DUP4 KECCAK256 SWAP5 DUP8 AND DUP1 DUP5 MSTORE SWAP5 DUP3 MSTORE SWAP2 DUP3 SWAP1 KECCAK256 DUP6 SWAP1 SSTORE DUP2 MLOAD SWAP3 DUP4 MSTORE DUP3 ADD SWAP3 SWAP1 SWAP3 MSTORE SWAP1 DUP2 ADD DUP3 SWAP1 MSTORE PUSH32 0x8C5BE1E5EBEC7D5BD14F71427D1E84F3DD0314C0F7B2291E5B200AC8C7C3B925 SWAP1 PUSH1 0x60 ADD PUSH1 0x40 MLOAD DUP1 SWAP2 SUB SWAP1 LOG1 POP POP POP JUMP JUMPDEST PUSH1 0x1 PUSH1 0x1 PUSH1 0xA0 SHL SUB DUP1 DUP5 AND PUSH1 0x0 SWAP1 DUP2 MSTORE PUSH1 0xD PUSH1 0x20 SWAP1 DUP2 MSTORE PUSH1 0x40 DUP1 DUP4 KECCAK256 SWAP4 DUP7 AND DUP4 MSTORE SWAP3 SWAP1 MSTORE KECCAK256 SLOAD PUSH1 0x0 NOT DUP2 EQ PUSH2 0x70F JUMPI DUP2 DUP2 LT ISZERO PUSH2 0x1ADF JUMPI PUSH1 0x40 MLOAD PUSH3 0x461BCD PUSH1 0xE5 SHL DUP2 MSTORE PUSH1 0x20 PUSH1 0x4 DUP3 ADD MSTORE PUSH1 0x24 DUP1 DUP3 ADD MSTORE PUSH32 0x54657472616457616C6C65743A20696E73756666696369656E7420616C6C6F77 PUSH1 0x44 DUP3 ADD MSTORE PUSH4 0x616E6365 PUSH1 0xE0 SHL PUSH1 0x64 DUP3 ADD MSTORE PUSH1 0x84 ADD PUSH2 0x560 JUMP JUMPDEST PUSH2 0x70F DUP5 DUP5 DUP5 DUP5 SUB PUSH2 0x1913 JUMP JUMPDEST PUSH1 0x0 PUSH2 0x1325 PUSH2 0x1901 PUSH3 0x15180 DUP5 PUSH2 0x1E28 JUMP JUMPDEST PUSH1 0x0 DUP1 DUP1 DUP4 DUP2 PUSH3 0x253D8C PUSH2 0x1B15 DUP4 PUSH3 0x10BD9 PUSH2 0x1E82 JUMP JUMPDEST PUSH2 0x1B1F SWAP2 SWAP1 PUSH2 0x1E82 JUMP JUMPDEST SWAP1 POP PUSH1 0x0 PUSH3 0x23AB1 PUSH2 0x1B32 DUP4 PUSH1 0x4 PUSH2 0x1EC3 JUMP JUMPDEST PUSH2 0x1B3C SWAP2 SWAP1 PUSH2 0x1F48 JUMP JUMPDEST SWAP1 POP PUSH1 0x4 PUSH2 0x1B4D DUP3 PUSH3 0x23AB1 PUSH2 0x1EC3 JUMP JUMPDEST PUSH2 0x1B58 SWAP1 PUSH1 0x3 PUSH2 0x1E82 JUMP JUMPDEST PUSH2 0x1B62 SWAP2 SWAP1 PUSH2 0x1F48 JUMP JUMPDEST PUSH2 0x1B6C SWAP1 DUP4 PUSH2 0x1F76 JUMP JUMPDEST SWAP2 POP PUSH1 0x0 PUSH3 0x164B09 PUSH2 0x1B7F DUP5 PUSH1 0x1 PUSH2 0x1E82 JUMP JUMPDEST PUSH2 0x1B8B SWAP1 PUSH2 0xFA0 PUSH2 0x1EC3 JUMP JUMPDEST PUSH2 0x1B95 SWAP2 SWAP1 PUSH2 0x1F48 JUMP JUMPDEST SWAP1 POP PUSH1 0x4 PUSH2 0x1BA5 DUP3 PUSH2 0x5B5 PUSH2 0x1EC3 JUMP JUMPDEST PUSH2 0x1BAF SWAP2 SWAP1 PUSH2 0x1F48 JUMP JUMPDEST PUSH2 0x1BB9 SWAP1 DUP5 PUSH2 0x1F76 JUMP JUMPDEST PUSH2 0x1BC4 SWAP1 PUSH1 0x1F PUSH2 0x1E82 JUMP JUMPDEST SWAP3 POP PUSH1 0x0 PUSH2 0x98F PUSH2 0x1BD6 DUP6 PUSH1 0x50 PUSH2 0x1EC3 JUMP JUMPDEST PUSH2 0x1BE0 SWAP2 SWAP1 PUSH2 0x1F48 JUMP JUMPDEST SWAP1 POP PUSH1 0x0 PUSH1 0x50 PUSH2 0x1BF2 DUP4 PUSH2 0x98F PUSH2 0x1EC3 JUMP JUMPDEST PUSH2 0x1BFC SWAP2 SWAP1 PUSH2 0x1F48 JUMP JUMPDEST PUSH2 0x1C06 SWAP1 DUP7 PUSH2 0x1F76 JUMP JUMPDEST SWAP1 POP PUSH2 0x1C13 PUSH1 0xB DUP4 PUSH2 0x1F48 JUMP JUMPDEST SWAP5 POP PUSH2 0x1C20 DUP6 PUSH1 0xC PUSH2 0x1EC3 JUMP JUMPDEST PUSH2 0x1C2B DUP4 PUSH1 0x2 PUSH2 0x1E82 JUMP JUMPDEST PUSH2 0x1C35 SWAP2 SWAP1 PUSH2 0x1F76 JUMP JUMPDEST SWAP2 POP DUP5 DUP4 PUSH2 0x1C44 PUSH1 0x31 DUP8 PUSH2 0x1F76 JUMP JUMPDEST PUSH2 0x1C4F SWAP1 PUSH1 0x64 PUSH2 0x1EC3 JUMP JUMPDEST PUSH2 0x1C59 SWAP2 SWAP1 PUSH2 0x1E82 JUMP JUMPDEST PUSH2 0x1C63 SWAP2 SWAP1 PUSH2 0x1E82 JUMP JUMPDEST SWAP11 SWAP2 SWAP10 POP SWAP8 POP SWAP6 POP POP POP POP POP POP JUMP JUMPDEST PUSH1 0x0 PUSH1 0x20 DUP3 DUP5 SUB SLT ISZERO PUSH2 0x1C84 JUMPI PUSH1 0x0 DUP1 REVERT JUMPDEST POP CALLDATALOAD SWAP2 SWAP1 POP JUMP JUMPDEST DUP1 CALLDATALOAD PUSH1 0x1 PUSH1 0x1 PUSH1 0xA0 SHL SUB DUP2 AND DUP2 EQ PUSH2 0x1CA2 JUMPI PUSH1 0x0 DUP1 REVERT JUMPDEST SWAP2 SWAP1 POP JUMP JUMPDEST PUSH1 0x0 DUP1 PUSH1 0x40 DUP4 DUP6 SUB SLT ISZERO PUSH2 0x1CBA JUMPI PUSH1 0x0 DUP1 REVERT JUMPDEST PUSH2 0x1CC3 DUP4 PUSH2 0x1C8B JUMP JUMPDEST SWAP5 PUSH1 0x20 SWAP4 SWAP1 SWAP4 ADD CALLDATALOAD SWAP4 POP POP POP JUMP JUMPDEST PUSH1 0x0 PUSH1 0x20 DUP3 DUP5 SUB SLT ISZERO PUSH2 0x1CE3 JUMPI PUSH1 0x0 DUP1 REVERT JUMPDEST PUSH2 0x74C DUP3 PUSH2 0x1C8B JUMP JUMPDEST PUSH1 0x0 DUP1 PUSH1 0x0 PUSH1 0x60 DUP5 DUP7 SUB SLT ISZERO PUSH2 0x1D01 JUMPI PUSH1 0x0 DUP1 REVERT JUMPDEST POP POP DUP2 CALLDATALOAD SWAP4 PUSH1 0x20 DUP4 ADD CALLDATALOAD SWAP4 POP PUSH1 0x40 SWAP1 SWAP3 ADD CALLDATALOAD SWAP2 SWAP1 POP JUMP JUMPDEST PUSH1 0x0 DUP1 PUSH1 0x40 DUP4 DUP6 SUB SLT ISZERO PUSH2 0x1D2B JUMPI PUSH1 0x0 DUP1 REVERT JUMPDEST DUP3 CALLDATALOAD SWAP2 POP PUSH2 0x1D3B PUSH1 0x20 DUP5 ADD PUSH2 0x1C8B JUMP JUMPDEST SWAP1 POP SWAP3 POP SWAP3 SWAP1 POP JUMP JUMPDEST PUSH1 0x0 DUP1 PUSH1 0x40 DUP4 DUP6 SUB SLT ISZERO PUSH2 0x1D57 JUMPI PUSH1 0x0 DUP1 REVERT JUMPDEST PUSH2 0x1D60 DUP4 PUSH2 0x1C8B JUMP JUMPDEST SWAP2 POP PUSH2 0x1D3B PUSH1 0x20 DUP5 ADD PUSH2 0x1C8B JUMP JUMPDEST PUSH1 0x20 DUP1 DUP3 MSTORE DUP2 DUP2 ADD MSTORE PUSH32 0x4F776E61626C653A2063616C6C6572206973206E6F7420746865206F776E6572 PUSH1 0x40 DUP3 ADD MSTORE PUSH1 0x60 ADD SWAP1 JUMP JUMPDEST PUSH4 0x4E487B71 PUSH1 0xE0 SHL PUSH1 0x0 MSTORE PUSH1 0x11 PUSH1 0x4 MSTORE PUSH1 0x24 PUSH1 0x0 REVERT JUMPDEST PUSH1 0x0 DUP3 NOT DUP3 GT ISZERO PUSH2 0x1DCC JUMPI PUSH2 0x1DCC PUSH2 0x1DA3 JUMP JUMPDEST POP ADD SWAP1 JUMP JUMPDEST PUSH1 0x0 PUSH1 0x20 DUP3 DUP5 SUB SLT ISZERO PUSH2 0x1DE3 JUMPI PUSH1 0x0 DUP1 REVERT JUMPDEST DUP2 MLOAD DUP1 ISZERO ISZERO DUP2 EQ PUSH2 0x74C JUMPI PUSH1 0x0 DUP1 REVERT JUMPDEST PUSH1 0x0 DUP2 PUSH1 0x0 NOT DIV DUP4 GT DUP3 ISZERO ISZERO AND ISZERO PUSH2 0x1E0D JUMPI PUSH2 0x1E0D PUSH2 0x1DA3 JUMP JUMPDEST POP MUL SWAP1 JUMP JUMPDEST PUSH4 0x4E487B71 PUSH1 0xE0 SHL PUSH1 0x0 MSTORE PUSH1 0x12 PUSH1 0x4 MSTORE PUSH1 0x24 PUSH1 0x0 REVERT JUMPDEST PUSH1 0x0 DUP3 PUSH2 0x1E37 JUMPI PUSH2 0x1E37 PUSH2 0x1E12 JUMP JUMPDEST POP DIV SWAP1 JUMP JUMPDEST PUSH1 0x0 DUP3 DUP3 LT ISZERO PUSH2 0x1E4E JUMPI PUSH2 0x1E4E PUSH2 0x1DA3 JUMP JUMPDEST POP SUB SWAP1 JUMP JUMPDEST PUSH1 0x0 PUSH1 0x20 DUP3 DUP5 SUB SLT ISZERO PUSH2 0x1E65 JUMPI PUSH1 0x0 DUP1 REVERT JUMPDEST POP MLOAD SWAP2 SWAP1 POP JUMP JUMPDEST PUSH4 0x4E487B71 PUSH1 0xE0 SHL PUSH1 0x0 MSTORE PUSH1 0x1 PUSH1 0x4 MSTORE PUSH1 0x24 PUSH1 0x0 REVERT JUMPDEST PUSH1 0x0 DUP1 DUP3 SLT DUP1 ISZERO PUSH1 0x1 PUSH1 0x1 PUSH1 0xFF SHL SUB DUP5 SWAP1 SUB DUP6 SGT AND ISZERO PUSH2 0x1EA4 JUMPI PUSH2 0x1EA4 PUSH2 0x1DA3 JUMP JUMPDEST PUSH1 0x1 PUSH1 0xFF SHL DUP4 SWAP1 SUB DUP5 SLT DUP2 AND ISZERO PUSH2 0x1EBD JUMPI PUSH2 0x1EBD PUSH2 0x1DA3 JUMP JUMPDEST POP POP ADD SWAP1 JUMP JUMPDEST PUSH1 0x0 PUSH1 0x1 PUSH1 0x1 PUSH1 0xFF SHL SUB DUP2 DUP5 SGT DUP3 DUP5 SGT DUP1 DUP3 AND DUP7 DUP5 DIV DUP7 GT AND ISZERO PUSH2 0x1EE9 JUMPI PUSH2 0x1EE9 PUSH2 0x1DA3 JUMP JUMPDEST PUSH1 0x1 PUSH1 0xFF SHL PUSH1 0x0 DUP8 SLT DUP3 DUP2 AND DUP8 DUP4 SDIV DUP10 SLT AND ISZERO PUSH2 0x1F08 JUMPI PUSH2 0x1F08 PUSH2 0x1DA3 JUMP JUMPDEST PUSH1 0x0 DUP8 SLT SWAP3 POP DUP8 DUP3 SDIV DUP8 SLT DUP5 DUP5 AND AND ISZERO PUSH2 0x1F24 JUMPI PUSH2 0x1F24 PUSH2 0x1DA3 JUMP JUMPDEST DUP8 DUP6 SDIV DUP8 SLT DUP2 DUP5 AND AND ISZERO PUSH2 0x1F3A JUMPI PUSH2 0x1F3A PUSH2 0x1DA3 JUMP JUMPDEST POP POP POP SWAP3 SWAP1 SWAP4 MUL SWAP4 SWAP3 POP POP POP JUMP JUMPDEST PUSH1 0x0 DUP3 PUSH2 0x1F57 JUMPI PUSH2 0x1F57 PUSH2 0x1E12 JUMP JUMPDEST PUSH1 0x1 PUSH1 0xFF SHL DUP3 EQ PUSH1 0x0 NOT DUP5 EQ AND ISZERO PUSH2 0x1F71 JUMPI PUSH2 0x1F71 PUSH2 0x1DA3 JUMP JUMPDEST POP SDIV SWAP1 JUMP JUMPDEST PUSH1 0x0 DUP1 DUP4 SLT DUP1 ISZERO PUSH1 0x1 PUSH1 0xFF SHL DUP6 ADD DUP5 SLT AND ISZERO PUSH2 0x1F94 JUMPI PUSH2 0x1F94 PUSH2 0x1DA3 JUMP JUMPDEST PUSH1 0x1 PUSH1 0x1 PUSH1 0xFF SHL SUB DUP5 ADD DUP4 SGT DUP2 AND ISZERO PUSH2 0x1FAF JUMPI PUSH2 0x1FAF PUSH2 0x1DA3 JUMP JUMPDEST POP POP SUB SWAP1 JUMP INVALID DUP12 0xE0 SMOD SWAP13 MSTORE8 AND MSIZE EQ SGT DIFFICULTY 0xCD 0x1F 0xD0 LOG4 CALLCODE DUP5 NOT 0x49 PUSH32 0x9722A3DAAFE3B4186F6B6457E0A2646970667358221220B9AB77E3D6C5E36386 0xBD 0xD2 MSTORE NUMBER MOD 0xF7 CALL CREATE BALANCE 0xC4 SWAP4 0xBE 0x4E 0xB5 PUSH8 0xC4216BFC87A68B0F PUSH5 0x736F6C6343 STOP ADDMOD MULMOD STOP CALLER "
        },
        "methodIdentifiers": {
          "adminDeposit(uint256)": "08687794",
          "adminSettings(uint256,uint256,uint256)": "b7990a4e",
          "adminWithdraw(uint256)": "7c5b4a37",
          "allowance(address,address)": "dd62ed3e",
          "approve(address,uint256)": "095ea7b3",
          "asset()": "38d52e0f",
          "availableToWithdraw(address)": "a25db8ce",
          "availableToWithdrawWithFee(address)": "2cd4e7d2",
          "balanceToCollect(address)": "66a1ac26",
          "collect()": "e5225381",
          "collectOnBehalfOf(address)": "e2618f5c",
          "deposit(uint256)": "b6b55f25",
          "depositOnBehalfOf(address,uint256)": "3ca4d9f4",
          "getUnlockTime()": "602bc62b",
          "isLocked()": "a4e2d634",
          "lastMonthChange()": "5c79d2d1",
          "lastYearChange()": "5019f900",
          "lock(uint256)": "dd467064",
          "nonce()": "affed0e0",
          "owner()": "8da5cb5b",
          "pendingDeposited(uint256)": "a4312f18",
          "pendingShare(uint256,address)": "cf4b55cb",
          "renounceOwnership()": "715018a6",
          "share(address)": "1877bb5c",
          "takeProfit()": "70c10578",
          "takeProfitOnBehalfOf(address)": "bfb8c52d",
          "totalDeposited()": "ff50abdc",
          "transferOwnership(address)": "f2fde38b",
          "unavailableToWithdraw(address)": "14214025",
          "unavailableToWithdrawWithFee(address)": "d5ea22e8",
          "unlock()": "a69df4b5",
          "unlockDayMax()": "005a58b1",
          "unlockDayMin()": "feccd323",
          "withdraw(uint256)": "2e1a7d4d",
          "withdrawFee()": "e941fa78",
          "withdrawIgnoreLosses(uint256)": "63c766e8",
          "withdrawIgnoreLossesOnBehalfOf(address,uint256)": "d1ad6bbb",
          "withdrawInitialMinusFee()": "5c2839df",
          "withdrawInitialMinusFeeOnBehalfOf(address)": "37ded170",
          "withdrawOnBehalfOf(address,uint256)": "72329ae9"
        }
      },
      "storageLayout": {
        "storage": [
          {
            "astId": 1563,
            "contract": "contracts/TetradWallet.sol:TetradWallet",
            "label": "_owner",
            "offset": 0,
            "slot": "0",
            "type": "t_address"
          },
          {
            "astId": 1565,
            "contract": "contracts/TetradWallet.sol:TetradWallet",
            "label": "_previousOwner",
            "offset": 0,
            "slot": "1",
            "type": "t_address"
          },
          {
            "astId": 1567,
            "contract": "contracts/TetradWallet.sol:TetradWallet",
            "label": "_lockTime",
            "offset": 0,
            "slot": "2",
            "type": "t_uint256"
          },
          {
            "astId": 1718,
            "contract": "contracts/TetradWallet.sol:TetradWallet",
            "label": "totalDeposited",
            "offset": 0,
            "slot": "3",
            "type": "t_uint256"
          },
          {
            "astId": 1720,
            "contract": "contracts/TetradWallet.sol:TetradWallet",
            "label": "lastMonthChange",
            "offset": 0,
            "slot": "4",
            "type": "t_uint256"
          },
          {
            "astId": 1722,
            "contract": "contracts/TetradWallet.sol:TetradWallet",
            "label": "lastYearChange",
            "offset": 0,
            "slot": "5",
            "type": "t_uint256"
          },
          {
            "astId": 1724,
            "contract": "contracts/TetradWallet.sol:TetradWallet",
            "label": "withdrawFee",
            "offset": 0,
            "slot": "6",
            "type": "t_uint256"
          },
          {
            "astId": 1726,
            "contract": "contracts/TetradWallet.sol:TetradWallet",
            "label": "unlockDayMin",
            "offset": 0,
            "slot": "7",
            "type": "t_uint256"
          },
          {
            "astId": 1728,
            "contract": "contracts/TetradWallet.sol:TetradWallet",
            "label": "unlockDayMax",
            "offset": 0,
            "slot": "8",
            "type": "t_uint256"
          },
          {
            "astId": 1730,
            "contract": "contracts/TetradWallet.sol:TetradWallet",
            "label": "nonce",
            "offset": 0,
            "slot": "9",
            "type": "t_uint256"
          },
          {
            "astId": 1734,
            "contract": "contracts/TetradWallet.sol:TetradWallet",
            "label": "pendingDeposited",
            "offset": 0,
            "slot": "10",
            "type": "t_mapping(t_uint256,t_uint256)"
          },
          {
            "astId": 1738,
            "contract": "contracts/TetradWallet.sol:TetradWallet",
            "label": "share",
            "offset": 0,
            "slot": "11",
            "type": "t_mapping(t_address,t_uint256)"
          },
          {
            "astId": 1744,
            "contract": "contracts/TetradWallet.sol:TetradWallet",
            "label": "pendingShare",
            "offset": 0,
            "slot": "12",
            "type": "t_mapping(t_uint256,t_mapping(t_address,t_uint256))"
          },
          {
            "astId": 1750,
            "contract": "contracts/TetradWallet.sol:TetradWallet",
            "label": "allowance",
            "offset": 0,
            "slot": "13",
            "type": "t_mapping(t_address,t_mapping(t_address,t_uint256))"
          },
          {
            "astId": 1753,
            "contract": "contracts/TetradWallet.sol:TetradWallet",
            "label": "asset",
            "offset": 0,
            "slot": "14",
            "type": "t_contract(IERC20)1561"
          }
        ],
        "types": {
          "t_address": {
            "encoding": "inplace",
            "label": "address",
            "numberOfBytes": "20"
          },
          "t_contract(IERC20)1561": {
            "encoding": "inplace",
            "label": "contract IERC20",
            "numberOfBytes": "20"
          },
          "t_mapping(t_address,t_mapping(t_address,t_uint256))": {
            "encoding": "mapping",
            "key": "t_address",
            "label": "mapping(address => mapping(address => uint256))",
            "numberOfBytes": "32",
            "value": "t_mapping(t_address,t_uint256)"
          },
          "t_mapping(t_address,t_uint256)": {
            "encoding": "mapping",
            "key": "t_address",
            "label": "mapping(address => uint256)",
            "numberOfBytes": "32",
            "value": "t_uint256"
          },
          "t_mapping(t_uint256,t_mapping(t_address,t_uint256))": {
            "encoding": "mapping",
            "key": "t_uint256",
            "label": "mapping(uint256 => mapping(address => uint256))",
            "numberOfBytes": "32",
            "value": "t_mapping(t_address,t_uint256)"
          },
          "t_mapping(t_uint256,t_uint256)": {
            "encoding": "mapping",
            "key": "t_uint256",
            "label": "mapping(uint256 => uint256)",
            "numberOfBytes": "32",
            "value": "t_uint256"
          },
          "t_uint256": {
            "encoding": "inplace",
            "label": "uint256",
            "numberOfBytes": "32"
          }
        }
      }
    }
  }
}