{
  "contracts/TetradWallet.sol": {
    "TetradWallet": {
      "abi": [
        {
          "inputs": [
            {
              "internalType": "contract IERC20",
              "name": "depositedAsset",
              "type": "address"
            }
          ],
          "stateMutability": "nonpayable",
          "type": "constructor"
        },
        {
          "anonymous": false,
          "inputs": [
            {
              "indexed": false,
              "internalType": "uint256",
              "name": "nonce",
              "type": "uint256"
            },
            {
              "indexed": false,
              "internalType": "address",
              "name": "who",
              "type": "address"
            },
            {
              "indexed": false,
              "internalType": "uint256",
              "name": "amount",
              "type": "uint256"
            }
          ],
          "name": "AdminDeposit",
          "type": "event"
        },
        {
          "anonymous": false,
          "inputs": [
            {
              "indexed": false,
              "internalType": "uint256",
              "name": "nonce",
              "type": "uint256"
            },
            {
              "indexed": false,
              "internalType": "address",
              "name": "who",
              "type": "address"
            },
            {
              "indexed": false,
              "internalType": "uint256",
              "name": "amount",
              "type": "uint256"
            }
          ],
          "name": "AdminWithdraw",
          "type": "event"
        },
        {
          "anonymous": false,
          "inputs": [
            {
              "indexed": false,
              "internalType": "address",
              "name": "behalfOf",
              "type": "address"
            },
            {
              "indexed": false,
              "internalType": "address",
              "name": "spender",
              "type": "address"
            },
            {
              "indexed": false,
              "internalType": "uint256",
              "name": "amount",
              "type": "uint256"
            }
          ],
          "name": "Approval",
          "type": "event"
        },
        {
          "anonymous": false,
          "inputs": [
            {
              "indexed": false,
              "internalType": "uint256",
              "name": "nonce",
              "type": "uint256"
            },
            {
              "indexed": false,
              "internalType": "address",
              "name": "behalfOf",
              "type": "address"
            },
            {
              "indexed": false,
              "internalType": "address",
              "name": "spender",
              "type": "address"
            },
            {
              "indexed": false,
              "internalType": "uint256",
              "name": "amount",
              "type": "uint256"
            }
          ],
          "name": "Deposit",
          "type": "event"
        },
        {
          "anonymous": false,
          "inputs": [
            {
              "indexed": false,
              "internalType": "uint256",
              "name": "to",
              "type": "uint256"
            }
          ],
          "name": "NonceIncrease",
          "type": "event"
        },
        {
          "anonymous": false,
          "inputs": [
            {
              "indexed": true,
              "internalType": "address",
              "name": "previousOwner",
              "type": "address"
            },
            {
              "indexed": true,
              "internalType": "address",
              "name": "newOwner",
              "type": "address"
            }
          ],
          "name": "OwnershipTransferred",
          "type": "event"
        },
        {
          "anonymous": false,
          "inputs": [
            {
              "indexed": false,
              "internalType": "uint256",
              "name": "nonce",
              "type": "uint256"
            },
            {
              "indexed": false,
              "internalType": "address",
              "name": "behalfOf",
              "type": "address"
            },
            {
              "indexed": false,
              "internalType": "address",
              "name": "spender",
              "type": "address"
            },
            {
              "indexed": false,
              "internalType": "uint256",
              "name": "amount",
              "type": "uint256"
            },
            {
              "indexed": false,
              "internalType": "uint256",
              "name": "fee",
              "type": "uint256"
            }
          ],
          "name": "Withdraw",
          "type": "event"
        },
        {
          "inputs": [
            {
              "internalType": "address",
              "name": "wallet",
              "type": "address"
            }
          ],
          "name": "adminChangeFeeWallet",
          "outputs": [],
          "stateMutability": "nonpayable",
          "type": "function"
        },
        {
          "inputs": [
            {
              "internalType": "uint256",
              "name": "amount",
              "type": "uint256"
            }
          ],
          "name": "adminDeposit",
          "outputs": [],
          "stateMutability": "nonpayable",
          "type": "function"
        },
        {
          "inputs": [
            {
              "internalType": "uint256",
              "name": "fee",
              "type": "uint256"
            },
            {
              "internalType": "uint256",
              "name": "unlockMin",
              "type": "uint256"
            },
            {
              "internalType": "uint256",
              "name": "unlockMax",
              "type": "uint256"
            }
          ],
          "name": "adminSettings",
          "outputs": [],
          "stateMutability": "nonpayable",
          "type": "function"
        },
        {
          "inputs": [
            {
              "internalType": "uint256",
              "name": "amount",
              "type": "uint256"
            }
          ],
          "name": "adminWithdraw",
          "outputs": [],
          "stateMutability": "nonpayable",
          "type": "function"
        },
        {
          "inputs": [
            {
              "internalType": "address",
              "name": "",
              "type": "address"
            },
            {
              "internalType": "address",
              "name": "",
              "type": "address"
            }
          ],
          "name": "allowance",
          "outputs": [
            {
              "internalType": "uint256",
              "name": "",
              "type": "uint256"
            }
          ],
          "stateMutability": "view",
          "type": "function"
        },
        {
          "inputs": [
            {
              "internalType": "address",
              "name": "spender",
              "type": "address"
            },
            {
              "internalType": "uint256",
              "name": "amount",
              "type": "uint256"
            }
          ],
          "name": "approve",
          "outputs": [
            {
              "internalType": "bool",
              "name": "",
              "type": "bool"
            }
          ],
          "stateMutability": "nonpayable",
          "type": "function"
        },
        {
          "inputs": [],
          "name": "asset",
          "outputs": [
            {
              "internalType": "contract IERC20",
              "name": "",
              "type": "address"
            }
          ],
          "stateMutability": "view",
          "type": "function"
        },
        {
          "inputs": [
            {
              "internalType": "address",
              "name": "collector",
              "type": "address"
            }
          ],
          "name": "availableToWithdraw",
          "outputs": [
            {
              "internalType": "uint256",
              "name": "",
              "type": "uint256"
            }
          ],
          "stateMutability": "view",
          "type": "function"
        },
        {
          "inputs": [
            {
              "internalType": "address",
              "name": "collector",
              "type": "address"
            }
          ],
          "name": "availableToWithdrawWithFee",
          "outputs": [
            {
              "internalType": "uint256",
              "name": "",
              "type": "uint256"
            }
          ],
          "stateMutability": "view",
          "type": "function"
        },
        {
          "inputs": [
            {
              "internalType": "address",
              "name": "collector",
              "type": "address"
            }
          ],
          "name": "balanceToCollect",
          "outputs": [
            {
              "internalType": "uint256",
              "name": "",
              "type": "uint256"
            }
          ],
          "stateMutability": "view",
          "type": "function"
        },
        {
          "inputs": [],
          "name": "collect",
          "outputs": [],
          "stateMutability": "nonpayable",
          "type": "function"
        },
        {
          "inputs": [
            {
              "internalType": "address",
              "name": "behalfOf",
              "type": "address"
            }
          ],
          "name": "collectOnBehalfOf",
          "outputs": [],
          "stateMutability": "nonpayable",
          "type": "function"
        },
        {
          "inputs": [
            {
              "internalType": "address",
              "name": "collector",
              "type": "address"
            }
          ],
          "name": "currentPendingBalanceOf",
          "outputs": [
            {
              "internalType": "uint256",
              "name": "",
              "type": "uint256"
            }
          ],
          "stateMutability": "view",
          "type": "function"
        },
        {
          "inputs": [],
          "name": "currentTotalPending",
          "outputs": [
            {
              "internalType": "uint256",
              "name": "",
              "type": "uint256"
            }
          ],
          "stateMutability": "view",
          "type": "function"
        },
        {
          "inputs": [
            {
              "internalType": "uint256",
              "name": "amount",
              "type": "uint256"
            }
          ],
          "name": "deposit",
          "outputs": [],
          "stateMutability": "nonpayable",
          "type": "function"
        },
        {
          "inputs": [
            {
              "internalType": "address",
              "name": "behalfOf",
              "type": "address"
            },
            {
              "internalType": "uint256",
              "name": "amount",
              "type": "uint256"
            }
          ],
          "name": "depositOnBehalfOf",
          "outputs": [],
          "stateMutability": "nonpayable",
          "type": "function"
        },
        {
          "inputs": [],
          "name": "feeWallet",
          "outputs": [
            {
              "internalType": "address",
              "name": "",
              "type": "address"
            }
          ],
          "stateMutability": "view",
          "type": "function"
        },
        {
          "inputs": [],
          "name": "fundsAvailableForAdmin",
          "outputs": [
            {
              "internalType": "uint256",
              "name": "",
              "type": "uint256"
            }
          ],
          "stateMutability": "view",
          "type": "function"
        },
        {
          "inputs": [],
          "name": "getUnlockTime",
          "outputs": [
            {
              "internalType": "uint256",
              "name": "",
              "type": "uint256"
            }
          ],
          "stateMutability": "view",
          "type": "function"
        },
        {
          "inputs": [],
          "name": "isLocked",
          "outputs": [
            {
              "internalType": "bool",
              "name": "",
              "type": "bool"
            }
          ],
          "stateMutability": "view",
          "type": "function"
        },
        {
          "inputs": [],
          "name": "lastMonthChange",
          "outputs": [
            {
              "internalType": "uint256",
              "name": "",
              "type": "uint256"
            }
          ],
          "stateMutability": "view",
          "type": "function"
        },
        {
          "inputs": [],
          "name": "lastYearChange",
          "outputs": [
            {
              "internalType": "uint256",
              "name": "",
              "type": "uint256"
            }
          ],
          "stateMutability": "view",
          "type": "function"
        },
        {
          "inputs": [
            {
              "internalType": "uint256",
              "name": "time",
              "type": "uint256"
            }
          ],
          "name": "lock",
          "outputs": [],
          "stateMutability": "nonpayable",
          "type": "function"
        },
        {
          "inputs": [],
          "name": "nonce",
          "outputs": [
            {
              "internalType": "uint256",
              "name": "",
              "type": "uint256"
            }
          ],
          "stateMutability": "view",
          "type": "function"
        },
        {
          "inputs": [],
          "name": "owner",
          "outputs": [
            {
              "internalType": "address",
              "name": "",
              "type": "address"
            }
          ],
          "stateMutability": "view",
          "type": "function"
        },
        {
          "inputs": [
            {
              "internalType": "uint256",
              "name": "",
              "type": "uint256"
            }
          ],
          "name": "pendingDeposited",
          "outputs": [
            {
              "internalType": "uint256",
              "name": "",
              "type": "uint256"
            }
          ],
          "stateMutability": "view",
          "type": "function"
        },
        {
          "inputs": [
            {
              "internalType": "uint256",
              "name": "",
              "type": "uint256"
            },
            {
              "internalType": "address",
              "name": "",
              "type": "address"
            }
          ],
          "name": "pendingShare",
          "outputs": [
            {
              "internalType": "uint256",
              "name": "",
              "type": "uint256"
            }
          ],
          "stateMutability": "view",
          "type": "function"
        },
        {
          "inputs": [],
          "name": "renounceOwnership",
          "outputs": [],
          "stateMutability": "nonpayable",
          "type": "function"
        },
        {
          "inputs": [
            {
              "internalType": "address",
              "name": "",
              "type": "address"
            }
          ],
          "name": "share",
          "outputs": [
            {
              "internalType": "uint256",
              "name": "",
              "type": "uint256"
            }
          ],
          "stateMutability": "view",
          "type": "function"
        },
        {
          "inputs": [],
          "name": "takeProfit",
          "outputs": [],
          "stateMutability": "nonpayable",
          "type": "function"
        },
        {
          "inputs": [
            {
              "internalType": "address",
              "name": "behalfOf",
              "type": "address"
            }
          ],
          "name": "takeProfitOnBehalfOf",
          "outputs": [],
          "stateMutability": "nonpayable",
          "type": "function"
        },
        {
          "inputs": [],
          "name": "totalDeposited",
          "outputs": [
            {
              "internalType": "uint256",
              "name": "",
              "type": "uint256"
            }
          ],
          "stateMutability": "view",
          "type": "function"
        },
        {
          "inputs": [
            {
              "internalType": "address",
              "name": "newOwner",
              "type": "address"
            }
          ],
          "name": "transferOwnership",
          "outputs": [],
          "stateMutability": "nonpayable",
          "type": "function"
        },
        {
          "inputs": [
            {
              "internalType": "address",
              "name": "collector",
              "type": "address"
            }
          ],
          "name": "unavailableToWithdraw",
          "outputs": [
            {
              "internalType": "uint256",
              "name": "",
              "type": "uint256"
            }
          ],
          "stateMutability": "view",
          "type": "function"
        },
        {
          "inputs": [
            {
              "internalType": "address",
              "name": "collector",
              "type": "address"
            }
          ],
          "name": "unavailableToWithdrawWithFee",
          "outputs": [
            {
              "internalType": "uint256",
              "name": "",
              "type": "uint256"
            }
          ],
          "stateMutability": "view",
          "type": "function"
        },
        {
          "inputs": [],
          "name": "unlock",
          "outputs": [],
          "stateMutability": "nonpayable",
          "type": "function"
        },
        {
          "inputs": [],
          "name": "unlockDayMax",
          "outputs": [
            {
              "internalType": "uint256",
              "name": "",
              "type": "uint256"
            }
          ],
          "stateMutability": "view",
          "type": "function"
        },
        {
          "inputs": [],
          "name": "unlockDayMin",
          "outputs": [
            {
              "internalType": "uint256",
              "name": "",
              "type": "uint256"
            }
          ],
          "stateMutability": "view",
          "type": "function"
        },
        {
          "inputs": [
            {
              "internalType": "uint256",
              "name": "amount",
              "type": "uint256"
            }
          ],
          "name": "withdraw",
          "outputs": [],
          "stateMutability": "nonpayable",
          "type": "function"
        },
        {
          "inputs": [],
          "name": "withdrawFee",
          "outputs": [
            {
              "internalType": "uint256",
              "name": "",
              "type": "uint256"
            }
          ],
          "stateMutability": "view",
          "type": "function"
        },
        {
          "inputs": [
            {
              "internalType": "uint256",
              "name": "amount",
              "type": "uint256"
            }
          ],
          "name": "withdrawIgnoreLosses",
          "outputs": [],
          "stateMutability": "nonpayable",
          "type": "function"
        },
        {
          "inputs": [
            {
              "internalType": "address",
              "name": "behalfOf",
              "type": "address"
            },
            {
              "internalType": "uint256",
              "name": "amount",
              "type": "uint256"
            }
          ],
          "name": "withdrawIgnoreLossesOnBehalfOf",
          "outputs": [],
          "stateMutability": "nonpayable",
          "type": "function"
        },
        {
          "inputs": [],
          "name": "withdrawInitialMinusFee",
          "outputs": [],
          "stateMutability": "nonpayable",
          "type": "function"
        },
        {
          "inputs": [
            {
              "internalType": "address",
              "name": "behalfOf",
              "type": "address"
            }
          ],
          "name": "withdrawInitialMinusFeeOnBehalfOf",
          "outputs": [],
          "stateMutability": "nonpayable",
          "type": "function"
        },
        {
          "inputs": [
            {
              "internalType": "address",
              "name": "behalfOf",
              "type": "address"
            },
            {
              "internalType": "uint256",
              "name": "amount",
              "type": "uint256"
            }
          ],
          "name": "withdrawOnBehalfOf",
          "outputs": [],
          "stateMutability": "nonpayable",
          "type": "function"
        }
      ],
      "evm": {
        "bytecode": {
          "linkReferences": {},
          "object": "608060405234801561001057600080fd5b50604051620022f2380380620022f2833981016040819052610031916100b1565b600080546001600160a01b031916339081178255604051909182917f8be0079c531659141344cd1fd0a4f28419497f9722a3daafe3b4186f6b6457e0908290a360a560065560016007556005600855600e80546001600160a01b039384166001600160a01b031991821617909155600f80549290931691161790556100e1565b6000602082840312156100c357600080fd5b81516001600160a01b03811681146100da57600080fd5b9392505050565b61220180620000f16000396000f3fe608060405234801561001057600080fd5b506004361061027e5760003560e01c80637c5b4a371161015c578063cf4b55cb116100ce578063e522538111610087578063e5225381146105a0578063e941fa78146105a8578063f25f4b56146105b1578063f2fde38b146105c4578063feccd323146105d7578063ff50abdc146105e057600080fd5b8063cf4b55cb146104fe578063d1ad6bbb14610529578063d5ea22e81461053c578063dd4670641461054f578063dd62ed3e14610562578063e2618f5c1461058d57600080fd5b8063a69df4b511610120578063a69df4b5146104ac578063affed0e0146104b4578063b6b55f25146104bd578063b7990a4e146104d0578063bfb8c52d146104e3578063cc1a57e7146104f657600080fd5b80637c5b4a371461044d5780638da5cb5b14610460578063a25db8ce14610471578063a4312f1814610484578063a4e2d634146104a457600080fd5b80635019f900116101f557806363c766e8116101b957806363c766e8146103f157806366a1ac26146104045780636b211aca1461041757806370c105781461042a578063715018a61461043257806372329ae91461043a57600080fd5b80635019f900146103b85780635c2839df146103c15780635c79d2d1146103c95780635dd250aa146103d2578063602bc62b146103e957600080fd5b80632cd4e7d2116102475780632cd4e7d21461030a5780632e1a7d4d1461031d57806337ded1701461033057806338d52e0f146103435780633ca4d9f41461036e578063465469781461038157600080fd5b80625a58b114610283578063086877941461029f578063095ea7b3146102b457806314214025146102d75780631877bb5c146102ea575b600080fd5b61028c60085481565b6040519081526020015b60405180910390f35b6102b26102ad366004611e68565b6105e9565b005b6102c76102c2366004611e9d565b6107c8565b6040519015158152602001610296565b61028c6102e5366004611ec7565b6107de565b61028c6102f8366004611ec7565b600b6020526000908152604090205481565b61028c610318366004611ec7565b610806565b6102b261032b366004611e68565b610889565b6102b261033e366004611ec7565b610896565b600e54610356906001600160a01b031681565b6040516001600160a01b039091168152602001610296565b6102b261037c366004611e9d565b6108f5565b61028c61038f366004611ec7565b6009546000908152600c602090815260408083206001600160a01b039094168352929052205490565b61028c60055481565b6102b2610a78565b61028c60045481565b6009546000908152600a602052604090205461028c565b60025461028c565b6102b26103ff366004611e68565b610a83565b61028c610412366004611ec7565b610a8d565b6102b2610425366004611ec7565b610bba565b6102b2610c06565b6102b2610c0f565b6102b2610448366004611e9d565b610c71565b6102b261045b366004611e68565b611258565b6000546001600160a01b0316610356565b61028c61047f366004611ec7565b61142f565b61028c610492366004611e68565b600a6020526000908152604090205481565b6102c7611487565b6102b26114ac565b61028c60095481565b6102b26104cb366004611e68565b6115b2565b6102b26104de366004611ee2565b6115bc565b6102b26104f1366004611ec7565b611748565b61028c611861565b61028c61050c366004611f0e565b600c60209081526000928352604080842090915290825290205481565b6102b2610537366004611e9d565b6118fd565b61028c61054a366004611ec7565b611924565b6102b261055d366004611e68565b611970565b61028c610570366004611f3a565b600d60209081526000928352604080842090915290825290205481565b6102b261059b366004611ec7565b6119f5565b6102b2611a02565b61028c60065481565b600f54610356906001600160a01b031681565b6102b26105d2366004611ec7565b611a0b565b61028c60075481565b61028c60035481565b6000546001600160a01b0316331461061c5760405162461bcd60e51b815260040161061390611f64565b60405180910390fd5b610624611487565b6106705760405162461bcd60e51b815260206004820181905260248201527f43616e206f6e6c79206d6f76652066756e6473207768656e206c6f636b65642e6044820152606401610613565b60008061067c42611ae3565b50915091508160055414158061069457508060045414155b156106f5576005829055600481905560098054600191906000906106b9908490611faf565b90915550506009546040519081527f6f7839fd5911baac2dbc722962a0d38f7d09c5519b195dbf03e4cc27f890efc39060200160405180910390a15b6009546040805191825233602083015281018490527fdc4c93400ef75e0372536dbbd59f526428ac9b64f683c3178a1398e1f99266799060600160405180910390a1600e546040516323b872dd60e01b8152336004820152306024820152604481018590526001600160a01b03909116906323b872dd906064015b602060405180830381600087803b15801561078a57600080fd5b505af115801561079e573d6000803e3d6000fd5b505050506040513d601f19601f820116820180604052508101906107c29190611fc7565b50505050565b60006107d5338484611b09565b50600192915050565b6000806107e9611487565b156107fc576107f783610a8d565b6107ff565b60005b9392505050565b6009546000908152600c602090815260408083206001600160a01b038516845290915281205481610835611487565b6108475761084284610a8d565b61084a565b60005b905060006127106006548361085f9190611fe9565b610869919061201e565b9050806108768385611faf565b6108809190612032565b95945050505050565b6108933382610c71565b50565b60006108a18261142f565b6001600160a01b0383166000908152600b60205260409020549091508111156108ec576001600160a01b0382166000908152600b60205260409020546108e8908390610c71565b5050565b6108e8826119f5565b80600360008282546109079190611faf565b90915550506001600160a01b0382166000908152600b602052604081208054839290610934908490611faf565b90915550506009546000908152600a60205260408120805483929061095a908490611faf565b90915550506009546000908152600c602090815260408083206001600160a01b038616845290915281208054839290610994908490611faf565b9091555050600954604080519182526001600160a01b0384166020830152338282015260608201839052517f2c0f148b435140de488c1b34647f1511c646f7077e87007bacf22ef9977a16d89181900360800190a1600e546040516323b872dd60e01b8152336004820152306024820152604481018390526001600160a01b03909116906323b872dd90606401602060405180830381600087803b158015610a3b57600080fd5b505af1158015610a4f573d6000803e3d6000fd5b505050506040513d601f19601f82011682018060405250810190610a739190611fc7565b505050565b610a8133610896565b565b61089333826118fd565b6009546000908152600a60205260408120546003541415610ab057506000919050565b6009546000908152600a6020526040902054600354610acf9190612032565b6009546000908152600c602090815260408083206001600160a01b0387168452825280832054600b90925290912054610b089190612032565b6009546000908152600a60205260409081902054600e5491516370a0823160e01b815230600482015290916001600160a01b0316906370a082319060240160206040518083038186803b158015610b5e57600080fd5b505afa158015610b72573d6000803e3d6000fd5b505050506040513d601f19601f82011682018060405250810190610b969190612049565b610ba09190612032565b610baa9190611fe9565b610bb4919061201e565b92915050565b6000546001600160a01b03163314610be45760405162461bcd60e51b815260040161061390611f64565b600f80546001600160a01b0319166001600160a01b0392909216919091179055565b610a8133611748565b6000546001600160a01b03163314610c395760405162461bcd60e51b815260040161061390611f64565b600080546040516001600160a01b03909116906000805160206121ac833981519152908390a3600080546001600160a01b0319169055565b336001600160a01b038316811480610cad57506001600160a01b038084166000908152600d602090815260408083209385168352929052205415155b610ceb5760405162461bcd60e51b815260206004820152600f60248201526e2737ba1030baba3437b934bd32b21760891b6044820152606401610613565b60008211610d305760405162461bcd60e51b81526020600482015260126024820152710416d6f756e74206d757374206265203e20360741b6044820152606401610613565b6000610d3a611487565b6009546000908152600c602090815260408083206001600160a01b038916845290915281205491925082610d7657610d7186610a8d565b610d79565b60005b90506000610d878284611faf565b9050600081118015610d995750808611155b610de55760405162461bcd60e51b815260206004820152601b60248201527f496e73756666696369656e7420746f74616c2062616c616e63652e00000000006044820152606401610613565b6000838711610df45786610df6565b835b90506000610e048289612032565b905087610e118284611faf565b14610e1e57610e1e612062565b8115610f70576009546000908152600a602052604081208054849290610e45908490612032565b90915550506009546000908152600c602090815260408083206001600160a01b038d16845290915281208054849290610e7f908490612032565b925050819055508160036000828254610e989190612032565b90915550506001600160a01b0389166000908152600b602052604081208054849290610ec5908490612032565b90915550506001600160a01b0389811690881614610ee857610ee8898884611c4a565b600e5460405163a9059cbb60e01b81526001600160a01b038b81166004830152602482018590529091169063a9059cbb90604401602060405180830381600087803b158015610f3657600080fd5b505af1158015610f4a573d6000803e3d6000fd5b505050506040513d601f19601f82011682018060405250810190610f6e9190611fc7565b505b80156111f3576001600160a01b0389166000908152600b60205260409020546003548591610f9d91612032565b610fa79190611faf565b60039081556001600160a01b038a166000908152600b60205260408120869055815483929190610fd8908490612032565b90915550506001600160a01b0389166000908152600b602052604081208054839290611005908490612032565b90915550506006546000906127109061101e9084611fe9565b611028919061201e565b905080156110d557600e546001600160a01b031663a9059cbb6110536000546001600160a01b031690565b6040516001600160e01b031960e084901b1681526001600160a01b03909116600482015260248101849052604401602060405180830381600087803b15801561109b57600080fd5b505af11580156110af573d6000803e3d6000fd5b505050506040513d601f19601f820116820180604052508101906110d39190611fc7565b505b876001600160a01b03168a6001600160a01b0316146110f9576110f98a8984611c4a565b600e546001600160a01b031663a9059cbb8b6111158486612032565b6040516001600160e01b031960e085901b1681526001600160a01b0390921660048301526024820152604401602060405180830381600087803b15801561115b57600080fd5b505af115801561116f573d6000803e3d6000fd5b505050506040513d601f19601f820116820180604052508101906111939190611fc7565b50600954604080519182526001600160a01b038c811660208401528a1682820152606082018b905260808201839052517ffe7813e2866053d5c3938554e517b554fce6666a6561bed9eaa7419b29fa9b689181900360a00190a15061124d565b600954604080519182526001600160a01b038b81166020840152891682820152606082018a905260006080830152517ffe7813e2866053d5c3938554e517b554fce6666a6561bed9eaa7419b29fa9b689181900360a00190a15b505050505050505050565b6000546001600160a01b031633146112825760405162461bcd60e51b815260040161061390611f64565b61128a611487565b6112d65760405162461bcd60e51b815260206004820181905260248201527f43616e206f6e6c79206d6f76652066756e6473207768656e206c6f636b65642e6044820152606401610613565b6000806112e242611ae3565b5091509150816005541415806112fa57508060045414155b1561135f5760058290556004819055600980546001919060009061131f908490611faf565b90915550506009546040519081527f6f7839fd5911baac2dbc722962a0d38f7d09c5519b195dbf03e4cc27f890efc39060200160405180910390a16113b6565b611367611861565b8311156113b65760405162461bcd60e51b815260206004820152601b60248201527f4e6f7420656e6f7567682066756e647320617661696c61626c652e00000000006044820152606401610613565b6009546040805191825233602083015281018490527f3283abdb05cff705bd4faab57c532a3d4bfe5c83685e9c69e83d459bb88fb0739060600160405180910390a1600e5460405163a9059cbb60e01b8152336004820152602481018590526001600160a01b039091169063a9059cbb90604401610770565b6009546000908152600c602090815260408083206001600160a01b03851684529091528120548161145e611487565b6114705761146b84610a8d565b611473565b60005b905061147f8183611faf565b949350505050565b60008061149342611ce2565b90506007548110806114a6575060085481115b91505090565b6001546001600160a01b031633146115125760405162461bcd60e51b815260206004820152602360248201527f596f7520646f6e27742068617665207065726d697373696f6e20746f20756e6c6044820152626f636b60e81b6064820152608401610613565b60025442116115635760405162461bcd60e51b815260206004820152601f60248201527f436f6e7472616374206973206c6f636b656420756e74696c20372064617973006044820152606401610613565b600154600080546040516001600160a01b0393841693909116916000805160206121ac83398151915291a3600154600080546001600160a01b0319166001600160a01b03909216919091179055565b61089333826108f5565b6000546001600160a01b031633146115e65760405162461bcd60e51b815260040161061390611f64565b6102588311156116505760405162461bcd60e51b815260206004820152602f60248201527f576974686472617720666565206d757374206265206c6f776572206f7220657160448201526e3ab0b6103a37903a3430b7101b129760891b6064820152608401610613565b818110156116bc5760405162461bcd60e51b815260206004820152603360248201527f556e6c6f636b20646179206d6178206d757374206265206772656174657220746044820152723430b7103ab73637b1b5903230bc9036b4b71760691b6064820152608401610613565b6001600754101580156116d25750601c60085411155b61173a5760405162461bcd60e51b815260206004820152603360248201527f556e6c6f636b2074696d65206d75737420626520617420612074696d6520746860448201527230ba1030b6361036b7b73a3439903430bb329760691b6064820152608401610613565b600692909255600755600855565b611750611487565b1561179d5760405162461bcd60e51b815260206004820152601d60248201527f43616e6e6f742074616b652070726f666974206966206c6f636b65642e0000006044820152606401610613565b60006117a882610a8d565b6001600160a01b0383166000908152600b602052604090205490915081116118385760405162461bcd60e51b815260206004820152603760248201527f43616e27742074616b652070726f666974206f6e206c6f737365732f64656c7460448201527f61206e65757472616c2f70656e64696e67206f6e6c792e0000000000000000006064820152608401610613565b6001600160a01b0382166000908152600b60205260409020546108e89083906104489084612032565b6009546000908152600a602052604080822054600e5491516370a0823160e01b815230600482015290916001600160a01b0316906370a082319060240160206040518083038186803b1580156118b657600080fd5b505afa1580156118ca573d6000803e3d6000fd5b505050506040513d601f19601f820116820180604052508101906118ee9190612049565b6118f89190612032565b905090565b60006119088361142f565b905080821061191a57610a73836119f5565b610a738383610c71565b60008061192f611487565b156119425761193d83610a8d565b611945565b60005b905060006127106006548361195a9190611fe9565b611964919061201e565b905061147f8183612032565b6000546001600160a01b0316331461199a5760405162461bcd60e51b815260040161061390611f64565b60008054600180546001600160a01b03199081166001600160a01b038416179091551690556119c98142611faf565b600255600080546040516001600160a01b03909116906000805160206121ac833981519152908390a350565b610893816104488361142f565b610a81336119f5565b6000546001600160a01b03163314611a355760405162461bcd60e51b815260040161061390611f64565b6001600160a01b038116611a9a5760405162461bcd60e51b815260206004820152602660248201527f4f776e61626c653a206e6577206f776e657220697320746865207a65726f206160448201526564647265737360d01b6064820152608401610613565b600080546040516001600160a01b03808516939216916000805160206121ac83398151915291a3600080546001600160a01b0319166001600160a01b0392909216919091179055565b60008080611afc611af7620151808661201e565b611cf4565b9196909550909350915050565b6001600160a01b038316611b735760405162461bcd60e51b815260206004820152602b60248201527f54657472616457616c6c65743a20617070726f76652066726f6d20746865207a60448201526a65726f206164647265737360a81b6064820152608401610613565b6001600160a01b038216611bdb5760405162461bcd60e51b815260206004820152602960248201527f54657472616457616c6c65743a20617070726f766520746f20746865207a65726044820152686f206164647265737360b81b6064820152608401610613565b6001600160a01b038381166000818152600d602090815260408083209487168084529482529182902085905581519283528201929092529081018290527f8c5be1e5ebec7d5bd14f71427d1e84f3dd0314c0f7b2291e5b200ac8c7c3b9259060600160405180910390a1505050565b6001600160a01b038084166000908152600d602090815260408083209386168352929052205460001981146107c25781811015611cd55760405162461bcd60e51b8152602060048201526024808201527f54657472616457616c6c65743a20696e73756666696369656e7420616c6c6f77604482015263616e636560e01b6064820152608401610613565b6107c28484848403611b09565b600061147f611af7620151808461201e565b60008080838162253d8c611d0b8362010bd9612078565b611d159190612078565b9050600062023ab1611d288360046120b9565b611d32919061213e565b90506004611d438262023ab16120b9565b611d4e906003612078565b611d58919061213e565b611d62908361216c565b9150600062164b09611d75846001612078565b611d8190610fa06120b9565b611d8b919061213e565b90506004611d9b826105b56120b9565b611da5919061213e565b611daf908461216c565b611dba90601f612078565b9250600061098f611dcc8560506120b9565b611dd6919061213e565b905060006050611de88361098f6120b9565b611df2919061213e565b611dfc908661216c565b9050611e09600b8361213e565b9450611e1685600c6120b9565b611e21836002612078565b611e2b919061216c565b91508483611e3a60318761216c565b611e459060646120b9565b611e4f9190612078565b611e599190612078565b9a919950975095505050505050565b600060208284031215611e7a57600080fd5b5035919050565b80356001600160a01b0381168114611e9857600080fd5b919050565b60008060408385031215611eb057600080fd5b611eb983611e81565b946020939093013593505050565b600060208284031215611ed957600080fd5b6107ff82611e81565b600080600060608486031215611ef757600080fd5b505081359360208301359350604090920135919050565b60008060408385031215611f2157600080fd5b82359150611f3160208401611e81565b90509250929050565b60008060408385031215611f4d57600080fd5b611f5683611e81565b9150611f3160208401611e81565b6020808252818101527f4f776e61626c653a2063616c6c6572206973206e6f7420746865206f776e6572604082015260600190565b634e487b7160e01b600052601160045260246000fd5b60008219821115611fc257611fc2611f99565b500190565b600060208284031215611fd957600080fd5b815180151581146107ff57600080fd5b600081600019048311821515161561200357612003611f99565b500290565b634e487b7160e01b600052601260045260246000fd5b60008261202d5761202d612008565b500490565b60008282101561204457612044611f99565b500390565b60006020828403121561205b57600080fd5b5051919050565b634e487b7160e01b600052600160045260246000fd5b600080821280156001600160ff1b038490038513161561209a5761209a611f99565b600160ff1b83900384128116156120b3576120b3611f99565b50500190565b60006001600160ff1b03818413828413808216868404861116156120df576120df611f99565b600160ff1b60008712828116878305891216156120fe576120fe611f99565b6000871292508782058712848416161561211a5761211a611f99565b8785058712818416161561213057612130611f99565b505050929093029392505050565b60008261214d5761214d612008565b600160ff1b82146000198414161561216757612167611f99565b500590565b60008083128015600160ff1b85018412161561218a5761218a611f99565b6001600160ff1b03840183138116156121a5576121a5611f99565b5050039056fe8be0079c531659141344cd1fd0a4f28419497f9722a3daafe3b4186f6b6457e0a26469706673582212205d0126ed3f07808120745384f242dd5607467b2fc4bd8b314a249ed44e20593864736f6c63430008090033",
          "opcodes": "PUSH1 0x80 PUSH1 0x40 MSTORE CALLVALUE DUP1 ISZERO PUSH2 0x10 JUMPI PUSH1 0x0 DUP1 REVERT JUMPDEST POP PUSH1 0x40 MLOAD PUSH3 0x22F2 CODESIZE SUB DUP1 PUSH3 0x22F2 DUP4 CODECOPY DUP2 ADD PUSH1 0x40 DUP2 SWAP1 MSTORE PUSH2 0x31 SWAP2 PUSH2 0xB1 JUMP JUMPDEST PUSH1 0x0 DUP1 SLOAD PUSH1 0x1 PUSH1 0x1 PUSH1 0xA0 SHL SUB NOT AND CALLER SWAP1 DUP2 OR DUP3 SSTORE PUSH1 0x40 MLOAD SWAP1 SWAP2 DUP3 SWAP2 PUSH32 0x8BE0079C531659141344CD1FD0A4F28419497F9722A3DAAFE3B4186F6B6457E0 SWAP1 DUP3 SWAP1 LOG3 PUSH1 0xA5 PUSH1 0x6 SSTORE PUSH1 0x1 PUSH1 0x7 SSTORE PUSH1 0x5 PUSH1 0x8 SSTORE PUSH1 0xE DUP1 SLOAD PUSH1 0x1 PUSH1 0x1 PUSH1 0xA0 SHL SUB SWAP4 DUP5 AND PUSH1 0x1 PUSH1 0x1 PUSH1 0xA0 SHL SUB NOT SWAP2 DUP3 AND OR SWAP1 SWAP2 SSTORE PUSH1 0xF DUP1 SLOAD SWAP3 SWAP1 SWAP4 AND SWAP2 AND OR SWAP1 SSTORE PUSH2 0xE1 JUMP JUMPDEST PUSH1 0x0 PUSH1 0x20 DUP3 DUP5 SUB SLT ISZERO PUSH2 0xC3 JUMPI PUSH1 0x0 DUP1 REVERT JUMPDEST DUP2 MLOAD PUSH1 0x1 PUSH1 0x1 PUSH1 0xA0 SHL SUB DUP2 AND DUP2 EQ PUSH2 0xDA JUMPI PUSH1 0x0 DUP1 REVERT JUMPDEST SWAP4 SWAP3 POP POP POP JUMP JUMPDEST PUSH2 0x2201 DUP1 PUSH3 0xF1 PUSH1 0x0 CODECOPY PUSH1 0x0 RETURN INVALID PUSH1 0x80 PUSH1 0x40 MSTORE CALLVALUE DUP1 ISZERO PUSH2 0x10 JUMPI PUSH1 0x0 DUP1 REVERT JUMPDEST POP PUSH1 0x4 CALLDATASIZE LT PUSH2 0x27E JUMPI PUSH1 0x0 CALLDATALOAD PUSH1 0xE0 SHR DUP1 PUSH4 0x7C5B4A37 GT PUSH2 0x15C JUMPI DUP1 PUSH4 0xCF4B55CB GT PUSH2 0xCE JUMPI DUP1 PUSH4 0xE5225381 GT PUSH2 0x87 JUMPI DUP1 PUSH4 0xE5225381 EQ PUSH2 0x5A0 JUMPI DUP1 PUSH4 0xE941FA78 EQ PUSH2 0x5A8 JUMPI DUP1 PUSH4 0xF25F4B56 EQ PUSH2 0x5B1 JUMPI DUP1 PUSH4 0xF2FDE38B EQ PUSH2 0x5C4 JUMPI DUP1 PUSH4 0xFECCD323 EQ PUSH2 0x5D7 JUMPI DUP1 PUSH4 0xFF50ABDC EQ PUSH2 0x5E0 JUMPI PUSH1 0x0 DUP1 REVERT JUMPDEST DUP1 PUSH4 0xCF4B55CB EQ PUSH2 0x4FE JUMPI DUP1 PUSH4 0xD1AD6BBB EQ PUSH2 0x529 JUMPI DUP1 PUSH4 0xD5EA22E8 EQ PUSH2 0x53C JUMPI DUP1 PUSH4 0xDD467064 EQ PUSH2 0x54F JUMPI DUP1 PUSH4 0xDD62ED3E EQ PUSH2 0x562 JUMPI DUP1 PUSH4 0xE2618F5C EQ PUSH2 0x58D JUMPI PUSH1 0x0 DUP1 REVERT JUMPDEST DUP1 PUSH4 0xA69DF4B5 GT PUSH2 0x120 JUMPI DUP1 PUSH4 0xA69DF4B5 EQ PUSH2 0x4AC JUMPI DUP1 PUSH4 0xAFFED0E0 EQ PUSH2 0x4B4 JUMPI DUP1 PUSH4 0xB6B55F25 EQ PUSH2 0x4BD JUMPI DUP1 PUSH4 0xB7990A4E EQ PUSH2 0x4D0 JUMPI DUP1 PUSH4 0xBFB8C52D EQ PUSH2 0x4E3 JUMPI DUP1 PUSH4 0xCC1A57E7 EQ PUSH2 0x4F6 JUMPI PUSH1 0x0 DUP1 REVERT JUMPDEST DUP1 PUSH4 0x7C5B4A37 EQ PUSH2 0x44D JUMPI DUP1 PUSH4 0x8DA5CB5B EQ PUSH2 0x460 JUMPI DUP1 PUSH4 0xA25DB8CE EQ PUSH2 0x471 JUMPI DUP1 PUSH4 0xA4312F18 EQ PUSH2 0x484 JUMPI DUP1 PUSH4 0xA4E2D634 EQ PUSH2 0x4A4 JUMPI PUSH1 0x0 DUP1 REVERT JUMPDEST DUP1 PUSH4 0x5019F900 GT PUSH2 0x1F5 JUMPI DUP1 PUSH4 0x63C766E8 GT PUSH2 0x1B9 JUMPI DUP1 PUSH4 0x63C766E8 EQ PUSH2 0x3F1 JUMPI DUP1 PUSH4 0x66A1AC26 EQ PUSH2 0x404 JUMPI DUP1 PUSH4 0x6B211ACA EQ PUSH2 0x417 JUMPI DUP1 PUSH4 0x70C10578 EQ PUSH2 0x42A JUMPI DUP1 PUSH4 0x715018A6 EQ PUSH2 0x432 JUMPI DUP1 PUSH4 0x72329AE9 EQ PUSH2 0x43A JUMPI PUSH1 0x0 DUP1 REVERT JUMPDEST DUP1 PUSH4 0x5019F900 EQ PUSH2 0x3B8 JUMPI DUP1 PUSH4 0x5C2839DF EQ PUSH2 0x3C1 JUMPI DUP1 PUSH4 0x5C79D2D1 EQ PUSH2 0x3C9 JUMPI DUP1 PUSH4 0x5DD250AA EQ PUSH2 0x3D2 JUMPI DUP1 PUSH4 0x602BC62B EQ PUSH2 0x3E9 JUMPI PUSH1 0x0 DUP1 REVERT JUMPDEST DUP1 PUSH4 0x2CD4E7D2 GT PUSH2 0x247 JUMPI DUP1 PUSH4 0x2CD4E7D2 EQ PUSH2 0x30A JUMPI DUP1 PUSH4 0x2E1A7D4D EQ PUSH2 0x31D JUMPI DUP1 PUSH4 0x37DED170 EQ PUSH2 0x330 JUMPI DUP1 PUSH4 0x38D52E0F EQ PUSH2 0x343 JUMPI DUP1 PUSH4 0x3CA4D9F4 EQ PUSH2 0x36E JUMPI DUP1 PUSH4 0x46546978 EQ PUSH2 0x381 JUMPI PUSH1 0x0 DUP1 REVERT JUMPDEST DUP1 PUSH3 0x5A58B1 EQ PUSH2 0x283 JUMPI DUP1 PUSH4 0x8687794 EQ PUSH2 0x29F JUMPI DUP1 PUSH4 0x95EA7B3 EQ PUSH2 0x2B4 JUMPI DUP1 PUSH4 0x14214025 EQ PUSH2 0x2D7 JUMPI DUP1 PUSH4 0x1877BB5C EQ PUSH2 0x2EA JUMPI JUMPDEST PUSH1 0x0 DUP1 REVERT JUMPDEST PUSH2 0x28C PUSH1 0x8 SLOAD DUP2 JUMP JUMPDEST PUSH1 0x40 MLOAD SWAP1 DUP2 MSTORE PUSH1 0x20 ADD JUMPDEST PUSH1 0x40 MLOAD DUP1 SWAP2 SUB SWAP1 RETURN JUMPDEST PUSH2 0x2B2 PUSH2 0x2AD CALLDATASIZE PUSH1 0x4 PUSH2 0x1E68 JUMP JUMPDEST PUSH2 0x5E9 JUMP JUMPDEST STOP JUMPDEST PUSH2 0x2C7 PUSH2 0x2C2 CALLDATASIZE PUSH1 0x4 PUSH2 0x1E9D JUMP JUMPDEST PUSH2 0x7C8 JUMP JUMPDEST PUSH1 0x40 MLOAD SWAP1 ISZERO ISZERO DUP2 MSTORE PUSH1 0x20 ADD PUSH2 0x296 JUMP JUMPDEST PUSH2 0x28C PUSH2 0x2E5 CALLDATASIZE PUSH1 0x4 PUSH2 0x1EC7 JUMP JUMPDEST PUSH2 0x7DE JUMP JUMPDEST PUSH2 0x28C PUSH2 0x2F8 CALLDATASIZE PUSH1 0x4 PUSH2 0x1EC7 JUMP JUMPDEST PUSH1 0xB PUSH1 0x20 MSTORE PUSH1 0x0 SWAP1 DUP2 MSTORE PUSH1 0x40 SWAP1 KECCAK256 SLOAD DUP2 JUMP JUMPDEST PUSH2 0x28C PUSH2 0x318 CALLDATASIZE PUSH1 0x4 PUSH2 0x1EC7 JUMP JUMPDEST PUSH2 0x806 JUMP JUMPDEST PUSH2 0x2B2 PUSH2 0x32B CALLDATASIZE PUSH1 0x4 PUSH2 0x1E68 JUMP JUMPDEST PUSH2 0x889 JUMP JUMPDEST PUSH2 0x2B2 PUSH2 0x33E CALLDATASIZE PUSH1 0x4 PUSH2 0x1EC7 JUMP JUMPDEST PUSH2 0x896 JUMP JUMPDEST PUSH1 0xE SLOAD PUSH2 0x356 SWAP1 PUSH1 0x1 PUSH1 0x1 PUSH1 0xA0 SHL SUB AND DUP2 JUMP JUMPDEST PUSH1 0x40 MLOAD PUSH1 0x1 PUSH1 0x1 PUSH1 0xA0 SHL SUB SWAP1 SWAP2 AND DUP2 MSTORE PUSH1 0x20 ADD PUSH2 0x296 JUMP JUMPDEST PUSH2 0x2B2 PUSH2 0x37C CALLDATASIZE PUSH1 0x4 PUSH2 0x1E9D JUMP JUMPDEST PUSH2 0x8F5 JUMP JUMPDEST PUSH2 0x28C PUSH2 0x38F CALLDATASIZE PUSH1 0x4 PUSH2 0x1EC7 JUMP JUMPDEST PUSH1 0x9 SLOAD PUSH1 0x0 SWAP1 DUP2 MSTORE PUSH1 0xC PUSH1 0x20 SWAP1 DUP2 MSTORE PUSH1 0x40 DUP1 DUP4 KECCAK256 PUSH1 0x1 PUSH1 0x1 PUSH1 0xA0 SHL SUB SWAP1 SWAP5 AND DUP4 MSTORE SWAP3 SWAP1 MSTORE KECCAK256 SLOAD SWAP1 JUMP JUMPDEST PUSH2 0x28C PUSH1 0x5 SLOAD DUP2 JUMP JUMPDEST PUSH2 0x2B2 PUSH2 0xA78 JUMP JUMPDEST PUSH2 0x28C PUSH1 0x4 SLOAD DUP2 JUMP JUMPDEST PUSH1 0x9 SLOAD PUSH1 0x0 SWAP1 DUP2 MSTORE PUSH1 0xA PUSH1 0x20 MSTORE PUSH1 0x40 SWAP1 KECCAK256 SLOAD PUSH2 0x28C JUMP JUMPDEST PUSH1 0x2 SLOAD PUSH2 0x28C JUMP JUMPDEST PUSH2 0x2B2 PUSH2 0x3FF CALLDATASIZE PUSH1 0x4 PUSH2 0x1E68 JUMP JUMPDEST PUSH2 0xA83 JUMP JUMPDEST PUSH2 0x28C PUSH2 0x412 CALLDATASIZE PUSH1 0x4 PUSH2 0x1EC7 JUMP JUMPDEST PUSH2 0xA8D JUMP JUMPDEST PUSH2 0x2B2 PUSH2 0x425 CALLDATASIZE PUSH1 0x4 PUSH2 0x1EC7 JUMP JUMPDEST PUSH2 0xBBA JUMP JUMPDEST PUSH2 0x2B2 PUSH2 0xC06 JUMP JUMPDEST PUSH2 0x2B2 PUSH2 0xC0F JUMP JUMPDEST PUSH2 0x2B2 PUSH2 0x448 CALLDATASIZE PUSH1 0x4 PUSH2 0x1E9D JUMP JUMPDEST PUSH2 0xC71 JUMP JUMPDEST PUSH2 0x2B2 PUSH2 0x45B CALLDATASIZE PUSH1 0x4 PUSH2 0x1E68 JUMP JUMPDEST PUSH2 0x1258 JUMP JUMPDEST PUSH1 0x0 SLOAD PUSH1 0x1 PUSH1 0x1 PUSH1 0xA0 SHL SUB AND PUSH2 0x356 JUMP JUMPDEST PUSH2 0x28C PUSH2 0x47F CALLDATASIZE PUSH1 0x4 PUSH2 0x1EC7 JUMP JUMPDEST PUSH2 0x142F JUMP JUMPDEST PUSH2 0x28C PUSH2 0x492 CALLDATASIZE PUSH1 0x4 PUSH2 0x1E68 JUMP JUMPDEST PUSH1 0xA PUSH1 0x20 MSTORE PUSH1 0x0 SWAP1 DUP2 MSTORE PUSH1 0x40 SWAP1 KECCAK256 SLOAD DUP2 JUMP JUMPDEST PUSH2 0x2C7 PUSH2 0x1487 JUMP JUMPDEST PUSH2 0x2B2 PUSH2 0x14AC JUMP JUMPDEST PUSH2 0x28C PUSH1 0x9 SLOAD DUP2 JUMP JUMPDEST PUSH2 0x2B2 PUSH2 0x4CB CALLDATASIZE PUSH1 0x4 PUSH2 0x1E68 JUMP JUMPDEST PUSH2 0x15B2 JUMP JUMPDEST PUSH2 0x2B2 PUSH2 0x4DE CALLDATASIZE PUSH1 0x4 PUSH2 0x1EE2 JUMP JUMPDEST PUSH2 0x15BC JUMP JUMPDEST PUSH2 0x2B2 PUSH2 0x4F1 CALLDATASIZE PUSH1 0x4 PUSH2 0x1EC7 JUMP JUMPDEST PUSH2 0x1748 JUMP JUMPDEST PUSH2 0x28C PUSH2 0x1861 JUMP JUMPDEST PUSH2 0x28C PUSH2 0x50C CALLDATASIZE PUSH1 0x4 PUSH2 0x1F0E JUMP JUMPDEST PUSH1 0xC PUSH1 0x20 SWAP1 DUP2 MSTORE PUSH1 0x0 SWAP3 DUP4 MSTORE PUSH1 0x40 DUP1 DUP5 KECCAK256 SWAP1 SWAP2 MSTORE SWAP1 DUP3 MSTORE SWAP1 KECCAK256 SLOAD DUP2 JUMP JUMPDEST PUSH2 0x2B2 PUSH2 0x537 CALLDATASIZE PUSH1 0x4 PUSH2 0x1E9D JUMP JUMPDEST PUSH2 0x18FD JUMP JUMPDEST PUSH2 0x28C PUSH2 0x54A CALLDATASIZE PUSH1 0x4 PUSH2 0x1EC7 JUMP JUMPDEST PUSH2 0x1924 JUMP JUMPDEST PUSH2 0x2B2 PUSH2 0x55D CALLDATASIZE PUSH1 0x4 PUSH2 0x1E68 JUMP JUMPDEST PUSH2 0x1970 JUMP JUMPDEST PUSH2 0x28C PUSH2 0x570 CALLDATASIZE PUSH1 0x4 PUSH2 0x1F3A JUMP JUMPDEST PUSH1 0xD PUSH1 0x20 SWAP1 DUP2 MSTORE PUSH1 0x0 SWAP3 DUP4 MSTORE PUSH1 0x40 DUP1 DUP5 KECCAK256 SWAP1 SWAP2 MSTORE SWAP1 DUP3 MSTORE SWAP1 KECCAK256 SLOAD DUP2 JUMP JUMPDEST PUSH2 0x2B2 PUSH2 0x59B CALLDATASIZE PUSH1 0x4 PUSH2 0x1EC7 JUMP JUMPDEST PUSH2 0x19F5 JUMP JUMPDEST PUSH2 0x2B2 PUSH2 0x1A02 JUMP JUMPDEST PUSH2 0x28C PUSH1 0x6 SLOAD DUP2 JUMP JUMPDEST PUSH1 0xF SLOAD PUSH2 0x356 SWAP1 PUSH1 0x1 PUSH1 0x1 PUSH1 0xA0 SHL SUB AND DUP2 JUMP JUMPDEST PUSH2 0x2B2 PUSH2 0x5D2 CALLDATASIZE PUSH1 0x4 PUSH2 0x1EC7 JUMP JUMPDEST PUSH2 0x1A0B JUMP JUMPDEST PUSH2 0x28C PUSH1 0x7 SLOAD DUP2 JUMP JUMPDEST PUSH2 0x28C PUSH1 0x3 SLOAD DUP2 JUMP JUMPDEST PUSH1 0x0 SLOAD PUSH1 0x1 PUSH1 0x1 PUSH1 0xA0 SHL SUB AND CALLER EQ PUSH2 0x61C JUMPI PUSH1 0x40 MLOAD PUSH3 0x461BCD PUSH1 0xE5 SHL DUP2 MSTORE PUSH1 0x4 ADD PUSH2 0x613 SWAP1 PUSH2 0x1F64 JUMP JUMPDEST PUSH1 0x40 MLOAD DUP1 SWAP2 SUB SWAP1 REVERT JUMPDEST PUSH2 0x624 PUSH2 0x1487 JUMP JUMPDEST PUSH2 0x670 JUMPI PUSH1 0x40 MLOAD PUSH3 0x461BCD PUSH1 0xE5 SHL DUP2 MSTORE PUSH1 0x20 PUSH1 0x4 DUP3 ADD DUP2 SWAP1 MSTORE PUSH1 0x24 DUP3 ADD MSTORE PUSH32 0x43616E206F6E6C79206D6F76652066756E6473207768656E206C6F636B65642E PUSH1 0x44 DUP3 ADD MSTORE PUSH1 0x64 ADD PUSH2 0x613 JUMP JUMPDEST PUSH1 0x0 DUP1 PUSH2 0x67C TIMESTAMP PUSH2 0x1AE3 JUMP JUMPDEST POP SWAP2 POP SWAP2 POP DUP2 PUSH1 0x5 SLOAD EQ ISZERO DUP1 PUSH2 0x694 JUMPI POP DUP1 PUSH1 0x4 SLOAD EQ ISZERO JUMPDEST ISZERO PUSH2 0x6F5 JUMPI PUSH1 0x5 DUP3 SWAP1 SSTORE PUSH1 0x4 DUP2 SWAP1 SSTORE PUSH1 0x9 DUP1 SLOAD PUSH1 0x1 SWAP2 SWAP1 PUSH1 0x0 SWAP1 PUSH2 0x6B9 SWAP1 DUP5 SWAP1 PUSH2 0x1FAF JUMP JUMPDEST SWAP1 SWAP2 SSTORE POP POP PUSH1 0x9 SLOAD PUSH1 0x40 MLOAD SWAP1 DUP2 MSTORE PUSH32 0x6F7839FD5911BAAC2DBC722962A0D38F7D09C5519B195DBF03E4CC27F890EFC3 SWAP1 PUSH1 0x20 ADD PUSH1 0x40 MLOAD DUP1 SWAP2 SUB SWAP1 LOG1 JUMPDEST PUSH1 0x9 SLOAD PUSH1 0x40 DUP1 MLOAD SWAP2 DUP3 MSTORE CALLER PUSH1 0x20 DUP4 ADD MSTORE DUP2 ADD DUP5 SWAP1 MSTORE PUSH32 0xDC4C93400EF75E0372536DBBD59F526428AC9B64F683C3178A1398E1F9926679 SWAP1 PUSH1 0x60 ADD PUSH1 0x40 MLOAD DUP1 SWAP2 SUB SWAP1 LOG1 PUSH1 0xE SLOAD PUSH1 0x40 MLOAD PUSH4 0x23B872DD PUSH1 0xE0 SHL DUP2 MSTORE CALLER PUSH1 0x4 DUP3 ADD MSTORE ADDRESS PUSH1 0x24 DUP3 ADD MSTORE PUSH1 0x44 DUP2 ADD DUP6 SWAP1 MSTORE PUSH1 0x1 PUSH1 0x1 PUSH1 0xA0 SHL SUB SWAP1 SWAP2 AND SWAP1 PUSH4 0x23B872DD SWAP1 PUSH1 0x64 ADD JUMPDEST PUSH1 0x20 PUSH1 0x40 MLOAD DUP1 DUP4 SUB DUP2 PUSH1 0x0 DUP8 DUP1 EXTCODESIZE ISZERO DUP1 ISZERO PUSH2 0x78A JUMPI PUSH1 0x0 DUP1 REVERT JUMPDEST POP GAS CALL ISZERO DUP1 ISZERO PUSH2 0x79E JUMPI RETURNDATASIZE PUSH1 0x0 DUP1 RETURNDATACOPY RETURNDATASIZE PUSH1 0x0 REVERT JUMPDEST POP POP POP POP PUSH1 0x40 MLOAD RETURNDATASIZE PUSH1 0x1F NOT PUSH1 0x1F DUP3 ADD AND DUP3 ADD DUP1 PUSH1 0x40 MSTORE POP DUP2 ADD SWAP1 PUSH2 0x7C2 SWAP2 SWAP1 PUSH2 0x1FC7 JUMP JUMPDEST POP POP POP POP JUMP JUMPDEST PUSH1 0x0 PUSH2 0x7D5 CALLER DUP5 DUP5 PUSH2 0x1B09 JUMP JUMPDEST POP PUSH1 0x1 SWAP3 SWAP2 POP POP JUMP JUMPDEST PUSH1 0x0 DUP1 PUSH2 0x7E9 PUSH2 0x1487 JUMP JUMPDEST ISZERO PUSH2 0x7FC JUMPI PUSH2 0x7F7 DUP4 PUSH2 0xA8D JUMP JUMPDEST PUSH2 0x7FF JUMP JUMPDEST PUSH1 0x0 JUMPDEST SWAP4 SWAP3 POP POP POP JUMP JUMPDEST PUSH1 0x9 SLOAD PUSH1 0x0 SWAP1 DUP2 MSTORE PUSH1 0xC PUSH1 0x20 SWAP1 DUP2 MSTORE PUSH1 0x40 DUP1 DUP4 KECCAK256 PUSH1 0x1 PUSH1 0x1 PUSH1 0xA0 SHL SUB DUP6 AND DUP5 MSTORE SWAP1 SWAP2 MSTORE DUP2 KECCAK256 SLOAD DUP2 PUSH2 0x835 PUSH2 0x1487 JUMP JUMPDEST PUSH2 0x847 JUMPI PUSH2 0x842 DUP5 PUSH2 0xA8D JUMP JUMPDEST PUSH2 0x84A JUMP JUMPDEST PUSH1 0x0 JUMPDEST SWAP1 POP PUSH1 0x0 PUSH2 0x2710 PUSH1 0x6 SLOAD DUP4 PUSH2 0x85F SWAP2 SWAP1 PUSH2 0x1FE9 JUMP JUMPDEST PUSH2 0x869 SWAP2 SWAP1 PUSH2 0x201E JUMP JUMPDEST SWAP1 POP DUP1 PUSH2 0x876 DUP4 DUP6 PUSH2 0x1FAF JUMP JUMPDEST PUSH2 0x880 SWAP2 SWAP1 PUSH2 0x2032 JUMP JUMPDEST SWAP6 SWAP5 POP POP POP POP POP JUMP JUMPDEST PUSH2 0x893 CALLER DUP3 PUSH2 0xC71 JUMP JUMPDEST POP JUMP JUMPDEST PUSH1 0x0 PUSH2 0x8A1 DUP3 PUSH2 0x142F JUMP JUMPDEST PUSH1 0x1 PUSH1 0x1 PUSH1 0xA0 SHL SUB DUP4 AND PUSH1 0x0 SWAP1 DUP2 MSTORE PUSH1 0xB PUSH1 0x20 MSTORE PUSH1 0x40 SWAP1 KECCAK256 SLOAD SWAP1 SWAP2 POP DUP2 GT ISZERO PUSH2 0x8EC JUMPI PUSH1 0x1 PUSH1 0x1 PUSH1 0xA0 SHL SUB DUP3 AND PUSH1 0x0 SWAP1 DUP2 MSTORE PUSH1 0xB PUSH1 0x20 MSTORE PUSH1 0x40 SWAP1 KECCAK256 SLOAD PUSH2 0x8E8 SWAP1 DUP4 SWAP1 PUSH2 0xC71 JUMP JUMPDEST POP POP JUMP JUMPDEST PUSH2 0x8E8 DUP3 PUSH2 0x19F5 JUMP JUMPDEST DUP1 PUSH1 0x3 PUSH1 0x0 DUP3 DUP3 SLOAD PUSH2 0x907 SWAP2 SWAP1 PUSH2 0x1FAF JUMP JUMPDEST SWAP1 SWAP2 SSTORE POP POP PUSH1 0x1 PUSH1 0x1 PUSH1 0xA0 SHL SUB DUP3 AND PUSH1 0x0 SWAP1 DUP2 MSTORE PUSH1 0xB PUSH1 0x20 MSTORE PUSH1 0x40 DUP2 KECCAK256 DUP1 SLOAD DUP4 SWAP3 SWAP1 PUSH2 0x934 SWAP1 DUP5 SWAP1 PUSH2 0x1FAF JUMP JUMPDEST SWAP1 SWAP2 SSTORE POP POP PUSH1 0x9 SLOAD PUSH1 0x0 SWAP1 DUP2 MSTORE PUSH1 0xA PUSH1 0x20 MSTORE PUSH1 0x40 DUP2 KECCAK256 DUP1 SLOAD DUP4 SWAP3 SWAP1 PUSH2 0x95A SWAP1 DUP5 SWAP1 PUSH2 0x1FAF JUMP JUMPDEST SWAP1 SWAP2 SSTORE POP POP PUSH1 0x9 SLOAD PUSH1 0x0 SWAP1 DUP2 MSTORE PUSH1 0xC PUSH1 0x20 SWAP1 DUP2 MSTORE PUSH1 0x40 DUP1 DUP4 KECCAK256 PUSH1 0x1 PUSH1 0x1 PUSH1 0xA0 SHL SUB DUP7 AND DUP5 MSTORE SWAP1 SWAP2 MSTORE DUP2 KECCAK256 DUP1 SLOAD DUP4 SWAP3 SWAP1 PUSH2 0x994 SWAP1 DUP5 SWAP1 PUSH2 0x1FAF JUMP JUMPDEST SWAP1 SWAP2 SSTORE POP POP PUSH1 0x9 SLOAD PUSH1 0x40 DUP1 MLOAD SWAP2 DUP3 MSTORE PUSH1 0x1 PUSH1 0x1 PUSH1 0xA0 SHL SUB DUP5 AND PUSH1 0x20 DUP4 ADD MSTORE CALLER DUP3 DUP3 ADD MSTORE PUSH1 0x60 DUP3 ADD DUP4 SWAP1 MSTORE MLOAD PUSH32 0x2C0F148B435140DE488C1B34647F1511C646F7077E87007BACF22EF9977A16D8 SWAP2 DUP2 SWAP1 SUB PUSH1 0x80 ADD SWAP1 LOG1 PUSH1 0xE SLOAD PUSH1 0x40 MLOAD PUSH4 0x23B872DD PUSH1 0xE0 SHL DUP2 MSTORE CALLER PUSH1 0x4 DUP3 ADD MSTORE ADDRESS PUSH1 0x24 DUP3 ADD MSTORE PUSH1 0x44 DUP2 ADD DUP4 SWAP1 MSTORE PUSH1 0x1 PUSH1 0x1 PUSH1 0xA0 SHL SUB SWAP1 SWAP2 AND SWAP1 PUSH4 0x23B872DD SWAP1 PUSH1 0x64 ADD PUSH1 0x20 PUSH1 0x40 MLOAD DUP1 DUP4 SUB DUP2 PUSH1 0x0 DUP8 DUP1 EXTCODESIZE ISZERO DUP1 ISZERO PUSH2 0xA3B JUMPI PUSH1 0x0 DUP1 REVERT JUMPDEST POP GAS CALL ISZERO DUP1 ISZERO PUSH2 0xA4F JUMPI RETURNDATASIZE PUSH1 0x0 DUP1 RETURNDATACOPY RETURNDATASIZE PUSH1 0x0 REVERT JUMPDEST POP POP POP POP PUSH1 0x40 MLOAD RETURNDATASIZE PUSH1 0x1F NOT PUSH1 0x1F DUP3 ADD AND DUP3 ADD DUP1 PUSH1 0x40 MSTORE POP DUP2 ADD SWAP1 PUSH2 0xA73 SWAP2 SWAP1 PUSH2 0x1FC7 JUMP JUMPDEST POP POP POP JUMP JUMPDEST PUSH2 0xA81 CALLER PUSH2 0x896 JUMP JUMPDEST JUMP JUMPDEST PUSH2 0x893 CALLER DUP3 PUSH2 0x18FD JUMP JUMPDEST PUSH1 0x9 SLOAD PUSH1 0x0 SWAP1 DUP2 MSTORE PUSH1 0xA PUSH1 0x20 MSTORE PUSH1 0x40 DUP2 KECCAK256 SLOAD PUSH1 0x3 SLOAD EQ ISZERO PUSH2 0xAB0 JUMPI POP PUSH1 0x0 SWAP2 SWAP1 POP JUMP JUMPDEST PUSH1 0x9 SLOAD PUSH1 0x0 SWAP1 DUP2 MSTORE PUSH1 0xA PUSH1 0x20 MSTORE PUSH1 0x40 SWAP1 KECCAK256 SLOAD PUSH1 0x3 SLOAD PUSH2 0xACF SWAP2 SWAP1 PUSH2 0x2032 JUMP JUMPDEST PUSH1 0x9 SLOAD PUSH1 0x0 SWAP1 DUP2 MSTORE PUSH1 0xC PUSH1 0x20 SWAP1 DUP2 MSTORE PUSH1 0x40 DUP1 DUP4 KECCAK256 PUSH1 0x1 PUSH1 0x1 PUSH1 0xA0 SHL SUB DUP8 AND DUP5 MSTORE DUP3 MSTORE DUP1 DUP4 KECCAK256 SLOAD PUSH1 0xB SWAP1 SWAP3 MSTORE SWAP1 SWAP2 KECCAK256 SLOAD PUSH2 0xB08 SWAP2 SWAP1 PUSH2 0x2032 JUMP JUMPDEST PUSH1 0x9 SLOAD PUSH1 0x0 SWAP1 DUP2 MSTORE PUSH1 0xA PUSH1 0x20 MSTORE PUSH1 0x40 SWAP1 DUP2 SWAP1 KECCAK256 SLOAD PUSH1 0xE SLOAD SWAP2 MLOAD PUSH4 0x70A08231 PUSH1 0xE0 SHL DUP2 MSTORE ADDRESS PUSH1 0x4 DUP3 ADD MSTORE SWAP1 SWAP2 PUSH1 0x1 PUSH1 0x1 PUSH1 0xA0 SHL SUB AND SWAP1 PUSH4 0x70A08231 SWAP1 PUSH1 0x24 ADD PUSH1 0x20 PUSH1 0x40 MLOAD DUP1 DUP4 SUB DUP2 DUP7 DUP1 EXTCODESIZE ISZERO DUP1 ISZERO PUSH2 0xB5E JUMPI PUSH1 0x0 DUP1 REVERT JUMPDEST POP GAS STATICCALL ISZERO DUP1 ISZERO PUSH2 0xB72 JUMPI RETURNDATASIZE PUSH1 0x0 DUP1 RETURNDATACOPY RETURNDATASIZE PUSH1 0x0 REVERT JUMPDEST POP POP POP POP PUSH1 0x40 MLOAD RETURNDATASIZE PUSH1 0x1F NOT PUSH1 0x1F DUP3 ADD AND DUP3 ADD DUP1 PUSH1 0x40 MSTORE POP DUP2 ADD SWAP1 PUSH2 0xB96 SWAP2 SWAP1 PUSH2 0x2049 JUMP JUMPDEST PUSH2 0xBA0 SWAP2 SWAP1 PUSH2 0x2032 JUMP JUMPDEST PUSH2 0xBAA SWAP2 SWAP1 PUSH2 0x1FE9 JUMP JUMPDEST PUSH2 0xBB4 SWAP2 SWAP1 PUSH2 0x201E JUMP JUMPDEST SWAP3 SWAP2 POP POP JUMP JUMPDEST PUSH1 0x0 SLOAD PUSH1 0x1 PUSH1 0x1 PUSH1 0xA0 SHL SUB AND CALLER EQ PUSH2 0xBE4 JUMPI PUSH1 0x40 MLOAD PUSH3 0x461BCD PUSH1 0xE5 SHL DUP2 MSTORE PUSH1 0x4 ADD PUSH2 0x613 SWAP1 PUSH2 0x1F64 JUMP JUMPDEST PUSH1 0xF DUP1 SLOAD PUSH1 0x1 PUSH1 0x1 PUSH1 0xA0 SHL SUB NOT AND PUSH1 0x1 PUSH1 0x1 PUSH1 0xA0 SHL SUB SWAP3 SWAP1 SWAP3 AND SWAP2 SWAP1 SWAP2 OR SWAP1 SSTORE JUMP JUMPDEST PUSH2 0xA81 CALLER PUSH2 0x1748 JUMP JUMPDEST PUSH1 0x0 SLOAD PUSH1 0x1 PUSH1 0x1 PUSH1 0xA0 SHL SUB AND CALLER EQ PUSH2 0xC39 JUMPI PUSH1 0x40 MLOAD PUSH3 0x461BCD PUSH1 0xE5 SHL DUP2 MSTORE PUSH1 0x4 ADD PUSH2 0x613 SWAP1 PUSH2 0x1F64 JUMP JUMPDEST PUSH1 0x0 DUP1 SLOAD PUSH1 0x40 MLOAD PUSH1 0x1 PUSH1 0x1 PUSH1 0xA0 SHL SUB SWAP1 SWAP2 AND SWAP1 PUSH1 0x0 DUP1 MLOAD PUSH1 0x20 PUSH2 0x21AC DUP4 CODECOPY DUP2 MLOAD SWAP2 MSTORE SWAP1 DUP4 SWAP1 LOG3 PUSH1 0x0 DUP1 SLOAD PUSH1 0x1 PUSH1 0x1 PUSH1 0xA0 SHL SUB NOT AND SWAP1 SSTORE JUMP JUMPDEST CALLER PUSH1 0x1 PUSH1 0x1 PUSH1 0xA0 SHL SUB DUP4 AND DUP2 EQ DUP1 PUSH2 0xCAD JUMPI POP PUSH1 0x1 PUSH1 0x1 PUSH1 0xA0 SHL SUB DUP1 DUP5 AND PUSH1 0x0 SWAP1 DUP2 MSTORE PUSH1 0xD PUSH1 0x20 SWAP1 DUP2 MSTORE PUSH1 0x40 DUP1 DUP4 KECCAK256 SWAP4 DUP6 AND DUP4 MSTORE SWAP3 SWAP1 MSTORE KECCAK256 SLOAD ISZERO ISZERO JUMPDEST PUSH2 0xCEB JUMPI PUSH1 0x40 MLOAD PUSH3 0x461BCD PUSH1 0xE5 SHL DUP2 MSTORE PUSH1 0x20 PUSH1 0x4 DUP3 ADD MSTORE PUSH1 0xF PUSH1 0x24 DUP3 ADD MSTORE PUSH15 0x2737BA1030BABA3437B934BD32B217 PUSH1 0x89 SHL PUSH1 0x44 DUP3 ADD MSTORE PUSH1 0x64 ADD PUSH2 0x613 JUMP JUMPDEST PUSH1 0x0 DUP3 GT PUSH2 0xD30 JUMPI PUSH1 0x40 MLOAD PUSH3 0x461BCD PUSH1 0xE5 SHL DUP2 MSTORE PUSH1 0x20 PUSH1 0x4 DUP3 ADD MSTORE PUSH1 0x12 PUSH1 0x24 DUP3 ADD MSTORE PUSH18 0x416D6F756E74206D757374206265203E203 PUSH1 0x74 SHL PUSH1 0x44 DUP3 ADD MSTORE PUSH1 0x64 ADD PUSH2 0x613 JUMP JUMPDEST PUSH1 0x0 PUSH2 0xD3A PUSH2 0x1487 JUMP JUMPDEST PUSH1 0x9 SLOAD PUSH1 0x0 SWAP1 DUP2 MSTORE PUSH1 0xC PUSH1 0x20 SWAP1 DUP2 MSTORE PUSH1 0x40 DUP1 DUP4 KECCAK256 PUSH1 0x1 PUSH1 0x1 PUSH1 0xA0 SHL SUB DUP10 AND DUP5 MSTORE SWAP1 SWAP2 MSTORE DUP2 KECCAK256 SLOAD SWAP2 SWAP3 POP DUP3 PUSH2 0xD76 JUMPI PUSH2 0xD71 DUP7 PUSH2 0xA8D JUMP JUMPDEST PUSH2 0xD79 JUMP JUMPDEST PUSH1 0x0 JUMPDEST SWAP1 POP PUSH1 0x0 PUSH2 0xD87 DUP3 DUP5 PUSH2 0x1FAF JUMP JUMPDEST SWAP1 POP PUSH1 0x0 DUP2 GT DUP1 ISZERO PUSH2 0xD99 JUMPI POP DUP1 DUP7 GT ISZERO JUMPDEST PUSH2 0xDE5 JUMPI PUSH1 0x40 MLOAD PUSH3 0x461BCD PUSH1 0xE5 SHL DUP2 MSTORE PUSH1 0x20 PUSH1 0x4 DUP3 ADD MSTORE PUSH1 0x1B PUSH1 0x24 DUP3 ADD MSTORE PUSH32 0x496E73756666696369656E7420746F74616C2062616C616E63652E0000000000 PUSH1 0x44 DUP3 ADD MSTORE PUSH1 0x64 ADD PUSH2 0x613 JUMP JUMPDEST PUSH1 0x0 DUP4 DUP8 GT PUSH2 0xDF4 JUMPI DUP7 PUSH2 0xDF6 JUMP JUMPDEST DUP4 JUMPDEST SWAP1 POP PUSH1 0x0 PUSH2 0xE04 DUP3 DUP10 PUSH2 0x2032 JUMP JUMPDEST SWAP1 POP DUP8 PUSH2 0xE11 DUP3 DUP5 PUSH2 0x1FAF JUMP JUMPDEST EQ PUSH2 0xE1E JUMPI PUSH2 0xE1E PUSH2 0x2062 JUMP JUMPDEST DUP2 ISZERO PUSH2 0xF70 JUMPI PUSH1 0x9 SLOAD PUSH1 0x0 SWAP1 DUP2 MSTORE PUSH1 0xA PUSH1 0x20 MSTORE PUSH1 0x40 DUP2 KECCAK256 DUP1 SLOAD DUP5 SWAP3 SWAP1 PUSH2 0xE45 SWAP1 DUP5 SWAP1 PUSH2 0x2032 JUMP JUMPDEST SWAP1 SWAP2 SSTORE POP POP PUSH1 0x9 SLOAD PUSH1 0x0 SWAP1 DUP2 MSTORE PUSH1 0xC PUSH1 0x20 SWAP1 DUP2 MSTORE PUSH1 0x40 DUP1 DUP4 KECCAK256 PUSH1 0x1 PUSH1 0x1 PUSH1 0xA0 SHL SUB DUP14 AND DUP5 MSTORE SWAP1 SWAP2 MSTORE DUP2 KECCAK256 DUP1 SLOAD DUP5 SWAP3 SWAP1 PUSH2 0xE7F SWAP1 DUP5 SWAP1 PUSH2 0x2032 JUMP JUMPDEST SWAP3 POP POP DUP2 SWAP1 SSTORE POP DUP2 PUSH1 0x3 PUSH1 0x0 DUP3 DUP3 SLOAD PUSH2 0xE98 SWAP2 SWAP1 PUSH2 0x2032 JUMP JUMPDEST SWAP1 SWAP2 SSTORE POP POP PUSH1 0x1 PUSH1 0x1 PUSH1 0xA0 SHL SUB DUP10 AND PUSH1 0x0 SWAP1 DUP2 MSTORE PUSH1 0xB PUSH1 0x20 MSTORE PUSH1 0x40 DUP2 KECCAK256 DUP1 SLOAD DUP5 SWAP3 SWAP1 PUSH2 0xEC5 SWAP1 DUP5 SWAP1 PUSH2 0x2032 JUMP JUMPDEST SWAP1 SWAP2 SSTORE POP POP PUSH1 0x1 PUSH1 0x1 PUSH1 0xA0 SHL SUB DUP10 DUP2 AND SWAP1 DUP9 AND EQ PUSH2 0xEE8 JUMPI PUSH2 0xEE8 DUP10 DUP9 DUP5 PUSH2 0x1C4A JUMP JUMPDEST PUSH1 0xE SLOAD PUSH1 0x40 MLOAD PUSH4 0xA9059CBB PUSH1 0xE0 SHL DUP2 MSTORE PUSH1 0x1 PUSH1 0x1 PUSH1 0xA0 SHL SUB DUP12 DUP2 AND PUSH1 0x4 DUP4 ADD MSTORE PUSH1 0x24 DUP3 ADD DUP6 SWAP1 MSTORE SWAP1 SWAP2 AND SWAP1 PUSH4 0xA9059CBB SWAP1 PUSH1 0x44 ADD PUSH1 0x20 PUSH1 0x40 MLOAD DUP1 DUP4 SUB DUP2 PUSH1 0x0 DUP8 DUP1 EXTCODESIZE ISZERO DUP1 ISZERO PUSH2 0xF36 JUMPI PUSH1 0x0 DUP1 REVERT JUMPDEST POP GAS CALL ISZERO DUP1 ISZERO PUSH2 0xF4A JUMPI RETURNDATASIZE PUSH1 0x0 DUP1 RETURNDATACOPY RETURNDATASIZE PUSH1 0x0 REVERT JUMPDEST POP POP POP POP PUSH1 0x40 MLOAD RETURNDATASIZE PUSH1 0x1F NOT PUSH1 0x1F DUP3 ADD AND DUP3 ADD DUP1 PUSH1 0x40 MSTORE POP DUP2 ADD SWAP1 PUSH2 0xF6E SWAP2 SWAP1 PUSH2 0x1FC7 JUMP JUMPDEST POP JUMPDEST DUP1 ISZERO PUSH2 0x11F3 JUMPI PUSH1 0x1 PUSH1 0x1 PUSH1 0xA0 SHL SUB DUP10 AND PUSH1 0x0 SWAP1 DUP2 MSTORE PUSH1 0xB PUSH1 0x20 MSTORE PUSH1 0x40 SWAP1 KECCAK256 SLOAD PUSH1 0x3 SLOAD DUP6 SWAP2 PUSH2 0xF9D SWAP2 PUSH2 0x2032 JUMP JUMPDEST PUSH2 0xFA7 SWAP2 SWAP1 PUSH2 0x1FAF JUMP JUMPDEST PUSH1 0x3 SWAP1 DUP2 SSTORE PUSH1 0x1 PUSH1 0x1 PUSH1 0xA0 SHL SUB DUP11 AND PUSH1 0x0 SWAP1 DUP2 MSTORE PUSH1 0xB PUSH1 0x20 MSTORE PUSH1 0x40 DUP2 KECCAK256 DUP7 SWAP1 SSTORE DUP2 SLOAD DUP4 SWAP3 SWAP2 SWAP1 PUSH2 0xFD8 SWAP1 DUP5 SWAP1 PUSH2 0x2032 JUMP JUMPDEST SWAP1 SWAP2 SSTORE POP POP PUSH1 0x1 PUSH1 0x1 PUSH1 0xA0 SHL SUB DUP10 AND PUSH1 0x0 SWAP1 DUP2 MSTORE PUSH1 0xB PUSH1 0x20 MSTORE PUSH1 0x40 DUP2 KECCAK256 DUP1 SLOAD DUP4 SWAP3 SWAP1 PUSH2 0x1005 SWAP1 DUP5 SWAP1 PUSH2 0x2032 JUMP JUMPDEST SWAP1 SWAP2 SSTORE POP POP PUSH1 0x6 SLOAD PUSH1 0x0 SWAP1 PUSH2 0x2710 SWAP1 PUSH2 0x101E SWAP1 DUP5 PUSH2 0x1FE9 JUMP JUMPDEST PUSH2 0x1028 SWAP2 SWAP1 PUSH2 0x201E JUMP JUMPDEST SWAP1 POP DUP1 ISZERO PUSH2 0x10D5 JUMPI PUSH1 0xE SLOAD PUSH1 0x1 PUSH1 0x1 PUSH1 0xA0 SHL SUB AND PUSH4 0xA9059CBB PUSH2 0x1053 PUSH1 0x0 SLOAD PUSH1 0x1 PUSH1 0x1 PUSH1 0xA0 SHL SUB AND SWAP1 JUMP JUMPDEST PUSH1 0x40 MLOAD PUSH1 0x1 PUSH1 0x1 PUSH1 0xE0 SHL SUB NOT PUSH1 0xE0 DUP5 SWAP1 SHL AND DUP2 MSTORE PUSH1 0x1 PUSH1 0x1 PUSH1 0xA0 SHL SUB SWAP1 SWAP2 AND PUSH1 0x4 DUP3 ADD MSTORE PUSH1 0x24 DUP2 ADD DUP5 SWAP1 MSTORE PUSH1 0x44 ADD PUSH1 0x20 PUSH1 0x40 MLOAD DUP1 DUP4 SUB DUP2 PUSH1 0x0 DUP8 DUP1 EXTCODESIZE ISZERO DUP1 ISZERO PUSH2 0x109B JUMPI PUSH1 0x0 DUP1 REVERT JUMPDEST POP GAS CALL ISZERO DUP1 ISZERO PUSH2 0x10AF JUMPI RETURNDATASIZE PUSH1 0x0 DUP1 RETURNDATACOPY RETURNDATASIZE PUSH1 0x0 REVERT JUMPDEST POP POP POP POP PUSH1 0x40 MLOAD RETURNDATASIZE PUSH1 0x1F NOT PUSH1 0x1F DUP3 ADD AND DUP3 ADD DUP1 PUSH1 0x40 MSTORE POP DUP2 ADD SWAP1 PUSH2 0x10D3 SWAP2 SWAP1 PUSH2 0x1FC7 JUMP JUMPDEST POP JUMPDEST DUP8 PUSH1 0x1 PUSH1 0x1 PUSH1 0xA0 SHL SUB AND DUP11 PUSH1 0x1 PUSH1 0x1 PUSH1 0xA0 SHL SUB AND EQ PUSH2 0x10F9 JUMPI PUSH2 0x10F9 DUP11 DUP10 DUP5 PUSH2 0x1C4A JUMP JUMPDEST PUSH1 0xE SLOAD PUSH1 0x1 PUSH1 0x1 PUSH1 0xA0 SHL SUB AND PUSH4 0xA9059CBB DUP12 PUSH2 0x1115 DUP5 DUP7 PUSH2 0x2032 JUMP JUMPDEST PUSH1 0x40 MLOAD PUSH1 0x1 PUSH1 0x1 PUSH1 0xE0 SHL SUB NOT PUSH1 0xE0 DUP6 SWAP1 SHL AND DUP2 MSTORE PUSH1 0x1 PUSH1 0x1 PUSH1 0xA0 SHL SUB SWAP1 SWAP3 AND PUSH1 0x4 DUP4 ADD MSTORE PUSH1 0x24 DUP3 ADD MSTORE PUSH1 0x44 ADD PUSH1 0x20 PUSH1 0x40 MLOAD DUP1 DUP4 SUB DUP2 PUSH1 0x0 DUP8 DUP1 EXTCODESIZE ISZERO DUP1 ISZERO PUSH2 0x115B JUMPI PUSH1 0x0 DUP1 REVERT JUMPDEST POP GAS CALL ISZERO DUP1 ISZERO PUSH2 0x116F JUMPI RETURNDATASIZE PUSH1 0x0 DUP1 RETURNDATACOPY RETURNDATASIZE PUSH1 0x0 REVERT JUMPDEST POP POP POP POP PUSH1 0x40 MLOAD RETURNDATASIZE PUSH1 0x1F NOT PUSH1 0x1F DUP3 ADD AND DUP3 ADD DUP1 PUSH1 0x40 MSTORE POP DUP2 ADD SWAP1 PUSH2 0x1193 SWAP2 SWAP1 PUSH2 0x1FC7 JUMP JUMPDEST POP PUSH1 0x9 SLOAD PUSH1 0x40 DUP1 MLOAD SWAP2 DUP3 MSTORE PUSH1 0x1 PUSH1 0x1 PUSH1 0xA0 SHL SUB DUP13 DUP2 AND PUSH1 0x20 DUP5 ADD MSTORE DUP11 AND DUP3 DUP3 ADD MSTORE PUSH1 0x60 DUP3 ADD DUP12 SWAP1 MSTORE PUSH1 0x80 DUP3 ADD DUP4 SWAP1 MSTORE MLOAD PUSH32 0xFE7813E2866053D5C3938554E517B554FCE6666A6561BED9EAA7419B29FA9B68 SWAP2 DUP2 SWAP1 SUB PUSH1 0xA0 ADD SWAP1 LOG1 POP PUSH2 0x124D JUMP JUMPDEST PUSH1 0x9 SLOAD PUSH1 0x40 DUP1 MLOAD SWAP2 DUP3 MSTORE PUSH1 0x1 PUSH1 0x1 PUSH1 0xA0 SHL SUB DUP12 DUP2 AND PUSH1 0x20 DUP5 ADD MSTORE DUP10 AND DUP3 DUP3 ADD MSTORE PUSH1 0x60 DUP3 ADD DUP11 SWAP1 MSTORE PUSH1 0x0 PUSH1 0x80 DUP4 ADD MSTORE MLOAD PUSH32 0xFE7813E2866053D5C3938554E517B554FCE6666A6561BED9EAA7419B29FA9B68 SWAP2 DUP2 SWAP1 SUB PUSH1 0xA0 ADD SWAP1 LOG1 JUMPDEST POP POP POP POP POP POP POP POP POP JUMP JUMPDEST PUSH1 0x0 SLOAD PUSH1 0x1 PUSH1 0x1 PUSH1 0xA0 SHL SUB AND CALLER EQ PUSH2 0x1282 JUMPI PUSH1 0x40 MLOAD PUSH3 0x461BCD PUSH1 0xE5 SHL DUP2 MSTORE PUSH1 0x4 ADD PUSH2 0x613 SWAP1 PUSH2 0x1F64 JUMP JUMPDEST PUSH2 0x128A PUSH2 0x1487 JUMP JUMPDEST PUSH2 0x12D6 JUMPI PUSH1 0x40 MLOAD PUSH3 0x461BCD PUSH1 0xE5 SHL DUP2 MSTORE PUSH1 0x20 PUSH1 0x4 DUP3 ADD DUP2 SWAP1 MSTORE PUSH1 0x24 DUP3 ADD MSTORE PUSH32 0x43616E206F6E6C79206D6F76652066756E6473207768656E206C6F636B65642E PUSH1 0x44 DUP3 ADD MSTORE PUSH1 0x64 ADD PUSH2 0x613 JUMP JUMPDEST PUSH1 0x0 DUP1 PUSH2 0x12E2 TIMESTAMP PUSH2 0x1AE3 JUMP JUMPDEST POP SWAP2 POP SWAP2 POP DUP2 PUSH1 0x5 SLOAD EQ ISZERO DUP1 PUSH2 0x12FA JUMPI POP DUP1 PUSH1 0x4 SLOAD EQ ISZERO JUMPDEST ISZERO PUSH2 0x135F JUMPI PUSH1 0x5 DUP3 SWAP1 SSTORE PUSH1 0x4 DUP2 SWAP1 SSTORE PUSH1 0x9 DUP1 SLOAD PUSH1 0x1 SWAP2 SWAP1 PUSH1 0x0 SWAP1 PUSH2 0x131F SWAP1 DUP5 SWAP1 PUSH2 0x1FAF JUMP JUMPDEST SWAP1 SWAP2 SSTORE POP POP PUSH1 0x9 SLOAD PUSH1 0x40 MLOAD SWAP1 DUP2 MSTORE PUSH32 0x6F7839FD5911BAAC2DBC722962A0D38F7D09C5519B195DBF03E4CC27F890EFC3 SWAP1 PUSH1 0x20 ADD PUSH1 0x40 MLOAD DUP1 SWAP2 SUB SWAP1 LOG1 PUSH2 0x13B6 JUMP JUMPDEST PUSH2 0x1367 PUSH2 0x1861 JUMP JUMPDEST DUP4 GT ISZERO PUSH2 0x13B6 JUMPI PUSH1 0x40 MLOAD PUSH3 0x461BCD PUSH1 0xE5 SHL DUP2 MSTORE PUSH1 0x20 PUSH1 0x4 DUP3 ADD MSTORE PUSH1 0x1B PUSH1 0x24 DUP3 ADD MSTORE PUSH32 0x4E6F7420656E6F7567682066756E647320617661696C61626C652E0000000000 PUSH1 0x44 DUP3 ADD MSTORE PUSH1 0x64 ADD PUSH2 0x613 JUMP JUMPDEST PUSH1 0x9 SLOAD PUSH1 0x40 DUP1 MLOAD SWAP2 DUP3 MSTORE CALLER PUSH1 0x20 DUP4 ADD MSTORE DUP2 ADD DUP5 SWAP1 MSTORE PUSH32 0x3283ABDB05CFF705BD4FAAB57C532A3D4BFE5C83685E9C69E83D459BB88FB073 SWAP1 PUSH1 0x60 ADD PUSH1 0x40 MLOAD DUP1 SWAP2 SUB SWAP1 LOG1 PUSH1 0xE SLOAD PUSH1 0x40 MLOAD PUSH4 0xA9059CBB PUSH1 0xE0 SHL DUP2 MSTORE CALLER PUSH1 0x4 DUP3 ADD MSTORE PUSH1 0x24 DUP2 ADD DUP6 SWAP1 MSTORE PUSH1 0x1 PUSH1 0x1 PUSH1 0xA0 SHL SUB SWAP1 SWAP2 AND SWAP1 PUSH4 0xA9059CBB SWAP1 PUSH1 0x44 ADD PUSH2 0x770 JUMP JUMPDEST PUSH1 0x9 SLOAD PUSH1 0x0 SWAP1 DUP2 MSTORE PUSH1 0xC PUSH1 0x20 SWAP1 DUP2 MSTORE PUSH1 0x40 DUP1 DUP4 KECCAK256 PUSH1 0x1 PUSH1 0x1 PUSH1 0xA0 SHL SUB DUP6 AND DUP5 MSTORE SWAP1 SWAP2 MSTORE DUP2 KECCAK256 SLOAD DUP2 PUSH2 0x145E PUSH2 0x1487 JUMP JUMPDEST PUSH2 0x1470 JUMPI PUSH2 0x146B DUP5 PUSH2 0xA8D JUMP JUMPDEST PUSH2 0x1473 JUMP JUMPDEST PUSH1 0x0 JUMPDEST SWAP1 POP PUSH2 0x147F DUP2 DUP4 PUSH2 0x1FAF JUMP JUMPDEST SWAP5 SWAP4 POP POP POP POP JUMP JUMPDEST PUSH1 0x0 DUP1 PUSH2 0x1493 TIMESTAMP PUSH2 0x1CE2 JUMP JUMPDEST SWAP1 POP PUSH1 0x7 SLOAD DUP2 LT DUP1 PUSH2 0x14A6 JUMPI POP PUSH1 0x8 SLOAD DUP2 GT JUMPDEST SWAP2 POP POP SWAP1 JUMP JUMPDEST PUSH1 0x1 SLOAD PUSH1 0x1 PUSH1 0x1 PUSH1 0xA0 SHL SUB AND CALLER EQ PUSH2 0x1512 JUMPI PUSH1 0x40 MLOAD PUSH3 0x461BCD PUSH1 0xE5 SHL DUP2 MSTORE PUSH1 0x20 PUSH1 0x4 DUP3 ADD MSTORE PUSH1 0x23 PUSH1 0x24 DUP3 ADD MSTORE PUSH32 0x596F7520646F6E27742068617665207065726D697373696F6E20746F20756E6C PUSH1 0x44 DUP3 ADD MSTORE PUSH3 0x6F636B PUSH1 0xE8 SHL PUSH1 0x64 DUP3 ADD MSTORE PUSH1 0x84 ADD PUSH2 0x613 JUMP JUMPDEST PUSH1 0x2 SLOAD TIMESTAMP GT PUSH2 0x1563 JUMPI PUSH1 0x40 MLOAD PUSH3 0x461BCD PUSH1 0xE5 SHL DUP2 MSTORE PUSH1 0x20 PUSH1 0x4 DUP3 ADD MSTORE PUSH1 0x1F PUSH1 0x24 DUP3 ADD MSTORE PUSH32 0x436F6E7472616374206973206C6F636B656420756E74696C2037206461797300 PUSH1 0x44 DUP3 ADD MSTORE PUSH1 0x64 ADD PUSH2 0x613 JUMP JUMPDEST PUSH1 0x1 SLOAD PUSH1 0x0 DUP1 SLOAD PUSH1 0x40 MLOAD PUSH1 0x1 PUSH1 0x1 PUSH1 0xA0 SHL SUB SWAP4 DUP5 AND SWAP4 SWAP1 SWAP2 AND SWAP2 PUSH1 0x0 DUP1 MLOAD PUSH1 0x20 PUSH2 0x21AC DUP4 CODECOPY DUP2 MLOAD SWAP2 MSTORE SWAP2 LOG3 PUSH1 0x1 SLOAD PUSH1 0x0 DUP1 SLOAD PUSH1 0x1 PUSH1 0x1 PUSH1 0xA0 SHL SUB NOT AND PUSH1 0x1 PUSH1 0x1 PUSH1 0xA0 SHL SUB SWAP1 SWAP3 AND SWAP2 SWAP1 SWAP2 OR SWAP1 SSTORE JUMP JUMPDEST PUSH2 0x893 CALLER DUP3 PUSH2 0x8F5 JUMP JUMPDEST PUSH1 0x0 SLOAD PUSH1 0x1 PUSH1 0x1 PUSH1 0xA0 SHL SUB AND CALLER EQ PUSH2 0x15E6 JUMPI PUSH1 0x40 MLOAD PUSH3 0x461BCD PUSH1 0xE5 SHL DUP2 MSTORE PUSH1 0x4 ADD PUSH2 0x613 SWAP1 PUSH2 0x1F64 JUMP JUMPDEST PUSH2 0x258 DUP4 GT ISZERO PUSH2 0x1650 JUMPI PUSH1 0x40 MLOAD PUSH3 0x461BCD PUSH1 0xE5 SHL DUP2 MSTORE PUSH1 0x20 PUSH1 0x4 DUP3 ADD MSTORE PUSH1 0x2F PUSH1 0x24 DUP3 ADD MSTORE PUSH32 0x576974686472617720666565206D757374206265206C6F776572206F72206571 PUSH1 0x44 DUP3 ADD MSTORE PUSH15 0x3AB0B6103A37903A3430B7101B1297 PUSH1 0x89 SHL PUSH1 0x64 DUP3 ADD MSTORE PUSH1 0x84 ADD PUSH2 0x613 JUMP JUMPDEST DUP2 DUP2 LT ISZERO PUSH2 0x16BC JUMPI PUSH1 0x40 MLOAD PUSH3 0x461BCD PUSH1 0xE5 SHL DUP2 MSTORE PUSH1 0x20 PUSH1 0x4 DUP3 ADD MSTORE PUSH1 0x33 PUSH1 0x24 DUP3 ADD MSTORE PUSH32 0x556E6C6F636B20646179206D6178206D75737420626520677265617465722074 PUSH1 0x44 DUP3 ADD MSTORE PUSH19 0x3430B7103AB73637B1B5903230BC9036B4B717 PUSH1 0x69 SHL PUSH1 0x64 DUP3 ADD MSTORE PUSH1 0x84 ADD PUSH2 0x613 JUMP JUMPDEST PUSH1 0x1 PUSH1 0x7 SLOAD LT ISZERO DUP1 ISZERO PUSH2 0x16D2 JUMPI POP PUSH1 0x1C PUSH1 0x8 SLOAD GT ISZERO JUMPDEST PUSH2 0x173A JUMPI PUSH1 0x40 MLOAD PUSH3 0x461BCD PUSH1 0xE5 SHL DUP2 MSTORE PUSH1 0x20 PUSH1 0x4 DUP3 ADD MSTORE PUSH1 0x33 PUSH1 0x24 DUP3 ADD MSTORE PUSH32 0x556E6C6F636B2074696D65206D75737420626520617420612074696D65207468 PUSH1 0x44 DUP3 ADD MSTORE PUSH19 0x30BA1030B6361036B7B73A3439903430BB3297 PUSH1 0x69 SHL PUSH1 0x64 DUP3 ADD MSTORE PUSH1 0x84 ADD PUSH2 0x613 JUMP JUMPDEST PUSH1 0x6 SWAP3 SWAP1 SWAP3 SSTORE PUSH1 0x7 SSTORE PUSH1 0x8 SSTORE JUMP JUMPDEST PUSH2 0x1750 PUSH2 0x1487 JUMP JUMPDEST ISZERO PUSH2 0x179D JUMPI PUSH1 0x40 MLOAD PUSH3 0x461BCD PUSH1 0xE5 SHL DUP2 MSTORE PUSH1 0x20 PUSH1 0x4 DUP3 ADD MSTORE PUSH1 0x1D PUSH1 0x24 DUP3 ADD MSTORE PUSH32 0x43616E6E6F742074616B652070726F666974206966206C6F636B65642E000000 PUSH1 0x44 DUP3 ADD MSTORE PUSH1 0x64 ADD PUSH2 0x613 JUMP JUMPDEST PUSH1 0x0 PUSH2 0x17A8 DUP3 PUSH2 0xA8D JUMP JUMPDEST PUSH1 0x1 PUSH1 0x1 PUSH1 0xA0 SHL SUB DUP4 AND PUSH1 0x0 SWAP1 DUP2 MSTORE PUSH1 0xB PUSH1 0x20 MSTORE PUSH1 0x40 SWAP1 KECCAK256 SLOAD SWAP1 SWAP2 POP DUP2 GT PUSH2 0x1838 JUMPI PUSH1 0x40 MLOAD PUSH3 0x461BCD PUSH1 0xE5 SHL DUP2 MSTORE PUSH1 0x20 PUSH1 0x4 DUP3 ADD MSTORE PUSH1 0x37 PUSH1 0x24 DUP3 ADD MSTORE PUSH32 0x43616E27742074616B652070726F666974206F6E206C6F737365732F64656C74 PUSH1 0x44 DUP3 ADD MSTORE PUSH32 0x61206E65757472616C2F70656E64696E67206F6E6C792E000000000000000000 PUSH1 0x64 DUP3 ADD MSTORE PUSH1 0x84 ADD PUSH2 0x613 JUMP JUMPDEST PUSH1 0x1 PUSH1 0x1 PUSH1 0xA0 SHL SUB DUP3 AND PUSH1 0x0 SWAP1 DUP2 MSTORE PUSH1 0xB PUSH1 0x20 MSTORE PUSH1 0x40 SWAP1 KECCAK256 SLOAD PUSH2 0x8E8 SWAP1 DUP4 SWAP1 PUSH2 0x448 SWAP1 DUP5 PUSH2 0x2032 JUMP JUMPDEST PUSH1 0x9 SLOAD PUSH1 0x0 SWAP1 DUP2 MSTORE PUSH1 0xA PUSH1 0x20 MSTORE PUSH1 0x40 DUP1 DUP3 KECCAK256 SLOAD PUSH1 0xE SLOAD SWAP2 MLOAD PUSH4 0x70A08231 PUSH1 0xE0 SHL DUP2 MSTORE ADDRESS PUSH1 0x4 DUP3 ADD MSTORE SWAP1 SWAP2 PUSH1 0x1 PUSH1 0x1 PUSH1 0xA0 SHL SUB AND SWAP1 PUSH4 0x70A08231 SWAP1 PUSH1 0x24 ADD PUSH1 0x20 PUSH1 0x40 MLOAD DUP1 DUP4 SUB DUP2 DUP7 DUP1 EXTCODESIZE ISZERO DUP1 ISZERO PUSH2 0x18B6 JUMPI PUSH1 0x0 DUP1 REVERT JUMPDEST POP GAS STATICCALL ISZERO DUP1 ISZERO PUSH2 0x18CA JUMPI RETURNDATASIZE PUSH1 0x0 DUP1 RETURNDATACOPY RETURNDATASIZE PUSH1 0x0 REVERT JUMPDEST POP POP POP POP PUSH1 0x40 MLOAD RETURNDATASIZE PUSH1 0x1F NOT PUSH1 0x1F DUP3 ADD AND DUP3 ADD DUP1 PUSH1 0x40 MSTORE POP DUP2 ADD SWAP1 PUSH2 0x18EE SWAP2 SWAP1 PUSH2 0x2049 JUMP JUMPDEST PUSH2 0x18F8 SWAP2 SWAP1 PUSH2 0x2032 JUMP JUMPDEST SWAP1 POP SWAP1 JUMP JUMPDEST PUSH1 0x0 PUSH2 0x1908 DUP4 PUSH2 0x142F JUMP JUMPDEST SWAP1 POP DUP1 DUP3 LT PUSH2 0x191A JUMPI PUSH2 0xA73 DUP4 PUSH2 0x19F5 JUMP JUMPDEST PUSH2 0xA73 DUP4 DUP4 PUSH2 0xC71 JUMP JUMPDEST PUSH1 0x0 DUP1 PUSH2 0x192F PUSH2 0x1487 JUMP JUMPDEST ISZERO PUSH2 0x1942 JUMPI PUSH2 0x193D DUP4 PUSH2 0xA8D JUMP JUMPDEST PUSH2 0x1945 JUMP JUMPDEST PUSH1 0x0 JUMPDEST SWAP1 POP PUSH1 0x0 PUSH2 0x2710 PUSH1 0x6 SLOAD DUP4 PUSH2 0x195A SWAP2 SWAP1 PUSH2 0x1FE9 JUMP JUMPDEST PUSH2 0x1964 SWAP2 SWAP1 PUSH2 0x201E JUMP JUMPDEST SWAP1 POP PUSH2 0x147F DUP2 DUP4 PUSH2 0x2032 JUMP JUMPDEST PUSH1 0x0 SLOAD PUSH1 0x1 PUSH1 0x1 PUSH1 0xA0 SHL SUB AND CALLER EQ PUSH2 0x199A JUMPI PUSH1 0x40 MLOAD PUSH3 0x461BCD PUSH1 0xE5 SHL DUP2 MSTORE PUSH1 0x4 ADD PUSH2 0x613 SWAP1 PUSH2 0x1F64 JUMP JUMPDEST PUSH1 0x0 DUP1 SLOAD PUSH1 0x1 DUP1 SLOAD PUSH1 0x1 PUSH1 0x1 PUSH1 0xA0 SHL SUB NOT SWAP1 DUP2 AND PUSH1 0x1 PUSH1 0x1 PUSH1 0xA0 SHL SUB DUP5 AND OR SWAP1 SWAP2 SSTORE AND SWAP1 SSTORE PUSH2 0x19C9 DUP2 TIMESTAMP PUSH2 0x1FAF JUMP JUMPDEST PUSH1 0x2 SSTORE PUSH1 0x0 DUP1 SLOAD PUSH1 0x40 MLOAD PUSH1 0x1 PUSH1 0x1 PUSH1 0xA0 SHL SUB SWAP1 SWAP2 AND SWAP1 PUSH1 0x0 DUP1 MLOAD PUSH1 0x20 PUSH2 0x21AC DUP4 CODECOPY DUP2 MLOAD SWAP2 MSTORE SWAP1 DUP4 SWAP1 LOG3 POP JUMP JUMPDEST PUSH2 0x893 DUP2 PUSH2 0x448 DUP4 PUSH2 0x142F JUMP JUMPDEST PUSH2 0xA81 CALLER PUSH2 0x19F5 JUMP JUMPDEST PUSH1 0x0 SLOAD PUSH1 0x1 PUSH1 0x1 PUSH1 0xA0 SHL SUB AND CALLER EQ PUSH2 0x1A35 JUMPI PUSH1 0x40 MLOAD PUSH3 0x461BCD PUSH1 0xE5 SHL DUP2 MSTORE PUSH1 0x4 ADD PUSH2 0x613 SWAP1 PUSH2 0x1F64 JUMP JUMPDEST PUSH1 0x1 PUSH1 0x1 PUSH1 0xA0 SHL SUB DUP2 AND PUSH2 0x1A9A JUMPI PUSH1 0x40 MLOAD PUSH3 0x461BCD PUSH1 0xE5 SHL DUP2 MSTORE PUSH1 0x20 PUSH1 0x4 DUP3 ADD MSTORE PUSH1 0x26 PUSH1 0x24 DUP3 ADD MSTORE PUSH32 0x4F776E61626C653A206E6577206F776E657220697320746865207A65726F2061 PUSH1 0x44 DUP3 ADD MSTORE PUSH6 0x646472657373 PUSH1 0xD0 SHL PUSH1 0x64 DUP3 ADD MSTORE PUSH1 0x84 ADD PUSH2 0x613 JUMP JUMPDEST PUSH1 0x0 DUP1 SLOAD PUSH1 0x40 MLOAD PUSH1 0x1 PUSH1 0x1 PUSH1 0xA0 SHL SUB DUP1 DUP6 AND SWAP4 SWAP3 AND SWAP2 PUSH1 0x0 DUP1 MLOAD PUSH1 0x20 PUSH2 0x21AC DUP4 CODECOPY DUP2 MLOAD SWAP2 MSTORE SWAP2 LOG3 PUSH1 0x0 DUP1 SLOAD PUSH1 0x1 PUSH1 0x1 PUSH1 0xA0 SHL SUB NOT AND PUSH1 0x1 PUSH1 0x1 PUSH1 0xA0 SHL SUB SWAP3 SWAP1 SWAP3 AND SWAP2 SWAP1 SWAP2 OR SWAP1 SSTORE JUMP JUMPDEST PUSH1 0x0 DUP1 DUP1 PUSH2 0x1AFC PUSH2 0x1AF7 PUSH3 0x15180 DUP7 PUSH2 0x201E JUMP JUMPDEST PUSH2 0x1CF4 JUMP JUMPDEST SWAP2 SWAP7 SWAP1 SWAP6 POP SWAP1 SWAP4 POP SWAP2 POP POP JUMP JUMPDEST PUSH1 0x1 PUSH1 0x1 PUSH1 0xA0 SHL SUB DUP4 AND PUSH2 0x1B73 JUMPI PUSH1 0x40 MLOAD PUSH3 0x461BCD PUSH1 0xE5 SHL DUP2 MSTORE PUSH1 0x20 PUSH1 0x4 DUP3 ADD MSTORE PUSH1 0x2B PUSH1 0x24 DUP3 ADD MSTORE PUSH32 0x54657472616457616C6C65743A20617070726F76652066726F6D20746865207A PUSH1 0x44 DUP3 ADD MSTORE PUSH11 0x65726F2061646472657373 PUSH1 0xA8 SHL PUSH1 0x64 DUP3 ADD MSTORE PUSH1 0x84 ADD PUSH2 0x613 JUMP JUMPDEST PUSH1 0x1 PUSH1 0x1 PUSH1 0xA0 SHL SUB DUP3 AND PUSH2 0x1BDB JUMPI PUSH1 0x40 MLOAD PUSH3 0x461BCD PUSH1 0xE5 SHL DUP2 MSTORE PUSH1 0x20 PUSH1 0x4 DUP3 ADD MSTORE PUSH1 0x29 PUSH1 0x24 DUP3 ADD MSTORE PUSH32 0x54657472616457616C6C65743A20617070726F766520746F20746865207A6572 PUSH1 0x44 DUP3 ADD MSTORE PUSH9 0x6F2061646472657373 PUSH1 0xB8 SHL PUSH1 0x64 DUP3 ADD MSTORE PUSH1 0x84 ADD PUSH2 0x613 JUMP JUMPDEST PUSH1 0x1 PUSH1 0x1 PUSH1 0xA0 SHL SUB DUP4 DUP2 AND PUSH1 0x0 DUP2 DUP2 MSTORE PUSH1 0xD PUSH1 0x20 SWAP1 DUP2 MSTORE PUSH1 0x40 DUP1 DUP4 KECCAK256 SWAP5 DUP8 AND DUP1 DUP5 MSTORE SWAP5 DUP3 MSTORE SWAP2 DUP3 SWAP1 KECCAK256 DUP6 SWAP1 SSTORE DUP2 MLOAD SWAP3 DUP4 MSTORE DUP3 ADD SWAP3 SWAP1 SWAP3 MSTORE SWAP1 DUP2 ADD DUP3 SWAP1 MSTORE PUSH32 0x8C5BE1E5EBEC7D5BD14F71427D1E84F3DD0314C0F7B2291E5B200AC8C7C3B925 SWAP1 PUSH1 0x60 ADD PUSH1 0x40 MLOAD DUP1 SWAP2 SUB SWAP1 LOG1 POP POP POP JUMP JUMPDEST PUSH1 0x1 PUSH1 0x1 PUSH1 0xA0 SHL SUB DUP1 DUP5 AND PUSH1 0x0 SWAP1 DUP2 MSTORE PUSH1 0xD PUSH1 0x20 SWAP1 DUP2 MSTORE PUSH1 0x40 DUP1 DUP4 KECCAK256 SWAP4 DUP7 AND DUP4 MSTORE SWAP3 SWAP1 MSTORE KECCAK256 SLOAD PUSH1 0x0 NOT DUP2 EQ PUSH2 0x7C2 JUMPI DUP2 DUP2 LT ISZERO PUSH2 0x1CD5 JUMPI PUSH1 0x40 MLOAD PUSH3 0x461BCD PUSH1 0xE5 SHL DUP2 MSTORE PUSH1 0x20 PUSH1 0x4 DUP3 ADD MSTORE PUSH1 0x24 DUP1 DUP3 ADD MSTORE PUSH32 0x54657472616457616C6C65743A20696E73756666696369656E7420616C6C6F77 PUSH1 0x44 DUP3 ADD MSTORE PUSH4 0x616E6365 PUSH1 0xE0 SHL PUSH1 0x64 DUP3 ADD MSTORE PUSH1 0x84 ADD PUSH2 0x613 JUMP JUMPDEST PUSH2 0x7C2 DUP5 DUP5 DUP5 DUP5 SUB PUSH2 0x1B09 JUMP JUMPDEST PUSH1 0x0 PUSH2 0x147F PUSH2 0x1AF7 PUSH3 0x15180 DUP5 PUSH2 0x201E JUMP JUMPDEST PUSH1 0x0 DUP1 DUP1 DUP4 DUP2 PUSH3 0x253D8C PUSH2 0x1D0B DUP4 PUSH3 0x10BD9 PUSH2 0x2078 JUMP JUMPDEST PUSH2 0x1D15 SWAP2 SWAP1 PUSH2 0x2078 JUMP JUMPDEST SWAP1 POP PUSH1 0x0 PUSH3 0x23AB1 PUSH2 0x1D28 DUP4 PUSH1 0x4 PUSH2 0x20B9 JUMP JUMPDEST PUSH2 0x1D32 SWAP2 SWAP1 PUSH2 0x213E JUMP JUMPDEST SWAP1 POP PUSH1 0x4 PUSH2 0x1D43 DUP3 PUSH3 0x23AB1 PUSH2 0x20B9 JUMP JUMPDEST PUSH2 0x1D4E SWAP1 PUSH1 0x3 PUSH2 0x2078 JUMP JUMPDEST PUSH2 0x1D58 SWAP2 SWAP1 PUSH2 0x213E JUMP JUMPDEST PUSH2 0x1D62 SWAP1 DUP4 PUSH2 0x216C JUMP JUMPDEST SWAP2 POP PUSH1 0x0 PUSH3 0x164B09 PUSH2 0x1D75 DUP5 PUSH1 0x1 PUSH2 0x2078 JUMP JUMPDEST PUSH2 0x1D81 SWAP1 PUSH2 0xFA0 PUSH2 0x20B9 JUMP JUMPDEST PUSH2 0x1D8B SWAP2 SWAP1 PUSH2 0x213E JUMP JUMPDEST SWAP1 POP PUSH1 0x4 PUSH2 0x1D9B DUP3 PUSH2 0x5B5 PUSH2 0x20B9 JUMP JUMPDEST PUSH2 0x1DA5 SWAP2 SWAP1 PUSH2 0x213E JUMP JUMPDEST PUSH2 0x1DAF SWAP1 DUP5 PUSH2 0x216C JUMP JUMPDEST PUSH2 0x1DBA SWAP1 PUSH1 0x1F PUSH2 0x2078 JUMP JUMPDEST SWAP3 POP PUSH1 0x0 PUSH2 0x98F PUSH2 0x1DCC DUP6 PUSH1 0x50 PUSH2 0x20B9 JUMP JUMPDEST PUSH2 0x1DD6 SWAP2 SWAP1 PUSH2 0x213E JUMP JUMPDEST SWAP1 POP PUSH1 0x0 PUSH1 0x50 PUSH2 0x1DE8 DUP4 PUSH2 0x98F PUSH2 0x20B9 JUMP JUMPDEST PUSH2 0x1DF2 SWAP2 SWAP1 PUSH2 0x213E JUMP JUMPDEST PUSH2 0x1DFC SWAP1 DUP7 PUSH2 0x216C JUMP JUMPDEST SWAP1 POP PUSH2 0x1E09 PUSH1 0xB DUP4 PUSH2 0x213E JUMP JUMPDEST SWAP5 POP PUSH2 0x1E16 DUP6 PUSH1 0xC PUSH2 0x20B9 JUMP JUMPDEST PUSH2 0x1E21 DUP4 PUSH1 0x2 PUSH2 0x2078 JUMP JUMPDEST PUSH2 0x1E2B SWAP2 SWAP1 PUSH2 0x216C JUMP JUMPDEST SWAP2 POP DUP5 DUP4 PUSH2 0x1E3A PUSH1 0x31 DUP8 PUSH2 0x216C JUMP JUMPDEST PUSH2 0x1E45 SWAP1 PUSH1 0x64 PUSH2 0x20B9 JUMP JUMPDEST PUSH2 0x1E4F SWAP2 SWAP1 PUSH2 0x2078 JUMP JUMPDEST PUSH2 0x1E59 SWAP2 SWAP1 PUSH2 0x2078 JUMP JUMPDEST SWAP11 SWAP2 SWAP10 POP SWAP8 POP SWAP6 POP POP POP POP POP POP JUMP JUMPDEST PUSH1 0x0 PUSH1 0x20 DUP3 DUP5 SUB SLT ISZERO PUSH2 0x1E7A JUMPI PUSH1 0x0 DUP1 REVERT JUMPDEST POP CALLDATALOAD SWAP2 SWAP1 POP JUMP JUMPDEST DUP1 CALLDATALOAD PUSH1 0x1 PUSH1 0x1 PUSH1 0xA0 SHL SUB DUP2 AND DUP2 EQ PUSH2 0x1E98 JUMPI PUSH1 0x0 DUP1 REVERT JUMPDEST SWAP2 SWAP1 POP JUMP JUMPDEST PUSH1 0x0 DUP1 PUSH1 0x40 DUP4 DUP6 SUB SLT ISZERO PUSH2 0x1EB0 JUMPI PUSH1 0x0 DUP1 REVERT JUMPDEST PUSH2 0x1EB9 DUP4 PUSH2 0x1E81 JUMP JUMPDEST SWAP5 PUSH1 0x20 SWAP4 SWAP1 SWAP4 ADD CALLDATALOAD SWAP4 POP POP POP JUMP JUMPDEST PUSH1 0x0 PUSH1 0x20 DUP3 DUP5 SUB SLT ISZERO PUSH2 0x1ED9 JUMPI PUSH1 0x0 DUP1 REVERT JUMPDEST PUSH2 0x7FF DUP3 PUSH2 0x1E81 JUMP JUMPDEST PUSH1 0x0 DUP1 PUSH1 0x0 PUSH1 0x60 DUP5 DUP7 SUB SLT ISZERO PUSH2 0x1EF7 JUMPI PUSH1 0x0 DUP1 REVERT JUMPDEST POP POP DUP2 CALLDATALOAD SWAP4 PUSH1 0x20 DUP4 ADD CALLDATALOAD SWAP4 POP PUSH1 0x40 SWAP1 SWAP3 ADD CALLDATALOAD SWAP2 SWAP1 POP JUMP JUMPDEST PUSH1 0x0 DUP1 PUSH1 0x40 DUP4 DUP6 SUB SLT ISZERO PUSH2 0x1F21 JUMPI PUSH1 0x0 DUP1 REVERT JUMPDEST DUP3 CALLDATALOAD SWAP2 POP PUSH2 0x1F31 PUSH1 0x20 DUP5 ADD PUSH2 0x1E81 JUMP JUMPDEST SWAP1 POP SWAP3 POP SWAP3 SWAP1 POP JUMP JUMPDEST PUSH1 0x0 DUP1 PUSH1 0x40 DUP4 DUP6 SUB SLT ISZERO PUSH2 0x1F4D JUMPI PUSH1 0x0 DUP1 REVERT JUMPDEST PUSH2 0x1F56 DUP4 PUSH2 0x1E81 JUMP JUMPDEST SWAP2 POP PUSH2 0x1F31 PUSH1 0x20 DUP5 ADD PUSH2 0x1E81 JUMP JUMPDEST PUSH1 0x20 DUP1 DUP3 MSTORE DUP2 DUP2 ADD MSTORE PUSH32 0x4F776E61626C653A2063616C6C6572206973206E6F7420746865206F776E6572 PUSH1 0x40 DUP3 ADD MSTORE PUSH1 0x60 ADD SWAP1 JUMP JUMPDEST PUSH4 0x4E487B71 PUSH1 0xE0 SHL PUSH1 0x0 MSTORE PUSH1 0x11 PUSH1 0x4 MSTORE PUSH1 0x24 PUSH1 0x0 REVERT JUMPDEST PUSH1 0x0 DUP3 NOT DUP3 GT ISZERO PUSH2 0x1FC2 JUMPI PUSH2 0x1FC2 PUSH2 0x1F99 JUMP JUMPDEST POP ADD SWAP1 JUMP JUMPDEST PUSH1 0x0 PUSH1 0x20 DUP3 DUP5 SUB SLT ISZERO PUSH2 0x1FD9 JUMPI PUSH1 0x0 DUP1 REVERT JUMPDEST DUP2 MLOAD DUP1 ISZERO ISZERO DUP2 EQ PUSH2 0x7FF JUMPI PUSH1 0x0 DUP1 REVERT JUMPDEST PUSH1 0x0 DUP2 PUSH1 0x0 NOT DIV DUP4 GT DUP3 ISZERO ISZERO AND ISZERO PUSH2 0x2003 JUMPI PUSH2 0x2003 PUSH2 0x1F99 JUMP JUMPDEST POP MUL SWAP1 JUMP JUMPDEST PUSH4 0x4E487B71 PUSH1 0xE0 SHL PUSH1 0x0 MSTORE PUSH1 0x12 PUSH1 0x4 MSTORE PUSH1 0x24 PUSH1 0x0 REVERT JUMPDEST PUSH1 0x0 DUP3 PUSH2 0x202D JUMPI PUSH2 0x202D PUSH2 0x2008 JUMP JUMPDEST POP DIV SWAP1 JUMP JUMPDEST PUSH1 0x0 DUP3 DUP3 LT ISZERO PUSH2 0x2044 JUMPI PUSH2 0x2044 PUSH2 0x1F99 JUMP JUMPDEST POP SUB SWAP1 JUMP JUMPDEST PUSH1 0x0 PUSH1 0x20 DUP3 DUP5 SUB SLT ISZERO PUSH2 0x205B JUMPI PUSH1 0x0 DUP1 REVERT JUMPDEST POP MLOAD SWAP2 SWAP1 POP JUMP JUMPDEST PUSH4 0x4E487B71 PUSH1 0xE0 SHL PUSH1 0x0 MSTORE PUSH1 0x1 PUSH1 0x4 MSTORE PUSH1 0x24 PUSH1 0x0 REVERT JUMPDEST PUSH1 0x0 DUP1 DUP3 SLT DUP1 ISZERO PUSH1 0x1 PUSH1 0x1 PUSH1 0xFF SHL SUB DUP5 SWAP1 SUB DUP6 SGT AND ISZERO PUSH2 0x209A JUMPI PUSH2 0x209A PUSH2 0x1F99 JUMP JUMPDEST PUSH1 0x1 PUSH1 0xFF SHL DUP4 SWAP1 SUB DUP5 SLT DUP2 AND ISZERO PUSH2 0x20B3 JUMPI PUSH2 0x20B3 PUSH2 0x1F99 JUMP JUMPDEST POP POP ADD SWAP1 JUMP JUMPDEST PUSH1 0x0 PUSH1 0x1 PUSH1 0x1 PUSH1 0xFF SHL SUB DUP2 DUP5 SGT DUP3 DUP5 SGT DUP1 DUP3 AND DUP7 DUP5 DIV DUP7 GT AND ISZERO PUSH2 0x20DF JUMPI PUSH2 0x20DF PUSH2 0x1F99 JUMP JUMPDEST PUSH1 0x1 PUSH1 0xFF SHL PUSH1 0x0 DUP8 SLT DUP3 DUP2 AND DUP8 DUP4 SDIV DUP10 SLT AND ISZERO PUSH2 0x20FE JUMPI PUSH2 0x20FE PUSH2 0x1F99 JUMP JUMPDEST PUSH1 0x0 DUP8 SLT SWAP3 POP DUP8 DUP3 SDIV DUP8 SLT DUP5 DUP5 AND AND ISZERO PUSH2 0x211A JUMPI PUSH2 0x211A PUSH2 0x1F99 JUMP JUMPDEST DUP8 DUP6 SDIV DUP8 SLT DUP2 DUP5 AND AND ISZERO PUSH2 0x2130 JUMPI PUSH2 0x2130 PUSH2 0x1F99 JUMP JUMPDEST POP POP POP SWAP3 SWAP1 SWAP4 MUL SWAP4 SWAP3 POP POP POP JUMP JUMPDEST PUSH1 0x0 DUP3 PUSH2 0x214D JUMPI PUSH2 0x214D PUSH2 0x2008 JUMP JUMPDEST PUSH1 0x1 PUSH1 0xFF SHL DUP3 EQ PUSH1 0x0 NOT DUP5 EQ AND ISZERO PUSH2 0x2167 JUMPI PUSH2 0x2167 PUSH2 0x1F99 JUMP JUMPDEST POP SDIV SWAP1 JUMP JUMPDEST PUSH1 0x0 DUP1 DUP4 SLT DUP1 ISZERO PUSH1 0x1 PUSH1 0xFF SHL DUP6 ADD DUP5 SLT AND ISZERO PUSH2 0x218A JUMPI PUSH2 0x218A PUSH2 0x1F99 JUMP JUMPDEST PUSH1 0x1 PUSH1 0x1 PUSH1 0xFF SHL SUB DUP5 ADD DUP4 SGT DUP2 AND ISZERO PUSH2 0x21A5 JUMPI PUSH2 0x21A5 PUSH2 0x1F99 JUMP JUMPDEST POP POP SUB SWAP1 JUMP INVALID DUP12 0xE0 SMOD SWAP13 MSTORE8 AND MSIZE EQ SGT DIFFICULTY 0xCD 0x1F 0xD0 LOG4 CALLCODE DUP5 NOT 0x49 PUSH32 0x9722A3DAAFE3B4186F6B6457E0A26469706673582212205D0126ED3F07808120 PUSH21 0x5384F242DD5607467B2FC4BD8B314A249ED44E2059 CODESIZE PUSH5 0x736F6C6343 STOP ADDMOD MULMOD STOP CALLER "
        },
        "methodIdentifiers": {
          "adminChangeFeeWallet(address)": "6b211aca",
          "adminDeposit(uint256)": "08687794",
          "adminSettings(uint256,uint256,uint256)": "b7990a4e",
          "adminWithdraw(uint256)": "7c5b4a37",
          "allowance(address,address)": "dd62ed3e",
          "approve(address,uint256)": "095ea7b3",
          "asset()": "38d52e0f",
          "availableToWithdraw(address)": "a25db8ce",
          "availableToWithdrawWithFee(address)": "2cd4e7d2",
          "balanceToCollect(address)": "66a1ac26",
          "collect()": "e5225381",
          "collectOnBehalfOf(address)": "e2618f5c",
          "currentPendingBalanceOf(address)": "46546978",
          "currentTotalPending()": "5dd250aa",
          "deposit(uint256)": "b6b55f25",
          "depositOnBehalfOf(address,uint256)": "3ca4d9f4",
          "feeWallet()": "f25f4b56",
          "fundsAvailableForAdmin()": "cc1a57e7",
          "getUnlockTime()": "602bc62b",
          "isLocked()": "a4e2d634",
          "lastMonthChange()": "5c79d2d1",
          "lastYearChange()": "5019f900",
          "lock(uint256)": "dd467064",
          "nonce()": "affed0e0",
          "owner()": "8da5cb5b",
          "pendingDeposited(uint256)": "a4312f18",
          "pendingShare(uint256,address)": "cf4b55cb",
          "renounceOwnership()": "715018a6",
          "share(address)": "1877bb5c",
          "takeProfit()": "70c10578",
          "takeProfitOnBehalfOf(address)": "bfb8c52d",
          "totalDeposited()": "ff50abdc",
          "transferOwnership(address)": "f2fde38b",
          "unavailableToWithdraw(address)": "14214025",
          "unavailableToWithdrawWithFee(address)": "d5ea22e8",
          "unlock()": "a69df4b5",
          "unlockDayMax()": "005a58b1",
          "unlockDayMin()": "feccd323",
          "withdraw(uint256)": "2e1a7d4d",
          "withdrawFee()": "e941fa78",
          "withdrawIgnoreLosses(uint256)": "63c766e8",
          "withdrawIgnoreLossesOnBehalfOf(address,uint256)": "d1ad6bbb",
          "withdrawInitialMinusFee()": "5c2839df",
          "withdrawInitialMinusFeeOnBehalfOf(address)": "37ded170",
          "withdrawOnBehalfOf(address,uint256)": "72329ae9"
        }
      },
      "storageLayout": {
        "storage": [
          {
            "astId": 1563,
            "contract": "contracts/TetradWallet.sol:TetradWallet",
            "label": "_owner",
            "offset": 0,
            "slot": "0",
            "type": "t_address"
          },
          {
            "astId": 1565,
            "contract": "contracts/TetradWallet.sol:TetradWallet",
            "label": "_previousOwner",
            "offset": 0,
            "slot": "1",
            "type": "t_address"
          },
          {
            "astId": 1567,
            "contract": "contracts/TetradWallet.sol:TetradWallet",
            "label": "_lockTime",
            "offset": 0,
            "slot": "2",
            "type": "t_uint256"
          },
          {
            "astId": 1718,
            "contract": "contracts/TetradWallet.sol:TetradWallet",
            "label": "totalDeposited",
            "offset": 0,
            "slot": "3",
            "type": "t_uint256"
          },
          {
            "astId": 1720,
            "contract": "contracts/TetradWallet.sol:TetradWallet",
            "label": "lastMonthChange",
            "offset": 0,
            "slot": "4",
            "type": "t_uint256"
          },
          {
            "astId": 1722,
            "contract": "contracts/TetradWallet.sol:TetradWallet",
            "label": "lastYearChange",
            "offset": 0,
            "slot": "5",
            "type": "t_uint256"
          },
          {
            "astId": 1724,
            "contract": "contracts/TetradWallet.sol:TetradWallet",
            "label": "withdrawFee",
            "offset": 0,
            "slot": "6",
            "type": "t_uint256"
          },
          {
            "astId": 1726,
            "contract": "contracts/TetradWallet.sol:TetradWallet",
            "label": "unlockDayMin",
            "offset": 0,
            "slot": "7",
            "type": "t_uint256"
          },
          {
            "astId": 1728,
            "contract": "contracts/TetradWallet.sol:TetradWallet",
            "label": "unlockDayMax",
            "offset": 0,
            "slot": "8",
            "type": "t_uint256"
          },
          {
            "astId": 1730,
            "contract": "contracts/TetradWallet.sol:TetradWallet",
            "label": "nonce",
            "offset": 0,
            "slot": "9",
            "type": "t_uint256"
          },
          {
            "astId": 1734,
            "contract": "contracts/TetradWallet.sol:TetradWallet",
            "label": "pendingDeposited",
            "offset": 0,
            "slot": "10",
            "type": "t_mapping(t_uint256,t_uint256)"
          },
          {
            "astId": 1738,
            "contract": "contracts/TetradWallet.sol:TetradWallet",
            "label": "share",
            "offset": 0,
            "slot": "11",
            "type": "t_mapping(t_address,t_uint256)"
          },
          {
            "astId": 1744,
            "contract": "contracts/TetradWallet.sol:TetradWallet",
            "label": "pendingShare",
            "offset": 0,
            "slot": "12",
            "type": "t_mapping(t_uint256,t_mapping(t_address,t_uint256))"
          },
          {
            "astId": 1750,
            "contract": "contracts/TetradWallet.sol:TetradWallet",
            "label": "allowance",
            "offset": 0,
            "slot": "13",
            "type": "t_mapping(t_address,t_mapping(t_address,t_uint256))"
          },
          {
            "astId": 1753,
            "contract": "contracts/TetradWallet.sol:TetradWallet",
            "label": "asset",
            "offset": 0,
            "slot": "14",
            "type": "t_contract(IERC20)1561"
          },
          {
            "astId": 1755,
            "contract": "contracts/TetradWallet.sol:TetradWallet",
            "label": "feeWallet",
            "offset": 0,
            "slot": "15",
            "type": "t_address"
          }
        ],
        "types": {
          "t_address": {
            "encoding": "inplace",
            "label": "address",
            "numberOfBytes": "20"
          },
          "t_contract(IERC20)1561": {
            "encoding": "inplace",
            "label": "contract IERC20",
            "numberOfBytes": "20"
          },
          "t_mapping(t_address,t_mapping(t_address,t_uint256))": {
            "encoding": "mapping",
            "key": "t_address",
            "label": "mapping(address => mapping(address => uint256))",
            "numberOfBytes": "32",
            "value": "t_mapping(t_address,t_uint256)"
          },
          "t_mapping(t_address,t_uint256)": {
            "encoding": "mapping",
            "key": "t_address",
            "label": "mapping(address => uint256)",
            "numberOfBytes": "32",
            "value": "t_uint256"
          },
          "t_mapping(t_uint256,t_mapping(t_address,t_uint256))": {
            "encoding": "mapping",
            "key": "t_uint256",
            "label": "mapping(uint256 => mapping(address => uint256))",
            "numberOfBytes": "32",
            "value": "t_mapping(t_address,t_uint256)"
          },
          "t_mapping(t_uint256,t_uint256)": {
            "encoding": "mapping",
            "key": "t_uint256",
            "label": "mapping(uint256 => uint256)",
            "numberOfBytes": "32",
            "value": "t_uint256"
          },
          "t_uint256": {
            "encoding": "inplace",
            "label": "uint256",
            "numberOfBytes": "32"
          }
        }
      }
    }
  }
}