{
  "contracts/@openzeppelin/contracts/mocks/ClashingImplementation.sol": {
    "ClashingImplementation": {
      "abi": [
        {
          "inputs": [],
          "name": "admin",
          "outputs": [
            {
              "internalType": "address",
              "name": "",
              "type": "address"
            }
          ],
          "stateMutability": "pure",
          "type": "function"
        },
        {
          "inputs": [],
          "name": "delegatedFunction",
          "outputs": [
            {
              "internalType": "bool",
              "name": "",
              "type": "bool"
            }
          ],
          "stateMutability": "pure",
          "type": "function"
        }
      ],
      "evm": {
        "bytecode": {
          "linkReferences": {},
          "object": "608060405234801561001057600080fd5b5060b68061001f6000396000f3fe6080604052348015600f57600080fd5b506004361060325760003560e01c8063abf8e0e7146037578063f851a440146051575b600080fd5b603d6073565b604080519115158252519081900360200190f35b60576078565b604080516001600160a01b039092168252519081900360200190f35b600190565b63111111429056fea2646970667358221220a332c7f9240f55f4c18fccc36b95de567492f63a65f3acdacace8698d42a04bc64736f6c634300060c0033",
          "opcodes": "PUSH1 0x80 PUSH1 0x40 MSTORE CALLVALUE DUP1 ISZERO PUSH2 0x10 JUMPI PUSH1 0x0 DUP1 REVERT JUMPDEST POP PUSH1 0xB6 DUP1 PUSH2 0x1F PUSH1 0x0 CODECOPY PUSH1 0x0 RETURN INVALID PUSH1 0x80 PUSH1 0x40 MSTORE CALLVALUE DUP1 ISZERO PUSH1 0xF JUMPI PUSH1 0x0 DUP1 REVERT JUMPDEST POP PUSH1 0x4 CALLDATASIZE LT PUSH1 0x32 JUMPI PUSH1 0x0 CALLDATALOAD PUSH1 0xE0 SHR DUP1 PUSH4 0xABF8E0E7 EQ PUSH1 0x37 JUMPI DUP1 PUSH4 0xF851A440 EQ PUSH1 0x51 JUMPI JUMPDEST PUSH1 0x0 DUP1 REVERT JUMPDEST PUSH1 0x3D PUSH1 0x73 JUMP JUMPDEST PUSH1 0x40 DUP1 MLOAD SWAP2 ISZERO ISZERO DUP3 MSTORE MLOAD SWAP1 DUP2 SWAP1 SUB PUSH1 0x20 ADD SWAP1 RETURN JUMPDEST PUSH1 0x57 PUSH1 0x78 JUMP JUMPDEST PUSH1 0x40 DUP1 MLOAD PUSH1 0x1 PUSH1 0x1 PUSH1 0xA0 SHL SUB SWAP1 SWAP3 AND DUP3 MSTORE MLOAD SWAP1 DUP2 SWAP1 SUB PUSH1 0x20 ADD SWAP1 RETURN JUMPDEST PUSH1 0x1 SWAP1 JUMP JUMPDEST PUSH4 0x11111142 SWAP1 JUMP INVALID LOG2 PUSH5 0x6970667358 0x22 SLT KECCAK256 LOG3 ORIGIN 0xC7 0xF9 0x24 0xF SSTORE DELEGATECALL 0xC1 DUP16 0xCC 0xC3 PUSH12 0x95DE567492F63A65F3ACDACA 0xCE DUP7 SWAP9 0xD4 0x2A DIV 0xBC PUSH5 0x736F6C6343 STOP MOD 0xC STOP CALLER "
        },
        "methodIdentifiers": {
          "admin()": "f851a440",
          "delegatedFunction()": "abf8e0e7"
        }
      },
      "storageLayout": {
        "storage": [],
        "types": null
      }
    }
  }
}