{
  "contracts/TetradRewardPool.sol": {
    "TetradRewardPool": {
      "abi": [
        {
          "inputs": [
            {
              "internalType": "address",
              "name": "_tetrad",
              "type": "address"
            },
            {
              "internalType": "uint256",
              "name": "_poolStartTime",
              "type": "uint256"
            },
            {
              "internalType": "uint256",
              "name": "_runningTime",
              "type": "uint256"
            },
            {
              "internalType": "uint256",
              "name": "totalRewards",
              "type": "uint256"
            }
          ],
          "stateMutability": "nonpayable",
          "type": "constructor"
        },
        {
          "anonymous": false,
          "inputs": [
            {
              "indexed": true,
              "internalType": "address",
              "name": "user",
              "type": "address"
            },
            {
              "indexed": true,
              "internalType": "uint256",
              "name": "pid",
              "type": "uint256"
            },
            {
              "indexed": false,
              "internalType": "uint256",
              "name": "amount",
              "type": "uint256"
            }
          ],
          "name": "Deposit",
          "type": "event"
        },
        {
          "anonymous": false,
          "inputs": [
            {
              "indexed": true,
              "internalType": "address",
              "name": "user",
              "type": "address"
            },
            {
              "indexed": true,
              "internalType": "uint256",
              "name": "pid",
              "type": "uint256"
            },
            {
              "indexed": false,
              "internalType": "uint256",
              "name": "amount",
              "type": "uint256"
            }
          ],
          "name": "EmergencyWithdraw",
          "type": "event"
        },
        {
          "anonymous": false,
          "inputs": [
            {
              "indexed": true,
              "internalType": "address",
              "name": "user",
              "type": "address"
            },
            {
              "indexed": false,
              "internalType": "uint256",
              "name": "amount",
              "type": "uint256"
            }
          ],
          "name": "RewardPaid",
          "type": "event"
        },
        {
          "anonymous": false,
          "inputs": [
            {
              "indexed": true,
              "internalType": "address",
              "name": "user",
              "type": "address"
            },
            {
              "indexed": true,
              "internalType": "uint256",
              "name": "pid",
              "type": "uint256"
            },
            {
              "indexed": false,
              "internalType": "uint256",
              "name": "amount",
              "type": "uint256"
            }
          ],
          "name": "Withdraw",
          "type": "event"
        },
        {
          "inputs": [
            {
              "internalType": "uint256",
              "name": "_allocPoint",
              "type": "uint256"
            },
            {
              "internalType": "contract IERC20",
              "name": "_token",
              "type": "address"
            },
            {
              "internalType": "bool",
              "name": "_withUpdate",
              "type": "bool"
            },
            {
              "internalType": "uint256",
              "name": "_lastRewardTime",
              "type": "uint256"
            }
          ],
          "name": "add",
          "outputs": [],
          "stateMutability": "nonpayable",
          "type": "function"
        },
        {
          "inputs": [
            {
              "internalType": "uint256",
              "name": "_pid",
              "type": "uint256"
            },
            {
              "internalType": "uint256",
              "name": "_amount",
              "type": "uint256"
            }
          ],
          "name": "deposit",
          "outputs": [],
          "stateMutability": "nonpayable",
          "type": "function"
        },
        {
          "inputs": [
            {
              "internalType": "uint256",
              "name": "_pid",
              "type": "uint256"
            }
          ],
          "name": "emergencyWithdraw",
          "outputs": [],
          "stateMutability": "nonpayable",
          "type": "function"
        },
        {
          "inputs": [
            {
              "internalType": "uint256",
              "name": "_fromTime",
              "type": "uint256"
            },
            {
              "internalType": "uint256",
              "name": "_toTime",
              "type": "uint256"
            }
          ],
          "name": "getGeneratedReward",
          "outputs": [
            {
              "internalType": "uint256",
              "name": "",
              "type": "uint256"
            }
          ],
          "stateMutability": "view",
          "type": "function"
        },
        {
          "inputs": [
            {
              "internalType": "contract IERC20",
              "name": "_token",
              "type": "address"
            },
            {
              "internalType": "uint256",
              "name": "amount",
              "type": "uint256"
            },
            {
              "internalType": "address",
              "name": "to",
              "type": "address"
            }
          ],
          "name": "governanceRecoverUnsupported",
          "outputs": [],
          "stateMutability": "nonpayable",
          "type": "function"
        },
        {
          "inputs": [],
          "name": "massUpdatePools",
          "outputs": [],
          "stateMutability": "nonpayable",
          "type": "function"
        },
        {
          "inputs": [],
          "name": "operator",
          "outputs": [
            {
              "internalType": "address",
              "name": "",
              "type": "address"
            }
          ],
          "stateMutability": "view",
          "type": "function"
        },
        {
          "inputs": [
            {
              "internalType": "uint256",
              "name": "_pid",
              "type": "uint256"
            },
            {
              "internalType": "address",
              "name": "_user",
              "type": "address"
            }
          ],
          "name": "pendingTetrad",
          "outputs": [
            {
              "internalType": "uint256",
              "name": "",
              "type": "uint256"
            }
          ],
          "stateMutability": "view",
          "type": "function"
        },
        {
          "inputs": [],
          "name": "poolEndTime",
          "outputs": [
            {
              "internalType": "uint256",
              "name": "",
              "type": "uint256"
            }
          ],
          "stateMutability": "view",
          "type": "function"
        },
        {
          "inputs": [
            {
              "internalType": "uint256",
              "name": "",
              "type": "uint256"
            }
          ],
          "name": "poolInfo",
          "outputs": [
            {
              "internalType": "contract IERC20",
              "name": "token",
              "type": "address"
            },
            {
              "internalType": "uint256",
              "name": "allocPoint",
              "type": "uint256"
            },
            {
              "internalType": "uint256",
              "name": "lastRewardTime",
              "type": "uint256"
            },
            {
              "internalType": "uint256",
              "name": "accTetradPerTetrad",
              "type": "uint256"
            },
            {
              "internalType": "bool",
              "name": "isStarted",
              "type": "bool"
            }
          ],
          "stateMutability": "view",
          "type": "function"
        },
        {
          "inputs": [],
          "name": "poolStartTime",
          "outputs": [
            {
              "internalType": "uint256",
              "name": "",
              "type": "uint256"
            }
          ],
          "stateMutability": "view",
          "type": "function"
        },
        {
          "inputs": [],
          "name": "runningTime",
          "outputs": [
            {
              "internalType": "uint256",
              "name": "",
              "type": "uint256"
            }
          ],
          "stateMutability": "view",
          "type": "function"
        },
        {
          "inputs": [
            {
              "internalType": "uint256",
              "name": "_pid",
              "type": "uint256"
            },
            {
              "internalType": "uint256",
              "name": "_allocPoint",
              "type": "uint256"
            }
          ],
          "name": "set",
          "outputs": [],
          "stateMutability": "nonpayable",
          "type": "function"
        },
        {
          "inputs": [
            {
              "internalType": "address",
              "name": "_operator",
              "type": "address"
            }
          ],
          "name": "setOperator",
          "outputs": [],
          "stateMutability": "nonpayable",
          "type": "function"
        },
        {
          "inputs": [],
          "name": "tetrad",
          "outputs": [
            {
              "internalType": "contract IERC20",
              "name": "",
              "type": "address"
            }
          ],
          "stateMutability": "view",
          "type": "function"
        },
        {
          "inputs": [],
          "name": "tetradPerSecond",
          "outputs": [
            {
              "internalType": "uint256",
              "name": "",
              "type": "uint256"
            }
          ],
          "stateMutability": "view",
          "type": "function"
        },
        {
          "inputs": [],
          "name": "totalAllocPoint",
          "outputs": [
            {
              "internalType": "uint256",
              "name": "",
              "type": "uint256"
            }
          ],
          "stateMutability": "view",
          "type": "function"
        },
        {
          "inputs": [
            {
              "internalType": "uint256",
              "name": "_pid",
              "type": "uint256"
            }
          ],
          "name": "updatePool",
          "outputs": [],
          "stateMutability": "nonpayable",
          "type": "function"
        },
        {
          "inputs": [
            {
              "internalType": "uint256",
              "name": "",
              "type": "uint256"
            },
            {
              "internalType": "address",
              "name": "",
              "type": "address"
            }
          ],
          "name": "userInfo",
          "outputs": [
            {
              "internalType": "uint256",
              "name": "amount",
              "type": "uint256"
            },
            {
              "internalType": "uint256",
              "name": "rewardDebt",
              "type": "uint256"
            }
          ],
          "stateMutability": "view",
          "type": "function"
        },
        {
          "inputs": [
            {
              "internalType": "uint256",
              "name": "_pid",
              "type": "uint256"
            },
            {
              "internalType": "uint256",
              "name": "_amount",
              "type": "uint256"
            }
          ],
          "name": "withdraw",
          "outputs": [],
          "stateMutability": "nonpayable",
          "type": "function"
        }
      ],
      "evm": {
        "bytecode": {
          "linkReferences": {},
          "object": "608060405260006004553480156200001657600080fd5b506040516200191d3803806200191d833981810160405260808110156200003c57600080fd5b508051602082015160408301516060909301519192909142831162000091576040805162461bcd60e51b815260206004808301919091526024820152634c61746560e01b604482015290519081900360640190fd5b6001600160a01b03841615620000bd57600180546001600160a01b0319166001600160a01b0386161790555b60058390556007829055620000df838362000162602090811b6200103717901c565b6006558062000135576040805162461bcd60e51b815260206004820181905260248201527f746f74616c526577617264732072657761726473206d757374206265203e2030604482015290519081900360640190fd5b60075481816200014157fe5b046008555050600080546001600160a01b0319163317905550620001c49050565b600082820183811015620001bd576040805162461bcd60e51b815260206004820152601b60248201527f536166654d6174683a206164646974696f6e206f766572666c6f770000000000604482015290519081900360640190fd5b9392505050565b61174980620001d46000396000f3fe608060405234801561001057600080fd5b506004361061012c5760003560e01c8063630b5ba1116100ad57806396805e541161007157806396805e541461032f578063971a304714610369578063b3ab15fb14610371578063e2bbb15814610397578063fc84cc68146103ba5761012c565b8063630b5ba1146102a65780636e271dd5146102ae57806389d3d168146102b657806393f1a40b146102e2578063943f013d146103275761012c565b806351eb05a6116100f457806351eb05a61461020a5780635312ea8e1461022757806354575af414610244578063570ca7351461027a5780635f96dc111461029e5761012c565b80631526fe271461013157806317caf6f1146101855780631ab06ee51461019f578063231f0c6a146101c4578063441a3e70146101e7575b600080fd5b61014e6004803603602081101561014757600080fd5b50356103c2565b604080516001600160a01b039096168652602086019490945284840192909252606084015215156080830152519081900360a00190f35b61018d61040d565b60408051918252519081900360200190f35b6101c2600480360360408110156101b557600080fd5b5080359060200135610413565b005b61018d600480360360408110156101da57600080fd5b50803590602001356104c1565b6101c2600480360360408110156101fd57600080fd5b5080359060200135610586565b6101c26004803603602081101561022057600080fd5b5035610743565b6101c26004803603602081101561023d57600080fd5b50356108a1565b6101c26004803603606081101561025a57600080fd5b506001600160a01b0381358116916020810135916040909101351661093d565b610282610a86565b604080516001600160a01b039092168252519081900360200190f35b61018d610a95565b6101c2610a9b565b61018d610abe565b61018d600480360360408110156102cc57600080fd5b50803590602001356001600160a01b0316610ac4565b61030e600480360360408110156102f857600080fd5b50803590602001356001600160a01b0316610c20565b6040805192835260208301919091528051918290030190f35b61018d610c44565b6101c26004803603608081101561034557600080fd5b508035906001600160a01b0360208201351690604081013515159060600135610c4a565b610282610e47565b6101c26004803603602081101561038757600080fd5b50356001600160a01b0316610e56565b6101c2600480360360408110156103ad57600080fd5b5080359060200135610ec1565b61018d611031565b600281815481106103cf57fe5b6000918252602090912060059091020180546001820154600283015460038401546004909401546001600160a01b0390931694509092909160ff1685565b60045481565b6000546001600160a01b0316331461045c5760405162461bcd60e51b81526004018080602001828103825260288152602001806116c26028913960400191505060405180910390fd5b610464610a9b565b60006002838154811061047357fe5b60009182526020909120600590910201600481015490915060ff16156104ba576104b6826104b0836001015460045461109890919063ffffffff16565b90611037565b6004555b6001015550565b60008183106104d257506000610580565b600654821061053a5760065483106104ec57506000610580565b600554831161051f5761051860085461051260055460065461109890919063ffffffff16565b906110f5565b9050610580565b6105186008546105128560065461109890919063ffffffff16565b600554821161054b57506000610580565b600554831161056f576105186008546105126005548561109890919063ffffffff16565b600854610518906105128486611098565b92915050565b600033905060006002848154811061059a57fe5b600091825260208083208784526003825260408085206001600160a01b03881686529092529220805460059092029092019250841115610616576040805162461bcd60e51b81526020600482015260126024820152711dda5d1a191c985dce881b9bdd0819dbdbd960721b604482015290519081900360640190fd5b61061f85610743565b600061065c8260010154610656670de0b6b3a7640000610650876003015487600001546110f590919063ffffffff16565b9061114e565b90611098565b905080156106ae5761066e84826111b5565b6040805182815290516001600160a01b038616917fe2403640ba68fed3a2f88b7557551d1993f84b99bb10ff833f0cf8db0c5e0486919081900360200190a25b84156106d85781546106c09086611098565b825582546106d8906001600160a01b0316858761126b565b600383015482546106f691670de0b6b3a764000091610650916110f5565b600183015560408051868152905187916001600160a01b038716917ff279e6a1f5e320cca91135676d9cb6e44ca8a08c0b88342bcdb1144f6511b5689181900360200190a3505050505050565b60006002828154811061075257fe5b9060005260206000209060050201905080600201544211610773575061089e565b8054604080516370a0823160e01b815230600482015290516000926001600160a01b0316916370a08231916024808301926020929190829003018186803b1580156107bd57600080fd5b505afa1580156107d1573d6000803e3d6000fd5b505050506040513d60208110156107e757600080fd5b50519050806107fd57504260029091015561089e565b600482015460ff1661082e576004808301805460ff19166001908117909155830154905461082a91611037565b6004555b600454156108955760006108468360020154426104c1565b905060006108676004546106508660010154856110f590919063ffffffff16565b905061088d6108828461065084670de0b6b3a76400006110f5565b600386015490611037565b600385015550505b50426002909101555b50565b6000600282815481106108b057fe5b600091825260208083208584526003825260408085203380875293528420805485825560018201959095556005909302018054909450919291610900916001600160a01b0391909116908361126b565b604080518281529051859133917fbb757047c2b5f3974fe26b7c10f732e7bce710b0952a71082702781e62ae05959181900360200190a350505050565b6000546001600160a01b031633146109865760405162461bcd60e51b81526004018080602001828103825260288152602001806116c26028913960400191505060405180910390fd5b6006546276a70001421015610a6d576001546001600160a01b03848116911614156109e1576040805162461bcd60e51b815260206004820152600660248201526510ba37b5b2b760d11b604482015290519081900360640190fd5b60025460005b81811015610a6a576000600282815481106109fe57fe5b6000918252602090912060059091020180549091506001600160a01b0387811691161415610a61576040805162461bcd60e51b815260206004820152600b60248201526a10b837b7b6173a37b5b2b760a91b604482015290519081900360640190fd5b506001016109e7565b50505b610a816001600160a01b038416828461126b565b505050565b6000546001600160a01b031681565b60055481565b60025460005b81811015610aba57610ab281610743565b600101610aa1565b5050565b60065481565b60008060028481548110610ad457fe5b60009182526020808320878452600380835260408086206001600160a01b03808b168852908552818720600590960290930191820154825482516370a0823160e01b815230600482015292519398509596909590949316926370a0823192602480840193829003018186803b158015610b4c57600080fd5b505afa158015610b60573d6000803e3d6000fd5b505050506040513d6020811015610b7657600080fd5b5051600285015490915042118015610b8d57508015155b15610bea576000610ba28560020154426104c1565b90506000610bc36004546106508860010154856110f590919063ffffffff16565b9050610be5610bde8461065084670de0b6b3a76400006110f5565b8590611037565b935050505b610c158360010154610656670de0b6b3a76400006106508688600001546110f590919063ffffffff16565b979650505050505050565b60036020908152600092835260408084209091529082529020805460019091015482565b60075481565b6000546001600160a01b03163314610c935760405162461bcd60e51b81526004018080602001828103825260288152602001806116c26028913960400191505060405180910390fd5b610c9c836112bd565b8115610caa57610caa610a9b565b600554421015610cd65780610cc25750600554610cd1565b600554811015610cd157506005545b610cea565b801580610ce257504281105b15610cea5750425b600060055482111580610cfd5750428211155b6040805160a0810182526001600160a01b03878116825260208201898152928201868152600060608401818152861580156080870190815260028054600181018255945295517f405787fa12a823e0f2b7631cc41b3ba8828b3321ca811111fa75cd3aa3bb5ace600590940293840180546001600160a01b031916919096161790945594517f405787fa12a823e0f2b7631cc41b3ba8828b3321ca811111fa75cd3aa3bb5acf82015590517f405787fa12a823e0f2b7631cc41b3ba8828b3321ca811111fa75cd3aa3bb5ad082015592517f405787fa12a823e0f2b7631cc41b3ba8828b3321ca811111fa75cd3aa3bb5ad184015590517f405787fa12a823e0f2b7631cc41b3ba8828b3321ca811111fa75cd3aa3bb5ad2909201805460ff191692151592909217909155909150610e4057600454610e3c9086611037565b6004555b5050505050565b6001546001600160a01b031681565b6000546001600160a01b03163314610e9f5760405162461bcd60e51b81526004018080602001828103825260288152602001806116c26028913960400191505060405180910390fd5b600080546001600160a01b0319166001600160a01b0392909216919091179055565b6000339050600060028481548110610ed557fe5b600091825260208083208784526003825260408085206001600160a01b0388168652909252922060059091029091019150610f0f85610743565b805415610f9b576000610f478260010154610656670de0b6b3a7640000610650876003015487600001546110f590919063ffffffff16565b90508015610f9957610f5984826111b5565b6040805182815290516001600160a01b038616917fe2403640ba68fed3a2f88b7557551d1993f84b99bb10ff833f0cf8db0c5e0486919081900360200190a25b505b8315610fc7578154610fb8906001600160a01b0316843087611357565b8054610fc49085611037565b81555b60038201548154610fe591670de0b6b3a764000091610650916110f5565b600182015560408051858152905186916001600160a01b038616917f90890809c654f11d6e72a28fa60149770a0d11ec6c92319d6ceb2bb0a4ea1a159181900360200190a35050505050565b60085481565b600082820183811015611091576040805162461bcd60e51b815260206004820152601b60248201527f536166654d6174683a206164646974696f6e206f766572666c6f770000000000604482015290519081900360640190fd5b9392505050565b6000828211156110ef576040805162461bcd60e51b815260206004820152601e60248201527f536166654d6174683a207375627472616374696f6e206f766572666c6f770000604482015290519081900360640190fd5b50900390565b60008261110457506000610580565b8282028284828161111157fe5b04146110915760405162461bcd60e51b81526004018080602001828103825260218152602001806116a16021913960400191505060405180910390fd5b60008082116111a4576040805162461bcd60e51b815260206004820152601a60248201527f536166654d6174683a206469766973696f6e206279207a65726f000000000000604482015290519081900360640190fd5b8183816111ad57fe5b049392505050565b600154604080516370a0823160e01b815230600482015290516000926001600160a01b0316916370a08231916024808301926020929190829003018186803b15801561120057600080fd5b505afa158015611214573d6000803e3d6000fd5b505050506040513d602081101561122a57600080fd5b505190508015610a81578082111561125857600154611253906001600160a01b0316848361126b565b610a81565b600154610a81906001600160a01b031684845b604080516001600160a01b038416602482015260448082018490528251808303909101815260649091019091526020810180516001600160e01b031663a9059cbb60e01b179052610a819084906113b7565b60025460005b81811015610a8157826001600160a01b0316600282815481106112e257fe5b60009182526020909120600590910201546001600160a01b0316141561134f576040805162461bcd60e51b815260206004820152601f60248201527f746574726164526577617264506f6f6c3a204578697374696e6720706f6f6c00604482015290519081900360640190fd5b6001016112c3565b604080516001600160a01b0380861660248301528416604482015260648082018490528251808303909101815260849091019091526020810180516001600160e01b03166323b872dd60e01b1790526113b19085906113b7565b50505050565b606061140c826040518060400160405280602081526020017f5361666545524332303a206c6f772d6c6576656c2063616c6c206661696c6564815250856001600160a01b03166114689092919063ffffffff16565b805190915015610a815780806020019051602081101561142b57600080fd5b5051610a815760405162461bcd60e51b815260040180806020018281038252602a8152602001806116ea602a913960400191505060405180910390fd5b6060611477848460008561147f565b949350505050565b6060824710156114c05760405162461bcd60e51b815260040180806020018281038252602681526020018061167b6026913960400191505060405180910390fd5b6114c9856115d0565b61151a576040805162461bcd60e51b815260206004820152601d60248201527f416464726573733a2063616c6c20746f206e6f6e2d636f6e7472616374000000604482015290519081900360640190fd5b60006060866001600160a01b031685876040518082805190602001908083835b602083106115595780518252601f19909201916020918201910161153a565b6001836020036101000a03801982511681845116808217855250505050505090500191505060006040518083038185875af1925050503d80600081146115bb576040519150601f19603f3d011682016040523d82523d6000602084013e6115c0565b606091505b5091509150610c158282866115d6565b3b151590565b606083156115e5575081611091565b8251156115f55782518084602001fd5b8160405162461bcd60e51b81526004018080602001828103825283818151815260200191508051906020019080838360005b8381101561163f578181015183820152602001611627565b50505050905090810190601f16801561166c5780820380516001836020036101000a031916815260200191505b509250505060405180910390fdfe416464726573733a20696e73756666696369656e742062616c616e636520666f722063616c6c536166654d6174683a206d756c7469706c69636174696f6e206f766572666c6f77746574726164526577617264506f6f6c3a2043616c6c6572206973206e6f74206f70657261746f725361666545524332303a204552433230206f7065726174696f6e20646964206e6f742073756363656564a264697066735822122023372e9161fba212b1ab9cc9f7400effc9983297307581f76a561b61b194d02c64736f6c634300060c0033",
          "opcodes": "PUSH1 0x80 PUSH1 0x40 MSTORE PUSH1 0x0 PUSH1 0x4 SSTORE CALLVALUE DUP1 ISZERO PUSH3 0x16 JUMPI PUSH1 0x0 DUP1 REVERT JUMPDEST POP PUSH1 0x40 MLOAD PUSH3 0x191D CODESIZE SUB DUP1 PUSH3 0x191D DUP4 CODECOPY DUP2 DUP2 ADD PUSH1 0x40 MSTORE PUSH1 0x80 DUP2 LT ISZERO PUSH3 0x3C JUMPI PUSH1 0x0 DUP1 REVERT JUMPDEST POP DUP1 MLOAD PUSH1 0x20 DUP3 ADD MLOAD PUSH1 0x40 DUP4 ADD MLOAD PUSH1 0x60 SWAP1 SWAP4 ADD MLOAD SWAP2 SWAP3 SWAP1 SWAP2 TIMESTAMP DUP4 GT PUSH3 0x91 JUMPI PUSH1 0x40 DUP1 MLOAD PUSH3 0x461BCD PUSH1 0xE5 SHL DUP2 MSTORE PUSH1 0x20 PUSH1 0x4 DUP1 DUP4 ADD SWAP2 SWAP1 SWAP2 MSTORE PUSH1 0x24 DUP3 ADD MSTORE PUSH4 0x4C617465 PUSH1 0xE0 SHL PUSH1 0x44 DUP3 ADD MSTORE SWAP1 MLOAD SWAP1 DUP2 SWAP1 SUB PUSH1 0x64 ADD SWAP1 REVERT JUMPDEST PUSH1 0x1 PUSH1 0x1 PUSH1 0xA0 SHL SUB DUP5 AND ISZERO PUSH3 0xBD JUMPI PUSH1 0x1 DUP1 SLOAD PUSH1 0x1 PUSH1 0x1 PUSH1 0xA0 SHL SUB NOT AND PUSH1 0x1 PUSH1 0x1 PUSH1 0xA0 SHL SUB DUP7 AND OR SWAP1 SSTORE JUMPDEST PUSH1 0x5 DUP4 SWAP1 SSTORE PUSH1 0x7 DUP3 SWAP1 SSTORE PUSH3 0xDF DUP4 DUP4 PUSH3 0x162 PUSH1 0x20 SWAP1 DUP2 SHL PUSH3 0x1037 OR SWAP1 SHR JUMP JUMPDEST PUSH1 0x6 SSTORE DUP1 PUSH3 0x135 JUMPI PUSH1 0x40 DUP1 MLOAD PUSH3 0x461BCD PUSH1 0xE5 SHL DUP2 MSTORE PUSH1 0x20 PUSH1 0x4 DUP3 ADD DUP2 SWAP1 MSTORE PUSH1 0x24 DUP3 ADD MSTORE PUSH32 0x746F74616C526577617264732072657761726473206D757374206265203E2030 PUSH1 0x44 DUP3 ADD MSTORE SWAP1 MLOAD SWAP1 DUP2 SWAP1 SUB PUSH1 0x64 ADD SWAP1 REVERT JUMPDEST PUSH1 0x7 SLOAD DUP2 DUP2 PUSH3 0x141 JUMPI INVALID JUMPDEST DIV PUSH1 0x8 SSTORE POP POP PUSH1 0x0 DUP1 SLOAD PUSH1 0x1 PUSH1 0x1 PUSH1 0xA0 SHL SUB NOT AND CALLER OR SWAP1 SSTORE POP PUSH3 0x1C4 SWAP1 POP JUMP JUMPDEST PUSH1 0x0 DUP3 DUP3 ADD DUP4 DUP2 LT ISZERO PUSH3 0x1BD JUMPI PUSH1 0x40 DUP1 MLOAD PUSH3 0x461BCD PUSH1 0xE5 SHL DUP2 MSTORE PUSH1 0x20 PUSH1 0x4 DUP3 ADD MSTORE PUSH1 0x1B PUSH1 0x24 DUP3 ADD MSTORE PUSH32 0x536166654D6174683A206164646974696F6E206F766572666C6F770000000000 PUSH1 0x44 DUP3 ADD MSTORE SWAP1 MLOAD SWAP1 DUP2 SWAP1 SUB PUSH1 0x64 ADD SWAP1 REVERT JUMPDEST SWAP4 SWAP3 POP POP POP JUMP JUMPDEST PUSH2 0x1749 DUP1 PUSH3 0x1D4 PUSH1 0x0 CODECOPY PUSH1 0x0 RETURN INVALID PUSH1 0x80 PUSH1 0x40 MSTORE CALLVALUE DUP1 ISZERO PUSH2 0x10 JUMPI PUSH1 0x0 DUP1 REVERT JUMPDEST POP PUSH1 0x4 CALLDATASIZE LT PUSH2 0x12C JUMPI PUSH1 0x0 CALLDATALOAD PUSH1 0xE0 SHR DUP1 PUSH4 0x630B5BA1 GT PUSH2 0xAD JUMPI DUP1 PUSH4 0x96805E54 GT PUSH2 0x71 JUMPI DUP1 PUSH4 0x96805E54 EQ PUSH2 0x32F JUMPI DUP1 PUSH4 0x971A3047 EQ PUSH2 0x369 JUMPI DUP1 PUSH4 0xB3AB15FB EQ PUSH2 0x371 JUMPI DUP1 PUSH4 0xE2BBB158 EQ PUSH2 0x397 JUMPI DUP1 PUSH4 0xFC84CC68 EQ PUSH2 0x3BA JUMPI PUSH2 0x12C JUMP JUMPDEST DUP1 PUSH4 0x630B5BA1 EQ PUSH2 0x2A6 JUMPI DUP1 PUSH4 0x6E271DD5 EQ PUSH2 0x2AE JUMPI DUP1 PUSH4 0x89D3D168 EQ PUSH2 0x2B6 JUMPI DUP1 PUSH4 0x93F1A40B EQ PUSH2 0x2E2 JUMPI DUP1 PUSH4 0x943F013D EQ PUSH2 0x327 JUMPI PUSH2 0x12C JUMP JUMPDEST DUP1 PUSH4 0x51EB05A6 GT PUSH2 0xF4 JUMPI DUP1 PUSH4 0x51EB05A6 EQ PUSH2 0x20A JUMPI DUP1 PUSH4 0x5312EA8E EQ PUSH2 0x227 JUMPI DUP1 PUSH4 0x54575AF4 EQ PUSH2 0x244 JUMPI DUP1 PUSH4 0x570CA735 EQ PUSH2 0x27A JUMPI DUP1 PUSH4 0x5F96DC11 EQ PUSH2 0x29E JUMPI PUSH2 0x12C JUMP JUMPDEST DUP1 PUSH4 0x1526FE27 EQ PUSH2 0x131 JUMPI DUP1 PUSH4 0x17CAF6F1 EQ PUSH2 0x185 JUMPI DUP1 PUSH4 0x1AB06EE5 EQ PUSH2 0x19F JUMPI DUP1 PUSH4 0x231F0C6A EQ PUSH2 0x1C4 JUMPI DUP1 PUSH4 0x441A3E70 EQ PUSH2 0x1E7 JUMPI JUMPDEST PUSH1 0x0 DUP1 REVERT JUMPDEST PUSH2 0x14E PUSH1 0x4 DUP1 CALLDATASIZE SUB PUSH1 0x20 DUP2 LT ISZERO PUSH2 0x147 JUMPI PUSH1 0x0 DUP1 REVERT JUMPDEST POP CALLDATALOAD PUSH2 0x3C2 JUMP JUMPDEST PUSH1 0x40 DUP1 MLOAD PUSH1 0x1 PUSH1 0x1 PUSH1 0xA0 SHL SUB SWAP1 SWAP7 AND DUP7 MSTORE PUSH1 0x20 DUP7 ADD SWAP5 SWAP1 SWAP5 MSTORE DUP5 DUP5 ADD SWAP3 SWAP1 SWAP3 MSTORE PUSH1 0x60 DUP5 ADD MSTORE ISZERO ISZERO PUSH1 0x80 DUP4 ADD MSTORE MLOAD SWAP1 DUP2 SWAP1 SUB PUSH1 0xA0 ADD SWAP1 RETURN JUMPDEST PUSH2 0x18D PUSH2 0x40D JUMP JUMPDEST PUSH1 0x40 DUP1 MLOAD SWAP2 DUP3 MSTORE MLOAD SWAP1 DUP2 SWAP1 SUB PUSH1 0x20 ADD SWAP1 RETURN JUMPDEST PUSH2 0x1C2 PUSH1 0x4 DUP1 CALLDATASIZE SUB PUSH1 0x40 DUP2 LT ISZERO PUSH2 0x1B5 JUMPI PUSH1 0x0 DUP1 REVERT JUMPDEST POP DUP1 CALLDATALOAD SWAP1 PUSH1 0x20 ADD CALLDATALOAD PUSH2 0x413 JUMP JUMPDEST STOP JUMPDEST PUSH2 0x18D PUSH1 0x4 DUP1 CALLDATASIZE SUB PUSH1 0x40 DUP2 LT ISZERO PUSH2 0x1DA JUMPI PUSH1 0x0 DUP1 REVERT JUMPDEST POP DUP1 CALLDATALOAD SWAP1 PUSH1 0x20 ADD CALLDATALOAD PUSH2 0x4C1 JUMP JUMPDEST PUSH2 0x1C2 PUSH1 0x4 DUP1 CALLDATASIZE SUB PUSH1 0x40 DUP2 LT ISZERO PUSH2 0x1FD JUMPI PUSH1 0x0 DUP1 REVERT JUMPDEST POP DUP1 CALLDATALOAD SWAP1 PUSH1 0x20 ADD CALLDATALOAD PUSH2 0x586 JUMP JUMPDEST PUSH2 0x1C2 PUSH1 0x4 DUP1 CALLDATASIZE SUB PUSH1 0x20 DUP2 LT ISZERO PUSH2 0x220 JUMPI PUSH1 0x0 DUP1 REVERT JUMPDEST POP CALLDATALOAD PUSH2 0x743 JUMP JUMPDEST PUSH2 0x1C2 PUSH1 0x4 DUP1 CALLDATASIZE SUB PUSH1 0x20 DUP2 LT ISZERO PUSH2 0x23D JUMPI PUSH1 0x0 DUP1 REVERT JUMPDEST POP CALLDATALOAD PUSH2 0x8A1 JUMP JUMPDEST PUSH2 0x1C2 PUSH1 0x4 DUP1 CALLDATASIZE SUB PUSH1 0x60 DUP2 LT ISZERO PUSH2 0x25A JUMPI PUSH1 0x0 DUP1 REVERT JUMPDEST POP PUSH1 0x1 PUSH1 0x1 PUSH1 0xA0 SHL SUB DUP2 CALLDATALOAD DUP2 AND SWAP2 PUSH1 0x20 DUP2 ADD CALLDATALOAD SWAP2 PUSH1 0x40 SWAP1 SWAP2 ADD CALLDATALOAD AND PUSH2 0x93D JUMP JUMPDEST PUSH2 0x282 PUSH2 0xA86 JUMP JUMPDEST PUSH1 0x40 DUP1 MLOAD PUSH1 0x1 PUSH1 0x1 PUSH1 0xA0 SHL SUB SWAP1 SWAP3 AND DUP3 MSTORE MLOAD SWAP1 DUP2 SWAP1 SUB PUSH1 0x20 ADD SWAP1 RETURN JUMPDEST PUSH2 0x18D PUSH2 0xA95 JUMP JUMPDEST PUSH2 0x1C2 PUSH2 0xA9B JUMP JUMPDEST PUSH2 0x18D PUSH2 0xABE JUMP JUMPDEST PUSH2 0x18D PUSH1 0x4 DUP1 CALLDATASIZE SUB PUSH1 0x40 DUP2 LT ISZERO PUSH2 0x2CC JUMPI PUSH1 0x0 DUP1 REVERT JUMPDEST POP DUP1 CALLDATALOAD SWAP1 PUSH1 0x20 ADD CALLDATALOAD PUSH1 0x1 PUSH1 0x1 PUSH1 0xA0 SHL SUB AND PUSH2 0xAC4 JUMP JUMPDEST PUSH2 0x30E PUSH1 0x4 DUP1 CALLDATASIZE SUB PUSH1 0x40 DUP2 LT ISZERO PUSH2 0x2F8 JUMPI PUSH1 0x0 DUP1 REVERT JUMPDEST POP DUP1 CALLDATALOAD SWAP1 PUSH1 0x20 ADD CALLDATALOAD PUSH1 0x1 PUSH1 0x1 PUSH1 0xA0 SHL SUB AND PUSH2 0xC20 JUMP JUMPDEST PUSH1 0x40 DUP1 MLOAD SWAP3 DUP4 MSTORE PUSH1 0x20 DUP4 ADD SWAP2 SWAP1 SWAP2 MSTORE DUP1 MLOAD SWAP2 DUP3 SWAP1 SUB ADD SWAP1 RETURN JUMPDEST PUSH2 0x18D PUSH2 0xC44 JUMP JUMPDEST PUSH2 0x1C2 PUSH1 0x4 DUP1 CALLDATASIZE SUB PUSH1 0x80 DUP2 LT ISZERO PUSH2 0x345 JUMPI PUSH1 0x0 DUP1 REVERT JUMPDEST POP DUP1 CALLDATALOAD SWAP1 PUSH1 0x1 PUSH1 0x1 PUSH1 0xA0 SHL SUB PUSH1 0x20 DUP3 ADD CALLDATALOAD AND SWAP1 PUSH1 0x40 DUP2 ADD CALLDATALOAD ISZERO ISZERO SWAP1 PUSH1 0x60 ADD CALLDATALOAD PUSH2 0xC4A JUMP JUMPDEST PUSH2 0x282 PUSH2 0xE47 JUMP JUMPDEST PUSH2 0x1C2 PUSH1 0x4 DUP1 CALLDATASIZE SUB PUSH1 0x20 DUP2 LT ISZERO PUSH2 0x387 JUMPI PUSH1 0x0 DUP1 REVERT JUMPDEST POP CALLDATALOAD PUSH1 0x1 PUSH1 0x1 PUSH1 0xA0 SHL SUB AND PUSH2 0xE56 JUMP JUMPDEST PUSH2 0x1C2 PUSH1 0x4 DUP1 CALLDATASIZE SUB PUSH1 0x40 DUP2 LT ISZERO PUSH2 0x3AD JUMPI PUSH1 0x0 DUP1 REVERT JUMPDEST POP DUP1 CALLDATALOAD SWAP1 PUSH1 0x20 ADD CALLDATALOAD PUSH2 0xEC1 JUMP JUMPDEST PUSH2 0x18D PUSH2 0x1031 JUMP JUMPDEST PUSH1 0x2 DUP2 DUP2 SLOAD DUP2 LT PUSH2 0x3CF JUMPI INVALID JUMPDEST PUSH1 0x0 SWAP2 DUP3 MSTORE PUSH1 0x20 SWAP1 SWAP2 KECCAK256 PUSH1 0x5 SWAP1 SWAP2 MUL ADD DUP1 SLOAD PUSH1 0x1 DUP3 ADD SLOAD PUSH1 0x2 DUP4 ADD SLOAD PUSH1 0x3 DUP5 ADD SLOAD PUSH1 0x4 SWAP1 SWAP5 ADD SLOAD PUSH1 0x1 PUSH1 0x1 PUSH1 0xA0 SHL SUB SWAP1 SWAP4 AND SWAP5 POP SWAP1 SWAP3 SWAP1 SWAP2 PUSH1 0xFF AND DUP6 JUMP JUMPDEST PUSH1 0x4 SLOAD DUP2 JUMP JUMPDEST PUSH1 0x0 SLOAD PUSH1 0x1 PUSH1 0x1 PUSH1 0xA0 SHL SUB AND CALLER EQ PUSH2 0x45C JUMPI PUSH1 0x40 MLOAD PUSH3 0x461BCD PUSH1 0xE5 SHL DUP2 MSTORE PUSH1 0x4 ADD DUP1 DUP1 PUSH1 0x20 ADD DUP3 DUP2 SUB DUP3 MSTORE PUSH1 0x28 DUP2 MSTORE PUSH1 0x20 ADD DUP1 PUSH2 0x16C2 PUSH1 0x28 SWAP2 CODECOPY PUSH1 0x40 ADD SWAP2 POP POP PUSH1 0x40 MLOAD DUP1 SWAP2 SUB SWAP1 REVERT JUMPDEST PUSH2 0x464 PUSH2 0xA9B JUMP JUMPDEST PUSH1 0x0 PUSH1 0x2 DUP4 DUP2 SLOAD DUP2 LT PUSH2 0x473 JUMPI INVALID JUMPDEST PUSH1 0x0 SWAP2 DUP3 MSTORE PUSH1 0x20 SWAP1 SWAP2 KECCAK256 PUSH1 0x5 SWAP1 SWAP2 MUL ADD PUSH1 0x4 DUP2 ADD SLOAD SWAP1 SWAP2 POP PUSH1 0xFF AND ISZERO PUSH2 0x4BA JUMPI PUSH2 0x4B6 DUP3 PUSH2 0x4B0 DUP4 PUSH1 0x1 ADD SLOAD PUSH1 0x4 SLOAD PUSH2 0x1098 SWAP1 SWAP2 SWAP1 PUSH4 0xFFFFFFFF AND JUMP JUMPDEST SWAP1 PUSH2 0x1037 JUMP JUMPDEST PUSH1 0x4 SSTORE JUMPDEST PUSH1 0x1 ADD SSTORE POP JUMP JUMPDEST PUSH1 0x0 DUP2 DUP4 LT PUSH2 0x4D2 JUMPI POP PUSH1 0x0 PUSH2 0x580 JUMP JUMPDEST PUSH1 0x6 SLOAD DUP3 LT PUSH2 0x53A JUMPI PUSH1 0x6 SLOAD DUP4 LT PUSH2 0x4EC JUMPI POP PUSH1 0x0 PUSH2 0x580 JUMP JUMPDEST PUSH1 0x5 SLOAD DUP4 GT PUSH2 0x51F JUMPI PUSH2 0x518 PUSH1 0x8 SLOAD PUSH2 0x512 PUSH1 0x5 SLOAD PUSH1 0x6 SLOAD PUSH2 0x1098 SWAP1 SWAP2 SWAP1 PUSH4 0xFFFFFFFF AND JUMP JUMPDEST SWAP1 PUSH2 0x10F5 JUMP JUMPDEST SWAP1 POP PUSH2 0x580 JUMP JUMPDEST PUSH2 0x518 PUSH1 0x8 SLOAD PUSH2 0x512 DUP6 PUSH1 0x6 SLOAD PUSH2 0x1098 SWAP1 SWAP2 SWAP1 PUSH4 0xFFFFFFFF AND JUMP JUMPDEST PUSH1 0x5 SLOAD DUP3 GT PUSH2 0x54B JUMPI POP PUSH1 0x0 PUSH2 0x580 JUMP JUMPDEST PUSH1 0x5 SLOAD DUP4 GT PUSH2 0x56F JUMPI PUSH2 0x518 PUSH1 0x8 SLOAD PUSH2 0x512 PUSH1 0x5 SLOAD DUP6 PUSH2 0x1098 SWAP1 SWAP2 SWAP1 PUSH4 0xFFFFFFFF AND JUMP JUMPDEST PUSH1 0x8 SLOAD PUSH2 0x518 SWAP1 PUSH2 0x512 DUP5 DUP7 PUSH2 0x1098 JUMP JUMPDEST SWAP3 SWAP2 POP POP JUMP JUMPDEST PUSH1 0x0 CALLER SWAP1 POP PUSH1 0x0 PUSH1 0x2 DUP5 DUP2 SLOAD DUP2 LT PUSH2 0x59A JUMPI INVALID JUMPDEST PUSH1 0x0 SWAP2 DUP3 MSTORE PUSH1 0x20 DUP1 DUP4 KECCAK256 DUP8 DUP5 MSTORE PUSH1 0x3 DUP3 MSTORE PUSH1 0x40 DUP1 DUP6 KECCAK256 PUSH1 0x1 PUSH1 0x1 PUSH1 0xA0 SHL SUB DUP9 AND DUP7 MSTORE SWAP1 SWAP3 MSTORE SWAP3 KECCAK256 DUP1 SLOAD PUSH1 0x5 SWAP1 SWAP3 MUL SWAP1 SWAP3 ADD SWAP3 POP DUP5 GT ISZERO PUSH2 0x616 JUMPI PUSH1 0x40 DUP1 MLOAD PUSH3 0x461BCD PUSH1 0xE5 SHL DUP2 MSTORE PUSH1 0x20 PUSH1 0x4 DUP3 ADD MSTORE PUSH1 0x12 PUSH1 0x24 DUP3 ADD MSTORE PUSH18 0x1DDA5D1A191C985DCE881B9BDD0819DBDBD9 PUSH1 0x72 SHL PUSH1 0x44 DUP3 ADD MSTORE SWAP1 MLOAD SWAP1 DUP2 SWAP1 SUB PUSH1 0x64 ADD SWAP1 REVERT JUMPDEST PUSH2 0x61F DUP6 PUSH2 0x743 JUMP JUMPDEST PUSH1 0x0 PUSH2 0x65C DUP3 PUSH1 0x1 ADD SLOAD PUSH2 0x656 PUSH8 0xDE0B6B3A7640000 PUSH2 0x650 DUP8 PUSH1 0x3 ADD SLOAD DUP8 PUSH1 0x0 ADD SLOAD PUSH2 0x10F5 SWAP1 SWAP2 SWAP1 PUSH4 0xFFFFFFFF AND JUMP JUMPDEST SWAP1 PUSH2 0x114E JUMP JUMPDEST SWAP1 PUSH2 0x1098 JUMP JUMPDEST SWAP1 POP DUP1 ISZERO PUSH2 0x6AE JUMPI PUSH2 0x66E DUP5 DUP3 PUSH2 0x11B5 JUMP JUMPDEST PUSH1 0x40 DUP1 MLOAD DUP3 DUP2 MSTORE SWAP1 MLOAD PUSH1 0x1 PUSH1 0x1 PUSH1 0xA0 SHL SUB DUP7 AND SWAP2 PUSH32 0xE2403640BA68FED3A2F88B7557551D1993F84B99BB10FF833F0CF8DB0C5E0486 SWAP2 SWAP1 DUP2 SWAP1 SUB PUSH1 0x20 ADD SWAP1 LOG2 JUMPDEST DUP5 ISZERO PUSH2 0x6D8 JUMPI DUP2 SLOAD PUSH2 0x6C0 SWAP1 DUP7 PUSH2 0x1098 JUMP JUMPDEST DUP3 SSTORE DUP3 SLOAD PUSH2 0x6D8 SWAP1 PUSH1 0x1 PUSH1 0x1 PUSH1 0xA0 SHL SUB AND DUP6 DUP8 PUSH2 0x126B JUMP JUMPDEST PUSH1 0x3 DUP4 ADD SLOAD DUP3 SLOAD PUSH2 0x6F6 SWAP2 PUSH8 0xDE0B6B3A7640000 SWAP2 PUSH2 0x650 SWAP2 PUSH2 0x10F5 JUMP JUMPDEST PUSH1 0x1 DUP4 ADD SSTORE PUSH1 0x40 DUP1 MLOAD DUP7 DUP2 MSTORE SWAP1 MLOAD DUP8 SWAP2 PUSH1 0x1 PUSH1 0x1 PUSH1 0xA0 SHL SUB DUP8 AND SWAP2 PUSH32 0xF279E6A1F5E320CCA91135676D9CB6E44CA8A08C0B88342BCDB1144F6511B568 SWAP2 DUP2 SWAP1 SUB PUSH1 0x20 ADD SWAP1 LOG3 POP POP POP POP POP POP JUMP JUMPDEST PUSH1 0x0 PUSH1 0x2 DUP3 DUP2 SLOAD DUP2 LT PUSH2 0x752 JUMPI INVALID JUMPDEST SWAP1 PUSH1 0x0 MSTORE PUSH1 0x20 PUSH1 0x0 KECCAK256 SWAP1 PUSH1 0x5 MUL ADD SWAP1 POP DUP1 PUSH1 0x2 ADD SLOAD TIMESTAMP GT PUSH2 0x773 JUMPI POP PUSH2 0x89E JUMP JUMPDEST DUP1 SLOAD PUSH1 0x40 DUP1 MLOAD PUSH4 0x70A08231 PUSH1 0xE0 SHL DUP2 MSTORE ADDRESS PUSH1 0x4 DUP3 ADD MSTORE SWAP1 MLOAD PUSH1 0x0 SWAP3 PUSH1 0x1 PUSH1 0x1 PUSH1 0xA0 SHL SUB AND SWAP2 PUSH4 0x70A08231 SWAP2 PUSH1 0x24 DUP1 DUP4 ADD SWAP3 PUSH1 0x20 SWAP3 SWAP2 SWAP1 DUP3 SWAP1 SUB ADD DUP2 DUP7 DUP1 EXTCODESIZE ISZERO DUP1 ISZERO PUSH2 0x7BD JUMPI PUSH1 0x0 DUP1 REVERT JUMPDEST POP GAS STATICCALL ISZERO DUP1 ISZERO PUSH2 0x7D1 JUMPI RETURNDATASIZE PUSH1 0x0 DUP1 RETURNDATACOPY RETURNDATASIZE PUSH1 0x0 REVERT JUMPDEST POP POP POP POP PUSH1 0x40 MLOAD RETURNDATASIZE PUSH1 0x20 DUP2 LT ISZERO PUSH2 0x7E7 JUMPI PUSH1 0x0 DUP1 REVERT JUMPDEST POP MLOAD SWAP1 POP DUP1 PUSH2 0x7FD JUMPI POP TIMESTAMP PUSH1 0x2 SWAP1 SWAP2 ADD SSTORE PUSH2 0x89E JUMP JUMPDEST PUSH1 0x4 DUP3 ADD SLOAD PUSH1 0xFF AND PUSH2 0x82E JUMPI PUSH1 0x4 DUP1 DUP4 ADD DUP1 SLOAD PUSH1 0xFF NOT AND PUSH1 0x1 SWAP1 DUP2 OR SWAP1 SWAP2 SSTORE DUP4 ADD SLOAD SWAP1 SLOAD PUSH2 0x82A SWAP2 PUSH2 0x1037 JUMP JUMPDEST PUSH1 0x4 SSTORE JUMPDEST PUSH1 0x4 SLOAD ISZERO PUSH2 0x895 JUMPI PUSH1 0x0 PUSH2 0x846 DUP4 PUSH1 0x2 ADD SLOAD TIMESTAMP PUSH2 0x4C1 JUMP JUMPDEST SWAP1 POP PUSH1 0x0 PUSH2 0x867 PUSH1 0x4 SLOAD PUSH2 0x650 DUP7 PUSH1 0x1 ADD SLOAD DUP6 PUSH2 0x10F5 SWAP1 SWAP2 SWAP1 PUSH4 0xFFFFFFFF AND JUMP JUMPDEST SWAP1 POP PUSH2 0x88D PUSH2 0x882 DUP5 PUSH2 0x650 DUP5 PUSH8 0xDE0B6B3A7640000 PUSH2 0x10F5 JUMP JUMPDEST PUSH1 0x3 DUP7 ADD SLOAD SWAP1 PUSH2 0x1037 JUMP JUMPDEST PUSH1 0x3 DUP6 ADD SSTORE POP POP JUMPDEST POP TIMESTAMP PUSH1 0x2 SWAP1 SWAP2 ADD SSTORE JUMPDEST POP JUMP JUMPDEST PUSH1 0x0 PUSH1 0x2 DUP3 DUP2 SLOAD DUP2 LT PUSH2 0x8B0 JUMPI INVALID JUMPDEST PUSH1 0x0 SWAP2 DUP3 MSTORE PUSH1 0x20 DUP1 DUP4 KECCAK256 DUP6 DUP5 MSTORE PUSH1 0x3 DUP3 MSTORE PUSH1 0x40 DUP1 DUP6 KECCAK256 CALLER DUP1 DUP8 MSTORE SWAP4 MSTORE DUP5 KECCAK256 DUP1 SLOAD DUP6 DUP3 SSTORE PUSH1 0x1 DUP3 ADD SWAP6 SWAP1 SWAP6 SSTORE PUSH1 0x5 SWAP1 SWAP4 MUL ADD DUP1 SLOAD SWAP1 SWAP5 POP SWAP2 SWAP3 SWAP2 PUSH2 0x900 SWAP2 PUSH1 0x1 PUSH1 0x1 PUSH1 0xA0 SHL SUB SWAP2 SWAP1 SWAP2 AND SWAP1 DUP4 PUSH2 0x126B JUMP JUMPDEST PUSH1 0x40 DUP1 MLOAD DUP3 DUP2 MSTORE SWAP1 MLOAD DUP6 SWAP2 CALLER SWAP2 PUSH32 0xBB757047C2B5F3974FE26B7C10F732E7BCE710B0952A71082702781E62AE0595 SWAP2 DUP2 SWAP1 SUB PUSH1 0x20 ADD SWAP1 LOG3 POP POP POP POP JUMP JUMPDEST PUSH1 0x0 SLOAD PUSH1 0x1 PUSH1 0x1 PUSH1 0xA0 SHL SUB AND CALLER EQ PUSH2 0x986 JUMPI PUSH1 0x40 MLOAD PUSH3 0x461BCD PUSH1 0xE5 SHL DUP2 MSTORE PUSH1 0x4 ADD DUP1 DUP1 PUSH1 0x20 ADD DUP3 DUP2 SUB DUP3 MSTORE PUSH1 0x28 DUP2 MSTORE PUSH1 0x20 ADD DUP1 PUSH2 0x16C2 PUSH1 0x28 SWAP2 CODECOPY PUSH1 0x40 ADD SWAP2 POP POP PUSH1 0x40 MLOAD DUP1 SWAP2 SUB SWAP1 REVERT JUMPDEST PUSH1 0x6 SLOAD PUSH3 0x76A700 ADD TIMESTAMP LT ISZERO PUSH2 0xA6D JUMPI PUSH1 0x1 SLOAD PUSH1 0x1 PUSH1 0x1 PUSH1 0xA0 SHL SUB DUP5 DUP2 AND SWAP2 AND EQ ISZERO PUSH2 0x9E1 JUMPI PUSH1 0x40 DUP1 MLOAD PUSH3 0x461BCD PUSH1 0xE5 SHL DUP2 MSTORE PUSH1 0x20 PUSH1 0x4 DUP3 ADD MSTORE PUSH1 0x6 PUSH1 0x24 DUP3 ADD MSTORE PUSH6 0x10BA37B5B2B7 PUSH1 0xD1 SHL PUSH1 0x44 DUP3 ADD MSTORE SWAP1 MLOAD SWAP1 DUP2 SWAP1 SUB PUSH1 0x64 ADD SWAP1 REVERT JUMPDEST PUSH1 0x2 SLOAD PUSH1 0x0 JUMPDEST DUP2 DUP2 LT ISZERO PUSH2 0xA6A JUMPI PUSH1 0x0 PUSH1 0x2 DUP3 DUP2 SLOAD DUP2 LT PUSH2 0x9FE JUMPI INVALID JUMPDEST PUSH1 0x0 SWAP2 DUP3 MSTORE PUSH1 0x20 SWAP1 SWAP2 KECCAK256 PUSH1 0x5 SWAP1 SWAP2 MUL ADD DUP1 SLOAD SWAP1 SWAP2 POP PUSH1 0x1 PUSH1 0x1 PUSH1 0xA0 SHL SUB DUP8 DUP2 AND SWAP2 AND EQ ISZERO PUSH2 0xA61 JUMPI PUSH1 0x40 DUP1 MLOAD PUSH3 0x461BCD PUSH1 0xE5 SHL DUP2 MSTORE PUSH1 0x20 PUSH1 0x4 DUP3 ADD MSTORE PUSH1 0xB PUSH1 0x24 DUP3 ADD MSTORE PUSH11 0x10B837B7B6173A37B5B2B7 PUSH1 0xA9 SHL PUSH1 0x44 DUP3 ADD MSTORE SWAP1 MLOAD SWAP1 DUP2 SWAP1 SUB PUSH1 0x64 ADD SWAP1 REVERT JUMPDEST POP PUSH1 0x1 ADD PUSH2 0x9E7 JUMP JUMPDEST POP POP JUMPDEST PUSH2 0xA81 PUSH1 0x1 PUSH1 0x1 PUSH1 0xA0 SHL SUB DUP5 AND DUP3 DUP5 PUSH2 0x126B JUMP JUMPDEST POP POP POP JUMP JUMPDEST PUSH1 0x0 SLOAD PUSH1 0x1 PUSH1 0x1 PUSH1 0xA0 SHL SUB AND DUP2 JUMP JUMPDEST PUSH1 0x5 SLOAD DUP2 JUMP JUMPDEST PUSH1 0x2 SLOAD PUSH1 0x0 JUMPDEST DUP2 DUP2 LT ISZERO PUSH2 0xABA JUMPI PUSH2 0xAB2 DUP2 PUSH2 0x743 JUMP JUMPDEST PUSH1 0x1 ADD PUSH2 0xAA1 JUMP JUMPDEST POP POP JUMP JUMPDEST PUSH1 0x6 SLOAD DUP2 JUMP JUMPDEST PUSH1 0x0 DUP1 PUSH1 0x2 DUP5 DUP2 SLOAD DUP2 LT PUSH2 0xAD4 JUMPI INVALID JUMPDEST PUSH1 0x0 SWAP2 DUP3 MSTORE PUSH1 0x20 DUP1 DUP4 KECCAK256 DUP8 DUP5 MSTORE PUSH1 0x3 DUP1 DUP4 MSTORE PUSH1 0x40 DUP1 DUP7 KECCAK256 PUSH1 0x1 PUSH1 0x1 PUSH1 0xA0 SHL SUB DUP1 DUP12 AND DUP9 MSTORE SWAP1 DUP6 MSTORE DUP2 DUP8 KECCAK256 PUSH1 0x5 SWAP1 SWAP7 MUL SWAP1 SWAP4 ADD SWAP2 DUP3 ADD SLOAD DUP3 SLOAD DUP3 MLOAD PUSH4 0x70A08231 PUSH1 0xE0 SHL DUP2 MSTORE ADDRESS PUSH1 0x4 DUP3 ADD MSTORE SWAP3 MLOAD SWAP4 SWAP9 POP SWAP6 SWAP7 SWAP1 SWAP6 SWAP1 SWAP5 SWAP4 AND SWAP3 PUSH4 0x70A08231 SWAP3 PUSH1 0x24 DUP1 DUP5 ADD SWAP4 DUP3 SWAP1 SUB ADD DUP2 DUP7 DUP1 EXTCODESIZE ISZERO DUP1 ISZERO PUSH2 0xB4C JUMPI PUSH1 0x0 DUP1 REVERT JUMPDEST POP GAS STATICCALL ISZERO DUP1 ISZERO PUSH2 0xB60 JUMPI RETURNDATASIZE PUSH1 0x0 DUP1 RETURNDATACOPY RETURNDATASIZE PUSH1 0x0 REVERT JUMPDEST POP POP POP POP PUSH1 0x40 MLOAD RETURNDATASIZE PUSH1 0x20 DUP2 LT ISZERO PUSH2 0xB76 JUMPI PUSH1 0x0 DUP1 REVERT JUMPDEST POP MLOAD PUSH1 0x2 DUP6 ADD SLOAD SWAP1 SWAP2 POP TIMESTAMP GT DUP1 ISZERO PUSH2 0xB8D JUMPI POP DUP1 ISZERO ISZERO JUMPDEST ISZERO PUSH2 0xBEA JUMPI PUSH1 0x0 PUSH2 0xBA2 DUP6 PUSH1 0x2 ADD SLOAD TIMESTAMP PUSH2 0x4C1 JUMP JUMPDEST SWAP1 POP PUSH1 0x0 PUSH2 0xBC3 PUSH1 0x4 SLOAD PUSH2 0x650 DUP9 PUSH1 0x1 ADD SLOAD DUP6 PUSH2 0x10F5 SWAP1 SWAP2 SWAP1 PUSH4 0xFFFFFFFF AND JUMP JUMPDEST SWAP1 POP PUSH2 0xBE5 PUSH2 0xBDE DUP5 PUSH2 0x650 DUP5 PUSH8 0xDE0B6B3A7640000 PUSH2 0x10F5 JUMP JUMPDEST DUP6 SWAP1 PUSH2 0x1037 JUMP JUMPDEST SWAP4 POP POP POP JUMPDEST PUSH2 0xC15 DUP4 PUSH1 0x1 ADD SLOAD PUSH2 0x656 PUSH8 0xDE0B6B3A7640000 PUSH2 0x650 DUP7 DUP9 PUSH1 0x0 ADD SLOAD PUSH2 0x10F5 SWAP1 SWAP2 SWAP1 PUSH4 0xFFFFFFFF AND JUMP JUMPDEST SWAP8 SWAP7 POP POP POP POP POP POP POP JUMP JUMPDEST PUSH1 0x3 PUSH1 0x20 SWAP1 DUP2 MSTORE PUSH1 0x0 SWAP3 DUP4 MSTORE PUSH1 0x40 DUP1 DUP5 KECCAK256 SWAP1 SWAP2 MSTORE SWAP1 DUP3 MSTORE SWAP1 KECCAK256 DUP1 SLOAD PUSH1 0x1 SWAP1 SWAP2 ADD SLOAD DUP3 JUMP JUMPDEST PUSH1 0x7 SLOAD DUP2 JUMP JUMPDEST PUSH1 0x0 SLOAD PUSH1 0x1 PUSH1 0x1 PUSH1 0xA0 SHL SUB AND CALLER EQ PUSH2 0xC93 JUMPI PUSH1 0x40 MLOAD PUSH3 0x461BCD PUSH1 0xE5 SHL DUP2 MSTORE PUSH1 0x4 ADD DUP1 DUP1 PUSH1 0x20 ADD DUP3 DUP2 SUB DUP3 MSTORE PUSH1 0x28 DUP2 MSTORE PUSH1 0x20 ADD DUP1 PUSH2 0x16C2 PUSH1 0x28 SWAP2 CODECOPY PUSH1 0x40 ADD SWAP2 POP POP PUSH1 0x40 MLOAD DUP1 SWAP2 SUB SWAP1 REVERT JUMPDEST PUSH2 0xC9C DUP4 PUSH2 0x12BD JUMP JUMPDEST DUP2 ISZERO PUSH2 0xCAA JUMPI PUSH2 0xCAA PUSH2 0xA9B JUMP JUMPDEST PUSH1 0x5 SLOAD TIMESTAMP LT ISZERO PUSH2 0xCD6 JUMPI DUP1 PUSH2 0xCC2 JUMPI POP PUSH1 0x5 SLOAD PUSH2 0xCD1 JUMP JUMPDEST PUSH1 0x5 SLOAD DUP2 LT ISZERO PUSH2 0xCD1 JUMPI POP PUSH1 0x5 SLOAD JUMPDEST PUSH2 0xCEA JUMP JUMPDEST DUP1 ISZERO DUP1 PUSH2 0xCE2 JUMPI POP TIMESTAMP DUP2 LT JUMPDEST ISZERO PUSH2 0xCEA JUMPI POP TIMESTAMP JUMPDEST PUSH1 0x0 PUSH1 0x5 SLOAD DUP3 GT ISZERO DUP1 PUSH2 0xCFD JUMPI POP TIMESTAMP DUP3 GT ISZERO JUMPDEST PUSH1 0x40 DUP1 MLOAD PUSH1 0xA0 DUP2 ADD DUP3 MSTORE PUSH1 0x1 PUSH1 0x1 PUSH1 0xA0 SHL SUB DUP8 DUP2 AND DUP3 MSTORE PUSH1 0x20 DUP3 ADD DUP10 DUP2 MSTORE SWAP3 DUP3 ADD DUP7 DUP2 MSTORE PUSH1 0x0 PUSH1 0x60 DUP5 ADD DUP2 DUP2 MSTORE DUP7 ISZERO DUP1 ISZERO PUSH1 0x80 DUP8 ADD SWAP1 DUP2 MSTORE PUSH1 0x2 DUP1 SLOAD PUSH1 0x1 DUP2 ADD DUP3 SSTORE SWAP5 MSTORE SWAP6 MLOAD PUSH32 0x405787FA12A823E0F2B7631CC41B3BA8828B3321CA811111FA75CD3AA3BB5ACE PUSH1 0x5 SWAP1 SWAP5 MUL SWAP4 DUP5 ADD DUP1 SLOAD PUSH1 0x1 PUSH1 0x1 PUSH1 0xA0 SHL SUB NOT AND SWAP2 SWAP1 SWAP7 AND OR SWAP1 SWAP5 SSTORE SWAP5 MLOAD PUSH32 0x405787FA12A823E0F2B7631CC41B3BA8828B3321CA811111FA75CD3AA3BB5ACF DUP3 ADD SSTORE SWAP1 MLOAD PUSH32 0x405787FA12A823E0F2B7631CC41B3BA8828B3321CA811111FA75CD3AA3BB5AD0 DUP3 ADD SSTORE SWAP3 MLOAD PUSH32 0x405787FA12A823E0F2B7631CC41B3BA8828B3321CA811111FA75CD3AA3BB5AD1 DUP5 ADD SSTORE SWAP1 MLOAD PUSH32 0x405787FA12A823E0F2B7631CC41B3BA8828B3321CA811111FA75CD3AA3BB5AD2 SWAP1 SWAP3 ADD DUP1 SLOAD PUSH1 0xFF NOT AND SWAP3 ISZERO ISZERO SWAP3 SWAP1 SWAP3 OR SWAP1 SWAP2 SSTORE SWAP1 SWAP2 POP PUSH2 0xE40 JUMPI PUSH1 0x4 SLOAD PUSH2 0xE3C SWAP1 DUP7 PUSH2 0x1037 JUMP JUMPDEST PUSH1 0x4 SSTORE JUMPDEST POP POP POP POP POP JUMP JUMPDEST PUSH1 0x1 SLOAD PUSH1 0x1 PUSH1 0x1 PUSH1 0xA0 SHL SUB AND DUP2 JUMP JUMPDEST PUSH1 0x0 SLOAD PUSH1 0x1 PUSH1 0x1 PUSH1 0xA0 SHL SUB AND CALLER EQ PUSH2 0xE9F JUMPI PUSH1 0x40 MLOAD PUSH3 0x461BCD PUSH1 0xE5 SHL DUP2 MSTORE PUSH1 0x4 ADD DUP1 DUP1 PUSH1 0x20 ADD DUP3 DUP2 SUB DUP3 MSTORE PUSH1 0x28 DUP2 MSTORE PUSH1 0x20 ADD DUP1 PUSH2 0x16C2 PUSH1 0x28 SWAP2 CODECOPY PUSH1 0x40 ADD SWAP2 POP POP PUSH1 0x40 MLOAD DUP1 SWAP2 SUB SWAP1 REVERT JUMPDEST PUSH1 0x0 DUP1 SLOAD PUSH1 0x1 PUSH1 0x1 PUSH1 0xA0 SHL SUB NOT AND PUSH1 0x1 PUSH1 0x1 PUSH1 0xA0 SHL SUB SWAP3 SWAP1 SWAP3 AND SWAP2 SWAP1 SWAP2 OR SWAP1 SSTORE JUMP JUMPDEST PUSH1 0x0 CALLER SWAP1 POP PUSH1 0x0 PUSH1 0x2 DUP5 DUP2 SLOAD DUP2 LT PUSH2 0xED5 JUMPI INVALID JUMPDEST PUSH1 0x0 SWAP2 DUP3 MSTORE PUSH1 0x20 DUP1 DUP4 KECCAK256 DUP8 DUP5 MSTORE PUSH1 0x3 DUP3 MSTORE PUSH1 0x40 DUP1 DUP6 KECCAK256 PUSH1 0x1 PUSH1 0x1 PUSH1 0xA0 SHL SUB DUP9 AND DUP7 MSTORE SWAP1 SWAP3 MSTORE SWAP3 KECCAK256 PUSH1 0x5 SWAP1 SWAP2 MUL SWAP1 SWAP2 ADD SWAP2 POP PUSH2 0xF0F DUP6 PUSH2 0x743 JUMP JUMPDEST DUP1 SLOAD ISZERO PUSH2 0xF9B JUMPI PUSH1 0x0 PUSH2 0xF47 DUP3 PUSH1 0x1 ADD SLOAD PUSH2 0x656 PUSH8 0xDE0B6B3A7640000 PUSH2 0x650 DUP8 PUSH1 0x3 ADD SLOAD DUP8 PUSH1 0x0 ADD SLOAD PUSH2 0x10F5 SWAP1 SWAP2 SWAP1 PUSH4 0xFFFFFFFF AND JUMP JUMPDEST SWAP1 POP DUP1 ISZERO PUSH2 0xF99 JUMPI PUSH2 0xF59 DUP5 DUP3 PUSH2 0x11B5 JUMP JUMPDEST PUSH1 0x40 DUP1 MLOAD DUP3 DUP2 MSTORE SWAP1 MLOAD PUSH1 0x1 PUSH1 0x1 PUSH1 0xA0 SHL SUB DUP7 AND SWAP2 PUSH32 0xE2403640BA68FED3A2F88B7557551D1993F84B99BB10FF833F0CF8DB0C5E0486 SWAP2 SWAP1 DUP2 SWAP1 SUB PUSH1 0x20 ADD SWAP1 LOG2 JUMPDEST POP JUMPDEST DUP4 ISZERO PUSH2 0xFC7 JUMPI DUP2 SLOAD PUSH2 0xFB8 SWAP1 PUSH1 0x1 PUSH1 0x1 PUSH1 0xA0 SHL SUB AND DUP5 ADDRESS DUP8 PUSH2 0x1357 JUMP JUMPDEST DUP1 SLOAD PUSH2 0xFC4 SWAP1 DUP6 PUSH2 0x1037 JUMP JUMPDEST DUP2 SSTORE JUMPDEST PUSH1 0x3 DUP3 ADD SLOAD DUP2 SLOAD PUSH2 0xFE5 SWAP2 PUSH8 0xDE0B6B3A7640000 SWAP2 PUSH2 0x650 SWAP2 PUSH2 0x10F5 JUMP JUMPDEST PUSH1 0x1 DUP3 ADD SSTORE PUSH1 0x40 DUP1 MLOAD DUP6 DUP2 MSTORE SWAP1 MLOAD DUP7 SWAP2 PUSH1 0x1 PUSH1 0x1 PUSH1 0xA0 SHL SUB DUP7 AND SWAP2 PUSH32 0x90890809C654F11D6E72A28FA60149770A0D11EC6C92319D6CEB2BB0A4EA1A15 SWAP2 DUP2 SWAP1 SUB PUSH1 0x20 ADD SWAP1 LOG3 POP POP POP POP POP JUMP JUMPDEST PUSH1 0x8 SLOAD DUP2 JUMP JUMPDEST PUSH1 0x0 DUP3 DUP3 ADD DUP4 DUP2 LT ISZERO PUSH2 0x1091 JUMPI PUSH1 0x40 DUP1 MLOAD PUSH3 0x461BCD PUSH1 0xE5 SHL DUP2 MSTORE PUSH1 0x20 PUSH1 0x4 DUP3 ADD MSTORE PUSH1 0x1B PUSH1 0x24 DUP3 ADD MSTORE PUSH32 0x536166654D6174683A206164646974696F6E206F766572666C6F770000000000 PUSH1 0x44 DUP3 ADD MSTORE SWAP1 MLOAD SWAP1 DUP2 SWAP1 SUB PUSH1 0x64 ADD SWAP1 REVERT JUMPDEST SWAP4 SWAP3 POP POP POP JUMP JUMPDEST PUSH1 0x0 DUP3 DUP3 GT ISZERO PUSH2 0x10EF JUMPI PUSH1 0x40 DUP1 MLOAD PUSH3 0x461BCD PUSH1 0xE5 SHL DUP2 MSTORE PUSH1 0x20 PUSH1 0x4 DUP3 ADD MSTORE PUSH1 0x1E PUSH1 0x24 DUP3 ADD MSTORE PUSH32 0x536166654D6174683A207375627472616374696F6E206F766572666C6F770000 PUSH1 0x44 DUP3 ADD MSTORE SWAP1 MLOAD SWAP1 DUP2 SWAP1 SUB PUSH1 0x64 ADD SWAP1 REVERT JUMPDEST POP SWAP1 SUB SWAP1 JUMP JUMPDEST PUSH1 0x0 DUP3 PUSH2 0x1104 JUMPI POP PUSH1 0x0 PUSH2 0x580 JUMP JUMPDEST DUP3 DUP3 MUL DUP3 DUP5 DUP3 DUP2 PUSH2 0x1111 JUMPI INVALID JUMPDEST DIV EQ PUSH2 0x1091 JUMPI PUSH1 0x40 MLOAD PUSH3 0x461BCD PUSH1 0xE5 SHL DUP2 MSTORE PUSH1 0x4 ADD DUP1 DUP1 PUSH1 0x20 ADD DUP3 DUP2 SUB DUP3 MSTORE PUSH1 0x21 DUP2 MSTORE PUSH1 0x20 ADD DUP1 PUSH2 0x16A1 PUSH1 0x21 SWAP2 CODECOPY PUSH1 0x40 ADD SWAP2 POP POP PUSH1 0x40 MLOAD DUP1 SWAP2 SUB SWAP1 REVERT JUMPDEST PUSH1 0x0 DUP1 DUP3 GT PUSH2 0x11A4 JUMPI PUSH1 0x40 DUP1 MLOAD PUSH3 0x461BCD PUSH1 0xE5 SHL DUP2 MSTORE PUSH1 0x20 PUSH1 0x4 DUP3 ADD MSTORE PUSH1 0x1A PUSH1 0x24 DUP3 ADD MSTORE PUSH32 0x536166654D6174683A206469766973696F6E206279207A65726F000000000000 PUSH1 0x44 DUP3 ADD MSTORE SWAP1 MLOAD SWAP1 DUP2 SWAP1 SUB PUSH1 0x64 ADD SWAP1 REVERT JUMPDEST DUP2 DUP4 DUP2 PUSH2 0x11AD JUMPI INVALID JUMPDEST DIV SWAP4 SWAP3 POP POP POP JUMP JUMPDEST PUSH1 0x1 SLOAD PUSH1 0x40 DUP1 MLOAD PUSH4 0x70A08231 PUSH1 0xE0 SHL DUP2 MSTORE ADDRESS PUSH1 0x4 DUP3 ADD MSTORE SWAP1 MLOAD PUSH1 0x0 SWAP3 PUSH1 0x1 PUSH1 0x1 PUSH1 0xA0 SHL SUB AND SWAP2 PUSH4 0x70A08231 SWAP2 PUSH1 0x24 DUP1 DUP4 ADD SWAP3 PUSH1 0x20 SWAP3 SWAP2 SWAP1 DUP3 SWAP1 SUB ADD DUP2 DUP7 DUP1 EXTCODESIZE ISZERO DUP1 ISZERO PUSH2 0x1200 JUMPI PUSH1 0x0 DUP1 REVERT JUMPDEST POP GAS STATICCALL ISZERO DUP1 ISZERO PUSH2 0x1214 JUMPI RETURNDATASIZE PUSH1 0x0 DUP1 RETURNDATACOPY RETURNDATASIZE PUSH1 0x0 REVERT JUMPDEST POP POP POP POP PUSH1 0x40 MLOAD RETURNDATASIZE PUSH1 0x20 DUP2 LT ISZERO PUSH2 0x122A JUMPI PUSH1 0x0 DUP1 REVERT JUMPDEST POP MLOAD SWAP1 POP DUP1 ISZERO PUSH2 0xA81 JUMPI DUP1 DUP3 GT ISZERO PUSH2 0x1258 JUMPI PUSH1 0x1 SLOAD PUSH2 0x1253 SWAP1 PUSH1 0x1 PUSH1 0x1 PUSH1 0xA0 SHL SUB AND DUP5 DUP4 PUSH2 0x126B JUMP JUMPDEST PUSH2 0xA81 JUMP JUMPDEST PUSH1 0x1 SLOAD PUSH2 0xA81 SWAP1 PUSH1 0x1 PUSH1 0x1 PUSH1 0xA0 SHL SUB AND DUP5 DUP5 JUMPDEST PUSH1 0x40 DUP1 MLOAD PUSH1 0x1 PUSH1 0x1 PUSH1 0xA0 SHL SUB DUP5 AND PUSH1 0x24 DUP3 ADD MSTORE PUSH1 0x44 DUP1 DUP3 ADD DUP5 SWAP1 MSTORE DUP3 MLOAD DUP1 DUP4 SUB SWAP1 SWAP2 ADD DUP2 MSTORE PUSH1 0x64 SWAP1 SWAP2 ADD SWAP1 SWAP2 MSTORE PUSH1 0x20 DUP2 ADD DUP1 MLOAD PUSH1 0x1 PUSH1 0x1 PUSH1 0xE0 SHL SUB AND PUSH4 0xA9059CBB PUSH1 0xE0 SHL OR SWAP1 MSTORE PUSH2 0xA81 SWAP1 DUP5 SWAP1 PUSH2 0x13B7 JUMP JUMPDEST PUSH1 0x2 SLOAD PUSH1 0x0 JUMPDEST DUP2 DUP2 LT ISZERO PUSH2 0xA81 JUMPI DUP3 PUSH1 0x1 PUSH1 0x1 PUSH1 0xA0 SHL SUB AND PUSH1 0x2 DUP3 DUP2 SLOAD DUP2 LT PUSH2 0x12E2 JUMPI INVALID JUMPDEST PUSH1 0x0 SWAP2 DUP3 MSTORE PUSH1 0x20 SWAP1 SWAP2 KECCAK256 PUSH1 0x5 SWAP1 SWAP2 MUL ADD SLOAD PUSH1 0x1 PUSH1 0x1 PUSH1 0xA0 SHL SUB AND EQ ISZERO PUSH2 0x134F JUMPI PUSH1 0x40 DUP1 MLOAD PUSH3 0x461BCD PUSH1 0xE5 SHL DUP2 MSTORE PUSH1 0x20 PUSH1 0x4 DUP3 ADD MSTORE PUSH1 0x1F PUSH1 0x24 DUP3 ADD MSTORE PUSH32 0x746574726164526577617264506F6F6C3A204578697374696E6720706F6F6C00 PUSH1 0x44 DUP3 ADD MSTORE SWAP1 MLOAD SWAP1 DUP2 SWAP1 SUB PUSH1 0x64 ADD SWAP1 REVERT JUMPDEST PUSH1 0x1 ADD PUSH2 0x12C3 JUMP JUMPDEST PUSH1 0x40 DUP1 MLOAD PUSH1 0x1 PUSH1 0x1 PUSH1 0xA0 SHL SUB DUP1 DUP7 AND PUSH1 0x24 DUP4 ADD MSTORE DUP5 AND PUSH1 0x44 DUP3 ADD MSTORE PUSH1 0x64 DUP1 DUP3 ADD DUP5 SWAP1 MSTORE DUP3 MLOAD DUP1 DUP4 SUB SWAP1 SWAP2 ADD DUP2 MSTORE PUSH1 0x84 SWAP1 SWAP2 ADD SWAP1 SWAP2 MSTORE PUSH1 0x20 DUP2 ADD DUP1 MLOAD PUSH1 0x1 PUSH1 0x1 PUSH1 0xE0 SHL SUB AND PUSH4 0x23B872DD PUSH1 0xE0 SHL OR SWAP1 MSTORE PUSH2 0x13B1 SWAP1 DUP6 SWAP1 PUSH2 0x13B7 JUMP JUMPDEST POP POP POP POP JUMP JUMPDEST PUSH1 0x60 PUSH2 0x140C DUP3 PUSH1 0x40 MLOAD DUP1 PUSH1 0x40 ADD PUSH1 0x40 MSTORE DUP1 PUSH1 0x20 DUP2 MSTORE PUSH1 0x20 ADD PUSH32 0x5361666545524332303A206C6F772D6C6576656C2063616C6C206661696C6564 DUP2 MSTORE POP DUP6 PUSH1 0x1 PUSH1 0x1 PUSH1 0xA0 SHL SUB AND PUSH2 0x1468 SWAP1 SWAP3 SWAP2 SWAP1 PUSH4 0xFFFFFFFF AND JUMP JUMPDEST DUP1 MLOAD SWAP1 SWAP2 POP ISZERO PUSH2 0xA81 JUMPI DUP1 DUP1 PUSH1 0x20 ADD SWAP1 MLOAD PUSH1 0x20 DUP2 LT ISZERO PUSH2 0x142B JUMPI PUSH1 0x0 DUP1 REVERT JUMPDEST POP MLOAD PUSH2 0xA81 JUMPI PUSH1 0x40 MLOAD PUSH3 0x461BCD PUSH1 0xE5 SHL DUP2 MSTORE PUSH1 0x4 ADD DUP1 DUP1 PUSH1 0x20 ADD DUP3 DUP2 SUB DUP3 MSTORE PUSH1 0x2A DUP2 MSTORE PUSH1 0x20 ADD DUP1 PUSH2 0x16EA PUSH1 0x2A SWAP2 CODECOPY PUSH1 0x40 ADD SWAP2 POP POP PUSH1 0x40 MLOAD DUP1 SWAP2 SUB SWAP1 REVERT JUMPDEST PUSH1 0x60 PUSH2 0x1477 DUP5 DUP5 PUSH1 0x0 DUP6 PUSH2 0x147F JUMP JUMPDEST SWAP5 SWAP4 POP POP POP POP JUMP JUMPDEST PUSH1 0x60 DUP3 SELFBALANCE LT ISZERO PUSH2 0x14C0 JUMPI PUSH1 0x40 MLOAD PUSH3 0x461BCD PUSH1 0xE5 SHL DUP2 MSTORE PUSH1 0x4 ADD DUP1 DUP1 PUSH1 0x20 ADD DUP3 DUP2 SUB DUP3 MSTORE PUSH1 0x26 DUP2 MSTORE PUSH1 0x20 ADD DUP1 PUSH2 0x167B PUSH1 0x26 SWAP2 CODECOPY PUSH1 0x40 ADD SWAP2 POP POP PUSH1 0x40 MLOAD DUP1 SWAP2 SUB SWAP1 REVERT JUMPDEST PUSH2 0x14C9 DUP6 PUSH2 0x15D0 JUMP JUMPDEST PUSH2 0x151A JUMPI PUSH1 0x40 DUP1 MLOAD PUSH3 0x461BCD PUSH1 0xE5 SHL DUP2 MSTORE PUSH1 0x20 PUSH1 0x4 DUP3 ADD MSTORE PUSH1 0x1D PUSH1 0x24 DUP3 ADD MSTORE PUSH32 0x416464726573733A2063616C6C20746F206E6F6E2D636F6E7472616374000000 PUSH1 0x44 DUP3 ADD MSTORE SWAP1 MLOAD SWAP1 DUP2 SWAP1 SUB PUSH1 0x64 ADD SWAP1 REVERT JUMPDEST PUSH1 0x0 PUSH1 0x60 DUP7 PUSH1 0x1 PUSH1 0x1 PUSH1 0xA0 SHL SUB AND DUP6 DUP8 PUSH1 0x40 MLOAD DUP1 DUP3 DUP1 MLOAD SWAP1 PUSH1 0x20 ADD SWAP1 DUP1 DUP4 DUP4 JUMPDEST PUSH1 0x20 DUP4 LT PUSH2 0x1559 JUMPI DUP1 MLOAD DUP3 MSTORE PUSH1 0x1F NOT SWAP1 SWAP3 ADD SWAP2 PUSH1 0x20 SWAP2 DUP3 ADD SWAP2 ADD PUSH2 0x153A JUMP JUMPDEST PUSH1 0x1 DUP4 PUSH1 0x20 SUB PUSH2 0x100 EXP SUB DUP1 NOT DUP3 MLOAD AND DUP2 DUP5 MLOAD AND DUP1 DUP3 OR DUP6 MSTORE POP POP POP POP POP POP SWAP1 POP ADD SWAP2 POP POP PUSH1 0x0 PUSH1 0x40 MLOAD DUP1 DUP4 SUB DUP2 DUP6 DUP8 GAS CALL SWAP3 POP POP POP RETURNDATASIZE DUP1 PUSH1 0x0 DUP2 EQ PUSH2 0x15BB JUMPI PUSH1 0x40 MLOAD SWAP2 POP PUSH1 0x1F NOT PUSH1 0x3F RETURNDATASIZE ADD AND DUP3 ADD PUSH1 0x40 MSTORE RETURNDATASIZE DUP3 MSTORE RETURNDATASIZE PUSH1 0x0 PUSH1 0x20 DUP5 ADD RETURNDATACOPY PUSH2 0x15C0 JUMP JUMPDEST PUSH1 0x60 SWAP2 POP JUMPDEST POP SWAP2 POP SWAP2 POP PUSH2 0xC15 DUP3 DUP3 DUP7 PUSH2 0x15D6 JUMP JUMPDEST EXTCODESIZE ISZERO ISZERO SWAP1 JUMP JUMPDEST PUSH1 0x60 DUP4 ISZERO PUSH2 0x15E5 JUMPI POP DUP2 PUSH2 0x1091 JUMP JUMPDEST DUP3 MLOAD ISZERO PUSH2 0x15F5 JUMPI DUP3 MLOAD DUP1 DUP5 PUSH1 0x20 ADD REVERT JUMPDEST DUP2 PUSH1 0x40 MLOAD PUSH3 0x461BCD PUSH1 0xE5 SHL DUP2 MSTORE PUSH1 0x4 ADD DUP1 DUP1 PUSH1 0x20 ADD DUP3 DUP2 SUB DUP3 MSTORE DUP4 DUP2 DUP2 MLOAD DUP2 MSTORE PUSH1 0x20 ADD SWAP2 POP DUP1 MLOAD SWAP1 PUSH1 0x20 ADD SWAP1 DUP1 DUP4 DUP4 PUSH1 0x0 JUMPDEST DUP4 DUP2 LT ISZERO PUSH2 0x163F JUMPI DUP2 DUP2 ADD MLOAD DUP4 DUP3 ADD MSTORE PUSH1 0x20 ADD PUSH2 0x1627 JUMP JUMPDEST POP POP POP POP SWAP1 POP SWAP1 DUP2 ADD SWAP1 PUSH1 0x1F AND DUP1 ISZERO PUSH2 0x166C JUMPI DUP1 DUP3 SUB DUP1 MLOAD PUSH1 0x1 DUP4 PUSH1 0x20 SUB PUSH2 0x100 EXP SUB NOT AND DUP2 MSTORE PUSH1 0x20 ADD SWAP2 POP JUMPDEST POP SWAP3 POP POP POP PUSH1 0x40 MLOAD DUP1 SWAP2 SUB SWAP1 REVERT INVALID COINBASE PUSH5 0x6472657373 GASPRICE KECCAK256 PUSH10 0x6E73756666696369656E PUSH21 0x2062616C616E636520666F722063616C6C53616665 0x4D PUSH2 0x7468 GASPRICE KECCAK256 PUSH14 0x756C7469706C69636174696F6E20 PUSH16 0x766572666C6F77746574726164526577 PUSH2 0x7264 POP PUSH16 0x6F6C3A2043616C6C6572206973206E6F PUSH21 0x206F70657261746F725361666545524332303A2045 MSTORE NUMBER ORIGIN ADDRESS KECCAK256 PUSH16 0x7065726174696F6E20646964206E6F74 KECCAK256 PUSH20 0x756363656564A264697066735822122023372E91 PUSH2 0xFBA2 SLT 0xB1 0xAB SWAP13 0xC9 0xF7 BLOCKHASH 0xE SELFDESTRUCT 0xC9 SWAP9 ORIGIN SWAP8 ADDRESS PUSH22 0x81F76A561B61B194D02C64736F6C634300060C003300 "
        },
        "methodIdentifiers": {
          "add(uint256,address,bool,uint256)": "96805e54",
          "deposit(uint256,uint256)": "e2bbb158",
          "emergencyWithdraw(uint256)": "5312ea8e",
          "getGeneratedReward(uint256,uint256)": "231f0c6a",
          "governanceRecoverUnsupported(address,uint256,address)": "54575af4",
          "massUpdatePools()": "630b5ba1",
          "operator()": "570ca735",
          "pendingTetrad(uint256,address)": "89d3d168",
          "poolEndTime()": "6e271dd5",
          "poolInfo(uint256)": "1526fe27",
          "poolStartTime()": "5f96dc11",
          "runningTime()": "943f013d",
          "set(uint256,uint256)": "1ab06ee5",
          "setOperator(address)": "b3ab15fb",
          "tetrad()": "971a3047",
          "tetradPerSecond()": "fc84cc68",
          "totalAllocPoint()": "17caf6f1",
          "updatePool(uint256)": "51eb05a6",
          "userInfo(uint256,address)": "93f1a40b",
          "withdraw(uint256,uint256)": "441a3e70"
        }
      },
      "storageLayout": {
        "storage": [
          {
            "astId": 995,
            "contract": "contracts/TetradRewardPool.sol:TetradRewardPool",
            "label": "operator",
            "offset": 0,
            "slot": "0",
            "type": "t_address"
          },
          {
            "astId": 1013,
            "contract": "contracts/TetradRewardPool.sol:TetradRewardPool",
            "label": "tetrad",
            "offset": 0,
            "slot": "1",
            "type": "t_contract(IERC20)78"
          },
          {
            "astId": 1016,
            "contract": "contracts/TetradRewardPool.sol:TetradRewardPool",
            "label": "poolInfo",
            "offset": 0,
            "slot": "2",
            "type": "t_array(t_struct(PoolInfo)1011_storage)dyn_storage"
          },
          {
            "astId": 1022,
            "contract": "contracts/TetradRewardPool.sol:TetradRewardPool",
            "label": "userInfo",
            "offset": 0,
            "slot": "3",
            "type": "t_mapping(t_uint256,t_mapping(t_address,t_struct(UserInfo)1000_storage))"
          },
          {
            "astId": 1025,
            "contract": "contracts/TetradRewardPool.sol:TetradRewardPool",
            "label": "totalAllocPoint",
            "offset": 0,
            "slot": "4",
            "type": "t_uint256"
          },
          {
            "astId": 1027,
            "contract": "contracts/TetradRewardPool.sol:TetradRewardPool",
            "label": "poolStartTime",
            "offset": 0,
            "slot": "5",
            "type": "t_uint256"
          },
          {
            "astId": 1029,
            "contract": "contracts/TetradRewardPool.sol:TetradRewardPool",
            "label": "poolEndTime",
            "offset": 0,
            "slot": "6",
            "type": "t_uint256"
          },
          {
            "astId": 1031,
            "contract": "contracts/TetradRewardPool.sol:TetradRewardPool",
            "label": "runningTime",
            "offset": 0,
            "slot": "7",
            "type": "t_uint256"
          },
          {
            "astId": 1033,
            "contract": "contracts/TetradRewardPool.sol:TetradRewardPool",
            "label": "tetradPerSecond",
            "offset": 0,
            "slot": "8",
            "type": "t_uint256"
          }
        ],
        "types": {
          "t_address": {
            "encoding": "inplace",
            "label": "address",
            "numberOfBytes": "20"
          },
          "t_array(t_struct(PoolInfo)1011_storage)dyn_storage": {
            "base": "t_struct(PoolInfo)1011_storage",
            "encoding": "dynamic_array",
            "label": "struct TetradRewardPool.PoolInfo[]",
            "numberOfBytes": "32"
          },
          "t_bool": {
            "encoding": "inplace",
            "label": "bool",
            "numberOfBytes": "1"
          },
          "t_contract(IERC20)78": {
            "encoding": "inplace",
            "label": "contract IERC20",
            "numberOfBytes": "20"
          },
          "t_mapping(t_address,t_struct(UserInfo)1000_storage)": {
            "encoding": "mapping",
            "key": "t_address",
            "label": "mapping(address => struct TetradRewardPool.UserInfo)",
            "numberOfBytes": "32",
            "value": "t_struct(UserInfo)1000_storage"
          },
          "t_mapping(t_uint256,t_mapping(t_address,t_struct(UserInfo)1000_storage))": {
            "encoding": "mapping",
            "key": "t_uint256",
            "label": "mapping(uint256 => mapping(address => struct TetradRewardPool.UserInfo))",
            "numberOfBytes": "32",
            "value": "t_mapping(t_address,t_struct(UserInfo)1000_storage)"
          },
          "t_struct(PoolInfo)1011_storage": {
            "encoding": "inplace",
            "label": "struct TetradRewardPool.PoolInfo",
            "members": [
              {
                "astId": 1002,
                "contract": "contracts/TetradRewardPool.sol:TetradRewardPool",
                "label": "token",
                "offset": 0,
                "slot": "0",
                "type": "t_contract(IERC20)78"
              },
              {
                "astId": 1004,
                "contract": "contracts/TetradRewardPool.sol:TetradRewardPool",
                "label": "allocPoint",
                "offset": 0,
                "slot": "1",
                "type": "t_uint256"
              },
              {
                "astId": 1006,
                "contract": "contracts/TetradRewardPool.sol:TetradRewardPool",
                "label": "lastRewardTime",
                "offset": 0,
                "slot": "2",
                "type": "t_uint256"
              },
              {
                "astId": 1008,
                "contract": "contracts/TetradRewardPool.sol:TetradRewardPool",
                "label": "accTetradPerTetrad",
                "offset": 0,
                "slot": "3",
                "type": "t_uint256"
              },
              {
                "astId": 1010,
                "contract": "contracts/TetradRewardPool.sol:TetradRewardPool",
                "label": "isStarted",
                "offset": 0,
                "slot": "4",
                "type": "t_bool"
              }
            ],
            "numberOfBytes": "160"
          },
          "t_struct(UserInfo)1000_storage": {
            "encoding": "inplace",
            "label": "struct TetradRewardPool.UserInfo",
            "members": [
              {
                "astId": 997,
                "contract": "contracts/TetradRewardPool.sol:TetradRewardPool",
                "label": "amount",
                "offset": 0,
                "slot": "0",
                "type": "t_uint256"
              },
              {
                "astId": 999,
                "contract": "contracts/TetradRewardPool.sol:TetradRewardPool",
                "label": "rewardDebt",
                "offset": 0,
                "slot": "1",
                "type": "t_uint256"
              }
            ],
            "numberOfBytes": "64"
          },
          "t_uint256": {
            "encoding": "inplace",
            "label": "uint256",
            "numberOfBytes": "32"
          }
        }
      }
    }
  }
}