{
  "contracts/@openzeppelin/contracts/mocks/EtherReceiverMock.sol": {
    "EtherReceiverMock": {
      "abi": [
        {
          "inputs": [
            {
              "internalType": "bool",
              "name": "acceptEther",
              "type": "bool"
            }
          ],
          "name": "setAcceptEther",
          "outputs": [],
          "stateMutability": "nonpayable",
          "type": "function"
        },
        {
          "stateMutability": "payable",
          "type": "receive"
        }
      ],
      "evm": {
        "bytecode": {
          "linkReferences": {},
          "object": "6080604052348015600f57600080fd5b5060a38061001e6000396000f3fe608060405260043610601f5760003560e01c80634fea120c146038576033565b3660335760005460ff16603157600080fd5b005b600080fd5b348015604357600080fd5b50603160048036036020811015605857600080fd5b506000805460ff19169135151591909117905556fea264697066735822122012ec7b14e7308ba72d46427b9e7803061c80a0bc6cb1212f61c26b292dc1cf4f64736f6c634300060c0033",
          "opcodes": "PUSH1 0x80 PUSH1 0x40 MSTORE CALLVALUE DUP1 ISZERO PUSH1 0xF JUMPI PUSH1 0x0 DUP1 REVERT JUMPDEST POP PUSH1 0xA3 DUP1 PUSH2 0x1E PUSH1 0x0 CODECOPY PUSH1 0x0 RETURN INVALID PUSH1 0x80 PUSH1 0x40 MSTORE PUSH1 0x4 CALLDATASIZE LT PUSH1 0x1F JUMPI PUSH1 0x0 CALLDATALOAD PUSH1 0xE0 SHR DUP1 PUSH4 0x4FEA120C EQ PUSH1 0x38 JUMPI PUSH1 0x33 JUMP JUMPDEST CALLDATASIZE PUSH1 0x33 JUMPI PUSH1 0x0 SLOAD PUSH1 0xFF AND PUSH1 0x31 JUMPI PUSH1 0x0 DUP1 REVERT JUMPDEST STOP JUMPDEST PUSH1 0x0 DUP1 REVERT JUMPDEST CALLVALUE DUP1 ISZERO PUSH1 0x43 JUMPI PUSH1 0x0 DUP1 REVERT JUMPDEST POP PUSH1 0x31 PUSH1 0x4 DUP1 CALLDATASIZE SUB PUSH1 0x20 DUP2 LT ISZERO PUSH1 0x58 JUMPI PUSH1 0x0 DUP1 REVERT JUMPDEST POP PUSH1 0x0 DUP1 SLOAD PUSH1 0xFF NOT AND SWAP2 CALLDATALOAD ISZERO ISZERO SWAP2 SWAP1 SWAP2 OR SWAP1 SSTORE JUMP INVALID LOG2 PUSH5 0x6970667358 0x22 SLT KECCAK256 SLT 0xEC PUSH28 0x14E7308BA72D46427B9E7803061C80A0BC6CB1212F61C26B292DC1CF 0x4F PUSH5 0x736F6C6343 STOP MOD 0xC STOP CALLER "
        },
        "methodIdentifiers": {
          "setAcceptEther(bool)": "4fea120c"
        }
      },
      "storageLayout": {
        "storage": [
          {
            "astId": 3,
            "contract": "contracts/@openzeppelin/contracts/mocks/EtherReceiverMock.sol:EtherReceiverMock",
            "label": "_acceptEther",
            "offset": 0,
            "slot": "0",
            "type": "t_bool"
          }
        ],
        "types": {
          "t_bool": {
            "encoding": "inplace",
            "label": "bool",
            "numberOfBytes": "1"
          }
        }
      }
    }
  }
}