{
  "_format": "hh-sol-artifact-1",
  "contractName": "Tetrad",
  "sourceName": "contracts/Tetrad.sol",
  "abi": [
    {
      "inputs": [
        {
          "internalType": "address payable",
          "name": "TRADEWalletAddress",
          "type": "address"
        },
        {
          "internalType": "address payable",
          "name": "marketingWalletAddress",
          "type": "address"
        },
        {
          "internalType": "address",
          "name": "router",
          "type": "address"
        }
      ],
      "stateMutability": "nonpayable",
      "type": "constructor"
    },
    {
      "anonymous": false,
      "inputs": [
        {
          "indexed": true,
          "internalType": "address",
          "name": "owner",
          "type": "address"
        },
        {
          "indexed": true,
          "internalType": "address",
          "name": "spender",
          "type": "address"
        },
        {
          "indexed": false,
          "internalType": "uint256",
          "name": "value",
          "type": "uint256"
        }
      ],
      "name": "Approval",
      "type": "event"
    },
    {
      "anonymous": false,
      "inputs": [
        {
          "indexed": false,
          "internalType": "uint256",
          "name": "minTokensBeforeSwap",
          "type": "uint256"
        }
      ],
      "name": "MinTokensBeforeSwapUpdated",
      "type": "event"
    },
    {
      "anonymous": false,
      "inputs": [
        {
          "indexed": true,
          "internalType": "address",
          "name": "previousOwner",
          "type": "address"
        },
        {
          "indexed": true,
          "internalType": "address",
          "name": "newOwner",
          "type": "address"
        }
      ],
      "name": "OwnershipTransferred",
      "type": "event"
    },
    {
      "anonymous": false,
      "inputs": [
        {
          "indexed": false,
          "internalType": "bool",
          "name": "enabled",
          "type": "bool"
        }
      ],
      "name": "SwapEnabledUpdated",
      "type": "event"
    },
    {
      "anonymous": false,
      "inputs": [
        {
          "indexed": true,
          "internalType": "address",
          "name": "from",
          "type": "address"
        },
        {
          "indexed": true,
          "internalType": "address",
          "name": "to",
          "type": "address"
        },
        {
          "indexed": false,
          "internalType": "uint256",
          "name": "value",
          "type": "uint256"
        }
      ],
      "name": "Transfer",
      "type": "event"
    },
    {
      "inputs": [],
      "name": "_TRADEWalletAddress",
      "outputs": [
        {
          "internalType": "address payable",
          "name": "",
          "type": "address"
        }
      ],
      "stateMutability": "view",
      "type": "function"
    },
    {
      "inputs": [],
      "name": "_getETHBalance",
      "outputs": [
        {
          "internalType": "uint256",
          "name": "balance",
          "type": "uint256"
        }
      ],
      "stateMutability": "view",
      "type": "function"
    },
    {
      "inputs": [],
      "name": "_marketingWalletAddress",
      "outputs": [
        {
          "internalType": "address payable",
          "name": "",
          "type": "address"
        }
      ],
      "stateMutability": "view",
      "type": "function"
    },
    {
      "inputs": [
        {
          "internalType": "address payable",
          "name": "marketingWalletAddress",
          "type": "address"
        }
      ],
      "name": "_setMarketingWallet",
      "outputs": [],
      "stateMutability": "nonpayable",
      "type": "function"
    },
    {
      "inputs": [
        {
          "internalType": "uint256",
          "name": "maxTxAmount",
          "type": "uint256"
        }
      ],
      "name": "_setMaxTxAmount",
      "outputs": [],
      "stateMutability": "nonpayable",
      "type": "function"
    },
    {
      "inputs": [
        {
          "internalType": "address payable",
          "name": "TRADEWalletAddress",
          "type": "address"
        }
      ],
      "name": "_setTRADEWallet",
      "outputs": [],
      "stateMutability": "nonpayable",
      "type": "function"
    },
    {
      "inputs": [
        {
          "internalType": "uint256",
          "name": "taxFee",
          "type": "uint256"
        }
      ],
      "name": "_setTaxFee",
      "outputs": [],
      "stateMutability": "nonpayable",
      "type": "function"
    },
    {
      "inputs": [
        {
          "internalType": "uint256",
          "name": "teamFee",
          "type": "uint256"
        }
      ],
      "name": "_setTeamFee",
      "outputs": [],
      "stateMutability": "nonpayable",
      "type": "function"
    },
    {
      "inputs": [
        {
          "internalType": "address",
          "name": "owner",
          "type": "address"
        },
        {
          "internalType": "address",
          "name": "spender",
          "type": "address"
        }
      ],
      "name": "allowance",
      "outputs": [
        {
          "internalType": "uint256",
          "name": "",
          "type": "uint256"
        }
      ],
      "stateMutability": "view",
      "type": "function"
    },
    {
      "inputs": [
        {
          "internalType": "address",
          "name": "spender",
          "type": "address"
        },
        {
          "internalType": "uint256",
          "name": "amount",
          "type": "uint256"
        }
      ],
      "name": "approve",
      "outputs": [
        {
          "internalType": "bool",
          "name": "",
          "type": "bool"
        }
      ],
      "stateMutability": "nonpayable",
      "type": "function"
    },
    {
      "inputs": [
        {
          "internalType": "address",
          "name": "account",
          "type": "address"
        }
      ],
      "name": "balanceOf",
      "outputs": [
        {
          "internalType": "uint256",
          "name": "",
          "type": "uint256"
        }
      ],
      "stateMutability": "view",
      "type": "function"
    },
    {
      "inputs": [],
      "name": "decimals",
      "outputs": [
        {
          "internalType": "uint8",
          "name": "",
          "type": "uint8"
        }
      ],
      "stateMutability": "view",
      "type": "function"
    },
    {
      "inputs": [
        {
          "internalType": "address",
          "name": "spender",
          "type": "address"
        },
        {
          "internalType": "uint256",
          "name": "subtractedValue",
          "type": "uint256"
        }
      ],
      "name": "decreaseAllowance",
      "outputs": [
        {
          "internalType": "bool",
          "name": "",
          "type": "bool"
        }
      ],
      "stateMutability": "nonpayable",
      "type": "function"
    },
    {
      "inputs": [
        {
          "internalType": "uint256",
          "name": "tAmount",
          "type": "uint256"
        }
      ],
      "name": "deliver",
      "outputs": [],
      "stateMutability": "nonpayable",
      "type": "function"
    },
    {
      "inputs": [
        {
          "internalType": "address",
          "name": "account",
          "type": "address"
        }
      ],
      "name": "excludeAccount",
      "outputs": [],
      "stateMutability": "nonpayable",
      "type": "function"
    },
    {
      "inputs": [],
      "name": "geUnlockTime",
      "outputs": [
        {
          "internalType": "uint256",
          "name": "",
          "type": "uint256"
        }
      ],
      "stateMutability": "view",
      "type": "function"
    },
    {
      "inputs": [
        {
          "internalType": "address",
          "name": "account",
          "type": "address"
        }
      ],
      "name": "includeAccount",
      "outputs": [],
      "stateMutability": "nonpayable",
      "type": "function"
    },
    {
      "inputs": [
        {
          "internalType": "address",
          "name": "spender",
          "type": "address"
        },
        {
          "internalType": "uint256",
          "name": "addedValue",
          "type": "uint256"
        }
      ],
      "name": "increaseAllowance",
      "outputs": [
        {
          "internalType": "bool",
          "name": "",
          "type": "bool"
        }
      ],
      "stateMutability": "nonpayable",
      "type": "function"
    },
    {
      "inputs": [
        {
          "internalType": "address",
          "name": "account",
          "type": "address"
        }
      ],
      "name": "isExcluded",
      "outputs": [
        {
          "internalType": "bool",
          "name": "",
          "type": "bool"
        }
      ],
      "stateMutability": "view",
      "type": "function"
    },
    {
      "inputs": [
        {
          "internalType": "address",
          "name": "account",
          "type": "address"
        }
      ],
      "name": "isExcludedFromFee",
      "outputs": [
        {
          "internalType": "bool",
          "name": "",
          "type": "bool"
        }
      ],
      "stateMutability": "view",
      "type": "function"
    },
    {
      "inputs": [
        {
          "internalType": "uint256",
          "name": "time",
          "type": "uint256"
        }
      ],
      "name": "lock",
      "outputs": [],
      "stateMutability": "nonpayable",
      "type": "function"
    },
    {
      "inputs": [],
      "name": "manualSend",
      "outputs": [],
      "stateMutability": "nonpayable",
      "type": "function"
    },
    {
      "inputs": [],
      "name": "manualSwap",
      "outputs": [],
      "stateMutability": "nonpayable",
      "type": "function"
    },
    {
      "inputs": [],
      "name": "name",
      "outputs": [
        {
          "internalType": "string",
          "name": "",
          "type": "string"
        }
      ],
      "stateMutability": "view",
      "type": "function"
    },
    {
      "inputs": [],
      "name": "owner",
      "outputs": [
        {
          "internalType": "address",
          "name": "",
          "type": "address"
        }
      ],
      "stateMutability": "view",
      "type": "function"
    },
    {
      "inputs": [
        {
          "internalType": "uint256",
          "name": "tAmount",
          "type": "uint256"
        },
        {
          "internalType": "bool",
          "name": "deductTransferFee",
          "type": "bool"
        }
      ],
      "name": "reflectionFromToken",
      "outputs": [
        {
          "internalType": "uint256",
          "name": "",
          "type": "uint256"
        }
      ],
      "stateMutability": "view",
      "type": "function"
    },
    {
      "inputs": [],
      "name": "renounceOwnership",
      "outputs": [],
      "stateMutability": "nonpayable",
      "type": "function"
    },
    {
      "inputs": [
        {
          "internalType": "address",
          "name": "account",
          "type": "address"
        },
        {
          "internalType": "bool",
          "name": "excluded",
          "type": "bool"
        }
      ],
      "name": "setExcludeFromFee",
      "outputs": [],
      "stateMutability": "nonpayable",
      "type": "function"
    },
    {
      "inputs": [
        {
          "internalType": "bool",
          "name": "enabled",
          "type": "bool"
        }
      ],
      "name": "setSwapEnabled",
      "outputs": [],
      "stateMutability": "nonpayable",
      "type": "function"
    },
    {
      "inputs": [],
      "name": "swapEnabled",
      "outputs": [
        {
          "internalType": "bool",
          "name": "",
          "type": "bool"
        }
      ],
      "stateMutability": "view",
      "type": "function"
    },
    {
      "inputs": [],
      "name": "symbol",
      "outputs": [
        {
          "internalType": "string",
          "name": "",
          "type": "string"
        }
      ],
      "stateMutability": "view",
      "type": "function"
    },
    {
      "inputs": [
        {
          "internalType": "uint256",
          "name": "rAmount",
          "type": "uint256"
        }
      ],
      "name": "tokenFromReflection",
      "outputs": [
        {
          "internalType": "uint256",
          "name": "",
          "type": "uint256"
        }
      ],
      "stateMutability": "view",
      "type": "function"
    },
    {
      "inputs": [],
      "name": "totalFees",
      "outputs": [
        {
          "internalType": "uint256",
          "name": "",
          "type": "uint256"
        }
      ],
      "stateMutability": "view",
      "type": "function"
    },
    {
      "inputs": [],
      "name": "totalSupply",
      "outputs": [
        {
          "internalType": "uint256",
          "name": "",
          "type": "uint256"
        }
      ],
      "stateMutability": "view",
      "type": "function"
    },
    {
      "inputs": [
        {
          "internalType": "address",
          "name": "recipient",
          "type": "address"
        },
        {
          "internalType": "uint256",
          "name": "amount",
          "type": "uint256"
        }
      ],
      "name": "transfer",
      "outputs": [
        {
          "internalType": "bool",
          "name": "",
          "type": "bool"
        }
      ],
      "stateMutability": "nonpayable",
      "type": "function"
    },
    {
      "inputs": [
        {
          "internalType": "address",
          "name": "sender",
          "type": "address"
        },
        {
          "internalType": "address",
          "name": "recipient",
          "type": "address"
        },
        {
          "internalType": "uint256",
          "name": "amount",
          "type": "uint256"
        }
      ],
      "name": "transferFrom",
      "outputs": [
        {
          "internalType": "bool",
          "name": "",
          "type": "bool"
        }
      ],
      "stateMutability": "nonpayable",
      "type": "function"
    },
    {
      "inputs": [
        {
          "internalType": "address",
          "name": "newOwner",
          "type": "address"
        }
      ],
      "name": "transferOwnership",
      "outputs": [],
      "stateMutability": "nonpayable",
      "type": "function"
    },
    {
      "inputs": [],
      "name": "uniswapV2Pair",
      "outputs": [
        {
          "internalType": "address",
          "name": "",
          "type": "address"
        }
      ],
      "stateMutability": "view",
      "type": "function"
    },
    {
      "inputs": [],
      "name": "uniswapV2Router",
      "outputs": [
        {
          "internalType": "contract IUniswapV2Router02",
          "name": "",
          "type": "address"
        }
      ],
      "stateMutability": "view",
      "type": "function"
    },
    {
      "inputs": [],
      "name": "unlock",
      "outputs": [],
      "stateMutability": "nonpayable",
      "type": "function"
    },
    {
      "stateMutability": "payable",
      "type": "receive"
    }
  ],
  "bytecode": "0x6c0c9f2c9cd04674edea400000006009556c0815c6278fccd683bfbfffffff19600a55610100604052600660c08190526515195d1c985960d21b60e09081526200004d91600c91906200041b565b5060408051808201909152600580825264545241444560d81b60209092019182526200007c91600d916200041b565b50600e805460ff19166012908117909155600a600f8190556010819055601181905590556014805461ffff60a01b1916600160a81b1790556d04ee2d6d415b85acef810000000060155569010f0cf064dd59200000601655348015620000e157600080fd5b50604051620031ab380380620031ab833981810160405260608110156200010757600080fd5b508051602082015160409092015190919060006200012462000408565b600080546001600160a01b0319166001600160a01b0383169081178255604051929350917f8be0079c531659141344cd1fd0a4f28419497f9722a3daafe3b4186f6b6457e0908290a350601380546001600160a01b038086166001600160a01b0319928316179092556014805492851692909116919091179055600a5460036000620001af62000408565b6001600160a01b03166001600160a01b03168152602001908152602001600020819055506000819050806001600160a01b031663c45a01556040518163ffffffff1660e01b815260040160206040518083038186803b1580156200021257600080fd5b505afa15801562000227573d6000803e3d6000fd5b505050506040513d60208110156200023e57600080fd5b5051604080516315ab88c960e31b815290516001600160a01b039283169263c9c653969230929186169163ad5c464891600480820192602092909190829003018186803b1580156200028f57600080fd5b505afa158015620002a4573d6000803e3d6000fd5b505050506040513d6020811015620002bb57600080fd5b5051604080516001600160e01b031960e086901b1681526001600160a01b0393841660048201529290911660248301525160448083019260209291908290030181600087803b1580156200030e57600080fd5b505af115801562000323573d6000803e3d6000fd5b505050506040513d60208110156200033a57600080fd5b50516001600160601b0319606091821b811660a0529082901b16608052600160066000620003676200040c565b6001600160a01b0316815260208082019290925260409081016000908120805494151560ff199586161790553081526006909252902080549091166001179055620003b162000408565b6001600160a01b031660006001600160a01b03167fddf252ad1be2c89b69c2b068fc378daa952ba7f163c4a11628f55a4df523b3ef6009546040518082815260200191505060405180910390a350505050620004b7565b3390565b6000546001600160a01b031690565b828054600181600116156101000203166002900490600052602060002090601f016020900481019282601f106200045e57805160ff19168380011785556200048e565b828001600101855582156200048e579182015b828111156200048e57825182559160200191906001019062000471565b506200049c929150620004a0565b5090565b5b808211156200049c5760008155600101620004a1565b60805160601c60a05160601c612cb1620004fa60003980610e935280611cec5250806109ca528061159a5280611ffe52806120b652806120dd5250612cb16000f3fe60806040526004361061023f5760003560e01c806370a082311161012e578063d4476240116100ab578063f2fde38b1161006f578063f2fde38b14610869578063f42938901461089c578063f815a842146108b1578063f84354f1146108c6578063fa1b2f75146108f957610246565b8063d447624014610772578063dd467064146107a5578063dd62ed3e146107cf578063e01af92c1461080a578063f2cc0c181461083657610246565b8063a69df4b5116100f2578063a69df4b5146106a1578063a9059cbb146106b6578063af9549e0146106ef578063b6c523241461072a578063cba0e9961461073f57610246565b806370a08231146105f6578063715018a6146106295780638da5cb5b1461063e57806395d89b4114610653578063a457c2d71461066857610246565b8063313ce567116101bc57806349bd5a5e1161018057806349bd5a5e1461055a57806351bc3c851461056f5780635342acb4146105845780635880b873146105b75780636ddd1713146105e157610246565b8063313ce5671461048557806339509351146104b05780633bd5d173146104e95780634144d9e4146105135780634549b0391461052857610246565b80631bbae6e0116102035780631bbae6e01461038f5780631ff53b60146103bb57806323b872dd146103ee57806328667162146104315780632d8381191461045b57610246565b806306fdde031461024b578063095ea7b3146102d557806313114a9d146103225780631694505e1461034957806318160ddd1461037a57610246565b3661024657005b600080fd5b34801561025757600080fd5b5061026061090e565b6040805160208082528351818301528351919283929083019185019080838360005b8381101561029a578181015183820152602001610282565b50505050905090810190601f1680156102c75780820380516001836020036101000a031916815260200191505b509250505060405180910390f35b3480156102e157600080fd5b5061030e600480360360408110156102f857600080fd5b506001600160a01b0381351690602001356109a4565b604080519115158252519081900360200190f35b34801561032e57600080fd5b506103376109c2565b60408051918252519081900360200190f35b34801561035557600080fd5b5061035e6109c8565b604080516001600160a01b039092168252519081900360200190f35b34801561038657600080fd5b506103376109ec565b34801561039b57600080fd5b506103b9600480360360208110156103b257600080fd5b50356109f2565b005b3480156103c757600080fd5b506103b9600480360360208110156103de57600080fd5b50356001600160a01b0316610a9c565b3480156103fa57600080fd5b5061030e6004803603606081101561041157600080fd5b506001600160a01b03813581169160208101359091169060400135610b16565b34801561043d57600080fd5b506103b96004803603602081101561045457600080fd5b5035610b9d565b34801561046757600080fd5b506103376004803603602081101561047e57600080fd5b5035610c5d565b34801561049157600080fd5b5061049a610cbf565b6040805160ff9092168252519081900360200190f35b3480156104bc57600080fd5b5061030e600480360360408110156104d357600080fd5b506001600160a01b038135169060200135610cc8565b3480156104f557600080fd5b506103b96004803603602081101561050c57600080fd5b5035610d16565b34801561051f57600080fd5b5061035e610df0565b34801561053457600080fd5b506103376004803603604081101561054b57600080fd5b50803590602001351515610dff565b34801561056657600080fd5b5061035e610e91565b34801561057b57600080fd5b506103b9610eb5565b34801561059057600080fd5b5061030e600480360360208110156105a757600080fd5b50356001600160a01b0316610f26565b3480156105c357600080fd5b506103b9600480360360208110156105da57600080fd5b5035610f44565b3480156105ed57600080fd5b5061030e611004565b34801561060257600080fd5b506103376004803603602081101561061957600080fd5b50356001600160a01b0316611014565b34801561063557600080fd5b506103b9611076565b34801561064a57600080fd5b5061035e611106565b34801561065f57600080fd5b50610260611115565b34801561067457600080fd5b5061030e6004803603604081101561068b57600080fd5b506001600160a01b038135169060200135611176565b3480156106ad57600080fd5b506103b96111de565b3480156106c257600080fd5b5061030e600480360360408110156106d957600080fd5b506001600160a01b0381351690602001356112cc565b3480156106fb57600080fd5b506103b96004803603604081101561071257600080fd5b506001600160a01b03813516906020013515156112e0565b34801561073657600080fd5b50610337611363565b34801561074b57600080fd5b5061030e6004803603602081101561076257600080fd5b50356001600160a01b0316611369565b34801561077e57600080fd5b506103b96004803603602081101561079557600080fd5b50356001600160a01b0316611387565b3480156107b157600080fd5b506103b9600480360360208110156107c857600080fd5b5035611401565b3480156107db57600080fd5b50610337600480360360408110156107f257600080fd5b506001600160a01b038135811691602001351661149f565b34801561081657600080fd5b506103b96004803603602081101561082d57600080fd5b503515156114ca565b34801561084257600080fd5b506103b96004803603602081101561085957600080fd5b50356001600160a01b0316611540565b34801561087557600080fd5b506103b96004803603602081101561088c57600080fd5b50356001600160a01b0316611737565b3480156108a857600080fd5b506103b961181d565b3480156108bd57600080fd5b5061033761187f565b3480156108d257600080fd5b506103b9600480360360208110156108e957600080fd5b50356001600160a01b0316611883565b34801561090557600080fd5b5061035e611a44565b600c8054604080516020601f600260001961010060018816150201909516949094049384018190048102820181019092528281526060939092909183018282801561099a5780601f1061096f5761010080835404028352916020019161099a565b820191906000526020600020905b81548152906001019060200180831161097d57829003601f168201915b5050505050905090565b60006109b86109b1611a53565b8484611a57565b5060015b92915050565b600b5490565b7f000000000000000000000000000000000000000000000000000000000000000081565b60095490565b6109fa611a53565b6000546001600160a01b03908116911614610a4a576040805162461bcd60e51b81526020600482018190526024820152600080516020612b34833981519152604482015290519081900360640190fd5b6d04ee2d6d415b85acef8100000000811015610a975760405162461bcd60e51b8152600401808060200182810382526035815260200180612a8e6035913960400191505060405180910390fd5b601555565b610aa4611a53565b6000546001600160a01b03908116911614610af4576040805162461bcd60e51b81526020600482018190526024820152600080516020612b34833981519152604482015290519081900360640190fd5b601480546001600160a01b0319166001600160a01b0392909216919091179055565b6000610b23848484611b43565b610b9384610b2f611a53565b610b8e85604051806060016040528060288152602001612b0c602891396001600160a01b038a16600090815260056020526040812090610b6d611a53565b6001600160a01b031681526020810191909152604001600020549190611da0565b611a57565b5060019392505050565b610ba5611a53565b6000546001600160a01b03908116911614610bf5576040805162461bcd60e51b81526020600482018190526024820152600080516020612b34833981519152604482015290519081900360640190fd5b60018110158015610c07575060198111155b610c58576040805162461bcd60e51b815260206004820152601b60248201527f7465616d4665652073686f756c6420626520696e2031202d2032350000000000604482015290519081900360640190fd5b601055565b6000600a54821115610ca05760405162461bcd60e51b815260040180806020018281038252602a815260200180612a1c602a913960400191505060405180910390fd5b6000610caa611e37565b9050610cb68382611e5a565b9150505b919050565b600e5460ff1690565b60006109b8610cd5611a53565b84610b8e8560056000610ce6611a53565b6001600160a01b03908116825260208083019390935260409182016000908120918c168152925290205490611ea3565b6000610d20611a53565b6001600160a01b03811660009081526007602052604090205490915060ff1615610d7b5760405162461bcd60e51b815260040180806020018281038252602c815260200180612c08602c913960400191505060405180910390fd5b6000610d8683611efd565b505050506001600160a01b038416600090815260036020526040902054919250610db291905082611f59565b6001600160a01b038316600090815260036020526040902055600a54610dd89082611f59565b600a55600b54610de89084611ea3565b600b55505050565b6014546001600160a01b031681565b6000600954831115610e58576040805162461bcd60e51b815260206004820152601f60248201527f416d6f756e74206d757374206265206c657373207468616e20737570706c7900604482015290519081900360640190fd5b81610e77576000610e6884611efd565b509395506109bc945050505050565b6000610e8284611efd565b509295506109bc945050505050565b7f000000000000000000000000000000000000000000000000000000000000000081565b610ebd611a53565b6000546001600160a01b03908116911614610f0d576040805162461bcd60e51b81526020600482018190526024820152600080516020612b34833981519152604482015290519081900360640190fd5b6000610f1830611014565b9050610f2381611f9b565b50565b6001600160a01b031660009081526006602052604090205460ff1690565b610f4c611a53565b6000546001600160a01b03908116911614610f9c576040805162461bcd60e51b81526020600482018190526024820152600080516020612b34833981519152604482015290519081900360640190fd5b60018110158015610fae575060198111155b610fff576040805162461bcd60e51b815260206004820152601a60248201527f7461784665652073686f756c6420626520696e2031202d203235000000000000604482015290519081900360640190fd5b600f55565b601454600160a81b900460ff1681565b6001600160a01b03811660009081526007602052604081205460ff161561105457506001600160a01b038116600090815260046020526040902054610cba565b6001600160a01b0382166000908152600360205260409020546109bc90610c5d565b61107e611a53565b6000546001600160a01b039081169116146110ce576040805162461bcd60e51b81526020600482018190526024820152600080516020612b34833981519152604482015290519081900360640190fd5b600080546040516001600160a01b0390911690600080516020612b54833981519152908390a3600080546001600160a01b0319169055565b6000546001600160a01b031690565b600d8054604080516020601f600260001961010060018816150201909516949094049384018190048102820181019092528281526060939092909183018282801561099a5780601f1061096f5761010080835404028352916020019161099a565b60006109b8611183611a53565b84610b8e85604051806060016040528060258152602001612c5760259139600560006111ad611a53565b6001600160a01b03908116825260208083019390935260409182016000908120918d16815292529020549190611da0565b6001546001600160a01b031633146112275760405162461bcd60e51b8152600401808060200182810382526023815260200180612c346023913960400191505060405180910390fd5b600254421161127d576040805162461bcd60e51b815260206004820152601f60248201527f436f6e7472616374206973206c6f636b656420756e74696c2037206461797300604482015290519081900360640190fd5b600154600080546040516001600160a01b039384169390911691600080516020612b5483398151915291a3600154600080546001600160a01b0319166001600160a01b03909216919091179055565b60006109b86112d9611a53565b8484611b43565b6112e8611a53565b6000546001600160a01b03908116911614611338576040805162461bcd60e51b81526020600482018190526024820152600080516020612b34833981519152604482015290519081900360640190fd5b6001600160a01b03919091166000908152600660205260409020805460ff1916911515919091179055565b60025490565b6001600160a01b031660009081526007602052604090205460ff1690565b61138f611a53565b6000546001600160a01b039081169116146113df576040805162461bcd60e51b81526020600482018190526024820152600080516020612b34833981519152604482015290519081900360640190fd5b601380546001600160a01b0319166001600160a01b0392909216919091179055565b611409611a53565b6000546001600160a01b03908116911614611459576040805162461bcd60e51b81526020600482018190526024820152600080516020612b34833981519152604482015290519081900360640190fd5b60008054600180546001600160a01b03199081166001600160a01b038416179091551681554282016002556040518190600080516020612b54833981519152908290a350565b6001600160a01b03918216600090815260056020908152604080832093909416825291909152205490565b6114d2611a53565b6000546001600160a01b03908116911614611522576040805162461bcd60e51b81526020600482018190526024820152600080516020612b34833981519152604482015290519081900360640190fd5b60148054911515600160a81b0260ff60a81b19909216919091179055565b611548611a53565b6000546001600160a01b03908116911614611598576040805162461bcd60e51b81526020600482018190526024820152600080516020612b34833981519152604482015290519081900360640190fd5b7f00000000000000000000000000000000000000000000000000000000000000006001600160a01b0316816001600160a01b031614156116095760405162461bcd60e51b8152600401808060200182810382526022815260200180612be66022913960400191505060405180910390fd5b6001600160a01b03811660009081526007602052604090205460ff1615611677576040805162461bcd60e51b815260206004820152601b60248201527f4163636f756e7420697320616c7265616479206578636c756465640000000000604482015290519081900360640190fd5b6001600160a01b038116600090815260036020526040902054156116d1576001600160a01b0381166000908152600360205260409020546116b790610c5d565b6001600160a01b0382166000908152600460205260409020555b6001600160a01b03166000818152600760205260408120805460ff191660019081179091556008805491820181559091527ff3f7a9fe364faab93b216da50a3214154f22a0a2b415b23a84c8169e8b636ee30180546001600160a01b0319169091179055565b61173f611a53565b6000546001600160a01b0390811691161461178f576040805162461bcd60e51b81526020600482018190526024820152600080516020612b34833981519152604482015290519081900360640190fd5b6001600160a01b0381166117d45760405162461bcd60e51b8152600401808060200182810382526026815260200180612a466026913960400191505060405180910390fd5b600080546040516001600160a01b0380851693921691600080516020612b5483398151915291a3600080546001600160a01b0319166001600160a01b0392909216919091179055565b611825611a53565b6000546001600160a01b03908116911614611875576040805162461bcd60e51b81526020600482018190526024820152600080516020612b34833981519152604482015290519081900360640190fd5b47610f23816121d2565b4790565b61188b611a53565b6000546001600160a01b039081169116146118db576040805162461bcd60e51b81526020600482018190526024820152600080516020612b34833981519152604482015290519081900360640190fd5b6001600160a01b03811660009081526007602052604090205460ff16611948576040805162461bcd60e51b815260206004820152601b60248201527f4163636f756e7420697320616c7265616479206578636c756465640000000000604482015290519081900360640190fd5b60005b600854811015611a4057816001600160a01b03166008828154811061196c57fe5b6000918252602090912001546001600160a01b03161415611a385760088054600019810190811061199957fe5b600091825260209091200154600880546001600160a01b0390921691839081106119bf57fe5b600091825260208083209190910180546001600160a01b0319166001600160a01b039485161790559184168152600482526040808220829055600790925220805460ff191690556008805480611a1157fe5b600082815260209020810160001990810180546001600160a01b0319169055019055611a40565b60010161194b565b5050565b6013546001600160a01b031681565b3390565b6001600160a01b038316611a9c5760405162461bcd60e51b8152600401808060200182810382526024815260200180612bc26024913960400191505060405180910390fd5b6001600160a01b038216611ae15760405162461bcd60e51b8152600401808060200182810382526022815260200180612a6c6022913960400191505060405180910390fd5b6001600160a01b03808416600081815260056020908152604080832094871680845294825291829020859055815185815291517f8c5be1e5ebec7d5bd14f71427d1e84f3dd0314c0f7b2291e5b200ac8c7c3b9259281900390910190a3505050565b6001600160a01b038316611b885760405162461bcd60e51b8152600401808060200182810382526025815260200180612b9d6025913960400191505060405180910390fd5b6001600160a01b038216611bcd5760405162461bcd60e51b81526004018080602001828103825260238152602001806129f96023913960400191505060405180910390fd5b60008111611c0c5760405162461bcd60e51b8152600401808060200182810382526029815260200180612b746029913960400191505060405180910390fd5b611c14611106565b6001600160a01b0316836001600160a01b031614158015611c4e5750611c38611106565b6001600160a01b0316826001600160a01b031614155b15611c9457601554811115611c945760405162461bcd60e51b8152600401808060200182810382526028815260200180612ac36028913960400191505060405180910390fd5b6000611c9f30611014565b90506015548110611caf57506015545b6016546014549082101590600160a01b900460ff16158015611cda5750601454600160a81b900460ff165b8015611ce35750805b8015611d2157507f00000000000000000000000000000000000000000000000000000000000000006001600160a01b0316856001600160a01b031614155b15611d4157611d2f82611f9b565b478015611d3f57611d3f476121d2565b505b6001600160a01b03851660009081526006602052604090205460019060ff1680611d8357506001600160a01b03851660009081526006602052604090205460ff165b15611d8c575060005b611d9886868684612261565b505050505050565b60008184841115611e2f5760405162461bcd60e51b81526004018080602001828103825283818151815260200191508051906020019080838360005b83811015611df4578181015183820152602001611ddc565b50505050905090810190601f168015611e215780820380516001836020036101000a031916815260200191505b509250505060405180910390fd5b505050900390565b6000806000611e446123d5565b9092509050611e538282611e5a565b9250505090565b6000611e9c83836040518060400160405280601a81526020017f536166654d6174683a206469766973696f6e206279207a65726f000000000000815250612538565b9392505050565b600082820183811015611e9c576040805162461bcd60e51b815260206004820152601b60248201527f536166654d6174683a206164646974696f6e206f766572666c6f770000000000604482015290519081900360640190fd5b6000806000806000806000806000611f1a8a600f5460105461259d565b9250925092506000611f2a611e37565b90506000806000611f3c8e87866125f2565b919e509c509a509598509396509194505050505091939550919395565b6000611e9c83836040518060400160405280601e81526020017f536166654d6174683a207375627472616374696f6e206f766572666c6f770000815250611da0565b6014805460ff60a01b1916600160a01b17905560408051600280825260608083018452926020830190803683370190505090503081600081518110611fdc57fe5b60200260200101906001600160a01b031690816001600160a01b0316815250507f00000000000000000000000000000000000000000000000000000000000000006001600160a01b031663ad5c46486040518163ffffffff1660e01b815260040160206040518083038186803b15801561205557600080fd5b505afa158015612069573d6000803e3d6000fd5b505050506040513d602081101561207f57600080fd5b505181518290600190811061209057fe5b60200260200101906001600160a01b031690816001600160a01b0316815250506120db307f000000000000000000000000000000000000000000000000000000000000000084611a57565b7f00000000000000000000000000000000000000000000000000000000000000006001600160a01b031663791ac9478360008430426040518663ffffffff1660e01b81526004018086815260200185815260200180602001846001600160a01b03168152602001838152602001828103825285818151815260200191508051906020019060200280838360005b83811015612180578181015183820152602001612168565b505050509050019650505050505050600060405180830381600087803b1580156121a957600080fd5b505af11580156121bd573d6000803e3d6000fd5b50506014805460ff60a01b1916905550505050565b6013546001600160a01b03166108fc6121ec836002611e5a565b6040518115909202916000818181858888f19350505050158015612214573d6000803e3d6000fd5b506014546001600160a01b03166108fc612239612232846002611e5a565b8490611f59565b6040518115909202916000818181858888f19350505050158015611a40573d6000803e3d6000fd5b8061226e5761226e61262e565b6001600160a01b03841660009081526007602052604090205460ff1680156122af57506001600160a01b03831660009081526007602052604090205460ff16155b156122c4576122bf848484612660565b6123c2565b6001600160a01b03841660009081526007602052604090205460ff1615801561230557506001600160a01b03831660009081526007602052604090205460ff165b15612315576122bf848484612784565b6001600160a01b03841660009081526007602052604090205460ff1615801561235757506001600160a01b03831660009081526007602052604090205460ff16155b15612367576122bf84848461282d565b6001600160a01b03841660009081526007602052604090205460ff1680156123a757506001600160a01b03831660009081526007602052604090205460ff165b156123b7576122bf848484612871565b6123c284848461282d565b806123cf576123cf6128e4565b50505050565b600a546009546000918291825b600854811015612506578260036000600884815481106123fe57fe5b60009182526020808320909101546001600160a01b031683528201929092526040019020541180612463575081600460006008848154811061243c57fe5b60009182526020808320909101546001600160a01b03168352820192909252604001902054115b1561247a57600a5460095494509450505050612534565b6124ba600360006008848154811061248e57fe5b60009182526020808320909101546001600160a01b031683528201929092526040019020548490611f59565b92506124fc60046000600884815481106124d057fe5b60009182526020808320909101546001600160a01b031683528201929092526040019020548390611f59565b91506001016123e2565b50600954600a5461251691611e5a565b82101561252e57600a54600954935093505050612534565b90925090505b9091565b600081836125875760405162461bcd60e51b8152602060048201818152835160248401528351909283926044909101919085019080838360008315611df4578181015183820152602001611ddc565b50600083858161259357fe5b0495945050505050565b60008080806125b760646125b189896128f2565b90611e5a565b905060006125ca60646125b18a896128f2565b905060006125e2826125dc8b86611f59565b90611f59565b9992985090965090945050505050565b600080808061260187866128f2565b9050600061260f87876128f2565b9050600061261d8383611f59565b929992985090965090945050505050565b600f5415801561263e5750601054155b156126485761265e565b600f805460115560108054601255600091829055555b565b60008060008060008061267287611efd565b6001600160a01b038f16600090815260046020526040902054959b509399509197509550935091506126a49088611f59565b6001600160a01b038a166000908152600460209081526040808320939093556003905220546126d39087611f59565b6001600160a01b03808b1660009081526003602052604080822093909355908a16815220546127029086611ea3565b6001600160a01b0389166000908152600360205260409020556127248161294b565b61272e84836129d4565b876001600160a01b0316896001600160a01b03167fddf252ad1be2c89b69c2b068fc378daa952ba7f163c4a11628f55a4df523b3ef856040518082815260200191505060405180910390a3505050505050505050565b60008060008060008061279687611efd565b6001600160a01b038f16600090815260036020526040902054959b509399509197509550935091506127c89087611f59565b6001600160a01b03808b16600090815260036020908152604080832094909455918b168152600490915220546127fe9084611ea3565b6001600160a01b0389166000908152600460209081526040808320939093556003905220546127029086611ea3565b60008060008060008061283f87611efd565b6001600160a01b038f16600090815260036020526040902054959b509399509197509550935091506126d39087611f59565b60008060008060008061288387611efd565b6001600160a01b038f16600090815260046020526040902054959b509399509197509550935091506128b59088611f59565b6001600160a01b038a166000908152600460209081526040808320939093556003905220546127c89087611f59565b601154600f55601254601055565b600082612901575060006109bc565b8282028284828161290e57fe5b0414611e9c5760405162461bcd60e51b8152600401808060200182810382526021815260200180612aeb6021913960400191505060405180910390fd5b6000612955611e37565b9050600061296383836128f2565b306000908152600360205260409020549091506129809082611ea3565b3060009081526003602090815260408083209390935560079052205460ff16156129cf57306000908152600460205260409020546129be9084611ea3565b306000908152600460205260409020555b505050565b600a546129e19083611f59565b600a55600b546129f19082611ea3565b600b55505056fe45524332303a207472616e7366657220746f20746865207a65726f2061646472657373416d6f756e74206d757374206265206c657373207468616e20746f74616c207265666c656374696f6e734f776e61626c653a206e6577206f776e657220697320746865207a65726f206164647265737345524332303a20617070726f766520746f20746865207a65726f20616464726573736d61785478416d6f756e742073686f756c642062652067726561746572207468616e203130303030303030303030303030306531385472616e7366657220616d6f756e74206578636565647320746865206d61785478416d6f756e742e536166654d6174683a206d756c7469706c69636174696f6e206f766572666c6f7745524332303a207472616e7366657220616d6f756e74206578636565647320616c6c6f77616e63654f776e61626c653a2063616c6c6572206973206e6f7420746865206f776e65728be0079c531659141344cd1fd0a4f28419497f9722a3daafe3b4186f6b6457e05472616e7366657220616d6f756e74206d7573742062652067726561746572207468616e207a65726f45524332303a207472616e736665722066726f6d20746865207a65726f206164647265737345524332303a20617070726f76652066726f6d20746865207a65726f206164647265737357652063616e206e6f74206578636c75646520556e697377617020726f757465722e4578636c75646564206164647265737365732063616e6e6f742063616c6c20746869732066756e6374696f6e596f7520646f6e27742068617665207065726d697373696f6e20746f20756e6c6f636b45524332303a2064656372656173656420616c6c6f77616e63652062656c6f77207a65726fa2646970667358221220af43c22baf5377505dc7dc50dae1ccdb9b2d8ab04cf2bb07cd4d0ae6b27f50c964736f6c634300060c0033",
  "linkReferences": {},
  "deployedLinkReferences": {}
}