{
  "_format": "hh-sol-artifact-1",
  "contractName": "TetradWallet",
  "sourceName": "contracts/TetradWallet.sol",
  "abi": [
    {
      "inputs": [
        {
          "internalType": "contract IERC20",
          "name": "depositedAsset",
          "type": "address"
        }
      ],
      "stateMutability": "nonpayable",
      "type": "constructor"
    },
    {
      "anonymous": false,
      "inputs": [
        {
          "indexed": false,
          "internalType": "uint256",
          "name": "nonce",
          "type": "uint256"
        },
        {
          "indexed": false,
          "internalType": "address",
          "name": "who",
          "type": "address"
        },
        {
          "indexed": false,
          "internalType": "uint256",
          "name": "amount",
          "type": "uint256"
        }
      ],
      "name": "AdminDeposit",
      "type": "event"
    },
    {
      "anonymous": false,
      "inputs": [
        {
          "indexed": false,
          "internalType": "uint256",
          "name": "nonce",
          "type": "uint256"
        },
        {
          "indexed": false,
          "internalType": "address",
          "name": "who",
          "type": "address"
        },
        {
          "indexed": false,
          "internalType": "uint256",
          "name": "amount",
          "type": "uint256"
        }
      ],
      "name": "AdminWithdraw",
      "type": "event"
    },
    {
      "anonymous": false,
      "inputs": [
        {
          "indexed": false,
          "internalType": "address",
          "name": "behalfOf",
          "type": "address"
        },
        {
          "indexed": false,
          "internalType": "address",
          "name": "spender",
          "type": "address"
        },
        {
          "indexed": false,
          "internalType": "uint256",
          "name": "amount",
          "type": "uint256"
        }
      ],
      "name": "Approval",
      "type": "event"
    },
    {
      "anonymous": false,
      "inputs": [
        {
          "indexed": false,
          "internalType": "uint256",
          "name": "nonce",
          "type": "uint256"
        },
        {
          "indexed": false,
          "internalType": "address",
          "name": "behalfOf",
          "type": "address"
        },
        {
          "indexed": false,
          "internalType": "address",
          "name": "spender",
          "type": "address"
        },
        {
          "indexed": false,
          "internalType": "uint256",
          "name": "amount",
          "type": "uint256"
        }
      ],
      "name": "Deposit",
      "type": "event"
    },
    {
      "anonymous": false,
      "inputs": [
        {
          "indexed": false,
          "internalType": "uint256",
          "name": "to",
          "type": "uint256"
        }
      ],
      "name": "NonceIncrease",
      "type": "event"
    },
    {
      "anonymous": false,
      "inputs": [
        {
          "indexed": true,
          "internalType": "address",
          "name": "previousOwner",
          "type": "address"
        },
        {
          "indexed": true,
          "internalType": "address",
          "name": "newOwner",
          "type": "address"
        }
      ],
      "name": "OwnershipTransferred",
      "type": "event"
    },
    {
      "anonymous": false,
      "inputs": [
        {
          "indexed": false,
          "internalType": "uint256",
          "name": "nonce",
          "type": "uint256"
        },
        {
          "indexed": false,
          "internalType": "address",
          "name": "behalfOf",
          "type": "address"
        },
        {
          "indexed": false,
          "internalType": "address",
          "name": "spender",
          "type": "address"
        },
        {
          "indexed": false,
          "internalType": "uint256",
          "name": "amount",
          "type": "uint256"
        },
        {
          "indexed": false,
          "internalType": "uint256",
          "name": "fee",
          "type": "uint256"
        }
      ],
      "name": "Withdraw",
      "type": "event"
    },
    {
      "inputs": [
        {
          "internalType": "uint256",
          "name": "amount",
          "type": "uint256"
        }
      ],
      "name": "adminDeposit",
      "outputs": [],
      "stateMutability": "nonpayable",
      "type": "function"
    },
    {
      "inputs": [
        {
          "internalType": "uint256",
          "name": "fee",
          "type": "uint256"
        },
        {
          "internalType": "uint256",
          "name": "unlockMin",
          "type": "uint256"
        },
        {
          "internalType": "uint256",
          "name": "unlockMax",
          "type": "uint256"
        }
      ],
      "name": "adminSettings",
      "outputs": [],
      "stateMutability": "nonpayable",
      "type": "function"
    },
    {
      "inputs": [
        {
          "internalType": "uint256",
          "name": "amount",
          "type": "uint256"
        }
      ],
      "name": "adminWithdraw",
      "outputs": [],
      "stateMutability": "nonpayable",
      "type": "function"
    },
    {
      "inputs": [
        {
          "internalType": "address",
          "name": "",
          "type": "address"
        },
        {
          "internalType": "address",
          "name": "",
          "type": "address"
        }
      ],
      "name": "allowance",
      "outputs": [
        {
          "internalType": "uint256",
          "name": "",
          "type": "uint256"
        }
      ],
      "stateMutability": "view",
      "type": "function"
    },
    {
      "inputs": [
        {
          "internalType": "address",
          "name": "spender",
          "type": "address"
        },
        {
          "internalType": "uint256",
          "name": "amount",
          "type": "uint256"
        }
      ],
      "name": "approve",
      "outputs": [
        {
          "internalType": "bool",
          "name": "",
          "type": "bool"
        }
      ],
      "stateMutability": "nonpayable",
      "type": "function"
    },
    {
      "inputs": [],
      "name": "asset",
      "outputs": [
        {
          "internalType": "contract IERC20",
          "name": "",
          "type": "address"
        }
      ],
      "stateMutability": "view",
      "type": "function"
    },
    {
      "inputs": [
        {
          "internalType": "address",
          "name": "collector",
          "type": "address"
        }
      ],
      "name": "availableToWithdraw",
      "outputs": [
        {
          "internalType": "uint256",
          "name": "",
          "type": "uint256"
        }
      ],
      "stateMutability": "view",
      "type": "function"
    },
    {
      "inputs": [
        {
          "internalType": "address",
          "name": "collector",
          "type": "address"
        }
      ],
      "name": "availableToWithdrawWithFee",
      "outputs": [
        {
          "internalType": "uint256",
          "name": "",
          "type": "uint256"
        }
      ],
      "stateMutability": "view",
      "type": "function"
    },
    {
      "inputs": [
        {
          "internalType": "address",
          "name": "collector",
          "type": "address"
        }
      ],
      "name": "balanceToCollect",
      "outputs": [
        {
          "internalType": "uint256",
          "name": "",
          "type": "uint256"
        }
      ],
      "stateMutability": "view",
      "type": "function"
    },
    {
      "inputs": [],
      "name": "collect",
      "outputs": [],
      "stateMutability": "nonpayable",
      "type": "function"
    },
    {
      "inputs": [
        {
          "internalType": "address",
          "name": "behalfOf",
          "type": "address"
        }
      ],
      "name": "collectOnBehalfOf",
      "outputs": [],
      "stateMutability": "nonpayable",
      "type": "function"
    },
    {
      "inputs": [
        {
          "internalType": "uint256",
          "name": "amount",
          "type": "uint256"
        }
      ],
      "name": "deposit",
      "outputs": [],
      "stateMutability": "nonpayable",
      "type": "function"
    },
    {
      "inputs": [
        {
          "internalType": "address",
          "name": "behalfOf",
          "type": "address"
        },
        {
          "internalType": "uint256",
          "name": "amount",
          "type": "uint256"
        }
      ],
      "name": "depositOnBehalfOf",
      "outputs": [],
      "stateMutability": "nonpayable",
      "type": "function"
    },
    {
      "inputs": [],
      "name": "getUnlockTime",
      "outputs": [
        {
          "internalType": "uint256",
          "name": "",
          "type": "uint256"
        }
      ],
      "stateMutability": "view",
      "type": "function"
    },
    {
      "inputs": [],
      "name": "isLocked",
      "outputs": [
        {
          "internalType": "bool",
          "name": "",
          "type": "bool"
        }
      ],
      "stateMutability": "view",
      "type": "function"
    },
    {
      "inputs": [],
      "name": "lastMonthChange",
      "outputs": [
        {
          "internalType": "uint256",
          "name": "",
          "type": "uint256"
        }
      ],
      "stateMutability": "view",
      "type": "function"
    },
    {
      "inputs": [],
      "name": "lastYearChange",
      "outputs": [
        {
          "internalType": "uint256",
          "name": "",
          "type": "uint256"
        }
      ],
      "stateMutability": "view",
      "type": "function"
    },
    {
      "inputs": [
        {
          "internalType": "uint256",
          "name": "time",
          "type": "uint256"
        }
      ],
      "name": "lock",
      "outputs": [],
      "stateMutability": "nonpayable",
      "type": "function"
    },
    {
      "inputs": [],
      "name": "nonce",
      "outputs": [
        {
          "internalType": "uint256",
          "name": "",
          "type": "uint256"
        }
      ],
      "stateMutability": "view",
      "type": "function"
    },
    {
      "inputs": [],
      "name": "owner",
      "outputs": [
        {
          "internalType": "address",
          "name": "",
          "type": "address"
        }
      ],
      "stateMutability": "view",
      "type": "function"
    },
    {
      "inputs": [
        {
          "internalType": "uint256",
          "name": "",
          "type": "uint256"
        }
      ],
      "name": "pendingDeposited",
      "outputs": [
        {
          "internalType": "uint256",
          "name": "",
          "type": "uint256"
        }
      ],
      "stateMutability": "view",
      "type": "function"
    },
    {
      "inputs": [
        {
          "internalType": "uint256",
          "name": "",
          "type": "uint256"
        },
        {
          "internalType": "address",
          "name": "",
          "type": "address"
        }
      ],
      "name": "pendingShare",
      "outputs": [
        {
          "internalType": "uint256",
          "name": "",
          "type": "uint256"
        }
      ],
      "stateMutability": "view",
      "type": "function"
    },
    {
      "inputs": [],
      "name": "renounceOwnership",
      "outputs": [],
      "stateMutability": "nonpayable",
      "type": "function"
    },
    {
      "inputs": [
        {
          "internalType": "address",
          "name": "",
          "type": "address"
        }
      ],
      "name": "share",
      "outputs": [
        {
          "internalType": "uint256",
          "name": "",
          "type": "uint256"
        }
      ],
      "stateMutability": "view",
      "type": "function"
    },
    {
      "inputs": [],
      "name": "takeProfit",
      "outputs": [],
      "stateMutability": "nonpayable",
      "type": "function"
    },
    {
      "inputs": [
        {
          "internalType": "address",
          "name": "behalfOf",
          "type": "address"
        }
      ],
      "name": "takeProfitOnBehalfOf",
      "outputs": [],
      "stateMutability": "nonpayable",
      "type": "function"
    },
    {
      "inputs": [],
      "name": "totalDeposited",
      "outputs": [
        {
          "internalType": "uint256",
          "name": "",
          "type": "uint256"
        }
      ],
      "stateMutability": "view",
      "type": "function"
    },
    {
      "inputs": [
        {
          "internalType": "address",
          "name": "newOwner",
          "type": "address"
        }
      ],
      "name": "transferOwnership",
      "outputs": [],
      "stateMutability": "nonpayable",
      "type": "function"
    },
    {
      "inputs": [
        {
          "internalType": "address",
          "name": "collector",
          "type": "address"
        }
      ],
      "name": "unavailableToWithdraw",
      "outputs": [
        {
          "internalType": "uint256",
          "name": "",
          "type": "uint256"
        }
      ],
      "stateMutability": "view",
      "type": "function"
    },
    {
      "inputs": [
        {
          "internalType": "address",
          "name": "collector",
          "type": "address"
        }
      ],
      "name": "unavailableToWithdrawWithFee",
      "outputs": [
        {
          "internalType": "uint256",
          "name": "",
          "type": "uint256"
        }
      ],
      "stateMutability": "view",
      "type": "function"
    },
    {
      "inputs": [],
      "name": "unlock",
      "outputs": [],
      "stateMutability": "nonpayable",
      "type": "function"
    },
    {
      "inputs": [],
      "name": "unlockDayMax",
      "outputs": [
        {
          "internalType": "uint256",
          "name": "",
          "type": "uint256"
        }
      ],
      "stateMutability": "view",
      "type": "function"
    },
    {
      "inputs": [],
      "name": "unlockDayMin",
      "outputs": [
        {
          "internalType": "uint256",
          "name": "",
          "type": "uint256"
        }
      ],
      "stateMutability": "view",
      "type": "function"
    },
    {
      "inputs": [
        {
          "internalType": "uint256",
          "name": "amount",
          "type": "uint256"
        }
      ],
      "name": "withdraw",
      "outputs": [],
      "stateMutability": "nonpayable",
      "type": "function"
    },
    {
      "inputs": [],
      "name": "withdrawFee",
      "outputs": [
        {
          "internalType": "uint256",
          "name": "",
          "type": "uint256"
        }
      ],
      "stateMutability": "view",
      "type": "function"
    },
    {
      "inputs": [
        {
          "internalType": "uint256",
          "name": "amount",
          "type": "uint256"
        }
      ],
      "name": "withdrawIgnoreLosses",
      "outputs": [],
      "stateMutability": "nonpayable",
      "type": "function"
    },
    {
      "inputs": [
        {
          "internalType": "address",
          "name": "behalfOf",
          "type": "address"
        },
        {
          "internalType": "uint256",
          "name": "amount",
          "type": "uint256"
        }
      ],
      "name": "withdrawIgnoreLossesOnBehalfOf",
      "outputs": [],
      "stateMutability": "nonpayable",
      "type": "function"
    },
    {
      "inputs": [],
      "name": "withdrawInitialMinusFee",
      "outputs": [],
      "stateMutability": "nonpayable",
      "type": "function"
    },
    {
      "inputs": [
        {
          "internalType": "address",
          "name": "behalfOf",
          "type": "address"
        }
      ],
      "name": "withdrawInitialMinusFeeOnBehalfOf",
      "outputs": [],
      "stateMutability": "nonpayable",
      "type": "function"
    },
    {
      "inputs": [
        {
          "internalType": "address",
          "name": "behalfOf",
          "type": "address"
        },
        {
          "internalType": "uint256",
          "name": "amount",
          "type": "uint256"
        }
      ],
      "name": "withdrawOnBehalfOf",
      "outputs": [],
      "stateMutability": "nonpayable",
      "type": "function"
    }
  ],
  "bytecode": "0x608060405234801561001057600080fd5b506040516120ee3803806120ee83398101604081905261002f916100a4565b600080546001600160a01b031916339081178255604051909182917f8be0079c531659141344cd1fd0a4f28419497f9722a3daafe3b4186f6b6457e0908290a35060a560065560016007556005600855600e80546001600160a01b0319166001600160a01b03929092169190911790556100d4565b6000602082840312156100b657600080fd5b81516001600160a01b03811681146100cd57600080fd5b9392505050565b61200b806100e36000396000f3fe608060405234801561001057600080fd5b50600436106102475760003560e01c80638da5cb5b1161013b578063d1ad6bbb116100b8578063e52253811161007c578063e522538114610500578063e941fa7814610508578063f2fde38b14610511578063feccd32314610524578063ff50abdc1461052d57600080fd5b8063d1ad6bbb14610489578063d5ea22e81461049c578063dd467064146104af578063dd62ed3e146104c2578063e2618f5c146104ed57600080fd5b8063affed0e0116100ff578063affed0e01461041c578063b6b55f2514610425578063b7990a4e14610438578063bfb8c52d1461044b578063cf4b55cb1461045e57600080fd5b80638da5cb5b146103c8578063a25db8ce146103d9578063a4312f18146103ec578063a4e2d6341461040c578063a69df4b51461041457600080fd5b80635019f900116101c957806366a1ac261161018d57806366a1ac261461037f57806370c1057814610392578063715018a61461039a57806372329ae9146103a25780637c5b4a37146103b557600080fd5b80635019f9001461034a5780635c2839df146103535780635c79d2d11461035b578063602bc62b1461036457806363c766e81461036c57600080fd5b80632cd4e7d2116102105780632cd4e7d2146102d35780632e1a7d4d146102e657806337ded170146102f957806338d52e0f1461030c5780633ca4d9f41461033757600080fd5b80625a58b11461024c5780630868779414610268578063095ea7b31461027d57806314214025146102a05780631877bb5c146102b3575b600080fd5b61025560085481565b6040519081526020015b60405180910390f35b61027b610276366004611c72565b610536565b005b61029061028b366004611ca7565b610715565b604051901515815260200161025f565b6102556102ae366004611cd1565b61072b565b6102556102c1366004611cd1565b600b6020526000908152604090205481565b6102556102e1366004611cd1565b610753565b61027b6102f4366004611c72565b6107d6565b61027b610307366004611cd1565b6107e3565b600e5461031f906001600160a01b031681565b6040516001600160a01b03909116815260200161025f565b61027b610345366004611ca7565b610842565b61025560055481565b61027b6109c5565b61025560045481565b600254610255565b61027b61037a366004611c72565b6109d0565b61025561038d366004611cd1565b6109da565b61027b610b07565b61027b610b10565b61027b6103b0366004611ca7565b610b72565b61027b6103c3366004611c72565b611159565b6000546001600160a01b031661031f565b6102556103e7366004611cd1565b6112d5565b6102556103fa366004611c72565b600a6020526000908152604090205481565b61029061132d565b61027b611352565b61025560095481565b61027b610433366004611c72565b611458565b61027b610446366004611cec565b611462565b61027b610459366004611cd1565b6115ee565b61025561046c366004611d18565b600c60209081526000928352604080842090915290825290205481565b61027b610497366004611ca7565b611707565b6102556104aa366004611cd1565b61172e565b61027b6104bd366004611c72565b61177a565b6102556104d0366004611d44565b600d60209081526000928352604080842090915290825290205481565b61027b6104fb366004611cd1565b6117ff565b61027b61180c565b61025560065481565b61027b61051f366004611cd1565b611815565b61025560075481565b61025560035481565b6000546001600160a01b031633146105695760405162461bcd60e51b815260040161056090611d6e565b60405180910390fd5b61057161132d565b6105bd5760405162461bcd60e51b815260206004820181905260248201527f43616e206f6e6c79206d6f76652066756e6473207768656e206c6f636b65642e6044820152606401610560565b6000806105c9426118ed565b5091509150816005541415806105e157508060045414155b1561064257600582905560048190556009805460019190600090610606908490611db9565b90915550506009546040519081527f6f7839fd5911baac2dbc722962a0d38f7d09c5519b195dbf03e4cc27f890efc39060200160405180910390a15b6009546040805191825233602083015281018490527fdc4c93400ef75e0372536dbbd59f526428ac9b64f683c3178a1398e1f99266799060600160405180910390a1600e546040516323b872dd60e01b8152336004820152306024820152604481018590526001600160a01b03909116906323b872dd906064015b602060405180830381600087803b1580156106d757600080fd5b505af11580156106eb573d6000803e3d6000fd5b505050506040513d601f19601f8201168201806040525081019061070f9190611dd1565b50505050565b6000610722338484611913565b50600192915050565b60008061073661132d565b1561074957610744836109da565b61074c565b60005b9392505050565b6009546000908152600c602090815260408083206001600160a01b03851684529091528120548161078261132d565b6107945761078f846109da565b610797565b60005b90506000612710600654836107ac9190611df3565b6107b69190611e28565b9050806107c38385611db9565b6107cd9190611e3c565b95945050505050565b6107e03382610b72565b50565b60006107ee826112d5565b6001600160a01b0383166000908152600b6020526040902054909150811115610839576001600160a01b0382166000908152600b6020526040902054610835908390610b72565b5050565b610835826117ff565b80600360008282546108549190611db9565b90915550506001600160a01b0382166000908152600b602052604081208054839290610881908490611db9565b90915550506009546000908152600a6020526040812080548392906108a7908490611db9565b90915550506009546000908152600c602090815260408083206001600160a01b0386168452909152812080548392906108e1908490611db9565b9091555050600954604080519182526001600160a01b0384166020830152338282015260608201839052517f2c0f148b435140de488c1b34647f1511c646f7077e87007bacf22ef9977a16d89181900360800190a1600e546040516323b872dd60e01b8152336004820152306024820152604481018390526001600160a01b03909116906323b872dd90606401602060405180830381600087803b15801561098857600080fd5b505af115801561099c573d6000803e3d6000fd5b505050506040513d601f19601f820116820180604052508101906109c09190611dd1565b505050565b6109ce336107e3565b565b6107e03382611707565b6009546000908152600a602052604081205460035414156109fd57506000919050565b6009546000908152600a6020526040902054600354610a1c9190611e3c565b6009546000908152600c602090815260408083206001600160a01b0387168452825280832054600b90925290912054610a559190611e3c565b6009546000908152600a60205260409081902054600e5491516370a0823160e01b815230600482015290916001600160a01b0316906370a082319060240160206040518083038186803b158015610aab57600080fd5b505afa158015610abf573d6000803e3d6000fd5b505050506040513d601f19601f82011682018060405250810190610ae39190611e53565b610aed9190611e3c565b610af79190611df3565b610b019190611e28565b92915050565b6109ce336115ee565b6000546001600160a01b03163314610b3a5760405162461bcd60e51b815260040161056090611d6e565b600080546040516001600160a01b0390911690600080516020611fb6833981519152908390a3600080546001600160a01b0319169055565b336001600160a01b038316811480610bae57506001600160a01b038084166000908152600d602090815260408083209385168352929052205415155b610bec5760405162461bcd60e51b815260206004820152600f60248201526e2737ba1030baba3437b934bd32b21760891b6044820152606401610560565b60008211610c315760405162461bcd60e51b81526020600482015260126024820152710416d6f756e74206d757374206265203e20360741b6044820152606401610560565b6000610c3b61132d565b6009546000908152600c602090815260408083206001600160a01b038916845290915281205491925082610c7757610c72866109da565b610c7a565b60005b90506000610c888284611db9565b9050600081118015610c9a5750808611155b610ce65760405162461bcd60e51b815260206004820152601b60248201527f496e73756666696369656e7420746f74616c2062616c616e63652e00000000006044820152606401610560565b6000838711610cf55786610cf7565b835b90506000610d058289611e3c565b905087610d128284611db9565b14610d1f57610d1f611e6c565b8115610e71576009546000908152600a602052604081208054849290610d46908490611e3c565b90915550506009546000908152600c602090815260408083206001600160a01b038d16845290915281208054849290610d80908490611e3c565b925050819055508160036000828254610d999190611e3c565b90915550506001600160a01b0389166000908152600b602052604081208054849290610dc6908490611e3c565b90915550506001600160a01b0389811690881614610de957610de9898884611a54565b600e5460405163a9059cbb60e01b81526001600160a01b038b81166004830152602482018590529091169063a9059cbb90604401602060405180830381600087803b158015610e3757600080fd5b505af1158015610e4b573d6000803e3d6000fd5b505050506040513d601f19601f82011682018060405250810190610e6f9190611dd1565b505b80156110f4576001600160a01b0389166000908152600b60205260409020546003548591610e9e91611e3c565b610ea89190611db9565b60039081556001600160a01b038a166000908152600b60205260408120869055815483929190610ed9908490611e3c565b90915550506001600160a01b0389166000908152600b602052604081208054839290610f06908490611e3c565b909155505060065460009061271090610f1f9084611df3565b610f299190611e28565b90508015610fd657600e546001600160a01b031663a9059cbb610f546000546001600160a01b031690565b6040516001600160e01b031960e084901b1681526001600160a01b03909116600482015260248101849052604401602060405180830381600087803b158015610f9c57600080fd5b505af1158015610fb0573d6000803e3d6000fd5b505050506040513d601f19601f82011682018060405250810190610fd49190611dd1565b505b876001600160a01b03168a6001600160a01b031614610ffa57610ffa8a8984611a54565b600e546001600160a01b031663a9059cbb8b6110168486611e3c565b6040516001600160e01b031960e085901b1681526001600160a01b0390921660048301526024820152604401602060405180830381600087803b15801561105c57600080fd5b505af1158015611070573d6000803e3d6000fd5b505050506040513d601f19601f820116820180604052508101906110949190611dd1565b50600954604080519182526001600160a01b038c811660208401528a1682820152606082018b905260808201839052517ffe7813e2866053d5c3938554e517b554fce6666a6561bed9eaa7419b29fa9b689181900360a00190a15061114e565b600954604080519182526001600160a01b038b81166020840152891682820152606082018a905260006080830152517ffe7813e2866053d5c3938554e517b554fce6666a6561bed9eaa7419b29fa9b689181900360a00190a15b505050505050505050565b6000546001600160a01b031633146111835760405162461bcd60e51b815260040161056090611d6e565b61118b61132d565b6111d75760405162461bcd60e51b815260206004820181905260248201527f43616e206f6e6c79206d6f76652066756e6473207768656e206c6f636b65642e6044820152606401610560565b6000806111e3426118ed565b5091509150816005541415806111fb57508060045414155b1561125c57600582905560048190556009805460019190600090611220908490611db9565b90915550506009546040519081527f6f7839fd5911baac2dbc722962a0d38f7d09c5519b195dbf03e4cc27f890efc39060200160405180910390a15b6009546040805191825233602083015281018490527f3283abdb05cff705bd4faab57c532a3d4bfe5c83685e9c69e83d459bb88fb0739060600160405180910390a1600e5460405163a9059cbb60e01b8152336004820152602481018590526001600160a01b039091169063a9059cbb906044016106bd565b6009546000908152600c602090815260408083206001600160a01b03851684529091528120548161130461132d565b61131657611311846109da565b611319565b60005b90506113258183611db9565b949350505050565b60008061133942611aec565b905060075481108061134c575060085481115b91505090565b6001546001600160a01b031633146113b85760405162461bcd60e51b815260206004820152602360248201527f596f7520646f6e27742068617665207065726d697373696f6e20746f20756e6c6044820152626f636b60e81b6064820152608401610560565b60025442116114095760405162461bcd60e51b815260206004820152601f60248201527f436f6e7472616374206973206c6f636b656420756e74696c20372064617973006044820152606401610560565b600154600080546040516001600160a01b039384169390911691600080516020611fb683398151915291a3600154600080546001600160a01b0319166001600160a01b03909216919091179055565b6107e03382610842565b6000546001600160a01b0316331461148c5760405162461bcd60e51b815260040161056090611d6e565b6102588311156114f65760405162461bcd60e51b815260206004820152602f60248201527f576974686472617720666565206d757374206265206c6f776572206f7220657160448201526e3ab0b6103a37903a3430b7101b129760891b6064820152608401610560565b818110156115625760405162461bcd60e51b815260206004820152603360248201527f556e6c6f636b20646179206d6178206d757374206265206772656174657220746044820152723430b7103ab73637b1b5903230bc9036b4b71760691b6064820152608401610560565b6001600754101580156115785750601c60085411155b6115e05760405162461bcd60e51b815260206004820152603360248201527f556e6c6f636b2074696d65206d75737420626520617420612074696d6520746860448201527230ba1030b6361036b7b73a3439903430bb329760691b6064820152608401610560565b600692909255600755600855565b6115f661132d565b156116435760405162461bcd60e51b815260206004820152601d60248201527f43616e6e6f742074616b652070726f666974206966206c6f636b65642e0000006044820152606401610560565b600061164e826109da565b6001600160a01b0383166000908152600b602052604090205490915081116116de5760405162461bcd60e51b815260206004820152603760248201527f43616e27742074616b652070726f666974206f6e206c6f737365732f64656c7460448201527f61206e65757472616c2f70656e64696e67206f6e6c792e0000000000000000006064820152608401610560565b6001600160a01b0382166000908152600b60205260409020546108359083906103b09084611e3c565b6000611712836112d5565b9050808210611724576109c0836117ff565b6109c08383610b72565b60008061173961132d565b1561174c57611747836109da565b61174f565b60005b90506000612710600654836117649190611df3565b61176e9190611e28565b90506113258183611e3c565b6000546001600160a01b031633146117a45760405162461bcd60e51b815260040161056090611d6e565b60008054600180546001600160a01b03199081166001600160a01b038416179091551690556117d38142611db9565b600255600080546040516001600160a01b0390911690600080516020611fb6833981519152908390a350565b6107e0816103b0836112d5565b6109ce336117ff565b6000546001600160a01b0316331461183f5760405162461bcd60e51b815260040161056090611d6e565b6001600160a01b0381166118a45760405162461bcd60e51b815260206004820152602660248201527f4f776e61626c653a206e6577206f776e657220697320746865207a65726f206160448201526564647265737360d01b6064820152608401610560565b600080546040516001600160a01b0380851693921691600080516020611fb683398151915291a3600080546001600160a01b0319166001600160a01b0392909216919091179055565b600080806119066119016201518086611e28565b611afe565b9196909550909350915050565b6001600160a01b03831661197d5760405162461bcd60e51b815260206004820152602b60248201527f54657472616457616c6c65743a20617070726f76652066726f6d20746865207a60448201526a65726f206164647265737360a81b6064820152608401610560565b6001600160a01b0382166119e55760405162461bcd60e51b815260206004820152602960248201527f54657472616457616c6c65743a20617070726f766520746f20746865207a65726044820152686f206164647265737360b81b6064820152608401610560565b6001600160a01b038381166000818152600d602090815260408083209487168084529482529182902085905581519283528201929092529081018290527f8c5be1e5ebec7d5bd14f71427d1e84f3dd0314c0f7b2291e5b200ac8c7c3b9259060600160405180910390a1505050565b6001600160a01b038084166000908152600d6020908152604080832093861683529290522054600019811461070f5781811015611adf5760405162461bcd60e51b8152602060048201526024808201527f54657472616457616c6c65743a20696e73756666696369656e7420616c6c6f77604482015263616e636560e01b6064820152608401610560565b61070f8484848403611913565b60006113256119016201518084611e28565b60008080838162253d8c611b158362010bd9611e82565b611b1f9190611e82565b9050600062023ab1611b32836004611ec3565b611b3c9190611f48565b90506004611b4d8262023ab1611ec3565b611b58906003611e82565b611b629190611f48565b611b6c9083611f76565b9150600062164b09611b7f846001611e82565b611b8b90610fa0611ec3565b611b959190611f48565b90506004611ba5826105b5611ec3565b611baf9190611f48565b611bb99084611f76565b611bc490601f611e82565b9250600061098f611bd6856050611ec3565b611be09190611f48565b905060006050611bf28361098f611ec3565b611bfc9190611f48565b611c069086611f76565b9050611c13600b83611f48565b9450611c2085600c611ec3565b611c2b836002611e82565b611c359190611f76565b91508483611c44603187611f76565b611c4f906064611ec3565b611c599190611e82565b611c639190611e82565b9a919950975095505050505050565b600060208284031215611c8457600080fd5b5035919050565b80356001600160a01b0381168114611ca257600080fd5b919050565b60008060408385031215611cba57600080fd5b611cc383611c8b565b946020939093013593505050565b600060208284031215611ce357600080fd5b61074c82611c8b565b600080600060608486031215611d0157600080fd5b505081359360208301359350604090920135919050565b60008060408385031215611d2b57600080fd5b82359150611d3b60208401611c8b565b90509250929050565b60008060408385031215611d5757600080fd5b611d6083611c8b565b9150611d3b60208401611c8b565b6020808252818101527f4f776e61626c653a2063616c6c6572206973206e6f7420746865206f776e6572604082015260600190565b634e487b7160e01b600052601160045260246000fd5b60008219821115611dcc57611dcc611da3565b500190565b600060208284031215611de357600080fd5b8151801515811461074c57600080fd5b6000816000190483118215151615611e0d57611e0d611da3565b500290565b634e487b7160e01b600052601260045260246000fd5b600082611e3757611e37611e12565b500490565b600082821015611e4e57611e4e611da3565b500390565b600060208284031215611e6557600080fd5b5051919050565b634e487b7160e01b600052600160045260246000fd5b600080821280156001600160ff1b0384900385131615611ea457611ea4611da3565b600160ff1b8390038412811615611ebd57611ebd611da3565b50500190565b60006001600160ff1b0381841382841380821686840486111615611ee957611ee9611da3565b600160ff1b6000871282811687830589121615611f0857611f08611da3565b60008712925087820587128484161615611f2457611f24611da3565b87850587128184161615611f3a57611f3a611da3565b505050929093029392505050565b600082611f5757611f57611e12565b600160ff1b821460001984141615611f7157611f71611da3565b500590565b60008083128015600160ff1b850184121615611f9457611f94611da3565b6001600160ff1b0384018313811615611faf57611faf611da3565b5050039056fe8be0079c531659141344cd1fd0a4f28419497f9722a3daafe3b4186f6b6457e0a2646970667358221220b9ab77e3d6c5e36386bdd2524306f7f1f031c493be4eb567c4216bfc87a68b0f64736f6c63430008090033",
  "linkReferences": {},
  "deployedLinkReferences": {}
}