{
  "_format": "hh-sol-artifact-1",
  "contractName": "TetradWallet",
  "sourceName": "contracts/TetradWallet.sol",
  "abi": [
    {
      "inputs": [
        {
          "internalType": "contract IERC20",
          "name": "depositedAsset",
          "type": "address"
        }
      ],
      "stateMutability": "nonpayable",
      "type": "constructor"
    },
    {
      "anonymous": false,
      "inputs": [
        {
          "indexed": false,
          "internalType": "uint256",
          "name": "nonce",
          "type": "uint256"
        },
        {
          "indexed": false,
          "internalType": "address",
          "name": "who",
          "type": "address"
        },
        {
          "indexed": false,
          "internalType": "uint256",
          "name": "amount",
          "type": "uint256"
        }
      ],
      "name": "AdminDeposit",
      "type": "event"
    },
    {
      "anonymous": false,
      "inputs": [
        {
          "indexed": false,
          "internalType": "uint256",
          "name": "nonce",
          "type": "uint256"
        },
        {
          "indexed": false,
          "internalType": "address",
          "name": "who",
          "type": "address"
        },
        {
          "indexed": false,
          "internalType": "uint256",
          "name": "amount",
          "type": "uint256"
        }
      ],
      "name": "AdminWithdraw",
      "type": "event"
    },
    {
      "anonymous": false,
      "inputs": [
        {
          "indexed": false,
          "internalType": "address",
          "name": "behalfOf",
          "type": "address"
        },
        {
          "indexed": false,
          "internalType": "address",
          "name": "spender",
          "type": "address"
        },
        {
          "indexed": false,
          "internalType": "uint256",
          "name": "amount",
          "type": "uint256"
        }
      ],
      "name": "Approval",
      "type": "event"
    },
    {
      "anonymous": false,
      "inputs": [
        {
          "indexed": false,
          "internalType": "uint256",
          "name": "nonce",
          "type": "uint256"
        },
        {
          "indexed": false,
          "internalType": "address",
          "name": "behalfOf",
          "type": "address"
        },
        {
          "indexed": false,
          "internalType": "address",
          "name": "spender",
          "type": "address"
        },
        {
          "indexed": false,
          "internalType": "uint256",
          "name": "amount",
          "type": "uint256"
        }
      ],
      "name": "Deposit",
      "type": "event"
    },
    {
      "anonymous": false,
      "inputs": [
        {
          "indexed": false,
          "internalType": "uint256",
          "name": "to",
          "type": "uint256"
        }
      ],
      "name": "NonceIncrease",
      "type": "event"
    },
    {
      "anonymous": false,
      "inputs": [
        {
          "indexed": true,
          "internalType": "address",
          "name": "previousOwner",
          "type": "address"
        },
        {
          "indexed": true,
          "internalType": "address",
          "name": "newOwner",
          "type": "address"
        }
      ],
      "name": "OwnershipTransferred",
      "type": "event"
    },
    {
      "anonymous": false,
      "inputs": [
        {
          "indexed": false,
          "internalType": "uint256",
          "name": "nonce",
          "type": "uint256"
        },
        {
          "indexed": false,
          "internalType": "address",
          "name": "behalfOf",
          "type": "address"
        },
        {
          "indexed": false,
          "internalType": "address",
          "name": "spender",
          "type": "address"
        },
        {
          "indexed": false,
          "internalType": "uint256",
          "name": "amount",
          "type": "uint256"
        },
        {
          "indexed": false,
          "internalType": "uint256",
          "name": "fee",
          "type": "uint256"
        }
      ],
      "name": "Withdraw",
      "type": "event"
    },
    {
      "inputs": [
        {
          "internalType": "address",
          "name": "wallet",
          "type": "address"
        }
      ],
      "name": "adminChangeFeeWallet",
      "outputs": [],
      "stateMutability": "nonpayable",
      "type": "function"
    },
    {
      "inputs": [
        {
          "internalType": "uint256",
          "name": "amount",
          "type": "uint256"
        }
      ],
      "name": "adminDeposit",
      "outputs": [],
      "stateMutability": "nonpayable",
      "type": "function"
    },
    {
      "inputs": [
        {
          "internalType": "uint256",
          "name": "fee",
          "type": "uint256"
        },
        {
          "internalType": "uint256",
          "name": "unlockMin",
          "type": "uint256"
        },
        {
          "internalType": "uint256",
          "name": "unlockMax",
          "type": "uint256"
        }
      ],
      "name": "adminSettings",
      "outputs": [],
      "stateMutability": "nonpayable",
      "type": "function"
    },
    {
      "inputs": [
        {
          "internalType": "uint256",
          "name": "amount",
          "type": "uint256"
        }
      ],
      "name": "adminWithdraw",
      "outputs": [],
      "stateMutability": "nonpayable",
      "type": "function"
    },
    {
      "inputs": [
        {
          "internalType": "address",
          "name": "",
          "type": "address"
        },
        {
          "internalType": "address",
          "name": "",
          "type": "address"
        }
      ],
      "name": "allowance",
      "outputs": [
        {
          "internalType": "uint256",
          "name": "",
          "type": "uint256"
        }
      ],
      "stateMutability": "view",
      "type": "function"
    },
    {
      "inputs": [
        {
          "internalType": "address",
          "name": "spender",
          "type": "address"
        },
        {
          "internalType": "uint256",
          "name": "amount",
          "type": "uint256"
        }
      ],
      "name": "approve",
      "outputs": [
        {
          "internalType": "bool",
          "name": "",
          "type": "bool"
        }
      ],
      "stateMutability": "nonpayable",
      "type": "function"
    },
    {
      "inputs": [],
      "name": "asset",
      "outputs": [
        {
          "internalType": "contract IERC20",
          "name": "",
          "type": "address"
        }
      ],
      "stateMutability": "view",
      "type": "function"
    },
    {
      "inputs": [
        {
          "internalType": "address",
          "name": "collector",
          "type": "address"
        }
      ],
      "name": "availableToWithdraw",
      "outputs": [
        {
          "internalType": "uint256",
          "name": "",
          "type": "uint256"
        }
      ],
      "stateMutability": "view",
      "type": "function"
    },
    {
      "inputs": [
        {
          "internalType": "address",
          "name": "collector",
          "type": "address"
        }
      ],
      "name": "availableToWithdrawWithFee",
      "outputs": [
        {
          "internalType": "uint256",
          "name": "",
          "type": "uint256"
        }
      ],
      "stateMutability": "view",
      "type": "function"
    },
    {
      "inputs": [
        {
          "internalType": "address",
          "name": "collector",
          "type": "address"
        }
      ],
      "name": "balanceToCollect",
      "outputs": [
        {
          "internalType": "uint256",
          "name": "",
          "type": "uint256"
        }
      ],
      "stateMutability": "view",
      "type": "function"
    },
    {
      "inputs": [],
      "name": "collect",
      "outputs": [],
      "stateMutability": "nonpayable",
      "type": "function"
    },
    {
      "inputs": [
        {
          "internalType": "address",
          "name": "behalfOf",
          "type": "address"
        }
      ],
      "name": "collectOnBehalfOf",
      "outputs": [],
      "stateMutability": "nonpayable",
      "type": "function"
    },
    {
      "inputs": [
        {
          "internalType": "address",
          "name": "collector",
          "type": "address"
        }
      ],
      "name": "currentPendingBalanceOf",
      "outputs": [
        {
          "internalType": "uint256",
          "name": "",
          "type": "uint256"
        }
      ],
      "stateMutability": "view",
      "type": "function"
    },
    {
      "inputs": [],
      "name": "currentTotalPending",
      "outputs": [
        {
          "internalType": "uint256",
          "name": "",
          "type": "uint256"
        }
      ],
      "stateMutability": "view",
      "type": "function"
    },
    {
      "inputs": [
        {
          "internalType": "uint256",
          "name": "amount",
          "type": "uint256"
        }
      ],
      "name": "deposit",
      "outputs": [],
      "stateMutability": "nonpayable",
      "type": "function"
    },
    {
      "inputs": [
        {
          "internalType": "address",
          "name": "behalfOf",
          "type": "address"
        },
        {
          "internalType": "uint256",
          "name": "amount",
          "type": "uint256"
        }
      ],
      "name": "depositOnBehalfOf",
      "outputs": [],
      "stateMutability": "nonpayable",
      "type": "function"
    },
    {
      "inputs": [],
      "name": "feeWallet",
      "outputs": [
        {
          "internalType": "address",
          "name": "",
          "type": "address"
        }
      ],
      "stateMutability": "view",
      "type": "function"
    },
    {
      "inputs": [],
      "name": "fundsAvailableForAdmin",
      "outputs": [
        {
          "internalType": "uint256",
          "name": "",
          "type": "uint256"
        }
      ],
      "stateMutability": "view",
      "type": "function"
    },
    {
      "inputs": [],
      "name": "getOwnerUnlockTime",
      "outputs": [
        {
          "internalType": "uint256",
          "name": "",
          "type": "uint256"
        }
      ],
      "stateMutability": "view",
      "type": "function"
    },
    {
      "inputs": [],
      "name": "isLocked",
      "outputs": [
        {
          "internalType": "bool",
          "name": "",
          "type": "bool"
        }
      ],
      "stateMutability": "view",
      "type": "function"
    },
    {
      "inputs": [],
      "name": "lastMonthChange",
      "outputs": [
        {
          "internalType": "uint256",
          "name": "",
          "type": "uint256"
        }
      ],
      "stateMutability": "view",
      "type": "function"
    },
    {
      "inputs": [],
      "name": "lastYearChange",
      "outputs": [
        {
          "internalType": "uint256",
          "name": "",
          "type": "uint256"
        }
      ],
      "stateMutability": "view",
      "type": "function"
    },
    {
      "inputs": [],
      "name": "nonce",
      "outputs": [
        {
          "internalType": "uint256",
          "name": "",
          "type": "uint256"
        }
      ],
      "stateMutability": "view",
      "type": "function"
    },
    {
      "inputs": [],
      "name": "owner",
      "outputs": [
        {
          "internalType": "address",
          "name": "",
          "type": "address"
        }
      ],
      "stateMutability": "view",
      "type": "function"
    },
    {
      "inputs": [
        {
          "internalType": "uint256",
          "name": "time",
          "type": "uint256"
        }
      ],
      "name": "ownerLock",
      "outputs": [],
      "stateMutability": "nonpayable",
      "type": "function"
    },
    {
      "inputs": [],
      "name": "ownerUnlock",
      "outputs": [],
      "stateMutability": "nonpayable",
      "type": "function"
    },
    {
      "inputs": [
        {
          "internalType": "uint256",
          "name": "",
          "type": "uint256"
        }
      ],
      "name": "pendingDeposited",
      "outputs": [
        {
          "internalType": "uint256",
          "name": "",
          "type": "uint256"
        }
      ],
      "stateMutability": "view",
      "type": "function"
    },
    {
      "inputs": [
        {
          "internalType": "uint256",
          "name": "",
          "type": "uint256"
        },
        {
          "internalType": "address",
          "name": "",
          "type": "address"
        }
      ],
      "name": "pendingShare",
      "outputs": [
        {
          "internalType": "uint256",
          "name": "",
          "type": "uint256"
        }
      ],
      "stateMutability": "view",
      "type": "function"
    },
    {
      "inputs": [],
      "name": "renounceOwnership",
      "outputs": [],
      "stateMutability": "nonpayable",
      "type": "function"
    },
    {
      "inputs": [
        {
          "internalType": "address",
          "name": "",
          "type": "address"
        }
      ],
      "name": "share",
      "outputs": [
        {
          "internalType": "uint256",
          "name": "",
          "type": "uint256"
        }
      ],
      "stateMutability": "view",
      "type": "function"
    },
    {
      "inputs": [],
      "name": "takeProfit",
      "outputs": [],
      "stateMutability": "nonpayable",
      "type": "function"
    },
    {
      "inputs": [
        {
          "internalType": "address",
          "name": "behalfOf",
          "type": "address"
        }
      ],
      "name": "takeProfitOnBehalfOf",
      "outputs": [],
      "stateMutability": "nonpayable",
      "type": "function"
    },
    {
      "inputs": [],
      "name": "totalDeposited",
      "outputs": [
        {
          "internalType": "uint256",
          "name": "",
          "type": "uint256"
        }
      ],
      "stateMutability": "view",
      "type": "function"
    },
    {
      "inputs": [
        {
          "internalType": "address",
          "name": "newOwner",
          "type": "address"
        }
      ],
      "name": "transferOwnership",
      "outputs": [],
      "stateMutability": "nonpayable",
      "type": "function"
    },
    {
      "inputs": [
        {
          "internalType": "address",
          "name": "collector",
          "type": "address"
        }
      ],
      "name": "unavailableToWithdraw",
      "outputs": [
        {
          "internalType": "uint256",
          "name": "",
          "type": "uint256"
        }
      ],
      "stateMutability": "view",
      "type": "function"
    },
    {
      "inputs": [
        {
          "internalType": "address",
          "name": "collector",
          "type": "address"
        }
      ],
      "name": "unavailableToWithdrawWithFee",
      "outputs": [
        {
          "internalType": "uint256",
          "name": "",
          "type": "uint256"
        }
      ],
      "stateMutability": "view",
      "type": "function"
    },
    {
      "inputs": [],
      "name": "unlockDayMax",
      "outputs": [
        {
          "internalType": "uint256",
          "name": "",
          "type": "uint256"
        }
      ],
      "stateMutability": "view",
      "type": "function"
    },
    {
      "inputs": [],
      "name": "unlockDayMin",
      "outputs": [
        {
          "internalType": "uint256",
          "name": "",
          "type": "uint256"
        }
      ],
      "stateMutability": "view",
      "type": "function"
    },
    {
      "inputs": [
        {
          "internalType": "uint256",
          "name": "amount",
          "type": "uint256"
        }
      ],
      "name": "withdraw",
      "outputs": [],
      "stateMutability": "nonpayable",
      "type": "function"
    },
    {
      "inputs": [],
      "name": "withdrawFee",
      "outputs": [
        {
          "internalType": "uint256",
          "name": "",
          "type": "uint256"
        }
      ],
      "stateMutability": "view",
      "type": "function"
    },
    {
      "inputs": [
        {
          "internalType": "uint256",
          "name": "amount",
          "type": "uint256"
        }
      ],
      "name": "withdrawIgnoreLosses",
      "outputs": [],
      "stateMutability": "nonpayable",
      "type": "function"
    },
    {
      "inputs": [
        {
          "internalType": "address",
          "name": "behalfOf",
          "type": "address"
        },
        {
          "internalType": "uint256",
          "name": "amount",
          "type": "uint256"
        }
      ],
      "name": "withdrawIgnoreLossesOnBehalfOf",
      "outputs": [],
      "stateMutability": "nonpayable",
      "type": "function"
    },
    {
      "inputs": [],
      "name": "withdrawInitialMinusFee",
      "outputs": [],
      "stateMutability": "nonpayable",
      "type": "function"
    },
    {
      "inputs": [
        {
          "internalType": "address",
          "name": "behalfOf",
          "type": "address"
        }
      ],
      "name": "withdrawInitialMinusFeeOnBehalfOf",
      "outputs": [],
      "stateMutability": "nonpayable",
      "type": "function"
    },
    {
      "inputs": [
        {
          "internalType": "address",
          "name": "behalfOf",
          "type": "address"
        },
        {
          "internalType": "uint256",
          "name": "amount",
          "type": "uint256"
        }
      ],
      "name": "withdrawOnBehalfOf",
      "outputs": [],
      "stateMutability": "nonpayable",
      "type": "function"
    }
  ],
  "bytecode": "0x608060405234801561001057600080fd5b50604051620022b2380380620022b2833981016040819052610031916100b1565b600080546001600160a01b031916339081178255604051909182917f8be0079c531659141344cd1fd0a4f28419497f9722a3daafe3b4186f6b6457e0908290a360a56006556019600755601f600855600e80546001600160a01b039384166001600160a01b031991821617909155600f80549290931691161790556100e1565b6000602082840312156100c357600080fd5b81516001600160a01b03811681146100da57600080fd5b9392505050565b6121c180620000f16000396000f3fe608060405234801561001057600080fd5b506004361061027e5760003560e01c806372329ae91161015c578063cc1a57e7116100ce578063e522538111610087578063e5225381146105a0578063e941fa78146105a8578063f25f4b56146105b1578063f2fde38b146105c4578063feccd323146105d7578063ff50abdc146105e057600080fd5b8063cc1a57e714610509578063cf4b55cb14610511578063d1ad6bbb1461053c578063d5ea22e81461054f578063dd62ed3e14610562578063e2618f5c1461058d57600080fd5b8063a4e2d63411610120578063a4e2d634146104b7578063affed0e0146104bf578063b6b55f25146104c8578063b7990a4e146104db578063bf4e4188146104ee578063bfb8c52d146104f657600080fd5b806372329ae91461044d5780637c5b4a37146104605780638da5cb5b14610473578063a25db8ce14610484578063a4312f181461049757600080fd5b806346546978116101f557806363c766e8116101b957806363c766e8146103f157806366a1ac26146104045780636b211aca146104175780636d6958b71461042a57806370c105781461043d578063715018a61461044557600080fd5b806346546978146103895780635019f900146103c05780635c2839df146103c95780635c79d2d1146103d15780635dd250aa146103da57600080fd5b80632cd4e7d2116102475780632cd4e7d21461030a5780632e1a7d4d1461031d5780632f214b9c1461033057806337ded1701461033857806338d52e0f1461034b5780633ca4d9f41461037657600080fd5b80625a58b114610283578063086877941461029f578063095ea7b3146102b457806314214025146102d75780631877bb5c146102ea575b600080fd5b61028c60085481565b6040519081526020015b60405180910390f35b6102b26102ad366004611e3e565b6105e9565b005b6102c76102c2366004611e73565b6107c8565b6040519015158152602001610296565b61028c6102e5366004611e9d565b6107de565b61028c6102f8366004611e9d565b600b6020526000908152604090205481565b61028c610318366004611e9d565b610806565b6102b261032b366004611e3e565b610889565b6102b2610896565b6102b2610346366004611e9d565b61099c565b600e5461035e906001600160a01b031681565b6040516001600160a01b039091168152602001610296565b6102b2610384366004611e73565b6109fb565b61028c610397366004611e9d565b6009546000908152600c602090815260408083206001600160a01b039094168352929052205490565b61028c60055481565b6102b2610b7e565b61028c60045481565b6009546000908152600a602052604090205461028c565b6102b26103ff366004611e3e565b610b89565b61028c610412366004611e9d565b610b93565b6102b2610425366004611e9d565b610cc0565b6102b2610438366004611e3e565b610d0c565b6102b2610d91565b6102b2610d9a565b6102b261045b366004611e73565b610dfc565b6102b261046e366004611e3e565b6113b0565b6000546001600160a01b031661035e565b61028c610492366004611e9d565b611587565b61028c6104a5366004611e3e565b600a6020526000908152604090205481565b6102c76115df565b61028c60095481565b6102b26104d6366004611e3e565b611604565b6102b26104e9366004611eb8565b61160e565b60025461028c565b6102b2610504366004611e9d565b6117a3565b61028c6118bc565b61028c61051f366004611ee4565b600c60209081526000928352604080842090915290825290205481565b6102b261054a366004611e73565b611958565b61028c61055d366004611e9d565b61197f565b61028c610570366004611f10565b600d60209081526000928352604080842090915290825290205481565b6102b261059b366004611e9d565b6119cb565b6102b26119d8565b61028c60065481565b600f5461035e906001600160a01b031681565b6102b26105d2366004611e9d565b6119e1565b61028c60075481565b61028c60035481565b6000546001600160a01b0316331461061c5760405162461bcd60e51b815260040161061390611f3a565b60405180910390fd5b6106246115df565b6106705760405162461bcd60e51b815260206004820181905260248201527f43616e206f6e6c79206d6f76652066756e6473207768656e206c6f636b65642e6044820152606401610613565b60008061067c42611ab9565b50915091508160055414158061069457508060045414155b156106f5576005829055600481905560098054600191906000906106b9908490611f85565b90915550506009546040519081527f6f7839fd5911baac2dbc722962a0d38f7d09c5519b195dbf03e4cc27f890efc39060200160405180910390a15b6009546040805191825233602083015281018490527fdc4c93400ef75e0372536dbbd59f526428ac9b64f683c3178a1398e1f99266799060600160405180910390a1600e546040516323b872dd60e01b8152336004820152306024820152604481018590526001600160a01b03909116906323b872dd906064015b602060405180830381600087803b15801561078a57600080fd5b505af115801561079e573d6000803e3d6000fd5b505050506040513d601f19601f820116820180604052508101906107c29190611f9d565b50505050565b60006107d5338484611adf565b50600192915050565b6000806107e96115df565b156107fc576107f783610b93565b6107ff565b60005b9392505050565b6009546000908152600c602090815260408083206001600160a01b0385168452909152812054816108356115df565b6108475761084284610b93565b61084a565b60005b905060006127106006548361085f9190611fbf565b6108699190611ff4565b9050806108768385611f85565b6108809190612008565b95945050505050565b6108933382610dfc565b50565b6001546001600160a01b031633146108fc5760405162461bcd60e51b815260206004820152602360248201527f596f7520646f6e27742068617665207065726d697373696f6e20746f20756e6c6044820152626f636b60e81b6064820152608401610613565b600254421161094d5760405162461bcd60e51b815260206004820152601f60248201527f436f6e7472616374206973206c6f636b656420756e74696c20372064617973006044820152606401610613565b600154600080546040516001600160a01b03938416939091169160008051602061216c83398151915291a3600154600080546001600160a01b0319166001600160a01b03909216919091179055565b60006109a782611587565b6001600160a01b0383166000908152600b60205260409020549091508111156109f2576001600160a01b0382166000908152600b60205260409020546109ee908390610dfc565b5050565b6109ee826119cb565b8060036000828254610a0d9190611f85565b90915550506001600160a01b0382166000908152600b602052604081208054839290610a3a908490611f85565b90915550506009546000908152600a602052604081208054839290610a60908490611f85565b90915550506009546000908152600c602090815260408083206001600160a01b038616845290915281208054839290610a9a908490611f85565b9091555050600954604080519182526001600160a01b0384166020830152338282015260608201839052517f2c0f148b435140de488c1b34647f1511c646f7077e87007bacf22ef9977a16d89181900360800190a1600e546040516323b872dd60e01b8152336004820152306024820152604481018390526001600160a01b03909116906323b872dd90606401602060405180830381600087803b158015610b4157600080fd5b505af1158015610b55573d6000803e3d6000fd5b505050506040513d601f19601f82011682018060405250810190610b799190611f9d565b505050565b610b873361099c565b565b6108933382611958565b6009546000908152600a60205260408120546003541415610bb657506000919050565b6009546000908152600a6020526040902054600354610bd59190612008565b6009546000908152600c602090815260408083206001600160a01b0387168452825280832054600b90925290912054610c0e9190612008565b6009546000908152600a60205260409081902054600e5491516370a0823160e01b815230600482015290916001600160a01b0316906370a082319060240160206040518083038186803b158015610c6457600080fd5b505afa158015610c78573d6000803e3d6000fd5b505050506040513d601f19601f82011682018060405250810190610c9c919061201f565b610ca69190612008565b610cb09190611fbf565b610cba9190611ff4565b92915050565b6000546001600160a01b03163314610cea5760405162461bcd60e51b815260040161061390611f3a565b600f80546001600160a01b0319166001600160a01b0392909216919091179055565b6000546001600160a01b03163314610d365760405162461bcd60e51b815260040161061390611f3a565b60008054600180546001600160a01b03199081166001600160a01b03841617909155169055610d658142611f85565b600255600080546040516001600160a01b039091169060008051602061216c833981519152908390a350565b610b87336117a3565b6000546001600160a01b03163314610dc45760405162461bcd60e51b815260040161061390611f3a565b600080546040516001600160a01b039091169060008051602061216c833981519152908390a3600080546001600160a01b0319169055565b336001600160a01b038316811480610e3857506001600160a01b038084166000908152600d602090815260408083209385168352929052205415155b610e765760405162461bcd60e51b815260206004820152600f60248201526e2737ba1030baba3437b934bd32b21760891b6044820152606401610613565b60008211610ebb5760405162461bcd60e51b81526020600482015260126024820152710416d6f756e74206d757374206265203e20360741b6044820152606401610613565b6000610ec56115df565b6009546000908152600c602090815260408083206001600160a01b038916845290915281205491925082610f0157610efc86610b93565b610f04565b60005b90506000610f128284611f85565b9050600081118015610f245750808611155b610f705760405162461bcd60e51b815260206004820152601b60248201527f496e73756666696369656e7420746f74616c2062616c616e63652e00000000006044820152606401610613565b6000838711610f7f5786610f81565b835b90506000610f8f8289612008565b905081156110e3576009546000908152600a602052604081208054849290610fb8908490612008565b90915550506009546000908152600c602090815260408083206001600160a01b038d16845290915281208054849290610ff2908490612008565b92505081905550816003600082825461100b9190612008565b90915550506001600160a01b0389166000908152600b602052604081208054849290611038908490612008565b90915550506001600160a01b038981169088161461105b5761105b898884611c20565b600e5460405163a9059cbb60e01b81526001600160a01b038b81166004830152602482018590529091169063a9059cbb90604401602060405180830381600087803b1580156110a957600080fd5b505af11580156110bd573d6000803e3d6000fd5b505050506040513d601f19601f820116820180604052508101906110e19190611f9d565b505b801561134b576001600160a01b0389166000908152600b6020526040902054600354859161111091612008565b61111a9190611f85565b60039081556001600160a01b038a166000908152600b6020526040812086905581548392919061114b908490612008565b90915550506001600160a01b0389166000908152600b602052604081208054839290611178908490612008565b9091555050600654600090612710906111919084611fbf565b61119b9190611ff4565b9050801561122d57600e54600f5460405163a9059cbb60e01b81526001600160a01b0391821660048201526024810184905291169063a9059cbb90604401602060405180830381600087803b1580156111f357600080fd5b505af1158015611207573d6000803e3d6000fd5b505050506040513d601f19601f8201168201806040525081019061122b9190611f9d565b505b876001600160a01b03168a6001600160a01b031614611251576112518a8984611c20565b600e546001600160a01b031663a9059cbb8b61126d8486612008565b6040516001600160e01b031960e085901b1681526001600160a01b0390921660048301526024820152604401602060405180830381600087803b1580156112b357600080fd5b505af11580156112c7573d6000803e3d6000fd5b505050506040513d601f19601f820116820180604052508101906112eb9190611f9d565b50600954604080519182526001600160a01b038c811660208401528a1682820152606082018b905260808201839052517ffe7813e2866053d5c3938554e517b554fce6666a6561bed9eaa7419b29fa9b689181900360a00190a1506113a5565b600954604080519182526001600160a01b038b81166020840152891682820152606082018a905260006080830152517ffe7813e2866053d5c3938554e517b554fce6666a6561bed9eaa7419b29fa9b689181900360a00190a15b505050505050505050565b6000546001600160a01b031633146113da5760405162461bcd60e51b815260040161061390611f3a565b6113e26115df565b61142e5760405162461bcd60e51b815260206004820181905260248201527f43616e206f6e6c79206d6f76652066756e6473207768656e206c6f636b65642e6044820152606401610613565b60008061143a42611ab9565b50915091508160055414158061145257508060045414155b156114b757600582905560048190556009805460019190600090611477908490611f85565b90915550506009546040519081527f6f7839fd5911baac2dbc722962a0d38f7d09c5519b195dbf03e4cc27f890efc39060200160405180910390a161150e565b6114bf6118bc565b83111561150e5760405162461bcd60e51b815260206004820152601b60248201527f4e6f7420656e6f7567682066756e647320617661696c61626c652e00000000006044820152606401610613565b6009546040805191825233602083015281018490527f3283abdb05cff705bd4faab57c532a3d4bfe5c83685e9c69e83d459bb88fb0739060600160405180910390a1600e5460405163a9059cbb60e01b8152336004820152602481018590526001600160a01b039091169063a9059cbb90604401610770565b6009546000908152600c602090815260408083206001600160a01b0385168452909152812054816115b66115df565b6115c8576115c384610b93565b6115cb565b60005b90506115d78183611f85565b949350505050565b6000806115eb42611cb8565b90506007548110806115fe575060085481115b91505090565b61089333826109fb565b6000546001600160a01b031633146116385760405162461bcd60e51b815260040161061390611f3a565b6102588311156116a25760405162461bcd60e51b815260206004820152602f60248201527f576974686472617720666565206d757374206265206c6f776572207468616e2060448201526e37b91032b8bab0b6103a37901b129760891b6064820152608401610613565b818110156117185760405162461bcd60e51b815260206004820152603f60248201527f556e6c6f636b20646179206d6178206d7573742062652067726561746572207460448201527f68616e206f7220657175616c20746f20756e6c6f636b20646179206d696e2e006064820152608401610613565b6001821015801561172a5750601c8211155b6117955760405162461bcd60e51b815260206004820152603660248201527f556e6c6f636b20646179206d696e206d75737420626520617420612074696d65604482015275103a3430ba1030b6361036b7b73a3439903430bb329760511b6064820152608401610613565b600692909255600755600855565b6117ab6115df565b156117f85760405162461bcd60e51b815260206004820152601d60248201527f43616e6e6f742074616b652070726f666974206966206c6f636b65642e0000006044820152606401610613565b600061180382610b93565b6001600160a01b0383166000908152600b602052604090205490915081116118935760405162461bcd60e51b815260206004820152603760248201527f43616e27742074616b652070726f666974206f6e206c6f737365732f64656c7460448201527f61206e65757472616c2f70656e64696e67206f6e6c792e0000000000000000006064820152608401610613565b6001600160a01b0382166000908152600b60205260409020546109ee90839061045b9084612008565b6009546000908152600a602052604080822054600e5491516370a0823160e01b815230600482015290916001600160a01b0316906370a082319060240160206040518083038186803b15801561191157600080fd5b505afa158015611925573d6000803e3d6000fd5b505050506040513d601f19601f82011682018060405250810190611949919061201f565b6119539190612008565b905090565b600061196383611587565b905080821061197557610b79836119cb565b610b798383610dfc565b60008061198a6115df565b1561199d5761199883610b93565b6119a0565b60005b90506000612710600654836119b59190611fbf565b6119bf9190611ff4565b90506115d78183612008565b6108938161045b83611587565b610b87336119cb565b6000546001600160a01b03163314611a0b5760405162461bcd60e51b815260040161061390611f3a565b6001600160a01b038116611a705760405162461bcd60e51b815260206004820152602660248201527f4f776e61626c653a206e6577206f776e657220697320746865207a65726f206160448201526564647265737360d01b6064820152608401610613565b600080546040516001600160a01b038085169392169160008051602061216c83398151915291a3600080546001600160a01b0319166001600160a01b0392909216919091179055565b60008080611ad2611acd6201518086611ff4565b611cca565b9196909550909350915050565b6001600160a01b038316611b495760405162461bcd60e51b815260206004820152602b60248201527f54657472616457616c6c65743a20617070726f76652066726f6d20746865207a60448201526a65726f206164647265737360a81b6064820152608401610613565b6001600160a01b038216611bb15760405162461bcd60e51b815260206004820152602960248201527f54657472616457616c6c65743a20617070726f766520746f20746865207a65726044820152686f206164647265737360b81b6064820152608401610613565b6001600160a01b038381166000818152600d602090815260408083209487168084529482529182902085905581519283528201929092529081018290527f8c5be1e5ebec7d5bd14f71427d1e84f3dd0314c0f7b2291e5b200ac8c7c3b9259060600160405180910390a1505050565b6001600160a01b038084166000908152600d602090815260408083209386168352929052205460001981146107c25781811015611cab5760405162461bcd60e51b8152602060048201526024808201527f54657472616457616c6c65743a20696e73756666696369656e7420616c6c6f77604482015263616e636560e01b6064820152608401610613565b6107c28484848403611adf565b60006115d7611acd6201518084611ff4565b60008080838162253d8c611ce18362010bd9612038565b611ceb9190612038565b9050600062023ab1611cfe836004612079565b611d0891906120fe565b90506004611d198262023ab1612079565b611d24906003612038565b611d2e91906120fe565b611d38908361212c565b9150600062164b09611d4b846001612038565b611d5790610fa0612079565b611d6191906120fe565b90506004611d71826105b5612079565b611d7b91906120fe565b611d85908461212c565b611d9090601f612038565b9250600061098f611da2856050612079565b611dac91906120fe565b905060006050611dbe8361098f612079565b611dc891906120fe565b611dd2908661212c565b9050611ddf600b836120fe565b9450611dec85600c612079565b611df7836002612038565b611e01919061212c565b91508483611e1060318761212c565b611e1b906064612079565b611e259190612038565b611e2f9190612038565b9a919950975095505050505050565b600060208284031215611e5057600080fd5b5035919050565b80356001600160a01b0381168114611e6e57600080fd5b919050565b60008060408385031215611e8657600080fd5b611e8f83611e57565b946020939093013593505050565b600060208284031215611eaf57600080fd5b6107ff82611e57565b600080600060608486031215611ecd57600080fd5b505081359360208301359350604090920135919050565b60008060408385031215611ef757600080fd5b82359150611f0760208401611e57565b90509250929050565b60008060408385031215611f2357600080fd5b611f2c83611e57565b9150611f0760208401611e57565b6020808252818101527f4f776e61626c653a2063616c6c6572206973206e6f7420746865206f776e6572604082015260600190565b634e487b7160e01b600052601160045260246000fd5b60008219821115611f9857611f98611f6f565b500190565b600060208284031215611faf57600080fd5b815180151581146107ff57600080fd5b6000816000190483118215151615611fd957611fd9611f6f565b500290565b634e487b7160e01b600052601260045260246000fd5b60008261200357612003611fde565b500490565b60008282101561201a5761201a611f6f565b500390565b60006020828403121561203157600080fd5b5051919050565b600080821280156001600160ff1b038490038513161561205a5761205a611f6f565b600160ff1b839003841281161561207357612073611f6f565b50500190565b60006001600160ff1b038184138284138082168684048611161561209f5761209f611f6f565b600160ff1b60008712828116878305891216156120be576120be611f6f565b600087129250878205871284841616156120da576120da611f6f565b878505871281841616156120f0576120f0611f6f565b505050929093029392505050565b60008261210d5761210d611fde565b600160ff1b82146000198414161561212757612127611f6f565b500590565b60008083128015600160ff1b85018412161561214a5761214a611f6f565b6001600160ff1b038401831381161561216557612165611f6f565b5050039056fe8be0079c531659141344cd1fd0a4f28419497f9722a3daafe3b4186f6b6457e0a2646970667358221220733fd58780e09113df92f9ef100cd58649731bd8137d952fa0f1f4c36e352c0464736f6c63430008090033",
  "linkReferences": {},
  "deployedLinkReferences": {}
}