{
  "_format": "hh-sol-artifact-1",
  "contractName": "TetradWallet",
  "sourceName": "contracts/TetradWallet.sol",
  "abi": [
    {
      "inputs": [
        {
          "internalType": "contract IERC20",
          "name": "depositedAsset",
          "type": "address"
        }
      ],
      "stateMutability": "nonpayable",
      "type": "constructor"
    },
    {
      "anonymous": false,
      "inputs": [
        {
          "indexed": false,
          "internalType": "uint256",
          "name": "nonce",
          "type": "uint256"
        },
        {
          "indexed": false,
          "internalType": "address",
          "name": "who",
          "type": "address"
        },
        {
          "indexed": false,
          "internalType": "uint256",
          "name": "amount",
          "type": "uint256"
        }
      ],
      "name": "AdminDeposit",
      "type": "event"
    },
    {
      "anonymous": false,
      "inputs": [
        {
          "indexed": false,
          "internalType": "uint256",
          "name": "nonce",
          "type": "uint256"
        },
        {
          "indexed": false,
          "internalType": "address",
          "name": "who",
          "type": "address"
        },
        {
          "indexed": false,
          "internalType": "uint256",
          "name": "amount",
          "type": "uint256"
        }
      ],
      "name": "AdminWithdraw",
      "type": "event"
    },
    {
      "anonymous": false,
      "inputs": [
        {
          "indexed": false,
          "internalType": "address",
          "name": "behalfOf",
          "type": "address"
        },
        {
          "indexed": false,
          "internalType": "address",
          "name": "spender",
          "type": "address"
        },
        {
          "indexed": false,
          "internalType": "uint256",
          "name": "amount",
          "type": "uint256"
        }
      ],
      "name": "Approval",
      "type": "event"
    },
    {
      "anonymous": false,
      "inputs": [
        {
          "indexed": false,
          "internalType": "uint256",
          "name": "nonce",
          "type": "uint256"
        },
        {
          "indexed": false,
          "internalType": "address",
          "name": "behalfOf",
          "type": "address"
        },
        {
          "indexed": false,
          "internalType": "address",
          "name": "spender",
          "type": "address"
        },
        {
          "indexed": false,
          "internalType": "uint256",
          "name": "amount",
          "type": "uint256"
        }
      ],
      "name": "Deposit",
      "type": "event"
    },
    {
      "anonymous": false,
      "inputs": [
        {
          "indexed": false,
          "internalType": "uint256",
          "name": "to",
          "type": "uint256"
        }
      ],
      "name": "NonceIncrease",
      "type": "event"
    },
    {
      "anonymous": false,
      "inputs": [
        {
          "indexed": true,
          "internalType": "address",
          "name": "previousOwner",
          "type": "address"
        },
        {
          "indexed": true,
          "internalType": "address",
          "name": "newOwner",
          "type": "address"
        }
      ],
      "name": "OwnershipTransferred",
      "type": "event"
    },
    {
      "anonymous": false,
      "inputs": [
        {
          "indexed": false,
          "internalType": "uint256",
          "name": "nonce",
          "type": "uint256"
        },
        {
          "indexed": false,
          "internalType": "address",
          "name": "behalfOf",
          "type": "address"
        },
        {
          "indexed": false,
          "internalType": "address",
          "name": "spender",
          "type": "address"
        },
        {
          "indexed": false,
          "internalType": "uint256",
          "name": "amount",
          "type": "uint256"
        },
        {
          "indexed": false,
          "internalType": "uint256",
          "name": "fee",
          "type": "uint256"
        }
      ],
      "name": "Withdraw",
      "type": "event"
    },
    {
      "inputs": [
        {
          "internalType": "address",
          "name": "wallet",
          "type": "address"
        }
      ],
      "name": "adminChangeFeeWallet",
      "outputs": [],
      "stateMutability": "nonpayable",
      "type": "function"
    },
    {
      "inputs": [
        {
          "internalType": "uint256",
          "name": "amount",
          "type": "uint256"
        }
      ],
      "name": "adminDeposit",
      "outputs": [],
      "stateMutability": "nonpayable",
      "type": "function"
    },
    {
      "inputs": [
        {
          "internalType": "uint256",
          "name": "fee",
          "type": "uint256"
        },
        {
          "internalType": "uint256",
          "name": "unlockMin",
          "type": "uint256"
        },
        {
          "internalType": "uint256",
          "name": "unlockMax",
          "type": "uint256"
        }
      ],
      "name": "adminSettings",
      "outputs": [],
      "stateMutability": "nonpayable",
      "type": "function"
    },
    {
      "inputs": [
        {
          "internalType": "uint256",
          "name": "amount",
          "type": "uint256"
        }
      ],
      "name": "adminWithdraw",
      "outputs": [],
      "stateMutability": "nonpayable",
      "type": "function"
    },
    {
      "inputs": [
        {
          "internalType": "address",
          "name": "",
          "type": "address"
        },
        {
          "internalType": "address",
          "name": "",
          "type": "address"
        }
      ],
      "name": "allowance",
      "outputs": [
        {
          "internalType": "uint256",
          "name": "",
          "type": "uint256"
        }
      ],
      "stateMutability": "view",
      "type": "function"
    },
    {
      "inputs": [
        {
          "internalType": "address",
          "name": "spender",
          "type": "address"
        },
        {
          "internalType": "uint256",
          "name": "amount",
          "type": "uint256"
        }
      ],
      "name": "approve",
      "outputs": [
        {
          "internalType": "bool",
          "name": "",
          "type": "bool"
        }
      ],
      "stateMutability": "nonpayable",
      "type": "function"
    },
    {
      "inputs": [],
      "name": "asset",
      "outputs": [
        {
          "internalType": "contract IERC20",
          "name": "",
          "type": "address"
        }
      ],
      "stateMutability": "view",
      "type": "function"
    },
    {
      "inputs": [
        {
          "internalType": "address",
          "name": "collector",
          "type": "address"
        }
      ],
      "name": "availableToWithdraw",
      "outputs": [
        {
          "internalType": "uint256",
          "name": "",
          "type": "uint256"
        }
      ],
      "stateMutability": "view",
      "type": "function"
    },
    {
      "inputs": [
        {
          "internalType": "address",
          "name": "collector",
          "type": "address"
        }
      ],
      "name": "availableToWithdrawWithFee",
      "outputs": [
        {
          "internalType": "uint256",
          "name": "",
          "type": "uint256"
        }
      ],
      "stateMutability": "view",
      "type": "function"
    },
    {
      "inputs": [
        {
          "internalType": "address",
          "name": "collector",
          "type": "address"
        }
      ],
      "name": "balanceToCollect",
      "outputs": [
        {
          "internalType": "uint256",
          "name": "",
          "type": "uint256"
        }
      ],
      "stateMutability": "view",
      "type": "function"
    },
    {
      "inputs": [],
      "name": "collect",
      "outputs": [],
      "stateMutability": "nonpayable",
      "type": "function"
    },
    {
      "inputs": [
        {
          "internalType": "address",
          "name": "behalfOf",
          "type": "address"
        }
      ],
      "name": "collectOnBehalfOf",
      "outputs": [],
      "stateMutability": "nonpayable",
      "type": "function"
    },
    {
      "inputs": [
        {
          "internalType": "address",
          "name": "collector",
          "type": "address"
        }
      ],
      "name": "currentPendingBalanceOf",
      "outputs": [
        {
          "internalType": "uint256",
          "name": "",
          "type": "uint256"
        }
      ],
      "stateMutability": "view",
      "type": "function"
    },
    {
      "inputs": [],
      "name": "currentTotalPending",
      "outputs": [
        {
          "internalType": "uint256",
          "name": "",
          "type": "uint256"
        }
      ],
      "stateMutability": "view",
      "type": "function"
    },
    {
      "inputs": [
        {
          "internalType": "uint256",
          "name": "amount",
          "type": "uint256"
        }
      ],
      "name": "deposit",
      "outputs": [],
      "stateMutability": "nonpayable",
      "type": "function"
    },
    {
      "inputs": [
        {
          "internalType": "address",
          "name": "behalfOf",
          "type": "address"
        },
        {
          "internalType": "uint256",
          "name": "amount",
          "type": "uint256"
        }
      ],
      "name": "depositOnBehalfOf",
      "outputs": [],
      "stateMutability": "nonpayable",
      "type": "function"
    },
    {
      "inputs": [],
      "name": "feeWallet",
      "outputs": [
        {
          "internalType": "address",
          "name": "",
          "type": "address"
        }
      ],
      "stateMutability": "view",
      "type": "function"
    },
    {
      "inputs": [],
      "name": "fundsAvailableForAdmin",
      "outputs": [
        {
          "internalType": "uint256",
          "name": "",
          "type": "uint256"
        }
      ],
      "stateMutability": "view",
      "type": "function"
    },
    {
      "inputs": [],
      "name": "getUnlockTime",
      "outputs": [
        {
          "internalType": "uint256",
          "name": "",
          "type": "uint256"
        }
      ],
      "stateMutability": "view",
      "type": "function"
    },
    {
      "inputs": [],
      "name": "isLocked",
      "outputs": [
        {
          "internalType": "bool",
          "name": "",
          "type": "bool"
        }
      ],
      "stateMutability": "view",
      "type": "function"
    },
    {
      "inputs": [],
      "name": "lastMonthChange",
      "outputs": [
        {
          "internalType": "uint256",
          "name": "",
          "type": "uint256"
        }
      ],
      "stateMutability": "view",
      "type": "function"
    },
    {
      "inputs": [],
      "name": "lastYearChange",
      "outputs": [
        {
          "internalType": "uint256",
          "name": "",
          "type": "uint256"
        }
      ],
      "stateMutability": "view",
      "type": "function"
    },
    {
      "inputs": [
        {
          "internalType": "uint256",
          "name": "time",
          "type": "uint256"
        }
      ],
      "name": "lock",
      "outputs": [],
      "stateMutability": "nonpayable",
      "type": "function"
    },
    {
      "inputs": [],
      "name": "nonce",
      "outputs": [
        {
          "internalType": "uint256",
          "name": "",
          "type": "uint256"
        }
      ],
      "stateMutability": "view",
      "type": "function"
    },
    {
      "inputs": [],
      "name": "owner",
      "outputs": [
        {
          "internalType": "address",
          "name": "",
          "type": "address"
        }
      ],
      "stateMutability": "view",
      "type": "function"
    },
    {
      "inputs": [
        {
          "internalType": "uint256",
          "name": "",
          "type": "uint256"
        }
      ],
      "name": "pendingDeposited",
      "outputs": [
        {
          "internalType": "uint256",
          "name": "",
          "type": "uint256"
        }
      ],
      "stateMutability": "view",
      "type": "function"
    },
    {
      "inputs": [
        {
          "internalType": "uint256",
          "name": "",
          "type": "uint256"
        },
        {
          "internalType": "address",
          "name": "",
          "type": "address"
        }
      ],
      "name": "pendingShare",
      "outputs": [
        {
          "internalType": "uint256",
          "name": "",
          "type": "uint256"
        }
      ],
      "stateMutability": "view",
      "type": "function"
    },
    {
      "inputs": [],
      "name": "renounceOwnership",
      "outputs": [],
      "stateMutability": "nonpayable",
      "type": "function"
    },
    {
      "inputs": [
        {
          "internalType": "address",
          "name": "",
          "type": "address"
        }
      ],
      "name": "share",
      "outputs": [
        {
          "internalType": "uint256",
          "name": "",
          "type": "uint256"
        }
      ],
      "stateMutability": "view",
      "type": "function"
    },
    {
      "inputs": [],
      "name": "takeProfit",
      "outputs": [],
      "stateMutability": "nonpayable",
      "type": "function"
    },
    {
      "inputs": [
        {
          "internalType": "address",
          "name": "behalfOf",
          "type": "address"
        }
      ],
      "name": "takeProfitOnBehalfOf",
      "outputs": [],
      "stateMutability": "nonpayable",
      "type": "function"
    },
    {
      "inputs": [],
      "name": "totalDeposited",
      "outputs": [
        {
          "internalType": "uint256",
          "name": "",
          "type": "uint256"
        }
      ],
      "stateMutability": "view",
      "type": "function"
    },
    {
      "inputs": [
        {
          "internalType": "address",
          "name": "newOwner",
          "type": "address"
        }
      ],
      "name": "transferOwnership",
      "outputs": [],
      "stateMutability": "nonpayable",
      "type": "function"
    },
    {
      "inputs": [
        {
          "internalType": "address",
          "name": "collector",
          "type": "address"
        }
      ],
      "name": "unavailableToWithdraw",
      "outputs": [
        {
          "internalType": "uint256",
          "name": "",
          "type": "uint256"
        }
      ],
      "stateMutability": "view",
      "type": "function"
    },
    {
      "inputs": [
        {
          "internalType": "address",
          "name": "collector",
          "type": "address"
        }
      ],
      "name": "unavailableToWithdrawWithFee",
      "outputs": [
        {
          "internalType": "uint256",
          "name": "",
          "type": "uint256"
        }
      ],
      "stateMutability": "view",
      "type": "function"
    },
    {
      "inputs": [],
      "name": "unlock",
      "outputs": [],
      "stateMutability": "nonpayable",
      "type": "function"
    },
    {
      "inputs": [],
      "name": "unlockDayMax",
      "outputs": [
        {
          "internalType": "uint256",
          "name": "",
          "type": "uint256"
        }
      ],
      "stateMutability": "view",
      "type": "function"
    },
    {
      "inputs": [],
      "name": "unlockDayMin",
      "outputs": [
        {
          "internalType": "uint256",
          "name": "",
          "type": "uint256"
        }
      ],
      "stateMutability": "view",
      "type": "function"
    },
    {
      "inputs": [
        {
          "internalType": "uint256",
          "name": "amount",
          "type": "uint256"
        }
      ],
      "name": "withdraw",
      "outputs": [],
      "stateMutability": "nonpayable",
      "type": "function"
    },
    {
      "inputs": [],
      "name": "withdrawFee",
      "outputs": [
        {
          "internalType": "uint256",
          "name": "",
          "type": "uint256"
        }
      ],
      "stateMutability": "view",
      "type": "function"
    },
    {
      "inputs": [
        {
          "internalType": "uint256",
          "name": "amount",
          "type": "uint256"
        }
      ],
      "name": "withdrawIgnoreLosses",
      "outputs": [],
      "stateMutability": "nonpayable",
      "type": "function"
    },
    {
      "inputs": [
        {
          "internalType": "address",
          "name": "behalfOf",
          "type": "address"
        },
        {
          "internalType": "uint256",
          "name": "amount",
          "type": "uint256"
        }
      ],
      "name": "withdrawIgnoreLossesOnBehalfOf",
      "outputs": [],
      "stateMutability": "nonpayable",
      "type": "function"
    },
    {
      "inputs": [],
      "name": "withdrawInitialMinusFee",
      "outputs": [],
      "stateMutability": "nonpayable",
      "type": "function"
    },
    {
      "inputs": [
        {
          "internalType": "address",
          "name": "behalfOf",
          "type": "address"
        }
      ],
      "name": "withdrawInitialMinusFeeOnBehalfOf",
      "outputs": [],
      "stateMutability": "nonpayable",
      "type": "function"
    },
    {
      "inputs": [
        {
          "internalType": "address",
          "name": "behalfOf",
          "type": "address"
        },
        {
          "internalType": "uint256",
          "name": "amount",
          "type": "uint256"
        }
      ],
      "name": "withdrawOnBehalfOf",
      "outputs": [],
      "stateMutability": "nonpayable",
      "type": "function"
    }
  ],
  "bytecode": "0x608060405234801561001057600080fd5b50604051620022f2380380620022f2833981016040819052610031916100b1565b600080546001600160a01b031916339081178255604051909182917f8be0079c531659141344cd1fd0a4f28419497f9722a3daafe3b4186f6b6457e0908290a360a560065560016007556005600855600e80546001600160a01b039384166001600160a01b031991821617909155600f80549290931691161790556100e1565b6000602082840312156100c357600080fd5b81516001600160a01b03811681146100da57600080fd5b9392505050565b61220180620000f16000396000f3fe608060405234801561001057600080fd5b506004361061027e5760003560e01c80637c5b4a371161015c578063cf4b55cb116100ce578063e522538111610087578063e5225381146105a0578063e941fa78146105a8578063f25f4b56146105b1578063f2fde38b146105c4578063feccd323146105d7578063ff50abdc146105e057600080fd5b8063cf4b55cb146104fe578063d1ad6bbb14610529578063d5ea22e81461053c578063dd4670641461054f578063dd62ed3e14610562578063e2618f5c1461058d57600080fd5b8063a69df4b511610120578063a69df4b5146104ac578063affed0e0146104b4578063b6b55f25146104bd578063b7990a4e146104d0578063bfb8c52d146104e3578063cc1a57e7146104f657600080fd5b80637c5b4a371461044d5780638da5cb5b14610460578063a25db8ce14610471578063a4312f1814610484578063a4e2d634146104a457600080fd5b80635019f900116101f557806363c766e8116101b957806363c766e8146103f157806366a1ac26146104045780636b211aca1461041757806370c105781461042a578063715018a61461043257806372329ae91461043a57600080fd5b80635019f900146103b85780635c2839df146103c15780635c79d2d1146103c95780635dd250aa146103d2578063602bc62b146103e957600080fd5b80632cd4e7d2116102475780632cd4e7d21461030a5780632e1a7d4d1461031d57806337ded1701461033057806338d52e0f146103435780633ca4d9f41461036e578063465469781461038157600080fd5b80625a58b114610283578063086877941461029f578063095ea7b3146102b457806314214025146102d75780631877bb5c146102ea575b600080fd5b61028c60085481565b6040519081526020015b60405180910390f35b6102b26102ad366004611e68565b6105e9565b005b6102c76102c2366004611e9d565b6107c8565b6040519015158152602001610296565b61028c6102e5366004611ec7565b6107de565b61028c6102f8366004611ec7565b600b6020526000908152604090205481565b61028c610318366004611ec7565b610806565b6102b261032b366004611e68565b610889565b6102b261033e366004611ec7565b610896565b600e54610356906001600160a01b031681565b6040516001600160a01b039091168152602001610296565b6102b261037c366004611e9d565b6108f5565b61028c61038f366004611ec7565b6009546000908152600c602090815260408083206001600160a01b039094168352929052205490565b61028c60055481565b6102b2610a78565b61028c60045481565b6009546000908152600a602052604090205461028c565b60025461028c565b6102b26103ff366004611e68565b610a83565b61028c610412366004611ec7565b610a8d565b6102b2610425366004611ec7565b610bba565b6102b2610c06565b6102b2610c0f565b6102b2610448366004611e9d565b610c71565b6102b261045b366004611e68565b611258565b6000546001600160a01b0316610356565b61028c61047f366004611ec7565b61142f565b61028c610492366004611e68565b600a6020526000908152604090205481565b6102c7611487565b6102b26114ac565b61028c60095481565b6102b26104cb366004611e68565b6115b2565b6102b26104de366004611ee2565b6115bc565b6102b26104f1366004611ec7565b611748565b61028c611861565b61028c61050c366004611f0e565b600c60209081526000928352604080842090915290825290205481565b6102b2610537366004611e9d565b6118fd565b61028c61054a366004611ec7565b611924565b6102b261055d366004611e68565b611970565b61028c610570366004611f3a565b600d60209081526000928352604080842090915290825290205481565b6102b261059b366004611ec7565b6119f5565b6102b2611a02565b61028c60065481565b600f54610356906001600160a01b031681565b6102b26105d2366004611ec7565b611a0b565b61028c60075481565b61028c60035481565b6000546001600160a01b0316331461061c5760405162461bcd60e51b815260040161061390611f64565b60405180910390fd5b610624611487565b6106705760405162461bcd60e51b815260206004820181905260248201527f43616e206f6e6c79206d6f76652066756e6473207768656e206c6f636b65642e6044820152606401610613565b60008061067c42611ae3565b50915091508160055414158061069457508060045414155b156106f5576005829055600481905560098054600191906000906106b9908490611faf565b90915550506009546040519081527f6f7839fd5911baac2dbc722962a0d38f7d09c5519b195dbf03e4cc27f890efc39060200160405180910390a15b6009546040805191825233602083015281018490527fdc4c93400ef75e0372536dbbd59f526428ac9b64f683c3178a1398e1f99266799060600160405180910390a1600e546040516323b872dd60e01b8152336004820152306024820152604481018590526001600160a01b03909116906323b872dd906064015b602060405180830381600087803b15801561078a57600080fd5b505af115801561079e573d6000803e3d6000fd5b505050506040513d601f19601f820116820180604052508101906107c29190611fc7565b50505050565b60006107d5338484611b09565b50600192915050565b6000806107e9611487565b156107fc576107f783610a8d565b6107ff565b60005b9392505050565b6009546000908152600c602090815260408083206001600160a01b038516845290915281205481610835611487565b6108475761084284610a8d565b61084a565b60005b905060006127106006548361085f9190611fe9565b610869919061201e565b9050806108768385611faf565b6108809190612032565b95945050505050565b6108933382610c71565b50565b60006108a18261142f565b6001600160a01b0383166000908152600b60205260409020549091508111156108ec576001600160a01b0382166000908152600b60205260409020546108e8908390610c71565b5050565b6108e8826119f5565b80600360008282546109079190611faf565b90915550506001600160a01b0382166000908152600b602052604081208054839290610934908490611faf565b90915550506009546000908152600a60205260408120805483929061095a908490611faf565b90915550506009546000908152600c602090815260408083206001600160a01b038616845290915281208054839290610994908490611faf565b9091555050600954604080519182526001600160a01b0384166020830152338282015260608201839052517f2c0f148b435140de488c1b34647f1511c646f7077e87007bacf22ef9977a16d89181900360800190a1600e546040516323b872dd60e01b8152336004820152306024820152604481018390526001600160a01b03909116906323b872dd90606401602060405180830381600087803b158015610a3b57600080fd5b505af1158015610a4f573d6000803e3d6000fd5b505050506040513d601f19601f82011682018060405250810190610a739190611fc7565b505050565b610a8133610896565b565b61089333826118fd565b6009546000908152600a60205260408120546003541415610ab057506000919050565b6009546000908152600a6020526040902054600354610acf9190612032565b6009546000908152600c602090815260408083206001600160a01b0387168452825280832054600b90925290912054610b089190612032565b6009546000908152600a60205260409081902054600e5491516370a0823160e01b815230600482015290916001600160a01b0316906370a082319060240160206040518083038186803b158015610b5e57600080fd5b505afa158015610b72573d6000803e3d6000fd5b505050506040513d601f19601f82011682018060405250810190610b969190612049565b610ba09190612032565b610baa9190611fe9565b610bb4919061201e565b92915050565b6000546001600160a01b03163314610be45760405162461bcd60e51b815260040161061390611f64565b600f80546001600160a01b0319166001600160a01b0392909216919091179055565b610a8133611748565b6000546001600160a01b03163314610c395760405162461bcd60e51b815260040161061390611f64565b600080546040516001600160a01b03909116906000805160206121ac833981519152908390a3600080546001600160a01b0319169055565b336001600160a01b038316811480610cad57506001600160a01b038084166000908152600d602090815260408083209385168352929052205415155b610ceb5760405162461bcd60e51b815260206004820152600f60248201526e2737ba1030baba3437b934bd32b21760891b6044820152606401610613565b60008211610d305760405162461bcd60e51b81526020600482015260126024820152710416d6f756e74206d757374206265203e20360741b6044820152606401610613565b6000610d3a611487565b6009546000908152600c602090815260408083206001600160a01b038916845290915281205491925082610d7657610d7186610a8d565b610d79565b60005b90506000610d878284611faf565b9050600081118015610d995750808611155b610de55760405162461bcd60e51b815260206004820152601b60248201527f496e73756666696369656e7420746f74616c2062616c616e63652e00000000006044820152606401610613565b6000838711610df45786610df6565b835b90506000610e048289612032565b905087610e118284611faf565b14610e1e57610e1e612062565b8115610f70576009546000908152600a602052604081208054849290610e45908490612032565b90915550506009546000908152600c602090815260408083206001600160a01b038d16845290915281208054849290610e7f908490612032565b925050819055508160036000828254610e989190612032565b90915550506001600160a01b0389166000908152600b602052604081208054849290610ec5908490612032565b90915550506001600160a01b0389811690881614610ee857610ee8898884611c4a565b600e5460405163a9059cbb60e01b81526001600160a01b038b81166004830152602482018590529091169063a9059cbb90604401602060405180830381600087803b158015610f3657600080fd5b505af1158015610f4a573d6000803e3d6000fd5b505050506040513d601f19601f82011682018060405250810190610f6e9190611fc7565b505b80156111f3576001600160a01b0389166000908152600b60205260409020546003548591610f9d91612032565b610fa79190611faf565b60039081556001600160a01b038a166000908152600b60205260408120869055815483929190610fd8908490612032565b90915550506001600160a01b0389166000908152600b602052604081208054839290611005908490612032565b90915550506006546000906127109061101e9084611fe9565b611028919061201e565b905080156110d557600e546001600160a01b031663a9059cbb6110536000546001600160a01b031690565b6040516001600160e01b031960e084901b1681526001600160a01b03909116600482015260248101849052604401602060405180830381600087803b15801561109b57600080fd5b505af11580156110af573d6000803e3d6000fd5b505050506040513d601f19601f820116820180604052508101906110d39190611fc7565b505b876001600160a01b03168a6001600160a01b0316146110f9576110f98a8984611c4a565b600e546001600160a01b031663a9059cbb8b6111158486612032565b6040516001600160e01b031960e085901b1681526001600160a01b0390921660048301526024820152604401602060405180830381600087803b15801561115b57600080fd5b505af115801561116f573d6000803e3d6000fd5b505050506040513d601f19601f820116820180604052508101906111939190611fc7565b50600954604080519182526001600160a01b038c811660208401528a1682820152606082018b905260808201839052517ffe7813e2866053d5c3938554e517b554fce6666a6561bed9eaa7419b29fa9b689181900360a00190a15061124d565b600954604080519182526001600160a01b038b81166020840152891682820152606082018a905260006080830152517ffe7813e2866053d5c3938554e517b554fce6666a6561bed9eaa7419b29fa9b689181900360a00190a15b505050505050505050565b6000546001600160a01b031633146112825760405162461bcd60e51b815260040161061390611f64565b61128a611487565b6112d65760405162461bcd60e51b815260206004820181905260248201527f43616e206f6e6c79206d6f76652066756e6473207768656e206c6f636b65642e6044820152606401610613565b6000806112e242611ae3565b5091509150816005541415806112fa57508060045414155b1561135f5760058290556004819055600980546001919060009061131f908490611faf565b90915550506009546040519081527f6f7839fd5911baac2dbc722962a0d38f7d09c5519b195dbf03e4cc27f890efc39060200160405180910390a16113b6565b611367611861565b8311156113b65760405162461bcd60e51b815260206004820152601b60248201527f4e6f7420656e6f7567682066756e647320617661696c61626c652e00000000006044820152606401610613565b6009546040805191825233602083015281018490527f3283abdb05cff705bd4faab57c532a3d4bfe5c83685e9c69e83d459bb88fb0739060600160405180910390a1600e5460405163a9059cbb60e01b8152336004820152602481018590526001600160a01b039091169063a9059cbb90604401610770565b6009546000908152600c602090815260408083206001600160a01b03851684529091528120548161145e611487565b6114705761146b84610a8d565b611473565b60005b905061147f8183611faf565b949350505050565b60008061149342611ce2565b90506007548110806114a6575060085481115b91505090565b6001546001600160a01b031633146115125760405162461bcd60e51b815260206004820152602360248201527f596f7520646f6e27742068617665207065726d697373696f6e20746f20756e6c6044820152626f636b60e81b6064820152608401610613565b60025442116115635760405162461bcd60e51b815260206004820152601f60248201527f436f6e7472616374206973206c6f636b656420756e74696c20372064617973006044820152606401610613565b600154600080546040516001600160a01b0393841693909116916000805160206121ac83398151915291a3600154600080546001600160a01b0319166001600160a01b03909216919091179055565b61089333826108f5565b6000546001600160a01b031633146115e65760405162461bcd60e51b815260040161061390611f64565b6102588311156116505760405162461bcd60e51b815260206004820152602f60248201527f576974686472617720666565206d757374206265206c6f776572206f7220657160448201526e3ab0b6103a37903a3430b7101b129760891b6064820152608401610613565b818110156116bc5760405162461bcd60e51b815260206004820152603360248201527f556e6c6f636b20646179206d6178206d757374206265206772656174657220746044820152723430b7103ab73637b1b5903230bc9036b4b71760691b6064820152608401610613565b6001600754101580156116d25750601c60085411155b61173a5760405162461bcd60e51b815260206004820152603360248201527f556e6c6f636b2074696d65206d75737420626520617420612074696d6520746860448201527230ba1030b6361036b7b73a3439903430bb329760691b6064820152608401610613565b600692909255600755600855565b611750611487565b1561179d5760405162461bcd60e51b815260206004820152601d60248201527f43616e6e6f742074616b652070726f666974206966206c6f636b65642e0000006044820152606401610613565b60006117a882610a8d565b6001600160a01b0383166000908152600b602052604090205490915081116118385760405162461bcd60e51b815260206004820152603760248201527f43616e27742074616b652070726f666974206f6e206c6f737365732f64656c7460448201527f61206e65757472616c2f70656e64696e67206f6e6c792e0000000000000000006064820152608401610613565b6001600160a01b0382166000908152600b60205260409020546108e89083906104489084612032565b6009546000908152600a602052604080822054600e5491516370a0823160e01b815230600482015290916001600160a01b0316906370a082319060240160206040518083038186803b1580156118b657600080fd5b505afa1580156118ca573d6000803e3d6000fd5b505050506040513d601f19601f820116820180604052508101906118ee9190612049565b6118f89190612032565b905090565b60006119088361142f565b905080821061191a57610a73836119f5565b610a738383610c71565b60008061192f611487565b156119425761193d83610a8d565b611945565b60005b905060006127106006548361195a9190611fe9565b611964919061201e565b905061147f8183612032565b6000546001600160a01b0316331461199a5760405162461bcd60e51b815260040161061390611f64565b60008054600180546001600160a01b03199081166001600160a01b038416179091551690556119c98142611faf565b600255600080546040516001600160a01b03909116906000805160206121ac833981519152908390a350565b610893816104488361142f565b610a81336119f5565b6000546001600160a01b03163314611a355760405162461bcd60e51b815260040161061390611f64565b6001600160a01b038116611a9a5760405162461bcd60e51b815260206004820152602660248201527f4f776e61626c653a206e6577206f776e657220697320746865207a65726f206160448201526564647265737360d01b6064820152608401610613565b600080546040516001600160a01b03808516939216916000805160206121ac83398151915291a3600080546001600160a01b0319166001600160a01b0392909216919091179055565b60008080611afc611af7620151808661201e565b611cf4565b9196909550909350915050565b6001600160a01b038316611b735760405162461bcd60e51b815260206004820152602b60248201527f54657472616457616c6c65743a20617070726f76652066726f6d20746865207a60448201526a65726f206164647265737360a81b6064820152608401610613565b6001600160a01b038216611bdb5760405162461bcd60e51b815260206004820152602960248201527f54657472616457616c6c65743a20617070726f766520746f20746865207a65726044820152686f206164647265737360b81b6064820152608401610613565b6001600160a01b038381166000818152600d602090815260408083209487168084529482529182902085905581519283528201929092529081018290527f8c5be1e5ebec7d5bd14f71427d1e84f3dd0314c0f7b2291e5b200ac8c7c3b9259060600160405180910390a1505050565b6001600160a01b038084166000908152600d602090815260408083209386168352929052205460001981146107c25781811015611cd55760405162461bcd60e51b8152602060048201526024808201527f54657472616457616c6c65743a20696e73756666696369656e7420616c6c6f77604482015263616e636560e01b6064820152608401610613565b6107c28484848403611b09565b600061147f611af7620151808461201e565b60008080838162253d8c611d0b8362010bd9612078565b611d159190612078565b9050600062023ab1611d288360046120b9565b611d32919061213e565b90506004611d438262023ab16120b9565b611d4e906003612078565b611d58919061213e565b611d62908361216c565b9150600062164b09611d75846001612078565b611d8190610fa06120b9565b611d8b919061213e565b90506004611d9b826105b56120b9565b611da5919061213e565b611daf908461216c565b611dba90601f612078565b9250600061098f611dcc8560506120b9565b611dd6919061213e565b905060006050611de88361098f6120b9565b611df2919061213e565b611dfc908661216c565b9050611e09600b8361213e565b9450611e1685600c6120b9565b611e21836002612078565b611e2b919061216c565b91508483611e3a60318761216c565b611e459060646120b9565b611e4f9190612078565b611e599190612078565b9a919950975095505050505050565b600060208284031215611e7a57600080fd5b5035919050565b80356001600160a01b0381168114611e9857600080fd5b919050565b60008060408385031215611eb057600080fd5b611eb983611e81565b946020939093013593505050565b600060208284031215611ed957600080fd5b6107ff82611e81565b600080600060608486031215611ef757600080fd5b505081359360208301359350604090920135919050565b60008060408385031215611f2157600080fd5b82359150611f3160208401611e81565b90509250929050565b60008060408385031215611f4d57600080fd5b611f5683611e81565b9150611f3160208401611e81565b6020808252818101527f4f776e61626c653a2063616c6c6572206973206e6f7420746865206f776e6572604082015260600190565b634e487b7160e01b600052601160045260246000fd5b60008219821115611fc257611fc2611f99565b500190565b600060208284031215611fd957600080fd5b815180151581146107ff57600080fd5b600081600019048311821515161561200357612003611f99565b500290565b634e487b7160e01b600052601260045260246000fd5b60008261202d5761202d612008565b500490565b60008282101561204457612044611f99565b500390565b60006020828403121561205b57600080fd5b5051919050565b634e487b7160e01b600052600160045260246000fd5b600080821280156001600160ff1b038490038513161561209a5761209a611f99565b600160ff1b83900384128116156120b3576120b3611f99565b50500190565b60006001600160ff1b03818413828413808216868404861116156120df576120df611f99565b600160ff1b60008712828116878305891216156120fe576120fe611f99565b6000871292508782058712848416161561211a5761211a611f99565b8785058712818416161561213057612130611f99565b505050929093029392505050565b60008261214d5761214d612008565b600160ff1b82146000198414161561216757612167611f99565b500590565b60008083128015600160ff1b85018412161561218a5761218a611f99565b6001600160ff1b03840183138116156121a5576121a5611f99565b5050039056fe8be0079c531659141344cd1fd0a4f28419497f9722a3daafe3b4186f6b6457e0a26469706673582212205d0126ed3f07808120745384f242dd5607467b2fc4bd8b314a249ed44e20593864736f6c63430008090033",
  "linkReferences": {},
  "deployedLinkReferences": {}
}