{
  "_format": "hh-sol-artifact-1",
  "contractName": "DummyToken",
  "sourceName": "contracts/DummyToken.sol",
  "abi": [
    {
      "inputs": [],
      "stateMutability": "nonpayable",
      "type": "constructor"
    },
    {
      "anonymous": false,
      "inputs": [
        {
          "indexed": true,
          "internalType": "address",
          "name": "owner",
          "type": "address"
        },
        {
          "indexed": true,
          "internalType": "address",
          "name": "spender",
          "type": "address"
        },
        {
          "indexed": false,
          "internalType": "uint256",
          "name": "value",
          "type": "uint256"
        }
      ],
      "name": "Approval",
      "type": "event"
    },
    {
      "anonymous": false,
      "inputs": [
        {
          "indexed": true,
          "internalType": "address",
          "name": "previousOwner",
          "type": "address"
        },
        {
          "indexed": true,
          "internalType": "address",
          "name": "newOwner",
          "type": "address"
        }
      ],
      "name": "OwnershipTransferred",
      "type": "event"
    },
    {
      "anonymous": false,
      "inputs": [
        {
          "indexed": true,
          "internalType": "address",
          "name": "from",
          "type": "address"
        },
        {
          "indexed": true,
          "internalType": "address",
          "name": "to",
          "type": "address"
        },
        {
          "indexed": false,
          "internalType": "uint256",
          "name": "value",
          "type": "uint256"
        }
      ],
      "name": "Transfer",
      "type": "event"
    },
    {
      "inputs": [
        {
          "internalType": "address",
          "name": "owner",
          "type": "address"
        },
        {
          "internalType": "address",
          "name": "spender",
          "type": "address"
        }
      ],
      "name": "allowance",
      "outputs": [
        {
          "internalType": "uint256",
          "name": "",
          "type": "uint256"
        }
      ],
      "stateMutability": "view",
      "type": "function"
    },
    {
      "inputs": [
        {
          "internalType": "address",
          "name": "spender",
          "type": "address"
        },
        {
          "internalType": "uint256",
          "name": "amount",
          "type": "uint256"
        }
      ],
      "name": "approve",
      "outputs": [
        {
          "internalType": "bool",
          "name": "",
          "type": "bool"
        }
      ],
      "stateMutability": "nonpayable",
      "type": "function"
    },
    {
      "inputs": [
        {
          "internalType": "address",
          "name": "account",
          "type": "address"
        }
      ],
      "name": "balanceOf",
      "outputs": [
        {
          "internalType": "uint256",
          "name": "",
          "type": "uint256"
        }
      ],
      "stateMutability": "view",
      "type": "function"
    },
    {
      "inputs": [
        {
          "internalType": "uint256",
          "name": "amount",
          "type": "uint256"
        }
      ],
      "name": "burn",
      "outputs": [],
      "stateMutability": "nonpayable",
      "type": "function"
    },
    {
      "inputs": [
        {
          "internalType": "address",
          "name": "account",
          "type": "address"
        },
        {
          "internalType": "uint256",
          "name": "amount",
          "type": "uint256"
        }
      ],
      "name": "burnFrom",
      "outputs": [],
      "stateMutability": "nonpayable",
      "type": "function"
    },
    {
      "inputs": [],
      "name": "decimals",
      "outputs": [
        {
          "internalType": "uint8",
          "name": "",
          "type": "uint8"
        }
      ],
      "stateMutability": "view",
      "type": "function"
    },
    {
      "inputs": [
        {
          "internalType": "address",
          "name": "spender",
          "type": "address"
        },
        {
          "internalType": "uint256",
          "name": "subtractedValue",
          "type": "uint256"
        }
      ],
      "name": "decreaseAllowance",
      "outputs": [
        {
          "internalType": "bool",
          "name": "",
          "type": "bool"
        }
      ],
      "stateMutability": "nonpayable",
      "type": "function"
    },
    {
      "inputs": [
        {
          "internalType": "address",
          "name": "spender",
          "type": "address"
        },
        {
          "internalType": "uint256",
          "name": "addedValue",
          "type": "uint256"
        }
      ],
      "name": "increaseAllowance",
      "outputs": [
        {
          "internalType": "bool",
          "name": "",
          "type": "bool"
        }
      ],
      "stateMutability": "nonpayable",
      "type": "function"
    },
    {
      "inputs": [
        {
          "internalType": "address",
          "name": "recipient_",
          "type": "address"
        },
        {
          "internalType": "uint256",
          "name": "amount_",
          "type": "uint256"
        }
      ],
      "name": "mint",
      "outputs": [
        {
          "internalType": "bool",
          "name": "",
          "type": "bool"
        }
      ],
      "stateMutability": "nonpayable",
      "type": "function"
    },
    {
      "inputs": [],
      "name": "name",
      "outputs": [
        {
          "internalType": "string",
          "name": "",
          "type": "string"
        }
      ],
      "stateMutability": "view",
      "type": "function"
    },
    {
      "inputs": [],
      "name": "owner",
      "outputs": [
        {
          "internalType": "address",
          "name": "",
          "type": "address"
        }
      ],
      "stateMutability": "view",
      "type": "function"
    },
    {
      "inputs": [],
      "name": "renounceOwnership",
      "outputs": [],
      "stateMutability": "nonpayable",
      "type": "function"
    },
    {
      "inputs": [],
      "name": "symbol",
      "outputs": [
        {
          "internalType": "string",
          "name": "",
          "type": "string"
        }
      ],
      "stateMutability": "view",
      "type": "function"
    },
    {
      "inputs": [],
      "name": "totalSupply",
      "outputs": [
        {
          "internalType": "uint256",
          "name": "",
          "type": "uint256"
        }
      ],
      "stateMutability": "view",
      "type": "function"
    },
    {
      "inputs": [
        {
          "internalType": "address",
          "name": "recipient",
          "type": "address"
        },
        {
          "internalType": "uint256",
          "name": "amount",
          "type": "uint256"
        }
      ],
      "name": "transfer",
      "outputs": [
        {
          "internalType": "bool",
          "name": "",
          "type": "bool"
        }
      ],
      "stateMutability": "nonpayable",
      "type": "function"
    },
    {
      "inputs": [
        {
          "internalType": "address",
          "name": "sender",
          "type": "address"
        },
        {
          "internalType": "address",
          "name": "recipient",
          "type": "address"
        },
        {
          "internalType": "uint256",
          "name": "amount",
          "type": "uint256"
        }
      ],
      "name": "transferFrom",
      "outputs": [
        {
          "internalType": "bool",
          "name": "",
          "type": "bool"
        }
      ],
      "stateMutability": "nonpayable",
      "type": "function"
    },
    {
      "inputs": [
        {
          "internalType": "address",
          "name": "newOwner",
          "type": "address"
        }
      ],
      "name": "transferOwnership",
      "outputs": [],
      "stateMutability": "nonpayable",
      "type": "function"
    }
  ],
  "bytecode": "0x60806040523480156200001157600080fd5b50604080518082018252600a815269223ab6b6bcaa37b5b2b760b11b60208083019182528351808501909452600584526444554d4d5960d81b90840152815191929162000061916003916200027f565b508051620000779060049060208401906200027f565b50506005805460ff191660121790555060006200009362000105565b60058054610100600160a81b0319166101006001600160a01b03841690810291909117909155604051919250906000907f8be0079c531659141344cd1fd0a4f28419497f9722a3daafe3b4186f6b6457e0908290a350620000ff3369d3c21bcecceda100000062000109565b6200031b565b3390565b6001600160a01b03821662000165576040805162461bcd60e51b815260206004820152601f60248201527f45524332303a206d696e7420746f20746865207a65726f206164647265737300604482015290519081900360640190fd5b620001736000838362000218565b6200018f816002546200021d60201b6200098a1790919060201c565b6002556001600160a01b03821660009081526020818152604090912054620001c29183906200098a6200021d821b17901c565b6001600160a01b0383166000818152602081815260408083209490945583518581529351929391927fddf252ad1be2c89b69c2b068fc378daa952ba7f163c4a11628f55a4df523b3ef9281900390910190a35050565b505050565b60008282018381101562000278576040805162461bcd60e51b815260206004820152601b60248201527f536166654d6174683a206164646974696f6e206f766572666c6f770000000000604482015290519081900360640190fd5b9392505050565b828054600181600116156101000203166002900490600052602060002090601f016020900481019282601f10620002c257805160ff1916838001178555620002f2565b82800160010185558215620002f2579182015b82811115620002f2578251825591602001919060010190620002d5565b506200030092915062000304565b5090565b5b8082111562000300576000815560010162000305565b611161806200032b6000396000f3fe608060405234801561001057600080fd5b506004361061010b5760003560e01c806370a08231116100a257806395d89b411161007157806395d89b4114610330578063a457c2d714610338578063a9059cbb14610364578063dd62ed3e14610390578063f2fde38b146103be5761010b565b806370a08231146102b2578063715018a6146102d857806379cc6790146102e05780638da5cb5b1461030c5761010b565b8063313ce567116100de578063313ce5671461021d578063395093511461023b57806340c10f191461026757806342966c68146102935761010b565b806306fdde0314610110578063095ea7b31461018d57806318160ddd146101cd57806323b872dd146101e7575b600080fd5b6101186103e4565b6040805160208082528351818301528351919283929083019185019080838360005b8381101561015257818101518382015260200161013a565b50505050905090810190601f16801561017f5780820380516001836020036101000a031916815260200191505b509250505060405180910390f35b6101b9600480360360408110156101a357600080fd5b506001600160a01b03813516906020013561047a565b604080519115158252519081900360200190f35b6101d5610497565b60408051918252519081900360200190f35b6101b9600480360360608110156101fd57600080fd5b506001600160a01b0381358116916020810135909116906040013561049d565b610225610524565b6040805160ff9092168252519081900360200190f35b6101b96004803603604081101561025157600080fd5b506001600160a01b03813516906020013561052d565b6101b96004803603604081101561027d57600080fd5b506001600160a01b03813516906020013561057b565b6102b0600480360360208110156102a957600080fd5b5035610617565b005b6101d5600480360360208110156102c857600080fd5b50356001600160a01b0316610623565b6102b061063e565b6102b0600480360360408110156102f657600080fd5b506001600160a01b0381351690602001356106f0565b610314610760565b604080516001600160a01b039092168252519081900360200190f35b610118610774565b6101b96004803603604081101561034e57600080fd5b506001600160a01b0381351690602001356107d5565b6101b96004803603604081101561037a57600080fd5b506001600160a01b03813516906020013561083d565b6101d5600480360360408110156103a657600080fd5b506001600160a01b0381358116916020013516610851565b6102b0600480360360208110156103d457600080fd5b50356001600160a01b031661087c565b60038054604080516020601f60026000196101006001881615020190951694909404938401819004810282018101909252828152606093909290918301828280156104705780601f1061044557610100808354040283529160200191610470565b820191906000526020600020905b81548152906001019060200180831161045357829003601f168201915b5050505050905090565b600061048e6104876109eb565b84846109ef565b50600192915050565b60025490565b60006104aa848484610adb565b61051a846104b66109eb565b61051585604051806060016040528060288152602001611031602891396001600160a01b038a166000908152600160205260408120906104f46109eb565b6001600160a01b031681526020810191909152604001600020549190610c36565b6109ef565b5060019392505050565b60055460ff1690565b600061048e61053a6109eb565b84610515856001600061054b6109eb565b6001600160a01b03908116825260208083019390935260409182016000908120918c16815292529020549061098a565b60006105856109eb565b6001600160a01b0316610596610760565b6001600160a01b0316146105df576040805162461bcd60e51b81526020600482018190526024820152600080516020611059833981519152604482015290519081900360640190fd5b60006105ea84610623565b90506105f68484610ccd565b6106008484610dbd565b600061060b85610623565b91909111949350505050565b61062081610e17565b50565b6001600160a01b031660009081526020819052604090205490565b6106466109eb565b6001600160a01b0316610657610760565b6001600160a01b0316146106a0576040805162461bcd60e51b81526020600482018190526024820152600080516020611059833981519152604482015290519081900360640190fd5b60055460405160009161010090046001600160a01b0316907f8be0079c531659141344cd1fd0a4f28419497f9722a3daafe3b4186f6b6457e0908390a360058054610100600160a81b0319169055565b6106f86109eb565b6001600160a01b0316610709610760565b6001600160a01b031614610752576040805162461bcd60e51b81526020600482018190526024820152600080516020611059833981519152604482015290519081900360640190fd5b61075c8282610dbd565b5050565b60055461010090046001600160a01b031690565b60048054604080516020601f60026000196101006001881615020190951694909404938401819004810282018101909252828152606093909290918301828280156104705780601f1061044557610100808354040283529160200191610470565b600061048e6107e26109eb565b8461051585604051806060016040528060258152602001611107602591396001600061080c6109eb565b6001600160a01b03908116825260208083019390935260409182016000908120918d16815292529020549190610c36565b600061048e61084a6109eb565b8484610adb565b6001600160a01b03918216600090815260016020908152604080832093909416825291909152205490565b6108846109eb565b6001600160a01b0316610895610760565b6001600160a01b0316146108de576040805162461bcd60e51b81526020600482018190526024820152600080516020611059833981519152604482015290519081900360640190fd5b6001600160a01b0381166109235760405162461bcd60e51b8152600401808060200182810382526026815260200180610fc36026913960400191505060405180910390fd5b6005546040516001600160a01b0380841692610100900416907f8be0079c531659141344cd1fd0a4f28419497f9722a3daafe3b4186f6b6457e090600090a3600580546001600160a01b0390921661010002610100600160a81b0319909216919091179055565b6000828201838110156109e4576040805162461bcd60e51b815260206004820152601b60248201527f536166654d6174683a206164646974696f6e206f766572666c6f770000000000604482015290519081900360640190fd5b9392505050565b3390565b6001600160a01b038316610a345760405162461bcd60e51b81526004018080602001828103825260248152602001806110e36024913960400191505060405180910390fd5b6001600160a01b038216610a795760405162461bcd60e51b8152600401808060200182810382526022815260200180610fe96022913960400191505060405180910390fd5b6001600160a01b03808416600081815260016020908152604080832094871680845294825291829020859055815185815291517f8c5be1e5ebec7d5bd14f71427d1e84f3dd0314c0f7b2291e5b200ac8c7c3b9259281900390910190a3505050565b6001600160a01b038316610b205760405162461bcd60e51b81526004018080602001828103825260258152602001806110be6025913960400191505060405180910390fd5b6001600160a01b038216610b655760405162461bcd60e51b8152600401808060200182810382526023815260200180610f7e6023913960400191505060405180910390fd5b610b70838383610e12565b610bad8160405180606001604052806026815260200161100b602691396001600160a01b0386166000908152602081905260409020549190610c36565b6001600160a01b038085166000908152602081905260408082209390935590841681522054610bdc908261098a565b6001600160a01b038084166000818152602081815260409182902094909455805185815290519193928716927fddf252ad1be2c89b69c2b068fc378daa952ba7f163c4a11628f55a4df523b3ef92918290030190a3505050565b60008184841115610cc55760405162461bcd60e51b81526004018080602001828103825283818151815260200191508051906020019080838360005b83811015610c8a578181015183820152602001610c72565b50505050905090810190601f168015610cb75780820380516001836020036101000a031916815260200191505b509250505060405180910390fd5b505050900390565b6001600160a01b038216610d28576040805162461bcd60e51b815260206004820152601f60248201527f45524332303a206d696e7420746f20746865207a65726f206164647265737300604482015290519081900360640190fd5b610d3460008383610e12565b600254610d41908261098a565b6002556001600160a01b038216600090815260208190526040902054610d67908261098a565b6001600160a01b0383166000818152602081815260408083209490945583518581529351929391927fddf252ad1be2c89b69c2b068fc378daa952ba7f163c4a11628f55a4df523b3ef9281900390910190a35050565b6000610df48260405180606001604052806024815260200161107960249139610ded86610de86109eb565b610851565b9190610c36565b9050610e0883610e026109eb565b836109ef565b610e128383610e24565b505050565b610620610e226109eb565b825b6001600160a01b038216610e695760405162461bcd60e51b815260040180806020018281038252602181526020018061109d6021913960400191505060405180910390fd5b610e7582600083610e12565b610eb281604051806060016040528060228152602001610fa1602291396001600160a01b0385166000908152602081905260409020549190610c36565b6001600160a01b038316600090815260208190526040902055600254610ed89082610f20565b6002556040805182815290516000916001600160a01b038516917fddf252ad1be2c89b69c2b068fc378daa952ba7f163c4a11628f55a4df523b3ef9181900360200190a35050565b600082821115610f77576040805162461bcd60e51b815260206004820152601e60248201527f536166654d6174683a207375627472616374696f6e206f766572666c6f770000604482015290519081900360640190fd5b5090039056fe45524332303a207472616e7366657220746f20746865207a65726f206164647265737345524332303a206275726e20616d6f756e7420657863656564732062616c616e63654f776e61626c653a206e6577206f776e657220697320746865207a65726f206164647265737345524332303a20617070726f766520746f20746865207a65726f206164647265737345524332303a207472616e7366657220616d6f756e7420657863656564732062616c616e636545524332303a207472616e7366657220616d6f756e74206578636565647320616c6c6f77616e63654f776e61626c653a2063616c6c6572206973206e6f7420746865206f776e657245524332303a206275726e20616d6f756e74206578636565647320616c6c6f77616e636545524332303a206275726e2066726f6d20746865207a65726f206164647265737345524332303a207472616e736665722066726f6d20746865207a65726f206164647265737345524332303a20617070726f76652066726f6d20746865207a65726f206164647265737345524332303a2064656372656173656420616c6c6f77616e63652062656c6f77207a65726fa2646970667358221220174718ac4d3905ac3fb7139272b330d7f541b7712d6848c03276e861bb8a06db64736f6c634300060c0033",
  "linkReferences": {},
  "deployedLinkReferences": {}
}