{
  "_format": "hh-sol-artifact-1",
  "contractName": "Tetrad",
  "sourceName": "contracts/Tetrad.sol",
  "abi": [
    {
      "inputs": [
        {
          "internalType": "address payable",
          "name": "TRADEWalletAddress",
          "type": "address"
        },
        {
          "internalType": "address payable",
          "name": "marketingWalletAddress",
          "type": "address"
        },
        {
          "internalType": "address",
          "name": "router",
          "type": "address"
        }
      ],
      "stateMutability": "nonpayable",
      "type": "constructor"
    },
    {
      "anonymous": false,
      "inputs": [
        {
          "indexed": true,
          "internalType": "address",
          "name": "owner",
          "type": "address"
        },
        {
          "indexed": true,
          "internalType": "address",
          "name": "spender",
          "type": "address"
        },
        {
          "indexed": false,
          "internalType": "uint256",
          "name": "value",
          "type": "uint256"
        }
      ],
      "name": "Approval",
      "type": "event"
    },
    {
      "anonymous": false,
      "inputs": [
        {
          "indexed": false,
          "internalType": "uint256",
          "name": "minTokensBeforeSwap",
          "type": "uint256"
        }
      ],
      "name": "MinTokensBeforeSwapUpdated",
      "type": "event"
    },
    {
      "anonymous": false,
      "inputs": [
        {
          "indexed": true,
          "internalType": "address",
          "name": "previousOwner",
          "type": "address"
        },
        {
          "indexed": true,
          "internalType": "address",
          "name": "newOwner",
          "type": "address"
        }
      ],
      "name": "OwnershipTransferred",
      "type": "event"
    },
    {
      "anonymous": false,
      "inputs": [
        {
          "indexed": false,
          "internalType": "bool",
          "name": "enabled",
          "type": "bool"
        }
      ],
      "name": "SwapEnabledUpdated",
      "type": "event"
    },
    {
      "anonymous": false,
      "inputs": [
        {
          "indexed": true,
          "internalType": "address",
          "name": "from",
          "type": "address"
        },
        {
          "indexed": true,
          "internalType": "address",
          "name": "to",
          "type": "address"
        },
        {
          "indexed": false,
          "internalType": "uint256",
          "name": "value",
          "type": "uint256"
        }
      ],
      "name": "Transfer",
      "type": "event"
    },
    {
      "inputs": [],
      "name": "_TRADEWalletAddress",
      "outputs": [
        {
          "internalType": "address payable",
          "name": "",
          "type": "address"
        }
      ],
      "stateMutability": "view",
      "type": "function"
    },
    {
      "inputs": [],
      "name": "_getETHBalance",
      "outputs": [
        {
          "internalType": "uint256",
          "name": "balance",
          "type": "uint256"
        }
      ],
      "stateMutability": "view",
      "type": "function"
    },
    {
      "inputs": [],
      "name": "_marketingWalletAddress",
      "outputs": [
        {
          "internalType": "address payable",
          "name": "",
          "type": "address"
        }
      ],
      "stateMutability": "view",
      "type": "function"
    },
    {
      "inputs": [
        {
          "internalType": "address payable",
          "name": "TRADEWalletAddress",
          "type": "address"
        }
      ],
      "name": "_setTRADEWallet",
      "outputs": [],
      "stateMutability": "nonpayable",
      "type": "function"
    },
    {
      "inputs": [
        {
          "internalType": "address payable",
          "name": "marketingWalletAddress",
          "type": "address"
        }
      ],
      "name": "_setMarketingWallet",
      "outputs": [],
      "stateMutability": "nonpayable",
      "type": "function"
    },
    {
      "inputs": [
        {
          "internalType": "uint256",
          "name": "maxTxAmount",
          "type": "uint256"
        }
      ],
      "name": "_setMaxTxAmount",
      "outputs": [],
      "stateMutability": "nonpayable",
      "type": "function"
    },
    {
      "inputs": [
        {
          "internalType": "uint256",
          "name": "taxFee",
          "type": "uint256"
        }
      ],
      "name": "_setTaxFee",
      "outputs": [],
      "stateMutability": "nonpayable",
      "type": "function"
    },
    {
      "inputs": [
        {
          "internalType": "uint256",
          "name": "teamFee",
          "type": "uint256"
        }
      ],
      "name": "_setTeamFee",
      "outputs": [],
      "stateMutability": "nonpayable",
      "type": "function"
    },
    {
      "inputs": [
        {
          "internalType": "address",
          "name": "owner",
          "type": "address"
        },
        {
          "internalType": "address",
          "name": "spender",
          "type": "address"
        }
      ],
      "name": "allowance",
      "outputs": [
        {
          "internalType": "uint256",
          "name": "",
          "type": "uint256"
        }
      ],
      "stateMutability": "view",
      "type": "function"
    },
    {
      "inputs": [
        {
          "internalType": "address",
          "name": "spender",
          "type": "address"
        },
        {
          "internalType": "uint256",
          "name": "amount",
          "type": "uint256"
        }
      ],
      "name": "approve",
      "outputs": [
        {
          "internalType": "bool",
          "name": "",
          "type": "bool"
        }
      ],
      "stateMutability": "nonpayable",
      "type": "function"
    },
    {
      "inputs": [
        {
          "internalType": "address",
          "name": "account",
          "type": "address"
        }
      ],
      "name": "balanceOf",
      "outputs": [
        {
          "internalType": "uint256",
          "name": "",
          "type": "uint256"
        }
      ],
      "stateMutability": "view",
      "type": "function"
    },
    {
      "inputs": [],
      "name": "decimals",
      "outputs": [
        {
          "internalType": "uint8",
          "name": "",
          "type": "uint8"
        }
      ],
      "stateMutability": "view",
      "type": "function"
    },
    {
      "inputs": [
        {
          "internalType": "address",
          "name": "spender",
          "type": "address"
        },
        {
          "internalType": "uint256",
          "name": "subtractedValue",
          "type": "uint256"
        }
      ],
      "name": "decreaseAllowance",
      "outputs": [
        {
          "internalType": "bool",
          "name": "",
          "type": "bool"
        }
      ],
      "stateMutability": "nonpayable",
      "type": "function"
    },
    {
      "inputs": [
        {
          "internalType": "uint256",
          "name": "tAmount",
          "type": "uint256"
        }
      ],
      "name": "deliver",
      "outputs": [],
      "stateMutability": "nonpayable",
      "type": "function"
    },
    {
      "inputs": [
        {
          "internalType": "address",
          "name": "account",
          "type": "address"
        }
      ],
      "name": "excludeAccount",
      "outputs": [],
      "stateMutability": "nonpayable",
      "type": "function"
    },
    {
      "inputs": [],
      "name": "geUnlockTime",
      "outputs": [
        {
          "internalType": "uint256",
          "name": "",
          "type": "uint256"
        }
      ],
      "stateMutability": "view",
      "type": "function"
    },
    {
      "inputs": [
        {
          "internalType": "address",
          "name": "account",
          "type": "address"
        }
      ],
      "name": "includeAccount",
      "outputs": [],
      "stateMutability": "nonpayable",
      "type": "function"
    },
    {
      "inputs": [
        {
          "internalType": "address",
          "name": "spender",
          "type": "address"
        },
        {
          "internalType": "uint256",
          "name": "addedValue",
          "type": "uint256"
        }
      ],
      "name": "increaseAllowance",
      "outputs": [
        {
          "internalType": "bool",
          "name": "",
          "type": "bool"
        }
      ],
      "stateMutability": "nonpayable",
      "type": "function"
    },
    {
      "inputs": [
        {
          "internalType": "address",
          "name": "account",
          "type": "address"
        }
      ],
      "name": "isExcluded",
      "outputs": [
        {
          "internalType": "bool",
          "name": "",
          "type": "bool"
        }
      ],
      "stateMutability": "view",
      "type": "function"
    },
    {
      "inputs": [
        {
          "internalType": "address",
          "name": "account",
          "type": "address"
        }
      ],
      "name": "isExcludedFromFee",
      "outputs": [
        {
          "internalType": "bool",
          "name": "",
          "type": "bool"
        }
      ],
      "stateMutability": "view",
      "type": "function"
    },
    {
      "inputs": [
        {
          "internalType": "uint256",
          "name": "time",
          "type": "uint256"
        }
      ],
      "name": "lock",
      "outputs": [],
      "stateMutability": "nonpayable",
      "type": "function"
    },
    {
      "inputs": [],
      "name": "manualSend",
      "outputs": [],
      "stateMutability": "nonpayable",
      "type": "function"
    },
    {
      "inputs": [],
      "name": "manualSwap",
      "outputs": [],
      "stateMutability": "nonpayable",
      "type": "function"
    },
    {
      "inputs": [],
      "name": "name",
      "outputs": [
        {
          "internalType": "string",
          "name": "",
          "type": "string"
        }
      ],
      "stateMutability": "view",
      "type": "function"
    },
    {
      "inputs": [],
      "name": "owner",
      "outputs": [
        {
          "internalType": "address",
          "name": "",
          "type": "address"
        }
      ],
      "stateMutability": "view",
      "type": "function"
    },
    {
      "inputs": [
        {
          "internalType": "uint256",
          "name": "tAmount",
          "type": "uint256"
        },
        {
          "internalType": "bool",
          "name": "deductTransferFee",
          "type": "bool"
        }
      ],
      "name": "reflectionFromToken",
      "outputs": [
        {
          "internalType": "uint256",
          "name": "",
          "type": "uint256"
        }
      ],
      "stateMutability": "view",
      "type": "function"
    },
    {
      "inputs": [],
      "name": "renounceOwnership",
      "outputs": [],
      "stateMutability": "nonpayable",
      "type": "function"
    },
    {
      "inputs": [
        {
          "internalType": "address",
          "name": "account",
          "type": "address"
        },
        {
          "internalType": "bool",
          "name": "excluded",
          "type": "bool"
        }
      ],
      "name": "setExcludeFromFee",
      "outputs": [],
      "stateMutability": "nonpayable",
      "type": "function"
    },
    {
      "inputs": [
        {
          "internalType": "bool",
          "name": "enabled",
          "type": "bool"
        }
      ],
      "name": "setSwapEnabled",
      "outputs": [],
      "stateMutability": "nonpayable",
      "type": "function"
    },
    {
      "inputs": [],
      "name": "swapEnabled",
      "outputs": [
        {
          "internalType": "bool",
          "name": "",
          "type": "bool"
        }
      ],
      "stateMutability": "view",
      "type": "function"
    },
    {
      "inputs": [],
      "name": "symbol",
      "outputs": [
        {
          "internalType": "string",
          "name": "",
          "type": "string"
        }
      ],
      "stateMutability": "view",
      "type": "function"
    },
    {
      "inputs": [
        {
          "internalType": "uint256",
          "name": "rAmount",
          "type": "uint256"
        }
      ],
      "name": "tokenFromReflection",
      "outputs": [
        {
          "internalType": "uint256",
          "name": "",
          "type": "uint256"
        }
      ],
      "stateMutability": "view",
      "type": "function"
    },
    {
      "inputs": [],
      "name": "totalFees",
      "outputs": [
        {
          "internalType": "uint256",
          "name": "",
          "type": "uint256"
        }
      ],
      "stateMutability": "view",
      "type": "function"
    },
    {
      "inputs": [],
      "name": "totalSupply",
      "outputs": [
        {
          "internalType": "uint256",
          "name": "",
          "type": "uint256"
        }
      ],
      "stateMutability": "view",
      "type": "function"
    },
    {
      "inputs": [
        {
          "internalType": "address",
          "name": "recipient",
          "type": "address"
        },
        {
          "internalType": "uint256",
          "name": "amount",
          "type": "uint256"
        }
      ],
      "name": "transfer",
      "outputs": [
        {
          "internalType": "bool",
          "name": "",
          "type": "bool"
        }
      ],
      "stateMutability": "nonpayable",
      "type": "function"
    },
    {
      "inputs": [
        {
          "internalType": "address",
          "name": "sender",
          "type": "address"
        },
        {
          "internalType": "address",
          "name": "recipient",
          "type": "address"
        },
        {
          "internalType": "uint256",
          "name": "amount",
          "type": "uint256"
        }
      ],
      "name": "transferFrom",
      "outputs": [
        {
          "internalType": "bool",
          "name": "",
          "type": "bool"
        }
      ],
      "stateMutability": "nonpayable",
      "type": "function"
    },
    {
      "inputs": [
        {
          "internalType": "address",
          "name": "newOwner",
          "type": "address"
        }
      ],
      "name": "transferOwnership",
      "outputs": [],
      "stateMutability": "nonpayable",
      "type": "function"
    },
    {
      "inputs": [],
      "name": "uniswapV2Pair",
      "outputs": [
        {
          "internalType": "address",
          "name": "",
          "type": "address"
        }
      ],
      "stateMutability": "view",
      "type": "function"
    },
    {
      "inputs": [],
      "name": "uniswapV2Router",
      "outputs": [
        {
          "internalType": "contract IUniswapV2Router02",
          "name": "",
          "type": "address"
        }
      ],
      "stateMutability": "view",
      "type": "function"
    },
    {
      "inputs": [],
      "name": "unlock",
      "outputs": [],
      "stateMutability": "nonpayable",
      "type": "function"
    },
    {
      "stateMutability": "payable",
      "type": "receive"
    }
  ],
  "bytecode": "0x6c0c9f2c9cd04674edea4000000060099081556c0815c6278fccd683bfbfffffff19600a5561010060405260c08190526844696769746f70696160b81b60e09081526200005091600c91906200041c565b506040805180820190915260038082526244474960e81b60209092019182526200007d91600d916200041c565b50600e805460ff19166012908117909155600a600f8190556010819055601181905590556014805461ffff60a01b1916600160a81b1790556d04ee2d6d415b85acef810000000060155569010f0cf064dd59200000601655348015620000e257600080fd5b50604051620031ac380380620031ac833981810160405260608110156200010857600080fd5b508051602082015160409092015190919060006200012562000409565b600080546001600160a01b0319166001600160a01b0383169081178255604051929350917f8be0079c531659141344cd1fd0a4f28419497f9722a3daafe3b4186f6b6457e0908290a350601380546001600160a01b038086166001600160a01b0319928316179092556014805492851692909116919091179055600a5460036000620001b062000409565b6001600160a01b03166001600160a01b03168152602001908152602001600020819055506000819050806001600160a01b031663c45a01556040518163ffffffff1660e01b815260040160206040518083038186803b1580156200021357600080fd5b505afa15801562000228573d6000803e3d6000fd5b505050506040513d60208110156200023f57600080fd5b5051604080516315ab88c960e31b815290516001600160a01b039283169263c9c653969230929186169163ad5c464891600480820192602092909190829003018186803b1580156200029057600080fd5b505afa158015620002a5573d6000803e3d6000fd5b505050506040513d6020811015620002bc57600080fd5b5051604080516001600160e01b031960e086901b1681526001600160a01b0393841660048201529290911660248301525160448083019260209291908290030181600087803b1580156200030f57600080fd5b505af115801562000324573d6000803e3d6000fd5b505050506040513d60208110156200033b57600080fd5b50516001600160601b0319606091821b811660a0529082901b16608052600160066000620003686200040d565b6001600160a01b0316815260208082019290925260409081016000908120805494151560ff199586161790553081526006909252902080549091166001179055620003b262000409565b6001600160a01b031660006001600160a01b03167fddf252ad1be2c89b69c2b068fc378daa952ba7f163c4a11628f55a4df523b3ef6009546040518082815260200191505060405180910390a350505050620004b8565b3390565b6000546001600160a01b031690565b828054600181600116156101000203166002900490600052602060002090601f016020900481019282601f106200045f57805160ff19168380011785556200048f565b828001600101855582156200048f579182015b828111156200048f57825182559160200191906001019062000472565b506200049d929150620004a1565b5090565b5b808211156200049d5760008155600101620004a2565b60805160601c60a05160601c612cb1620004fb60003980610ea25280611cec5250806109ca52806115a95280611ffe52806120b652806120dd5250612cb16000f3fe60806040526004361061023f5760003560e01c80636ddd17131161012e578063b6c52324116100ab578063f2cc0c181161006f578063f2cc0c181461084b578063f2fde38b1461087e578063f4293890146108b1578063f815a842146108c6578063f84354f1146108db57610246565b8063b6c5232414610772578063cba0e99614610787578063dd467064146107ba578063dd62ed3e146107e4578063e01af92c1461081f57610246565b806395d89b41116100f257806395d89b411461069b578063a457c2d7146106b0578063a69df4b5146106e9578063a9059cbb146106fe578063af9549e01461073757610246565b80636ddd1713146105f657806370a082311461060b578063715018a61461063e578063724e37fb146106535780638da5cb5b1461068657610246565b80632d838119116101bc5780634549b039116101805780634549b0391461053d57806349bd5a5e1461056f57806351bc3c85146105845780635342acb4146105995780635880b873146105cc57610246565b80632d83811914610470578063313ce5671461049a57806339509351146104c55780633bd5d173146104fe5780634144d9e41461052857610246565b80631bbae6e0116102035780631bbae6e01461038f5780631ff53b60146103bb57806321bd44b4146103ee57806323b872dd14610403578063286671621461044657610246565b806306fdde031461024b578063095ea7b3146102d557806313114a9d146103225780631694505e1461034957806318160ddd1461037a57610246565b3661024657005b600080fd5b34801561025757600080fd5b5061026061090e565b6040805160208082528351818301528351919283929083019185019080838360005b8381101561029a578181015183820152602001610282565b50505050905090810190601f1680156102c75780820380516001836020036101000a031916815260200191505b509250505060405180910390f35b3480156102e157600080fd5b5061030e600480360360408110156102f857600080fd5b506001600160a01b0381351690602001356109a4565b604080519115158252519081900360200190f35b34801561032e57600080fd5b506103376109c2565b60408051918252519081900360200190f35b34801561035557600080fd5b5061035e6109c8565b604080516001600160a01b039092168252519081900360200190f35b34801561038657600080fd5b506103376109ec565b34801561039b57600080fd5b506103b9600480360360208110156103b257600080fd5b50356109f2565b005b3480156103c757600080fd5b506103b9600480360360208110156103de57600080fd5b50356001600160a01b0316610a9c565b3480156103fa57600080fd5b5061035e610b16565b34801561040f57600080fd5b5061030e6004803603606081101561042657600080fd5b506001600160a01b03813581169160208101359091169060400135610b25565b34801561045257600080fd5b506103b96004803603602081101561046957600080fd5b5035610bac565b34801561047c57600080fd5b506103376004803603602081101561049357600080fd5b5035610c6c565b3480156104a657600080fd5b506104af610cce565b6040805160ff9092168252519081900360200190f35b3480156104d157600080fd5b5061030e600480360360408110156104e857600080fd5b506001600160a01b038135169060200135610cd7565b34801561050a57600080fd5b506103b96004803603602081101561052157600080fd5b5035610d25565b34801561053457600080fd5b5061035e610dff565b34801561054957600080fd5b506103376004803603604081101561056057600080fd5b50803590602001351515610e0e565b34801561057b57600080fd5b5061035e610ea0565b34801561059057600080fd5b506103b9610ec4565b3480156105a557600080fd5b5061030e600480360360208110156105bc57600080fd5b50356001600160a01b0316610f35565b3480156105d857600080fd5b506103b9600480360360208110156105ef57600080fd5b5035610f53565b34801561060257600080fd5b5061030e611013565b34801561061757600080fd5b506103376004803603602081101561062e57600080fd5b50356001600160a01b0316611023565b34801561064a57600080fd5b506103b9611085565b34801561065f57600080fd5b506103b96004803603602081101561067657600080fd5b50356001600160a01b0316611115565b34801561069257600080fd5b5061035e61118f565b3480156106a757600080fd5b5061026061119e565b3480156106bc57600080fd5b5061030e600480360360408110156106d357600080fd5b506001600160a01b0381351690602001356111ff565b3480156106f557600080fd5b506103b9611267565b34801561070a57600080fd5b5061030e6004803603604081101561072157600080fd5b506001600160a01b038135169060200135611355565b34801561074357600080fd5b506103b96004803603604081101561075a57600080fd5b506001600160a01b0381351690602001351515611369565b34801561077e57600080fd5b506103376113ec565b34801561079357600080fd5b5061030e600480360360208110156107aa57600080fd5b50356001600160a01b03166113f2565b3480156107c657600080fd5b506103b9600480360360208110156107dd57600080fd5b5035611410565b3480156107f057600080fd5b506103376004803603604081101561080757600080fd5b506001600160a01b03813581169160200135166114ae565b34801561082b57600080fd5b506103b96004803603602081101561084257600080fd5b503515156114d9565b34801561085757600080fd5b506103b96004803603602081101561086e57600080fd5b50356001600160a01b031661154f565b34801561088a57600080fd5b506103b9600480360360208110156108a157600080fd5b50356001600160a01b0316611746565b3480156108bd57600080fd5b506103b961182c565b3480156108d257600080fd5b5061033761188e565b3480156108e757600080fd5b506103b9600480360360208110156108fe57600080fd5b50356001600160a01b0316611892565b600c8054604080516020601f600260001961010060018816150201909516949094049384018190048102820181019092528281526060939092909183018282801561099a5780601f1061096f5761010080835404028352916020019161099a565b820191906000526020600020905b81548152906001019060200180831161097d57829003601f168201915b5050505050905090565b60006109b86109b1611a53565b8484611a57565b5060015b92915050565b600b5490565b7f000000000000000000000000000000000000000000000000000000000000000081565b60095490565b6109fa611a53565b6000546001600160a01b03908116911614610a4a576040805162461bcd60e51b81526020600482018190526024820152600080516020612b34833981519152604482015290519081900360640190fd5b6d04ee2d6d415b85acef8100000000811015610a975760405162461bcd60e51b8152600401808060200182810382526035815260200180612a8e6035913960400191505060405180910390fd5b601555565b610aa4611a53565b6000546001600160a01b03908116911614610af4576040805162461bcd60e51b81526020600482018190526024820152600080516020612b34833981519152604482015290519081900360640190fd5b601480546001600160a01b0319166001600160a01b0392909216919091179055565b6013546001600160a01b031681565b6000610b32848484611b43565b610ba284610b3e611a53565b610b9d85604051806060016040528060288152602001612b0c602891396001600160a01b038a16600090815260056020526040812090610b7c611a53565b6001600160a01b031681526020810191909152604001600020549190611da0565b611a57565b5060019392505050565b610bb4611a53565b6000546001600160a01b03908116911614610c04576040805162461bcd60e51b81526020600482018190526024820152600080516020612b34833981519152604482015290519081900360640190fd5b60018110158015610c16575060198111155b610c67576040805162461bcd60e51b815260206004820152601b60248201527f7465616d4665652073686f756c6420626520696e2031202d2032350000000000604482015290519081900360640190fd5b601055565b6000600a54821115610caf5760405162461bcd60e51b815260040180806020018281038252602a815260200180612a1c602a913960400191505060405180910390fd5b6000610cb9611e37565b9050610cc58382611e5a565b9150505b919050565b600e5460ff1690565b60006109b8610ce4611a53565b84610b9d8560056000610cf5611a53565b6001600160a01b03908116825260208083019390935260409182016000908120918c168152925290205490611ea3565b6000610d2f611a53565b6001600160a01b03811660009081526007602052604090205490915060ff1615610d8a5760405162461bcd60e51b815260040180806020018281038252602c815260200180612c08602c913960400191505060405180910390fd5b6000610d9583611efd565b505050506001600160a01b038416600090815260036020526040902054919250610dc191905082611f59565b6001600160a01b038316600090815260036020526040902055600a54610de79082611f59565b600a55600b54610df79084611ea3565b600b55505050565b6014546001600160a01b031681565b6000600954831115610e67576040805162461bcd60e51b815260206004820152601f60248201527f416d6f756e74206d757374206265206c657373207468616e20737570706c7900604482015290519081900360640190fd5b81610e86576000610e7784611efd565b509395506109bc945050505050565b6000610e9184611efd565b509295506109bc945050505050565b7f000000000000000000000000000000000000000000000000000000000000000081565b610ecc611a53565b6000546001600160a01b03908116911614610f1c576040805162461bcd60e51b81526020600482018190526024820152600080516020612b34833981519152604482015290519081900360640190fd5b6000610f2730611023565b9050610f3281611f9b565b50565b6001600160a01b031660009081526006602052604090205460ff1690565b610f5b611a53565b6000546001600160a01b03908116911614610fab576040805162461bcd60e51b81526020600482018190526024820152600080516020612b34833981519152604482015290519081900360640190fd5b60018110158015610fbd575060198111155b61100e576040805162461bcd60e51b815260206004820152601a60248201527f7461784665652073686f756c6420626520696e2031202d203235000000000000604482015290519081900360640190fd5b600f55565b601454600160a81b900460ff1681565b6001600160a01b03811660009081526007602052604081205460ff161561106357506001600160a01b038116600090815260046020526040902054610cc9565b6001600160a01b0382166000908152600360205260409020546109bc90610c6c565b61108d611a53565b6000546001600160a01b039081169116146110dd576040805162461bcd60e51b81526020600482018190526024820152600080516020612b34833981519152604482015290519081900360640190fd5b600080546040516001600160a01b0390911690600080516020612b54833981519152908390a3600080546001600160a01b0319169055565b61111d611a53565b6000546001600160a01b0390811691161461116d576040805162461bcd60e51b81526020600482018190526024820152600080516020612b34833981519152604482015290519081900360640190fd5b601380546001600160a01b0319166001600160a01b0392909216919091179055565b6000546001600160a01b031690565b600d8054604080516020601f600260001961010060018816150201909516949094049384018190048102820181019092528281526060939092909183018282801561099a5780601f1061096f5761010080835404028352916020019161099a565b60006109b861120c611a53565b84610b9d85604051806060016040528060258152602001612c576025913960056000611236611a53565b6001600160a01b03908116825260208083019390935260409182016000908120918d16815292529020549190611da0565b6001546001600160a01b031633146112b05760405162461bcd60e51b8152600401808060200182810382526023815260200180612c346023913960400191505060405180910390fd5b6002544211611306576040805162461bcd60e51b815260206004820152601f60248201527f436f6e7472616374206973206c6f636b656420756e74696c2037206461797300604482015290519081900360640190fd5b600154600080546040516001600160a01b039384169390911691600080516020612b5483398151915291a3600154600080546001600160a01b0319166001600160a01b03909216919091179055565b60006109b8611362611a53565b8484611b43565b611371611a53565b6000546001600160a01b039081169116146113c1576040805162461bcd60e51b81526020600482018190526024820152600080516020612b34833981519152604482015290519081900360640190fd5b6001600160a01b03919091166000908152600660205260409020805460ff1916911515919091179055565b60025490565b6001600160a01b031660009081526007602052604090205460ff1690565b611418611a53565b6000546001600160a01b03908116911614611468576040805162461bcd60e51b81526020600482018190526024820152600080516020612b34833981519152604482015290519081900360640190fd5b60008054600180546001600160a01b03199081166001600160a01b038416179091551681554282016002556040518190600080516020612b54833981519152908290a350565b6001600160a01b03918216600090815260056020908152604080832093909416825291909152205490565b6114e1611a53565b6000546001600160a01b03908116911614611531576040805162461bcd60e51b81526020600482018190526024820152600080516020612b34833981519152604482015290519081900360640190fd5b60148054911515600160a81b0260ff60a81b19909216919091179055565b611557611a53565b6000546001600160a01b039081169116146115a7576040805162461bcd60e51b81526020600482018190526024820152600080516020612b34833981519152604482015290519081900360640190fd5b7f00000000000000000000000000000000000000000000000000000000000000006001600160a01b0316816001600160a01b031614156116185760405162461bcd60e51b8152600401808060200182810382526022815260200180612be66022913960400191505060405180910390fd5b6001600160a01b03811660009081526007602052604090205460ff1615611686576040805162461bcd60e51b815260206004820152601b60248201527f4163636f756e7420697320616c7265616479206578636c756465640000000000604482015290519081900360640190fd5b6001600160a01b038116600090815260036020526040902054156116e0576001600160a01b0381166000908152600360205260409020546116c690610c6c565b6001600160a01b0382166000908152600460205260409020555b6001600160a01b03166000818152600760205260408120805460ff191660019081179091556008805491820181559091527ff3f7a9fe364faab93b216da50a3214154f22a0a2b415b23a84c8169e8b636ee30180546001600160a01b0319169091179055565b61174e611a53565b6000546001600160a01b0390811691161461179e576040805162461bcd60e51b81526020600482018190526024820152600080516020612b34833981519152604482015290519081900360640190fd5b6001600160a01b0381166117e35760405162461bcd60e51b8152600401808060200182810382526026815260200180612a466026913960400191505060405180910390fd5b600080546040516001600160a01b0380851693921691600080516020612b5483398151915291a3600080546001600160a01b0319166001600160a01b0392909216919091179055565b611834611a53565b6000546001600160a01b03908116911614611884576040805162461bcd60e51b81526020600482018190526024820152600080516020612b34833981519152604482015290519081900360640190fd5b47610f32816121d2565b4790565b61189a611a53565b6000546001600160a01b039081169116146118ea576040805162461bcd60e51b81526020600482018190526024820152600080516020612b34833981519152604482015290519081900360640190fd5b6001600160a01b03811660009081526007602052604090205460ff16611957576040805162461bcd60e51b815260206004820152601b60248201527f4163636f756e7420697320616c7265616479206578636c756465640000000000604482015290519081900360640190fd5b60005b600854811015611a4f57816001600160a01b03166008828154811061197b57fe5b6000918252602090912001546001600160a01b03161415611a47576008805460001981019081106119a857fe5b600091825260209091200154600880546001600160a01b0390921691839081106119ce57fe5b600091825260208083209190910180546001600160a01b0319166001600160a01b039485161790559184168152600482526040808220829055600790925220805460ff191690556008805480611a2057fe5b600082815260209020810160001990810180546001600160a01b0319169055019055611a4f565b60010161195a565b5050565b3390565b6001600160a01b038316611a9c5760405162461bcd60e51b8152600401808060200182810382526024815260200180612bc26024913960400191505060405180910390fd5b6001600160a01b038216611ae15760405162461bcd60e51b8152600401808060200182810382526022815260200180612a6c6022913960400191505060405180910390fd5b6001600160a01b03808416600081815260056020908152604080832094871680845294825291829020859055815185815291517f8c5be1e5ebec7d5bd14f71427d1e84f3dd0314c0f7b2291e5b200ac8c7c3b9259281900390910190a3505050565b6001600160a01b038316611b885760405162461bcd60e51b8152600401808060200182810382526025815260200180612b9d6025913960400191505060405180910390fd5b6001600160a01b038216611bcd5760405162461bcd60e51b81526004018080602001828103825260238152602001806129f96023913960400191505060405180910390fd5b60008111611c0c5760405162461bcd60e51b8152600401808060200182810382526029815260200180612b746029913960400191505060405180910390fd5b611c1461118f565b6001600160a01b0316836001600160a01b031614158015611c4e5750611c3861118f565b6001600160a01b0316826001600160a01b031614155b15611c9457601554811115611c945760405162461bcd60e51b8152600401808060200182810382526028815260200180612ac36028913960400191505060405180910390fd5b6000611c9f30611023565b90506015548110611caf57506015545b6016546014549082101590600160a01b900460ff16158015611cda5750601454600160a81b900460ff165b8015611ce35750805b8015611d2157507f00000000000000000000000000000000000000000000000000000000000000006001600160a01b0316856001600160a01b031614155b15611d4157611d2f82611f9b565b478015611d3f57611d3f476121d2565b505b6001600160a01b03851660009081526006602052604090205460019060ff1680611d8357506001600160a01b03851660009081526006602052604090205460ff165b15611d8c575060005b611d9886868684612261565b505050505050565b60008184841115611e2f5760405162461bcd60e51b81526004018080602001828103825283818151815260200191508051906020019080838360005b83811015611df4578181015183820152602001611ddc565b50505050905090810190601f168015611e215780820380516001836020036101000a031916815260200191505b509250505060405180910390fd5b505050900390565b6000806000611e446123d5565b9092509050611e538282611e5a565b9250505090565b6000611e9c83836040518060400160405280601a81526020017f536166654d6174683a206469766973696f6e206279207a65726f000000000000815250612538565b9392505050565b600082820183811015611e9c576040805162461bcd60e51b815260206004820152601b60248201527f536166654d6174683a206164646974696f6e206f766572666c6f770000000000604482015290519081900360640190fd5b6000806000806000806000806000611f1a8a600f5460105461259d565b9250925092506000611f2a611e37565b90506000806000611f3c8e87866125f2565b919e509c509a509598509396509194505050505091939550919395565b6000611e9c83836040518060400160405280601e81526020017f536166654d6174683a207375627472616374696f6e206f766572666c6f770000815250611da0565b6014805460ff60a01b1916600160a01b17905560408051600280825260608083018452926020830190803683370190505090503081600081518110611fdc57fe5b60200260200101906001600160a01b031690816001600160a01b0316815250507f00000000000000000000000000000000000000000000000000000000000000006001600160a01b031663ad5c46486040518163ffffffff1660e01b815260040160206040518083038186803b15801561205557600080fd5b505afa158015612069573d6000803e3d6000fd5b505050506040513d602081101561207f57600080fd5b505181518290600190811061209057fe5b60200260200101906001600160a01b031690816001600160a01b0316815250506120db307f000000000000000000000000000000000000000000000000000000000000000084611a57565b7f00000000000000000000000000000000000000000000000000000000000000006001600160a01b031663791ac9478360008430426040518663ffffffff1660e01b81526004018086815260200185815260200180602001846001600160a01b03168152602001838152602001828103825285818151815260200191508051906020019060200280838360005b83811015612180578181015183820152602001612168565b505050509050019650505050505050600060405180830381600087803b1580156121a957600080fd5b505af11580156121bd573d6000803e3d6000fd5b50506014805460ff60a01b1916905550505050565b6013546001600160a01b03166108fc6121ec836002611e5a565b6040518115909202916000818181858888f19350505050158015612214573d6000803e3d6000fd5b506014546001600160a01b03166108fc612239612232846002611e5a565b8490611f59565b6040518115909202916000818181858888f19350505050158015611a4f573d6000803e3d6000fd5b8061226e5761226e61262e565b6001600160a01b03841660009081526007602052604090205460ff1680156122af57506001600160a01b03831660009081526007602052604090205460ff16155b156122c4576122bf848484612660565b6123c2565b6001600160a01b03841660009081526007602052604090205460ff1615801561230557506001600160a01b03831660009081526007602052604090205460ff165b15612315576122bf848484612784565b6001600160a01b03841660009081526007602052604090205460ff1615801561235757506001600160a01b03831660009081526007602052604090205460ff16155b15612367576122bf84848461282d565b6001600160a01b03841660009081526007602052604090205460ff1680156123a757506001600160a01b03831660009081526007602052604090205460ff165b156123b7576122bf848484612871565b6123c284848461282d565b806123cf576123cf6128e4565b50505050565b600a546009546000918291825b600854811015612506578260036000600884815481106123fe57fe5b60009182526020808320909101546001600160a01b031683528201929092526040019020541180612463575081600460006008848154811061243c57fe5b60009182526020808320909101546001600160a01b03168352820192909252604001902054115b1561247a57600a5460095494509450505050612534565b6124ba600360006008848154811061248e57fe5b60009182526020808320909101546001600160a01b031683528201929092526040019020548490611f59565b92506124fc60046000600884815481106124d057fe5b60009182526020808320909101546001600160a01b031683528201929092526040019020548390611f59565b91506001016123e2565b50600954600a5461251691611e5a565b82101561252e57600a54600954935093505050612534565b90925090505b9091565b600081836125875760405162461bcd60e51b8152602060048201818152835160248401528351909283926044909101919085019080838360008315611df4578181015183820152602001611ddc565b50600083858161259357fe5b0495945050505050565b60008080806125b760646125b189896128f2565b90611e5a565b905060006125ca60646125b18a896128f2565b905060006125e2826125dc8b86611f59565b90611f59565b9992985090965090945050505050565b600080808061260187866128f2565b9050600061260f87876128f2565b9050600061261d8383611f59565b929992985090965090945050505050565b600f5415801561263e5750601054155b156126485761265e565b600f805460115560108054601255600091829055555b565b60008060008060008061267287611efd565b6001600160a01b038f16600090815260046020526040902054959b509399509197509550935091506126a49088611f59565b6001600160a01b038a166000908152600460209081526040808320939093556003905220546126d39087611f59565b6001600160a01b03808b1660009081526003602052604080822093909355908a16815220546127029086611ea3565b6001600160a01b0389166000908152600360205260409020556127248161294b565b61272e84836129d4565b876001600160a01b0316896001600160a01b03167fddf252ad1be2c89b69c2b068fc378daa952ba7f163c4a11628f55a4df523b3ef856040518082815260200191505060405180910390a3505050505050505050565b60008060008060008061279687611efd565b6001600160a01b038f16600090815260036020526040902054959b509399509197509550935091506127c89087611f59565b6001600160a01b03808b16600090815260036020908152604080832094909455918b168152600490915220546127fe9084611ea3565b6001600160a01b0389166000908152600460209081526040808320939093556003905220546127029086611ea3565b60008060008060008061283f87611efd565b6001600160a01b038f16600090815260036020526040902054959b509399509197509550935091506126d39087611f59565b60008060008060008061288387611efd565b6001600160a01b038f16600090815260046020526040902054959b509399509197509550935091506128b59088611f59565b6001600160a01b038a166000908152600460209081526040808320939093556003905220546127c89087611f59565b601154600f55601254601055565b600082612901575060006109bc565b8282028284828161290e57fe5b0414611e9c5760405162461bcd60e51b8152600401808060200182810382526021815260200180612aeb6021913960400191505060405180910390fd5b6000612955611e37565b9050600061296383836128f2565b306000908152600360205260409020549091506129809082611ea3565b3060009081526003602090815260408083209390935560079052205460ff16156129cf57306000908152600460205260409020546129be9084611ea3565b306000908152600460205260409020555b505050565b600a546129e19083611f59565b600a55600b546129f19082611ea3565b600b55505056fe45524332303a207472616e7366657220746f20746865207a65726f2061646472657373416d6f756e74206d757374206265206c657373207468616e20746f74616c207265666c656374696f6e734f776e61626c653a206e6577206f776e657220697320746865207a65726f206164647265737345524332303a20617070726f766520746f20746865207a65726f20616464726573736d61785478416d6f756e742073686f756c642062652067726561746572207468616e203130303030303030303030303030306531385472616e7366657220616d6f756e74206578636565647320746865206d61785478416d6f756e742e536166654d6174683a206d756c7469706c69636174696f6e206f766572666c6f7745524332303a207472616e7366657220616d6f756e74206578636565647320616c6c6f77616e63654f776e61626c653a2063616c6c6572206973206e6f7420746865206f776e65728be0079c531659141344cd1fd0a4f28419497f9722a3daafe3b4186f6b6457e05472616e7366657220616d6f756e74206d7573742062652067726561746572207468616e207a65726f45524332303a207472616e736665722066726f6d20746865207a65726f206164647265737345524332303a20617070726f76652066726f6d20746865207a65726f206164647265737357652063616e206e6f74206578636c75646520556e697377617020726f757465722e4578636c75646564206164647265737365732063616e6e6f742063616c6c20746869732066756e6374696f6e596f7520646f6e27742068617665207065726d697373696f6e20746f20756e6c6f636b45524332303a2064656372656173656420616c6c6f77616e63652062656c6f77207a65726fa264697066735822122034a3a8b143b111a1ddd033fc66b4fa9c640612c97ea44c73aefd554c211f57a264736f6c634300060c0033",
  "linkReferences": {},
  "deployedLinkReferences": {}
}