{
  "_format": "hh-sol-artifact-1",
  "contractName": "TetradRewardPool",
  "sourceName": "contracts/TetradRewardPool.sol",
  "abi": [
    {
      "inputs": [
        {
          "internalType": "address",
          "name": "_tetrad",
          "type": "address"
        },
        {
          "internalType": "uint256",
          "name": "_poolStartTime",
          "type": "uint256"
        },
        {
          "internalType": "uint256",
          "name": "_runningTime",
          "type": "uint256"
        },
        {
          "internalType": "uint256",
          "name": "totalRewards",
          "type": "uint256"
        }
      ],
      "stateMutability": "nonpayable",
      "type": "constructor"
    },
    {
      "anonymous": false,
      "inputs": [
        {
          "indexed": true,
          "internalType": "address",
          "name": "user",
          "type": "address"
        },
        {
          "indexed": true,
          "internalType": "uint256",
          "name": "pid",
          "type": "uint256"
        },
        {
          "indexed": false,
          "internalType": "uint256",
          "name": "amount",
          "type": "uint256"
        }
      ],
      "name": "Deposit",
      "type": "event"
    },
    {
      "anonymous": false,
      "inputs": [
        {
          "indexed": true,
          "internalType": "address",
          "name": "user",
          "type": "address"
        },
        {
          "indexed": true,
          "internalType": "uint256",
          "name": "pid",
          "type": "uint256"
        },
        {
          "indexed": false,
          "internalType": "uint256",
          "name": "amount",
          "type": "uint256"
        }
      ],
      "name": "EmergencyWithdraw",
      "type": "event"
    },
    {
      "anonymous": false,
      "inputs": [
        {
          "indexed": true,
          "internalType": "address",
          "name": "user",
          "type": "address"
        },
        {
          "indexed": false,
          "internalType": "uint256",
          "name": "amount",
          "type": "uint256"
        }
      ],
      "name": "RewardPaid",
      "type": "event"
    },
    {
      "anonymous": false,
      "inputs": [
        {
          "indexed": true,
          "internalType": "address",
          "name": "user",
          "type": "address"
        },
        {
          "indexed": true,
          "internalType": "uint256",
          "name": "pid",
          "type": "uint256"
        },
        {
          "indexed": false,
          "internalType": "uint256",
          "name": "amount",
          "type": "uint256"
        }
      ],
      "name": "Withdraw",
      "type": "event"
    },
    {
      "inputs": [
        {
          "internalType": "uint256",
          "name": "_allocPoint",
          "type": "uint256"
        },
        {
          "internalType": "contract IERC20",
          "name": "_token",
          "type": "address"
        },
        {
          "internalType": "bool",
          "name": "_withUpdate",
          "type": "bool"
        },
        {
          "internalType": "uint256",
          "name": "_lastRewardTime",
          "type": "uint256"
        }
      ],
      "name": "add",
      "outputs": [],
      "stateMutability": "nonpayable",
      "type": "function"
    },
    {
      "inputs": [
        {
          "internalType": "uint256",
          "name": "_pid",
          "type": "uint256"
        },
        {
          "internalType": "uint256",
          "name": "_amount",
          "type": "uint256"
        }
      ],
      "name": "deposit",
      "outputs": [],
      "stateMutability": "nonpayable",
      "type": "function"
    },
    {
      "inputs": [
        {
          "internalType": "uint256",
          "name": "_pid",
          "type": "uint256"
        }
      ],
      "name": "emergencyWithdraw",
      "outputs": [],
      "stateMutability": "nonpayable",
      "type": "function"
    },
    {
      "inputs": [
        {
          "internalType": "uint256",
          "name": "_fromTime",
          "type": "uint256"
        },
        {
          "internalType": "uint256",
          "name": "_toTime",
          "type": "uint256"
        }
      ],
      "name": "getGeneratedReward",
      "outputs": [
        {
          "internalType": "uint256",
          "name": "",
          "type": "uint256"
        }
      ],
      "stateMutability": "view",
      "type": "function"
    },
    {
      "inputs": [
        {
          "internalType": "uint256",
          "name": "_pid",
          "type": "uint256"
        }
      ],
      "name": "getTetradPerSecondInPool",
      "outputs": [
        {
          "internalType": "uint256",
          "name": "",
          "type": "uint256"
        }
      ],
      "stateMutability": "view",
      "type": "function"
    },
    {
      "inputs": [
        {
          "internalType": "contract IERC20",
          "name": "_token",
          "type": "address"
        },
        {
          "internalType": "uint256",
          "name": "amount",
          "type": "uint256"
        },
        {
          "internalType": "address",
          "name": "to",
          "type": "address"
        }
      ],
      "name": "governanceRecoverUnsupported",
      "outputs": [],
      "stateMutability": "nonpayable",
      "type": "function"
    },
    {
      "inputs": [],
      "name": "massUpdatePools",
      "outputs": [],
      "stateMutability": "nonpayable",
      "type": "function"
    },
    {
      "inputs": [],
      "name": "operator",
      "outputs": [
        {
          "internalType": "address",
          "name": "",
          "type": "address"
        }
      ],
      "stateMutability": "view",
      "type": "function"
    },
    {
      "inputs": [
        {
          "internalType": "uint256",
          "name": "_pid",
          "type": "uint256"
        },
        {
          "internalType": "address",
          "name": "_user",
          "type": "address"
        }
      ],
      "name": "pendingTetrad",
      "outputs": [
        {
          "internalType": "uint256",
          "name": "",
          "type": "uint256"
        }
      ],
      "stateMutability": "view",
      "type": "function"
    },
    {
      "inputs": [],
      "name": "poolEndTime",
      "outputs": [
        {
          "internalType": "uint256",
          "name": "",
          "type": "uint256"
        }
      ],
      "stateMutability": "view",
      "type": "function"
    },
    {
      "inputs": [
        {
          "internalType": "uint256",
          "name": "",
          "type": "uint256"
        }
      ],
      "name": "poolInfo",
      "outputs": [
        {
          "internalType": "contract IERC20",
          "name": "token",
          "type": "address"
        },
        {
          "internalType": "uint256",
          "name": "allocPoint",
          "type": "uint256"
        },
        {
          "internalType": "uint256",
          "name": "lastRewardTime",
          "type": "uint256"
        },
        {
          "internalType": "uint256",
          "name": "accTetradPerTetrad",
          "type": "uint256"
        },
        {
          "internalType": "bool",
          "name": "isStarted",
          "type": "bool"
        }
      ],
      "stateMutability": "view",
      "type": "function"
    },
    {
      "inputs": [],
      "name": "poolLength",
      "outputs": [
        {
          "internalType": "uint256",
          "name": "",
          "type": "uint256"
        }
      ],
      "stateMutability": "view",
      "type": "function"
    },
    {
      "inputs": [],
      "name": "poolStartTime",
      "outputs": [
        {
          "internalType": "uint256",
          "name": "",
          "type": "uint256"
        }
      ],
      "stateMutability": "view",
      "type": "function"
    },
    {
      "inputs": [],
      "name": "runningTime",
      "outputs": [
        {
          "internalType": "uint256",
          "name": "",
          "type": "uint256"
        }
      ],
      "stateMutability": "view",
      "type": "function"
    },
    {
      "inputs": [
        {
          "internalType": "uint256",
          "name": "_pid",
          "type": "uint256"
        },
        {
          "internalType": "uint256",
          "name": "_allocPoint",
          "type": "uint256"
        }
      ],
      "name": "set",
      "outputs": [],
      "stateMutability": "nonpayable",
      "type": "function"
    },
    {
      "inputs": [
        {
          "internalType": "address",
          "name": "_operator",
          "type": "address"
        }
      ],
      "name": "setOperator",
      "outputs": [],
      "stateMutability": "nonpayable",
      "type": "function"
    },
    {
      "inputs": [],
      "name": "tetrad",
      "outputs": [
        {
          "internalType": "contract IERC20",
          "name": "",
          "type": "address"
        }
      ],
      "stateMutability": "view",
      "type": "function"
    },
    {
      "inputs": [],
      "name": "tetradPerSecond",
      "outputs": [
        {
          "internalType": "uint256",
          "name": "",
          "type": "uint256"
        }
      ],
      "stateMutability": "view",
      "type": "function"
    },
    {
      "inputs": [],
      "name": "totalAllocPoint",
      "outputs": [
        {
          "internalType": "uint256",
          "name": "",
          "type": "uint256"
        }
      ],
      "stateMutability": "view",
      "type": "function"
    },
    {
      "inputs": [
        {
          "internalType": "uint256",
          "name": "_pid",
          "type": "uint256"
        }
      ],
      "name": "updatePool",
      "outputs": [],
      "stateMutability": "nonpayable",
      "type": "function"
    },
    {
      "inputs": [
        {
          "internalType": "uint256",
          "name": "",
          "type": "uint256"
        },
        {
          "internalType": "address",
          "name": "",
          "type": "address"
        }
      ],
      "name": "userInfo",
      "outputs": [
        {
          "internalType": "uint256",
          "name": "amount",
          "type": "uint256"
        },
        {
          "internalType": "uint256",
          "name": "rewardDebt",
          "type": "uint256"
        }
      ],
      "stateMutability": "view",
      "type": "function"
    },
    {
      "inputs": [
        {
          "internalType": "uint256",
          "name": "_pid",
          "type": "uint256"
        },
        {
          "internalType": "uint256",
          "name": "_amount",
          "type": "uint256"
        }
      ],
      "name": "withdraw",
      "outputs": [],
      "stateMutability": "nonpayable",
      "type": "function"
    }
  ],
  "bytecode": "0x608060405260006004553480156200001657600080fd5b506040516200193438038062001934833981810160405260808110156200003c57600080fd5b508051602082015160408301516060909301519192909142831162000091576040805162461bcd60e51b815260206004808301919091526024820152634c61746560e01b604482015290519081900360640190fd5b6001600160a01b03841615620000bd57600180546001600160a01b0319166001600160a01b0386161790555b60058390556007829055620000df838362000162602090811b620010c117901c565b6006558062000135576040805162461bcd60e51b815260206004820181905260248201527f746f74616c526577617264732072657761726473206d757374206265203e2030604482015290519081900360640190fd5b60075481816200014157fe5b046008555050600080546001600160a01b0319163317905550620001c49050565b600082820183811015620001bd576040805162461bcd60e51b815260206004820152601b60248201527f536166654d6174683a206164646974696f6e206f766572666c6f770000000000604482015290519081900360640190fd5b9392505050565b61176080620001d46000396000f3fe608060405234801561001057600080fd5b50600436106101425760003560e01c8063630b5ba1116100b857806396805e541161007c57806396805e541461034d578063971a304714610387578063b3ab15fb1461038f578063e2bbb158146103b5578063ebdb588e146103d8578063fc84cc68146103f557610142565b8063630b5ba1146102c45780636e271dd5146102cc57806389d3d168146102d457806393f1a40b14610300578063943f013d1461034557610142565b8063441a3e701161010a578063441a3e701461020557806351eb05a6146102285780635312ea8e1461024557806354575af414610262578063570ca735146102985780635f96dc11146102bc57610142565b8063081e3eda146101475780631526fe271461016157806317caf6f1146101b55780631ab06ee5146101bd578063231f0c6a146101e2575b600080fd5b61014f6103fd565b60408051918252519081900360200190f35b61017e6004803603602081101561017757600080fd5b5035610403565b604080516001600160a01b039096168652602086019490945284840192909252606084015215156080830152519081900360a00190f35b61014f61044e565b6101e0600480360360408110156101d357600080fd5b5080359060200135610454565b005b61014f600480360360408110156101f857600080fd5b5080359060200135610502565b6101e06004803603604081101561021b57600080fd5b50803590602001356105c7565b6101e06004803603602081101561023e57600080fd5b5035610784565b6101e06004803603602081101561025b57600080fd5b50356108e2565b6101e06004803603606081101561027857600080fd5b506001600160a01b0381358116916020810135916040909101351661097e565b6102a0610ac7565b604080516001600160a01b039092168252519081900360200190f35b61014f610ad6565b6101e0610adc565b61014f610aff565b61014f600480360360408110156102ea57600080fd5b50803590602001356001600160a01b0316610b05565b61032c6004803603604081101561031657600080fd5b50803590602001356001600160a01b0316610c61565b6040805192835260208301919091528051918290030190f35b61014f610c85565b6101e06004803603608081101561036357600080fd5b508035906001600160a01b0360208201351690604081013515159060600135610c8b565b6102a0610e88565b6101e0600480360360208110156103a557600080fd5b50356001600160a01b0316610e97565b6101e0600480360360408110156103cb57600080fd5b5080359060200135610f02565b61014f600480360360208110156103ee57600080fd5b5035611072565b61014f6110bb565b60025490565b6002818154811061041057fe5b6000918252602090912060059091020180546001820154600283015460038401546004909401546001600160a01b0390931694509092909160ff1685565b60045481565b6000546001600160a01b0316331461049d5760405162461bcd60e51b81526004018080602001828103825260288152602001806116d96028913960400191505060405180910390fd5b6104a5610adc565b6000600283815481106104b457fe5b60009182526020909120600590910201600481015490915060ff16156104fb576104f7826104f1836001015460045461112290919063ffffffff16565b906110c1565b6004555b6001015550565b6000818310610513575060006105c1565b600654821061057b57600654831061052d575060006105c1565b60055483116105605761055960085461055360055460065461112290919063ffffffff16565b9061117f565b90506105c1565b6105596008546105538560065461112290919063ffffffff16565b600554821161058c575060006105c1565b60055483116105b0576105596008546105536005548561112290919063ffffffff16565b600854610559906105538486611122565b92915050565b60003390506000600284815481106105db57fe5b600091825260208083208784526003825260408085206001600160a01b03881686529092529220805460059092029092019250841115610657576040805162461bcd60e51b81526020600482015260126024820152711dda5d1a191c985dce881b9bdd0819dbdbd960721b604482015290519081900360640190fd5b61066085610784565b600061069d8260010154610697670de0b6b3a76400006106918760030154876000015461117f90919063ffffffff16565b906111d8565b90611122565b905080156106ef576106af848261123f565b6040805182815290516001600160a01b038616917fe2403640ba68fed3a2f88b7557551d1993f84b99bb10ff833f0cf8db0c5e0486919081900360200190a25b84156107195781546107019086611122565b82558254610719906001600160a01b031685876112f5565b6003830154825461073791670de0b6b3a7640000916106919161117f565b600183015560408051868152905187916001600160a01b038716917ff279e6a1f5e320cca91135676d9cb6e44ca8a08c0b88342bcdb1144f6511b5689181900360200190a3505050505050565b60006002828154811061079357fe5b90600052602060002090600502019050806002015442116107b457506108df565b8054604080516370a0823160e01b815230600482015290516000926001600160a01b0316916370a08231916024808301926020929190829003018186803b1580156107fe57600080fd5b505afa158015610812573d6000803e3d6000fd5b505050506040513d602081101561082857600080fd5b505190508061083e5750426002909101556108df565b600482015460ff1661086f576004808301805460ff19166001908117909155830154905461086b916110c1565b6004555b600454156108d6576000610887836002015442610502565b905060006108a860045461069186600101548561117f90919063ffffffff16565b90506108ce6108c38461069184670de0b6b3a764000061117f565b6003860154906110c1565b600385015550505b50426002909101555b50565b6000600282815481106108f157fe5b600091825260208083208584526003825260408085203380875293528420805485825560018201959095556005909302018054909450919291610941916001600160a01b039190911690836112f5565b604080518281529051859133917fbb757047c2b5f3974fe26b7c10f732e7bce710b0952a71082702781e62ae05959181900360200190a350505050565b6000546001600160a01b031633146109c75760405162461bcd60e51b81526004018080602001828103825260288152602001806116d96028913960400191505060405180910390fd5b6006546276a70001421015610aae576001546001600160a01b0384811691161415610a22576040805162461bcd60e51b815260206004820152600660248201526510ba37b5b2b760d11b604482015290519081900360640190fd5b60025460005b81811015610aab57600060028281548110610a3f57fe5b6000918252602090912060059091020180549091506001600160a01b0387811691161415610aa2576040805162461bcd60e51b815260206004820152600b60248201526a10b837b7b6173a37b5b2b760a91b604482015290519081900360640190fd5b50600101610a28565b50505b610ac26001600160a01b03841682846112f5565b505050565b6000546001600160a01b031681565b60055481565b60025460005b81811015610afb57610af381610784565b600101610ae2565b5050565b60065481565b60008060028481548110610b1557fe5b60009182526020808320878452600380835260408086206001600160a01b03808b168852908552818720600590960290930191820154825482516370a0823160e01b815230600482015292519398509596909590949316926370a0823192602480840193829003018186803b158015610b8d57600080fd5b505afa158015610ba1573d6000803e3d6000fd5b505050506040513d6020811015610bb757600080fd5b5051600285015490915042118015610bce57508015155b15610c2b576000610be3856002015442610502565b90506000610c0460045461069188600101548561117f90919063ffffffff16565b9050610c26610c1f8461069184670de0b6b3a764000061117f565b85906110c1565b935050505b610c568360010154610697670de0b6b3a764000061069186886000015461117f90919063ffffffff16565b979650505050505050565b60036020908152600092835260408084209091529082529020805460019091015482565b60075481565b6000546001600160a01b03163314610cd45760405162461bcd60e51b81526004018080602001828103825260288152602001806116d96028913960400191505060405180910390fd5b610cdd83611347565b8115610ceb57610ceb610adc565b600554421015610d175780610d035750600554610d12565b600554811015610d1257506005545b610d2b565b801580610d2357504281105b15610d2b5750425b600060055482111580610d3e5750428211155b6040805160a0810182526001600160a01b03878116825260208201898152928201868152600060608401818152861580156080870190815260028054600181018255945295517f405787fa12a823e0f2b7631cc41b3ba8828b3321ca811111fa75cd3aa3bb5ace600590940293840180546001600160a01b031916919096161790945594517f405787fa12a823e0f2b7631cc41b3ba8828b3321ca811111fa75cd3aa3bb5acf82015590517f405787fa12a823e0f2b7631cc41b3ba8828b3321ca811111fa75cd3aa3bb5ad082015592517f405787fa12a823e0f2b7631cc41b3ba8828b3321ca811111fa75cd3aa3bb5ad184015590517f405787fa12a823e0f2b7631cc41b3ba8828b3321ca811111fa75cd3aa3bb5ad2909201805460ff191692151592909217909155909150610e8157600454610e7d90866110c1565b6004555b5050505050565b6001546001600160a01b031681565b6000546001600160a01b03163314610ee05760405162461bcd60e51b81526004018080602001828103825260288152602001806116d96028913960400191505060405180910390fd5b600080546001600160a01b0319166001600160a01b0392909216919091179055565b6000339050600060028481548110610f1657fe5b600091825260208083208784526003825260408085206001600160a01b0388168652909252922060059091029091019150610f5085610784565b805415610fdc576000610f888260010154610697670de0b6b3a76400006106918760030154876000015461117f90919063ffffffff16565b90508015610fda57610f9a848261123f565b6040805182815290516001600160a01b038616917fe2403640ba68fed3a2f88b7557551d1993f84b99bb10ff833f0cf8db0c5e0486919081900360200190a25b505b8315611008578154610ff9906001600160a01b03168430876113e1565b805461100590856110c1565b81555b6003820154815461102691670de0b6b3a7640000916106919161117f565b600182015560408051858152905186916001600160a01b038616917f90890809c654f11d6e72a28fa60149770a0d11ec6c92319d6ceb2bb0a4ea1a159181900360200190a35050505050565b6000806002838154811061108257fe5b9060005260206000209060050201905060006110b3600454610691846001015460085461117f90919063ffffffff16565b949350505050565b60085481565b60008282018381101561111b576040805162461bcd60e51b815260206004820152601b60248201527f536166654d6174683a206164646974696f6e206f766572666c6f770000000000604482015290519081900360640190fd5b9392505050565b600082821115611179576040805162461bcd60e51b815260206004820152601e60248201527f536166654d6174683a207375627472616374696f6e206f766572666c6f770000604482015290519081900360640190fd5b50900390565b60008261118e575060006105c1565b8282028284828161119b57fe5b041461111b5760405162461bcd60e51b81526004018080602001828103825260218152602001806116b86021913960400191505060405180910390fd5b600080821161122e576040805162461bcd60e51b815260206004820152601a60248201527f536166654d6174683a206469766973696f6e206279207a65726f000000000000604482015290519081900360640190fd5b81838161123757fe5b049392505050565b600154604080516370a0823160e01b815230600482015290516000926001600160a01b0316916370a08231916024808301926020929190829003018186803b15801561128a57600080fd5b505afa15801561129e573d6000803e3d6000fd5b505050506040513d60208110156112b457600080fd5b505190508015610ac257808211156112e2576001546112dd906001600160a01b031684836112f5565b610ac2565b600154610ac2906001600160a01b031684845b604080516001600160a01b038416602482015260448082018490528251808303909101815260649091019091526020810180516001600160e01b031663a9059cbb60e01b179052610ac2908490611441565b60025460005b81811015610ac257826001600160a01b03166002828154811061136c57fe5b60009182526020909120600590910201546001600160a01b031614156113d9576040805162461bcd60e51b815260206004820152601f60248201527f746574726164526577617264506f6f6c3a204578697374696e6720706f6f6c00604482015290519081900360640190fd5b60010161134d565b604080516001600160a01b0380861660248301528416604482015260648082018490528251808303909101815260849091019091526020810180516001600160e01b03166323b872dd60e01b17905261143b908590611441565b50505050565b6060611496826040518060400160405280602081526020017f5361666545524332303a206c6f772d6c6576656c2063616c6c206661696c6564815250856001600160a01b03166114f29092919063ffffffff16565b805190915015610ac2578080602001905160208110156114b557600080fd5b5051610ac25760405162461bcd60e51b815260040180806020018281038252602a815260200180611701602a913960400191505060405180910390fd5b60606110b38484600085856115068561160d565b611557576040805162461bcd60e51b815260206004820152601d60248201527f416464726573733a2063616c6c20746f206e6f6e2d636f6e7472616374000000604482015290519081900360640190fd5b60006060866001600160a01b031685876040518082805190602001908083835b602083106115965780518252601f199092019160209182019101611577565b6001836020036101000a03801982511681845116808217855250505050505090500191505060006040518083038185875af1925050503d80600081146115f8576040519150601f19603f3d011682016040523d82523d6000602084013e6115fd565b606091505b5091509150610c56828286611613565b3b151590565b6060831561162257508161111b565b8251156116325782518084602001fd5b8160405162461bcd60e51b81526004018080602001828103825283818151815260200191508051906020019080838360005b8381101561167c578181015183820152602001611664565b50505050905090810190601f1680156116a95780820380516001836020036101000a031916815260200191505b509250505060405180910390fdfe536166654d6174683a206d756c7469706c69636174696f6e206f766572666c6f77746574726164526577617264506f6f6c3a2043616c6c6572206973206e6f74206f70657261746f725361666545524332303a204552433230206f7065726174696f6e20646964206e6f742073756363656564a26469706673582212208ffba6b4aba4beec34ee9d98a6d8dd3caec15dcd64c52f64951b26f011bbf5e964736f6c634300060c0033",
  "linkReferences": {},
  "deployedLinkReferences": {}
}