{
  "_format": "hh-sol-artifact-1",
  "contractName": "TetradRewardPool",
  "sourceName": "contracts/TetradRewardPool.sol",
  "abi": [
    {
      "inputs": [
        {
          "internalType": "address",
          "name": "_tetrad",
          "type": "address"
        },
        {
          "internalType": "uint256",
          "name": "_poolStartTime",
          "type": "uint256"
        },
        {
          "internalType": "uint256",
          "name": "_runningTime",
          "type": "uint256"
        },
        {
          "internalType": "uint256",
          "name": "totalRewards",
          "type": "uint256"
        }
      ],
      "stateMutability": "nonpayable",
      "type": "constructor"
    },
    {
      "anonymous": false,
      "inputs": [
        {
          "indexed": true,
          "internalType": "address",
          "name": "user",
          "type": "address"
        },
        {
          "indexed": true,
          "internalType": "uint256",
          "name": "pid",
          "type": "uint256"
        },
        {
          "indexed": false,
          "internalType": "uint256",
          "name": "amount",
          "type": "uint256"
        }
      ],
      "name": "Deposit",
      "type": "event"
    },
    {
      "anonymous": false,
      "inputs": [
        {
          "indexed": true,
          "internalType": "address",
          "name": "user",
          "type": "address"
        },
        {
          "indexed": true,
          "internalType": "uint256",
          "name": "pid",
          "type": "uint256"
        },
        {
          "indexed": false,
          "internalType": "uint256",
          "name": "amount",
          "type": "uint256"
        }
      ],
      "name": "EmergencyWithdraw",
      "type": "event"
    },
    {
      "anonymous": false,
      "inputs": [
        {
          "indexed": true,
          "internalType": "address",
          "name": "user",
          "type": "address"
        },
        {
          "indexed": false,
          "internalType": "uint256",
          "name": "amount",
          "type": "uint256"
        }
      ],
      "name": "RewardPaid",
      "type": "event"
    },
    {
      "anonymous": false,
      "inputs": [
        {
          "indexed": true,
          "internalType": "address",
          "name": "user",
          "type": "address"
        },
        {
          "indexed": true,
          "internalType": "uint256",
          "name": "pid",
          "type": "uint256"
        },
        {
          "indexed": false,
          "internalType": "uint256",
          "name": "amount",
          "type": "uint256"
        }
      ],
      "name": "Withdraw",
      "type": "event"
    },
    {
      "inputs": [
        {
          "internalType": "uint256",
          "name": "_allocPoint",
          "type": "uint256"
        },
        {
          "internalType": "contract IERC20",
          "name": "_token",
          "type": "address"
        },
        {
          "internalType": "bool",
          "name": "_withUpdate",
          "type": "bool"
        },
        {
          "internalType": "uint256",
          "name": "_lastRewardTime",
          "type": "uint256"
        }
      ],
      "name": "add",
      "outputs": [],
      "stateMutability": "nonpayable",
      "type": "function"
    },
    {
      "inputs": [
        {
          "internalType": "uint256",
          "name": "_pid",
          "type": "uint256"
        },
        {
          "internalType": "uint256",
          "name": "_amount",
          "type": "uint256"
        }
      ],
      "name": "deposit",
      "outputs": [],
      "stateMutability": "nonpayable",
      "type": "function"
    },
    {
      "inputs": [
        {
          "internalType": "uint256",
          "name": "_pid",
          "type": "uint256"
        }
      ],
      "name": "emergencyWithdraw",
      "outputs": [],
      "stateMutability": "nonpayable",
      "type": "function"
    },
    {
      "inputs": [
        {
          "internalType": "uint256",
          "name": "_fromTime",
          "type": "uint256"
        },
        {
          "internalType": "uint256",
          "name": "_toTime",
          "type": "uint256"
        }
      ],
      "name": "getGeneratedReward",
      "outputs": [
        {
          "internalType": "uint256",
          "name": "",
          "type": "uint256"
        }
      ],
      "stateMutability": "view",
      "type": "function"
    },
    {
      "inputs": [
        {
          "internalType": "contract IERC20",
          "name": "_token",
          "type": "address"
        },
        {
          "internalType": "uint256",
          "name": "amount",
          "type": "uint256"
        },
        {
          "internalType": "address",
          "name": "to",
          "type": "address"
        }
      ],
      "name": "governanceRecoverUnsupported",
      "outputs": [],
      "stateMutability": "nonpayable",
      "type": "function"
    },
    {
      "inputs": [],
      "name": "massUpdatePools",
      "outputs": [],
      "stateMutability": "nonpayable",
      "type": "function"
    },
    {
      "inputs": [],
      "name": "operator",
      "outputs": [
        {
          "internalType": "address",
          "name": "",
          "type": "address"
        }
      ],
      "stateMutability": "view",
      "type": "function"
    },
    {
      "inputs": [
        {
          "internalType": "uint256",
          "name": "_pid",
          "type": "uint256"
        },
        {
          "internalType": "address",
          "name": "_user",
          "type": "address"
        }
      ],
      "name": "pendingTetrad",
      "outputs": [
        {
          "internalType": "uint256",
          "name": "",
          "type": "uint256"
        }
      ],
      "stateMutability": "view",
      "type": "function"
    },
    {
      "inputs": [],
      "name": "poolEndTime",
      "outputs": [
        {
          "internalType": "uint256",
          "name": "",
          "type": "uint256"
        }
      ],
      "stateMutability": "view",
      "type": "function"
    },
    {
      "inputs": [
        {
          "internalType": "uint256",
          "name": "",
          "type": "uint256"
        }
      ],
      "name": "poolInfo",
      "outputs": [
        {
          "internalType": "contract IERC20",
          "name": "token",
          "type": "address"
        },
        {
          "internalType": "uint256",
          "name": "allocPoint",
          "type": "uint256"
        },
        {
          "internalType": "uint256",
          "name": "lastRewardTime",
          "type": "uint256"
        },
        {
          "internalType": "uint256",
          "name": "accTetradPerTetrad",
          "type": "uint256"
        },
        {
          "internalType": "bool",
          "name": "isStarted",
          "type": "bool"
        }
      ],
      "stateMutability": "view",
      "type": "function"
    },
    {
      "inputs": [],
      "name": "poolStartTime",
      "outputs": [
        {
          "internalType": "uint256",
          "name": "",
          "type": "uint256"
        }
      ],
      "stateMutability": "view",
      "type": "function"
    },
    {
      "inputs": [],
      "name": "runningTime",
      "outputs": [
        {
          "internalType": "uint256",
          "name": "",
          "type": "uint256"
        }
      ],
      "stateMutability": "view",
      "type": "function"
    },
    {
      "inputs": [
        {
          "internalType": "uint256",
          "name": "_pid",
          "type": "uint256"
        },
        {
          "internalType": "uint256",
          "name": "_allocPoint",
          "type": "uint256"
        }
      ],
      "name": "set",
      "outputs": [],
      "stateMutability": "nonpayable",
      "type": "function"
    },
    {
      "inputs": [
        {
          "internalType": "address",
          "name": "_operator",
          "type": "address"
        }
      ],
      "name": "setOperator",
      "outputs": [],
      "stateMutability": "nonpayable",
      "type": "function"
    },
    {
      "inputs": [],
      "name": "tetrad",
      "outputs": [
        {
          "internalType": "contract IERC20",
          "name": "",
          "type": "address"
        }
      ],
      "stateMutability": "view",
      "type": "function"
    },
    {
      "inputs": [],
      "name": "tetradPerSecond",
      "outputs": [
        {
          "internalType": "uint256",
          "name": "",
          "type": "uint256"
        }
      ],
      "stateMutability": "view",
      "type": "function"
    },
    {
      "inputs": [],
      "name": "totalAllocPoint",
      "outputs": [
        {
          "internalType": "uint256",
          "name": "",
          "type": "uint256"
        }
      ],
      "stateMutability": "view",
      "type": "function"
    },
    {
      "inputs": [
        {
          "internalType": "uint256",
          "name": "_pid",
          "type": "uint256"
        }
      ],
      "name": "updatePool",
      "outputs": [],
      "stateMutability": "nonpayable",
      "type": "function"
    },
    {
      "inputs": [
        {
          "internalType": "uint256",
          "name": "",
          "type": "uint256"
        },
        {
          "internalType": "address",
          "name": "",
          "type": "address"
        }
      ],
      "name": "userInfo",
      "outputs": [
        {
          "internalType": "uint256",
          "name": "amount",
          "type": "uint256"
        },
        {
          "internalType": "uint256",
          "name": "rewardDebt",
          "type": "uint256"
        }
      ],
      "stateMutability": "view",
      "type": "function"
    },
    {
      "inputs": [
        {
          "internalType": "uint256",
          "name": "_pid",
          "type": "uint256"
        },
        {
          "internalType": "uint256",
          "name": "_amount",
          "type": "uint256"
        }
      ],
      "name": "withdraw",
      "outputs": [],
      "stateMutability": "nonpayable",
      "type": "function"
    }
  ],
  "bytecode": "0x608060405260006004553480156200001657600080fd5b506040516200191d3803806200191d833981810160405260808110156200003c57600080fd5b508051602082015160408301516060909301519192909142831162000091576040805162461bcd60e51b815260206004808301919091526024820152634c61746560e01b604482015290519081900360640190fd5b6001600160a01b03841615620000bd57600180546001600160a01b0319166001600160a01b0386161790555b60058390556007829055620000df838362000162602090811b6200103717901c565b6006558062000135576040805162461bcd60e51b815260206004820181905260248201527f746f74616c526577617264732072657761726473206d757374206265203e2030604482015290519081900360640190fd5b60075481816200014157fe5b046008555050600080546001600160a01b0319163317905550620001c49050565b600082820183811015620001bd576040805162461bcd60e51b815260206004820152601b60248201527f536166654d6174683a206164646974696f6e206f766572666c6f770000000000604482015290519081900360640190fd5b9392505050565b61174980620001d46000396000f3fe608060405234801561001057600080fd5b506004361061012c5760003560e01c8063630b5ba1116100ad57806396805e541161007157806396805e541461032f578063971a304714610369578063b3ab15fb14610371578063e2bbb15814610397578063fc84cc68146103ba5761012c565b8063630b5ba1146102a65780636e271dd5146102ae57806389d3d168146102b657806393f1a40b146102e2578063943f013d146103275761012c565b806351eb05a6116100f457806351eb05a61461020a5780635312ea8e1461022757806354575af414610244578063570ca7351461027a5780635f96dc111461029e5761012c565b80631526fe271461013157806317caf6f1146101855780631ab06ee51461019f578063231f0c6a146101c4578063441a3e70146101e7575b600080fd5b61014e6004803603602081101561014757600080fd5b50356103c2565b604080516001600160a01b039096168652602086019490945284840192909252606084015215156080830152519081900360a00190f35b61018d61040d565b60408051918252519081900360200190f35b6101c2600480360360408110156101b557600080fd5b5080359060200135610413565b005b61018d600480360360408110156101da57600080fd5b50803590602001356104c1565b6101c2600480360360408110156101fd57600080fd5b5080359060200135610586565b6101c26004803603602081101561022057600080fd5b5035610743565b6101c26004803603602081101561023d57600080fd5b50356108a1565b6101c26004803603606081101561025a57600080fd5b506001600160a01b0381358116916020810135916040909101351661093d565b610282610a86565b604080516001600160a01b039092168252519081900360200190f35b61018d610a95565b6101c2610a9b565b61018d610abe565b61018d600480360360408110156102cc57600080fd5b50803590602001356001600160a01b0316610ac4565b61030e600480360360408110156102f857600080fd5b50803590602001356001600160a01b0316610c20565b6040805192835260208301919091528051918290030190f35b61018d610c44565b6101c26004803603608081101561034557600080fd5b508035906001600160a01b0360208201351690604081013515159060600135610c4a565b610282610e47565b6101c26004803603602081101561038757600080fd5b50356001600160a01b0316610e56565b6101c2600480360360408110156103ad57600080fd5b5080359060200135610ec1565b61018d611031565b600281815481106103cf57fe5b6000918252602090912060059091020180546001820154600283015460038401546004909401546001600160a01b0390931694509092909160ff1685565b60045481565b6000546001600160a01b0316331461045c5760405162461bcd60e51b81526004018080602001828103825260288152602001806116c26028913960400191505060405180910390fd5b610464610a9b565b60006002838154811061047357fe5b60009182526020909120600590910201600481015490915060ff16156104ba576104b6826104b0836001015460045461109890919063ffffffff16565b90611037565b6004555b6001015550565b60008183106104d257506000610580565b600654821061053a5760065483106104ec57506000610580565b600554831161051f5761051860085461051260055460065461109890919063ffffffff16565b906110f5565b9050610580565b6105186008546105128560065461109890919063ffffffff16565b600554821161054b57506000610580565b600554831161056f576105186008546105126005548561109890919063ffffffff16565b600854610518906105128486611098565b92915050565b600033905060006002848154811061059a57fe5b600091825260208083208784526003825260408085206001600160a01b03881686529092529220805460059092029092019250841115610616576040805162461bcd60e51b81526020600482015260126024820152711dda5d1a191c985dce881b9bdd0819dbdbd960721b604482015290519081900360640190fd5b61061f85610743565b600061065c8260010154610656670de0b6b3a7640000610650876003015487600001546110f590919063ffffffff16565b9061114e565b90611098565b905080156106ae5761066e84826111b5565b6040805182815290516001600160a01b038616917fe2403640ba68fed3a2f88b7557551d1993f84b99bb10ff833f0cf8db0c5e0486919081900360200190a25b84156106d85781546106c09086611098565b825582546106d8906001600160a01b0316858761126b565b600383015482546106f691670de0b6b3a764000091610650916110f5565b600183015560408051868152905187916001600160a01b038716917ff279e6a1f5e320cca91135676d9cb6e44ca8a08c0b88342bcdb1144f6511b5689181900360200190a3505050505050565b60006002828154811061075257fe5b9060005260206000209060050201905080600201544211610773575061089e565b8054604080516370a0823160e01b815230600482015290516000926001600160a01b0316916370a08231916024808301926020929190829003018186803b1580156107bd57600080fd5b505afa1580156107d1573d6000803e3d6000fd5b505050506040513d60208110156107e757600080fd5b50519050806107fd57504260029091015561089e565b600482015460ff1661082e576004808301805460ff19166001908117909155830154905461082a91611037565b6004555b600454156108955760006108468360020154426104c1565b905060006108676004546106508660010154856110f590919063ffffffff16565b905061088d6108828461065084670de0b6b3a76400006110f5565b600386015490611037565b600385015550505b50426002909101555b50565b6000600282815481106108b057fe5b600091825260208083208584526003825260408085203380875293528420805485825560018201959095556005909302018054909450919291610900916001600160a01b0391909116908361126b565b604080518281529051859133917fbb757047c2b5f3974fe26b7c10f732e7bce710b0952a71082702781e62ae05959181900360200190a350505050565b6000546001600160a01b031633146109865760405162461bcd60e51b81526004018080602001828103825260288152602001806116c26028913960400191505060405180910390fd5b6006546276a70001421015610a6d576001546001600160a01b03848116911614156109e1576040805162461bcd60e51b815260206004820152600660248201526510ba37b5b2b760d11b604482015290519081900360640190fd5b60025460005b81811015610a6a576000600282815481106109fe57fe5b6000918252602090912060059091020180549091506001600160a01b0387811691161415610a61576040805162461bcd60e51b815260206004820152600b60248201526a10b837b7b6173a37b5b2b760a91b604482015290519081900360640190fd5b506001016109e7565b50505b610a816001600160a01b038416828461126b565b505050565b6000546001600160a01b031681565b60055481565b60025460005b81811015610aba57610ab281610743565b600101610aa1565b5050565b60065481565b60008060028481548110610ad457fe5b60009182526020808320878452600380835260408086206001600160a01b03808b168852908552818720600590960290930191820154825482516370a0823160e01b815230600482015292519398509596909590949316926370a0823192602480840193829003018186803b158015610b4c57600080fd5b505afa158015610b60573d6000803e3d6000fd5b505050506040513d6020811015610b7657600080fd5b5051600285015490915042118015610b8d57508015155b15610bea576000610ba28560020154426104c1565b90506000610bc36004546106508860010154856110f590919063ffffffff16565b9050610be5610bde8461065084670de0b6b3a76400006110f5565b8590611037565b935050505b610c158360010154610656670de0b6b3a76400006106508688600001546110f590919063ffffffff16565b979650505050505050565b60036020908152600092835260408084209091529082529020805460019091015482565b60075481565b6000546001600160a01b03163314610c935760405162461bcd60e51b81526004018080602001828103825260288152602001806116c26028913960400191505060405180910390fd5b610c9c836112bd565b8115610caa57610caa610a9b565b600554421015610cd65780610cc25750600554610cd1565b600554811015610cd157506005545b610cea565b801580610ce257504281105b15610cea5750425b600060055482111580610cfd5750428211155b6040805160a0810182526001600160a01b03878116825260208201898152928201868152600060608401818152861580156080870190815260028054600181018255945295517f405787fa12a823e0f2b7631cc41b3ba8828b3321ca811111fa75cd3aa3bb5ace600590940293840180546001600160a01b031916919096161790945594517f405787fa12a823e0f2b7631cc41b3ba8828b3321ca811111fa75cd3aa3bb5acf82015590517f405787fa12a823e0f2b7631cc41b3ba8828b3321ca811111fa75cd3aa3bb5ad082015592517f405787fa12a823e0f2b7631cc41b3ba8828b3321ca811111fa75cd3aa3bb5ad184015590517f405787fa12a823e0f2b7631cc41b3ba8828b3321ca811111fa75cd3aa3bb5ad2909201805460ff191692151592909217909155909150610e4057600454610e3c9086611037565b6004555b5050505050565b6001546001600160a01b031681565b6000546001600160a01b03163314610e9f5760405162461bcd60e51b81526004018080602001828103825260288152602001806116c26028913960400191505060405180910390fd5b600080546001600160a01b0319166001600160a01b0392909216919091179055565b6000339050600060028481548110610ed557fe5b600091825260208083208784526003825260408085206001600160a01b0388168652909252922060059091029091019150610f0f85610743565b805415610f9b576000610f478260010154610656670de0b6b3a7640000610650876003015487600001546110f590919063ffffffff16565b90508015610f9957610f5984826111b5565b6040805182815290516001600160a01b038616917fe2403640ba68fed3a2f88b7557551d1993f84b99bb10ff833f0cf8db0c5e0486919081900360200190a25b505b8315610fc7578154610fb8906001600160a01b0316843087611357565b8054610fc49085611037565b81555b60038201548154610fe591670de0b6b3a764000091610650916110f5565b600182015560408051858152905186916001600160a01b038616917f90890809c654f11d6e72a28fa60149770a0d11ec6c92319d6ceb2bb0a4ea1a159181900360200190a35050505050565b60085481565b600082820183811015611091576040805162461bcd60e51b815260206004820152601b60248201527f536166654d6174683a206164646974696f6e206f766572666c6f770000000000604482015290519081900360640190fd5b9392505050565b6000828211156110ef576040805162461bcd60e51b815260206004820152601e60248201527f536166654d6174683a207375627472616374696f6e206f766572666c6f770000604482015290519081900360640190fd5b50900390565b60008261110457506000610580565b8282028284828161111157fe5b04146110915760405162461bcd60e51b81526004018080602001828103825260218152602001806116a16021913960400191505060405180910390fd5b60008082116111a4576040805162461bcd60e51b815260206004820152601a60248201527f536166654d6174683a206469766973696f6e206279207a65726f000000000000604482015290519081900360640190fd5b8183816111ad57fe5b049392505050565b600154604080516370a0823160e01b815230600482015290516000926001600160a01b0316916370a08231916024808301926020929190829003018186803b15801561120057600080fd5b505afa158015611214573d6000803e3d6000fd5b505050506040513d602081101561122a57600080fd5b505190508015610a81578082111561125857600154611253906001600160a01b0316848361126b565b610a81565b600154610a81906001600160a01b031684845b604080516001600160a01b038416602482015260448082018490528251808303909101815260649091019091526020810180516001600160e01b031663a9059cbb60e01b179052610a819084906113b7565b60025460005b81811015610a8157826001600160a01b0316600282815481106112e257fe5b60009182526020909120600590910201546001600160a01b0316141561134f576040805162461bcd60e51b815260206004820152601f60248201527f746574726164526577617264506f6f6c3a204578697374696e6720706f6f6c00604482015290519081900360640190fd5b6001016112c3565b604080516001600160a01b0380861660248301528416604482015260648082018490528251808303909101815260849091019091526020810180516001600160e01b03166323b872dd60e01b1790526113b19085906113b7565b50505050565b606061140c826040518060400160405280602081526020017f5361666545524332303a206c6f772d6c6576656c2063616c6c206661696c6564815250856001600160a01b03166114689092919063ffffffff16565b805190915015610a815780806020019051602081101561142b57600080fd5b5051610a815760405162461bcd60e51b815260040180806020018281038252602a8152602001806116ea602a913960400191505060405180910390fd5b6060611477848460008561147f565b949350505050565b6060824710156114c05760405162461bcd60e51b815260040180806020018281038252602681526020018061167b6026913960400191505060405180910390fd5b6114c9856115d0565b61151a576040805162461bcd60e51b815260206004820152601d60248201527f416464726573733a2063616c6c20746f206e6f6e2d636f6e7472616374000000604482015290519081900360640190fd5b60006060866001600160a01b031685876040518082805190602001908083835b602083106115595780518252601f19909201916020918201910161153a565b6001836020036101000a03801982511681845116808217855250505050505090500191505060006040518083038185875af1925050503d80600081146115bb576040519150601f19603f3d011682016040523d82523d6000602084013e6115c0565b606091505b5091509150610c158282866115d6565b3b151590565b606083156115e5575081611091565b8251156115f55782518084602001fd5b8160405162461bcd60e51b81526004018080602001828103825283818151815260200191508051906020019080838360005b8381101561163f578181015183820152602001611627565b50505050905090810190601f16801561166c5780820380516001836020036101000a031916815260200191505b509250505060405180910390fdfe416464726573733a20696e73756666696369656e742062616c616e636520666f722063616c6c536166654d6174683a206d756c7469706c69636174696f6e206f766572666c6f77746574726164526577617264506f6f6c3a2043616c6c6572206973206e6f74206f70657261746f725361666545524332303a204552433230206f7065726174696f6e20646964206e6f742073756363656564a264697066735822122023372e9161fba212b1ab9cc9f7400effc9983297307581f76a561b61b194d02c64736f6c634300060c0033",
  "linkReferences": {},
  "deployedLinkReferences": {}
}